:03020000020208EF
:0302610002020393
:05020300121F3A80FE0D
:03000000020200F9
:0100030032CA
:01000B0032C2
:0100130032BA
:01001B0032B2
:0100230032AA
:01002B0032A2
:01003300329A
:01003B003292
:01004300328A
:01004B003282
:01005300327A
:01005B003272
:01006300326A
:0101000032CC
:0101040032C8
:0101080032C4
:01010C0032C0
:0101100032BC
:0101140032B8
:0101180032B4
:0101200032AC
:0101240032A8
:0101280032A4
:01012C0032A0
:01013000329C
:010134003298
:010138003294
:01013C003290
:01014000328C
:010148003284
:01014C003280
:01015000327C
:010154003278
:010158003274
:01015C003270
:01016000326C
:01017000325C
:010174003258
:010178003254
:01017C003250
:01018000324C
:010184003248
:010188003244
:01018C003240
:01019000323C
:010194003238
:010198003234
:01019C003230
:0101A000322C
:0101A8003224
:0101AC003220
:0101B000321C
:0101B4003218
:0101B8003214
:010264002277
:08026500AA82AB837C007D003E
:0B026D00C3EC9AED9B50147EB07F04A0
:050278001EBEFF011F86
:0B027D00EE4F70F70CBC00E80D80E5B0
:010288002253
:08028900AA82AB837C007D001A
:0B029100C3EC9AED9B50147E0A7F0026
:05029C001EBEFF011F62
:0B02A100EE4F70F70CBC00E80D80E58C
:0102AC00222F
:0E02AD0075AF0790E67BE090E67CF0DAF32276
:0102BB002220
:0202BC007A00C6
:0302BE00BAFF0084
:0D02C100500B90E678E0FB20E0030A80F08F
:0C02CE0090E678E0FA20E204EA20E10B60
:0B02DA0090E678E04440F075820122BD
:0402E50075820022FC
:0202E9007A0099
:0302EB00BAFF0057
:0D02EE00500B90E678E0FB20E0030A80F062
:0E02FB0090E678E0FA30E20B90E678E04440BE
:05030900F075820122E5
:04030E0075820022D2
:020312007A006F
:03031400BAFF002D
:0E031700500F90E678E0FB20E2047582002291
:030325000A80EC5F
:0403280075820122B7
:02032C007A0055
:03032E00BAFF0013
:0E033100500F90E678E0FB20E6047582002273
:03033F000A80EC45
:04034200758201229D
:09034600AA82C3E49508E433FB2C
:0E034F0090E678E04480F0C002C00312031272
:0E035D00D003D00290E679EAF0C002C003128D
:0C036B0002BCE582D003D0027012E5094C
:0C037700600A90E678E04440F012032C8D
:04038300758200225D
:0E038700EB601090000AC002C003120289D081
:0503950003D00280B559
:0C039A00E509600890E678E0FA4440F0C5
:0403A6007582012239
:0C03AA00AA82AB837C00E50C7003F58296
:0103B6002224
:0A03B7007508647509007582A2C084
:0E03C10002C003C004120346E582D004D0033C
:0703CF00D00260030204B03C
:0C03D60090E679E50BF0C002C003C00403
:0E03E2001202BCE582D004D003D002600302F8
:0203F00004B057
:0C03F20090E679E50AF0C002C003C004E8
:0E03FE001202BCE582D004D003D002600302DC
:02040C0004B03A
:0E040E0090E678E04440F0C002C003C0041243
:0D041C00032C90E678E04480F0120312906B
:0E042900E67974A3F01202BCE582D004D00381
:0E043700D002707590E679E08A828B83F0C067
:0E04450002C003C0041202E9E582D004D00315
:05045300D0027059FD0C
:0C045800C3ED950C502A90E679E08A82F2
:0E0464008B83F0A3AA82AB83C002C003C00446
:0E047200C0051202E9E582D005D004D003D007
:0804800002702D0D8D0480D0E7
:0E04880090E678E04420F090E679E0C004129F
:0E04960002E9E582D004701290E678E044405E
:0C04A400F090E679E0C00412032CD004B4
:0304B0008C822219
:0C04B300AA82AB837C00E50F7003F58289
:0104BF00221A
:0A04C0007508647509007582A2C07A
:0E04CA0002C003C004120346E582D004D00332
:0704D800D002600302057071
:0C04DF0090E679E50EF0C002C003C004F6
:0E04EB001202BCE582D004D003D002600302EE
:0204F90005708C
:0C04FB0090E679E50DF0C002C003C004DB
:0E0507001202BCE582D004D003D002705CFD6D
:0C051500C3ED950F50478A828B83E0FEF7
:0E052100A3AA82AB8390E679EEF0903A04E054
:0D052F00FFEE2FF0903A02E0FEA3E0FF90F7
:0E053C003A0274012EF0E43FA3F0C002C003A7
:0E054A00C004C0051202BCE582D005D004D06A
:0A05580003D00270130D8D0480B370
:0E05620090E678E04440F0C00412032CD00470
:030570008C822258
:0A057300903A2AE0FA903A00E0F511
:06057D000AA3E0F50B8A61
:0C0583000C90E740C0021203AAAB82D02B
:0E058F00027C00903A00E0FDA3E0FE903A00EE
:0A059D00EA2DF0EC3EA3F08B822261
:0B05A700AA82903A00E0F50DA3E0F5F9
:0905B2000E8A0F90E740C002120E
:0E05BB0004B3D0027B00903A00E0FCA3E0FD08
:0B05C900903A00EA2CF0EB3DA3F0227A
:0205D400AA82F9
:0805D600D2A600C2A6DAF92248
:0E05DE00A2B0D2A633C2A6A2B0D2A633C2A645
:0E05EC00A2B0D2A633C2A6A2B0D2A633C2A637
:0E05FA00A2B0D2A633C2A6A2B0D2A633C2A629
:0E060800A2B0D2A633C2A6A2B0D2A633C2A61A
:07061600F58222758200222B
:02061D00AA1120
:0E061F00A2B0D2A633C2A6A2B0D2A633C2A603
:0E062D00A2B0D2A633C2A6A2B0D2A633C2A6F5
:0E063B00A2B0D2A633C2A6A2B0D2A633C2A6E7
:0E064900A2B0D2A633C2A6A2B0D2A633C2A6D9
:05065700F0A3DAC4224B
:0E065C00E5823392A7D2A633C2A692A7D2A6F9
:0E066A0033C2A692A7D2A633C2A692A7D2A6EA
:0E06780033C2A692A7D2A633C2A692A7D2A6DC
:0E06860033C2A692A7D2A633C2A692A7D2A6CE
:0406940000C2A622D8
:02069800AA11A5
:0E069A00E03392A7D2A633C2A692A7D2A6330F
:0E06A800C2A692A7D2A633C2A692A7D2A633AC
:0E06B600C2A692A7D2A633C2A692A7D2A6339E
:0E06C400C2A692A7D2A633C2A692A7D2A6A320
:0506D200C2A6DAC422FB
:0D06D700903A0C7403F043A0807A007B0081
:0E06E400C002C0031205DEAC82D003D002BCFF
:0406F200FF02802063
:0E06F6008A048B057E007F00C3EC94FFED9418
:0E070400FFEE9400EF6480948050070ABA0064
:04071200D10B80CEB9
:0E071600E5B030E009903A0CE4F07582002264
:0407240075820122B7
:0D07280043A0207582081205D453A0DF0203
:0207350006D7E5
:0E07370043A0807582081205D443A02075826D
:04074500080205D4CD
:0507490043A0807A5579
:0A074E001205DEE58230E702DAF65C
:0B075800903A0EF0F58222758200221C
:0707630043A0807A007B0037
:0E076A00C002C0031205DEAC82D003D002BC78
:04077800FE02800DF0
:05077C000ABA00010BA8
:08078100EA4B70E575820122CC
:040789007582002253
:0E078D00AA82AB83ACF0FDE5A020E5047582E6
:02079B00042236
:0E079D00C002C003C004C005120728E582D0C8
:0E07AB0005D004D003D0026007120737758214
:0207B900032219
:0E07BB00758208C002C003C004C0051205D438
:0E07C900D005D004D003D002903A0D7412F087
:0E07D700903A107452F0903A0FE0FE7028EA4B
:0E07E5002AFAEB33FBEC33FCED33FD8C06906F
:0E07F3003A11EEF08B06903A12EEF08A069064
:0B0801003A13EEF0903A14E4F0801A75
:0E080C008D06903A11EEF08C06903A12EEF046
:0C081A008B06903A13EEF0903A14EAF0CE
:0A082600903A157401F07511069068
:060830003A1012069812B6
:0A0836000749903A0EE0FA6007123D
:060840000737758201225A
:0E084600120763E582600712073775820222EF
:040854007582002287
:0E0858007582101205D4120763E58260071244
:0608660007377582022233
:04086C00758200226F
:04087000AA82AB832A
:0E087400C374209AE49B5018758200C002C025
:0E088200031205D4D003D002EA24E0FAEB34CE
:04089000FFFB80E00A
:0E089400EA4B600AEAC40354F8F5821205D458
:0D08A2007582101205D47582081205D490DD
:0C08AF003A0D740CF0903A10744CF0906C
:0908BB003A11E4F0903A12F090B9
:0808C4003A13F0903A14F09091
:0908CC003A157401F07511069053
:0608D5003A101206981211
:0908DB0007497582081205D402D8
:0208E4000737D4
:0E08E600AA82AB83ACF0FDE5A020E50475828C
:0208F4000422DC
:0E08F600C002C003C004C005120728E582D06E
:0E09040005D004D003D00260071207377582B9
:020912000322BE
:0E091400758208C002C003C004C0051205D4DD
:0E092200D005D004D003D002903A0D7419F025
:0E093000903A107459F0903A0FE0FE7028EAE9
:0E093E002AFAEB33FBEC33FCED33FD8C069014
:0E094C003A11EEF08B06903A12EEF08A069009
:0B095A003A13EEF0903A14E4F0801A1B
:0E0965008D06903A11EEF08C06903A12EEF0EC
:0C0973008B06903A13EEF0903A14EAF074
:0A097F00903A157401F0751106900E
:060989003A10120698125C
:0A098F000749903A0EE0FA600712E3
:0609990007377582012200
:0D099F0043A0807582081205D47582FC12F9
:0609AC00065C75820022CA
:0709B200AA82AB8353A07F72
:0E09B900C374209AE49B5018758200C002C0DF
:0E09C700031205D4D003D002EA24E0FAEB3488
:0409D500FFFB80E0C4
:0E09D900EA4B600AEAC40354F8F5821205D412
:0E09E70043A0807582101205D41205DEE58251
:0809F500540FFABA0502804814
:0D09FD00903A0C7406F07582081205D49033
:0C0A0A003A0D740CF0903A10744CF0900F
:090A16003A11E4F0903A12F0905C
:080A1F003A13F0903A14F09034
:090A27003A157401F075110690F6
:060A30003A1012069812B4
:090A360007497582081205D4126B
:060A3F0007377582062254
:040A45007582002294
:0D0A49001206D77582FD12065C7582081238
:050A560005D402073782
:090A5B001206D77582FC02065C4C
:0E0A6400903A057401F0903A06E4F0A3740293
:0E0A7200F0903A0FE4F043B4E053B5FE43A019
:0E0A80008043A0207582001205D41207289032
:0C0A8E003A0C7403F07582081205D49035
:0B0A9A003A0DE4F0903A107440F09028
:090AA5003A11E4F0903A12F090CD
:080AAE003A13F0903A14F090A5
:090AB6003A157495F075110690D3
:060ABF003A101206981225
:0E0AC5000749903A0EE0FA7B0054FE7003EBF6
:020AD300604B76
:0D0AD5009000321202657582081205D4905F
:0B0AE2003A0DE4F0903A107440F090E0
:090AED003A11E4F0903A12F09085
:080AF6003A13F0903A14F0905D
:090AFE003A157495F0751106908B
:060B07003A1012069812DC
:0E0B0D000749903A0EE0FA7B0054FE7003EBAD
:020B1B00600375
:030B1D00020F0ABA
:0D0B20007582081205D4903A0D7408F0900B
:0B0B2D003A107448F0903A11E4F09088
:0A0B38003A12F0903A137401F090A5
:0C0B42003A1474AAF0903A157487F0750C
:060B4E001106903A10129E
:060B54000698120749900B
:0D0B5A003A0EE0FA20E235EA54FE60030294
:020B67000F0A73
:070B6900751104903A10120F
:0E0B7000061D903A12E0FA53020FBA010A90E5
:090B7E003A13E0FABAAA02800958
:090B8700903A0C7407F0020F1003
:060B9000903A0F7401F021
:090B9600903A0FE0FA600274408D
:0E0B9F00FA758208C0021205D4903A0D743720
:0D0BAD00F0903A107477F0903A11E4F09057
:080BBA003A12F0903A13F0909A
:0A0BC2003A14F0903A157401F07532
:060BCC001106903A101220
:080BD2000698120749D00290B9
:0E0BDA003A0EE0FB54FE703E758208C0021217
:0B0BE80005D4D002903A0D7429F09063
:0B0BF3003A107469F0903A11EAF0909B
:090BFE003A12E4F0903A13F09071
:0A0C07003A14F0903A157401F075EC
:080C11001106903A10C0021216
:070C19000698120749D00202
:0A0C2000903A0EE0FB5303FE7C0047
:0B0C2A00903A0EE0FDBD0003020D2A11
:030C3500BCFF0001
:050C38004003020D2A3B
:0E0C3D00900004C002C003C004120265D0047F
:0E0C4B00D003D002EB6051758208C002C003D6
:0E0C5900C0041205D4D004D003D002903A0D8E
:0E0C67007401F0903A107441F0903A11EAF0E6
:0A0C7500903A12E4F0903A13F09068
:0A0C7F003A14F0903A1574FFF07576
:0C0C89001106903A10C002C003C0041213
:0C0C95000698120749D004D003D00202D8
:020CA1000D261E
:0D0CA300758208C002C003C0041205D49081
:0C0CB0003A0D7437F0903A107477F09011
:090CBC003A11E4F0903A12F090B4
:080CC5003A13F0903A14F0908C
:090CCD003A157401F0751106904E
:060CD6003A10120698120C
:0E0CDC0007497582081205D4D004D003D00257
:0D0CEA00903A0D7429F0903A107469F09062
:0A0CF7003A11EAF0903A12E4F0908E
:080D01003A13F0903A14F0904F
:090D09003A157401F07511069011
:0C0D12003A10C002C003C0041206981280
:080D1E000749D004D003D00204
:040D26000C020C2A85
:0A0D2A00903A0EE0FA6003020F0A8F
:0E0D3400903A0FE0FA60557582081205D490CF
:0C0D42003A0D743AF0903A10747AF09078
:090D4E003A11E4F0903A12F09021
:080D57003A13F0903A14F090F9
:090D5F003A157401F075110690BB
:060D68003A101206981279
:0A0D6E000749903A0EE0FA60030214
:020D78000F0A60
:070D7A00751104903A1012FC
:0B0D8100061D903A10E0FA20E60590F5
:040D8C003A0FE4F046
:0D0D90007582081205D4903A0D7409F09098
:0B0D9D003A107449F0903A11E4F09015
:080DA8003A12F0903A13F090AA
:0A0DB0003A14F0903A157401F07542
:060DBA001106903A101230
:060DC0000698120749121B
:0D0DC6000763E5826009903A0C7402F002A8
:020DD3000F10FF
:070DD500751110903A101295
:090DDC00061D7582101205D49069
:0E0DE5003A10E0FA5302C0903A10EAF0EA54D5
:060DF300C06003020E7B4C
:0E0DF900903A15E0FA53020F903A1AE0235494
:0E0E070001FB903A19E0540325E04B2A24F930
:0E0E1500FA903A18E023235403FB903A17E0BA
:0E0E2300FCE4CC25E0CC33CC25E0CC33FD7EC6
:0E0E310000EB4204EE4205903A16E05403FB3B
:0E0E3F002B25E0FEE4FB4204EE42050CBC0055
:020E4D00010D95
:0C0E4F00ED3395E0FBFE8AF005F0800C0E
:0C0E5B00EC2CFCED33FDEB33FBEE33FE22
:0E0E6700D5F0F1903A08ECF0A3EDF0A3EBF01B
:060E7500A3EEF0020F02E3
:0E0E7B00903A10E0FA5302C0BA4074903A1751
:0E0E8900E0FA53023F7B008B058A047B007A5F
:0E0E970000903A18E0FF7E003395E0F8F9EE87
:0E0EA5004202EF4203E84204E94205903A1986
:0E0EB300E0FEE4FFF8F9EE4202EF4203E842EF
:0E0EC10004E942050ABA00090BBB00050CBC8F
:030ECF0000010D12
:0E0ED200EB2BCC33CC25E0CC33FDEA2A25E017
:0E0EE000FBEA232354034CFC7A00903A08EA04
:0C0EEE00F0A3EBF0A3ECF0A3EDF0800803
:080EFA00903A0C7407F0800E21
:080F0200903A0CE4F0020737FD
:060F0A00903A0C7401F0A6
:080F1000903A05E4F0020737F6
:0D0F1800903A20E0FA6050903A20E4F01288
:0E0F25000763E5826044903A0C7402F0758216
:0B0F3300081205D4903A0D740CF090E9
:0B0F3E003A10744CF0903A11E4F0906F
:080F49003A12F0903A13F09007
:0A0F51003A14F0903A157401F0759F
:060F5B001106903A10128D
:090F610006981207497582081276
:050F6A0005D402073769
:0A0F6F00903A2AE0F51190E74012D5
:0E0F7900061D903A28E0FAA3E0FB4A7044758A
:0C0F870082101205D47582081205D49067
:0C0F93003A0D740CF0903A10744CF09081
:090F9F003A11E4F0903A12F090CE
:080FA8003A13F0903A14F090A6
:090FB0003A157401F07511069068
:060FB9003A101206981226
:090FBF0007497582081205D402ED
:020FC8000737E9
:070FCA00EA7004EB30E001C6
:010FD10022FD
:0D0FD2007582101205D4903A207401F022AF
:0D0FDF00903A20E0FA600E903A20E4F01203
:080FEC0006D77582FC12065CB9
:0A0FF400903A2AE0F51190E7401250
:0E0FFE000698903A28E0FAA3E0FBEA7004EBB4
:03100C0030E001D0
:01100F0022BE
:0E10100043A0807582101205D41205DEE58221
:08101E00540FFABA05028044E8
:0D102600903A0C7406F07582081205D49003
:0C1033003A0D740CF0903A10744CF090E0
:09103F003A11E4F0903A12F0902D
:081048003A13F0903A14F09005
:091050003A157401F075110690C7
:061059003A101206981285
:09105F0007497582081205D4123C
:02106800073748
:0E106A00903A28E0FAA3E0FB4A6007903A2093
:041078007401F022ED
:0D107C001206D77582FD12065C75820812FF
:0510890005D402073749
:0D108E00AA8290E6017480F000000000903E
:0E109B00E670E4F090E671F075B2FA74804AE7
:0E10A900F58090000AC002120265D00253B416
:0A10B700F774024AF5807A007B000E
:0E10C1002080208A048B057E007F00C3EC9403
:0E10CF00FFED94FFEE9400EF648094805007D4
:0710DD000ABA00E00B80DD00
:0710E4003080047AC880028D
:0210EB007A6425
:0E10ED00903A26EAF0903A22E4F0A3F0A3F045
:0810FB00A3F0903A21E4F02279
:0611030075822002108E2F
:0611090075826002108EE9
:03110F00021103C7
:0111120022BA
:071113003080047A14800211
:02111A007A0A4F
:0A111C00903A26E0FBEA2BF07A007F
:03112600BA4000CC
:091129005007D283C2830A80F44E
:0E113200D287D283C283D283C283D283C28388
:0E114000D283C28353B2053080047A0280024B
:02114E007A0124
:0E115000903A26E0FBEA2BF0308105D28112A6
:02115E0011126C
:06116000D28143B202221D
:0C11660085B51075B5FF903A2AE0FB90AB
:0E1172003A22E0FCA3E0FDA3E0FEA3E0FF783C
:0E1180000079007A00903A22EB2CF0E83DA3B3
:0E118E00F0E93EA3F0EA3FA3F090E68BE060AC
:0E119C0022FA759B40759AE775AF07903A21CD
:0511AA00E0F990E67B76
:0E11AF00E0F5B0D28329F9C283DAF5903A2137
:0211BD00E9F057
:0B11BF008510B590E68BE0FABA400006
:0511CA005003021113A7
:0111CF0022FD
:01006C00286B
:01006D000191
:04006E005A54455843
:040072000A0C000074
:010076000089
:010077000187
:060078000700000000007B
:0C007E0000000000000000000000000076
:0A008A00303030303030303030308C
:0111D00022FC
:0E11D10090E683E4F07420F07410F07430F0B7
:0E11DF0090E6837401F07421F07411F0743105
:0211ED00F022EE
:0A11EF00AA82E51224E050037512F5
:0111F9001FD6
:0D11FA0090E6BFE0701090E6BEE0FBC395EC
:0912070012500690E6BEE0F5125B
:0C12100075AF078A9B85119A759E417589
:0A121C009DE790E67C7403F07A0071
:0C122600C3EA9512501190E67BE0FB90AB
:0B123200E67CF090E67CE4F00A80E926
:0B123D00E5120425E0FA90E740F09075
:0E124800E7417403F090E68AE4F090E68BEA4A
:02125600F02284
:0E125800903A28E0FAA3E0FBC374409AE49BAE
:0812660050067C407D0080046D
:04126E008A048B055E
:0E127200903A2AECF07D00903A28EAC39CF0F6
:05128000EB9DA3F0222C
:0B128500903A2BE0FABA310302139EEE
:04129000BA3201224B
:05129400BA39028008D8
:05129900BA42028027AB
:03129E000213A197
:0E12A100903A04E4F0903A02F0A3F090E6BB1D
:0E12AF00E0FB7A0090E6BAE0FC7D00903A0089
:0812BD00EC4AF0ED4BA3F02216
:0E12C500E5A020E515903A0C7404F090E6A028
:0C12D300E04401F0903A28E4F0A3F0227F
:0E12DF00120728E582601212073790E6A0E0A1
:0B12ED004401F0903A28E4F0A3F02246
:0D12F8007582081205D4903A0D7419F0901B
:0D1305003A107459F0903A0FE0FA600302BC
:0213120013378F
:0E131400C390E6BAE0903A1333F090E6BBE0E7
:0E132200903A1233F090E6BCE0903A1133F0AE
:07133000903A14E4F0802163
:0D13370090E6BDE0903A11F090E6BCE09029
:0E1344003A12F090E6BBE0903A13F090E6BA51
:06135200E0FA903A14F0ED
:0A135800903A157401F0751106902B
:061362003A101206981279
:0A1368000749903A0EE0FA60189071
:0E1372003A0C7401F012073790E6A0E0440137
:09138000F0903A28E4F0A3F022F9
:0D13890043A0807582081205D47582FC1205
:08139600065C903A20E4F0220D
:03139E0002110F2A
:0813A10090E6A0E04401F022F7
:0C13A900C020C0E0C0F0C082C083C002C1
:0E13B500C003C004C005C006C007C000C001D0
:0E13C300C0D075D00090E6B9E0FA903A2BF059
:0E13D10090E6B57401F090E6B9E0FA24F3500E
:0413DF000302175F8F
:0713E300EA2A2A9013EA73C5
:0713EA000214110214C502F8
:0613F100175F0215420225
:0613F700175F02175F0200
:0613FD0015DA0216F502EC
:0614030016F702170802B3
:06140900170D02171E0280
:02140F001723A1
:0A14110090E6B8E0FABA8002800D00
:05141B00BA8102801EF1
:05142000BA8202802FDA
:0314250002175F4C
:0E14280090E740E4F090E741F090E68AF09003
:08143600E68B7402F002175F5F
:0E143E0090E740E4F090E741F090E68AF090ED
:08144C00E68B7402F002175F49
:0C14540090E6BCE0FA600FBA01028019BB
:05146000BA80028005C6
:05146500BA812F801E7A
:0E146A0090E6A0E0FA53020190E740EAF0801D
:011478003A39
:0E14790090E6A1E0FA53020190E740EAF0800D
:011487002B39
:0E14880090E6A2E0FA53020190E740EAF080FD
:011496001C39
:0E14970090E6BCE0C31314540324A3F582E4D2
:0E14A50034E6F583E0FA53020190E740EAF0E6
:0E14B30090E741E4F090E68AF090E68B740238
:0414C100F002175FBF
:0A14C50090E6B8E0FABA02028003D4
:0314CF0002175FA2
:0914D20090E6BAE0600302175F26
:0C14DB0090E6BCE0FA600FBA0102801538
:0514E700BA800280053F
:0514EC00BA8123801607
:0B14F10090E6A0E0FA54FEF002175F46
:0B14FC0090E6A1E0FA54FEF002175F3A
:0B15070090E6A2E0FA54FEF002175F2D
:0E15120090E6BCE0C31314540324A3FAE4349F
:0E152000E6FB90E6BCE0C31314540324A3F5CD
:0E152E0082E434E6F583E0FC5304FE8A828BEF
:06153C0083ECF002175FD2
:0A15420090E6B8E0FABA0202800356
:03154C0002175F24
:09154F0090E6BAE0600302175FA8
:0C15580090E6BCE0FA600FBA01028014BB
:05156400BA80028005C1
:05156900BA812080148E
:0A156E0090E6A0E0FA4401F080418D
:0A15780090E6A1E0FA4401F080378C
:0A15820090E6A2E0FA4401F0802D8B
:0E158C0090E6BCE0C31314540324A3FAE43425
:0E159A00E6FB90E6BCE0C31314540324A3F553
:0E15A80082E434E6F583E0FC4304FE8A828B85
:0315B60083ECF0D3
:0E15B90090E6BCE05480C423541FFA90E6BCB8
:0E15C700E0FB740F5B420290E683EAF07420B2
:0515D5004AF002175F5F
:0A15DA0090E6BBE0FABA01028019A6
:0515E400BA020280269E
:0515E900BA0302804D71
:0615EE00BA06030216AE6E
:0615F400BA07030216C055
:0315FA000216EBEB
:0A15FD007A687B1F90E6B3EBF090D4
:08160700E6B47468F002175FFD
:0B160F0090E680E0FA30E7127A847B5E
:0A161A001F90E6B3EBF090E6B47405
:0516240084F002175FD5
:0A1629007AA67B1F90E6B3EBF09069
:08163300E6B474A6F002175F93
:0A163B0090E6BAE0FABA0102800F4F
:05164500BA0202801C46
:05164A00BA0302802933
:05164F00BA044A8036D8
:061654007582437A437B1E
:04165A001F8B11755C
:06165E0012051211EF025B
:02166400175F0E
:061666007582487A487B02
:04166C001F8B11754A
:0616700012181211EF0236
:02167600175FFC
:0A16780075828A7A8A7B008B117557
:06168200120A1211EF0232
:02168800175FEA
:06168A007582607A607BAE
:041690001F8B117526
:0616940012081211EF0222
:02169A00175FD8
:0A169C007AC87B1F90E6B3EBF090D4
:0816A600E6B474C8F002175FFE
:0A16AE007A7A7B1F90E6B3EBF09010
:0816B800E6B4747AF002175F3A
:0B16C00090E680E0FA30E7127AA67B8B
:0A16CB001F90E6B3EBF090E6B47454
:0516D500A6F002175F02
:0A16DA007A847B1F90E6B3EBF090DA
:0716E400E6B47484F0807489
:0A16EB0090E6A0E0FA4401F0806AE6
:0216F50080680B
:0E16F70090E740E4F090E68AF090E68B7401F4
:03170500F080571A
:051708001211D1805216
:0E170D0090E740E4F090E68AF090E68B7401DD
:03171B00F080411A
:05171E001211D1803C16
:0E17230090E6B8E0FABA823490E6BCE0C31358
:0B17310014540325E0242DF582E4345D
:0C173C003AF583E4F0A3F090E685E0901D
:0D174800E740F090E684E0FA90E741F09071
:0A175500E68AE4F090E68B7402F0DF
:0B175F0090E6B8E0FABA4003021A3E20
:05176A00BAC00280037B
:03176F00021A68F3
:0E17720090E6BFE0FB7A0090E6BEE0FC7D0052
:0E178000903A28EC4AF0ED4BA3F0121258906C
:09178E00E6B9E0FABA2202802556
:06179700BA30030219EB59
:05179D00BA380280379C
:0517A200BA3A02805B71
:0617A700BA4003021841E4
:0617AD00BA4103021867B7
:0617B300BA4303021967AE
:0317B900021A34DD
:0E17BC0090E6B5E4F090E68AF090E68B742893
:0D17CA00F090E6B3E4F090E6B4746CF00229
:0217D7001A688E
:0E17D90090E6BBE0FB7A0090E6BAE0FC7D00F3
:0E17E700903A00EC4AF0ED4BA3F090E68AE455
:0D17F500F0120573E58290E68BF0021A6891
:0E180200903A02E0FAA3E0FB8A0490E740EC83
:0D181000F08B0290E741EAF0903A04E0907E
:0A181D00E742F07508007509017537
:0D18270082A2120346AA8290E743EAF090E5
:0D183400E68AE4F090E68B7404F0021A6876
:06184100759B057A057B92
:0C1847003A8B9A759E40759DE7C0027AAE
:0E185300081202ADD00290E68AE4F090E68B17
:061861007408F0021A6891
:0E186700E5A020E518903A0C7404F090E6A07D
:0D187500E0FA4401F0903A28E4F0A3F002FC
:021882001A68E2
:0E188400120728E582601512073790E6A0E0F3
:0E189200FA4401F0903A28E4F0A3F0021A683C
:0D18A0007582081205D4903A0D7412F09074
:0D18AD003A107452F0903A0FE0FA60030216
:0218BA0018DF35
:0E18BC00C390E6BAE0903A1333F090E6BBE03A
:0E18CA00903A1233F090E6BCE0903A1133F001
:0718D800903A14E4F08021B6
:0D18DF0090E6BDE0903A11F090E6BCE0907C
:0E18EC003A12F090E6BBE0903A13F090E6BAA4
:0618FA00E0FA903A14F040
:0A190000903A157401F0751106907D
:06190A003A1012069812CB
:0A1910000749903A0EE0FA601B90C0
:0E191A003A0C7401F012073790E6A0E0FA4490
:0C19280001F0903A28E4F0A3F0021A68E5
:0A193400903A207401F0120F189091
:0E193E003A0CE0FA601290E6A0E0FA4401F0E4
:0A194C00903A28E4F0A3F0021A68B4
:0E19560090E68AE4F0903A2AE0FA90E68BF0F0
:03196400021A68FC
:06196700759B0C7A0C7B5D
:0C196D003A8B9A759E427A427BE78B9D74
:0E197900C0027A141202ADD002740155B0FA09
:05198700E4BA000104B8
:0E198C0090E756F01207287582081205D490D5
:0C199A003A0D740DF0903A10744DF0906E
:0919A6003A11E4F0903A12F090BD
:0819AF003A13F0903A14F09095
:0919B7003A157401F07511069057
:0619C0003A101206981215
:0B19C6000749903A0EE090E740F01255
:0D19D10005DEAA8290E741EAF01207379088
:0D19DE00E68AE4F090E68B7417F0021A68B8
:0619EB00759B217A217BAF
:0C19F1003A8B9A759E417A417BE78B9DF2
:0E19FD00C0027A071202ADD00253B2FD308153
:0D1A0B000C90E740E4F0D28143B202800964
:091A180090E7407401F012110383
:0E1A210090E7487401F090E68AE4F090E68BBE
:051A2F007409F0803491
:0A1A340090E6A0E0FA4401F0802AD9
:0C1A3E0090E6BFE0700690E6BEE0601687
:0E1A4A00903A2C7401F090E68BE4F05391EF8B
:081A580090E65D7401F08019B5
:081A600012128590E68BE4F000
:0E1A68005391EF90E65D7401F090E6A0E0FA75
:031A76004480F0B9
:0E1A7900D0D0D001D000D007D006D005D004C8
:0D1A8700D003D002D083D082D0F0D0E0D0C8
:021A94002032FE
:0E1A9600C0E0C082C0835391EF90E65D740201
:081AA400F0D083D082D0E032C3
:0E1AAC00C0E0C082C0835391EF90E65D7404E9
:081ABA00F0D083D082D0E032AD
:0E1AC200C0E0C082C0835391EF90E65D7408CF
:081AD000F0D083D082D0E03297
:0E1AD800C0E0C082C0835391EF90E65D7410B1
:081AE600F0D083D082D0E03281
:0E1AEE00C0E0C082C0835391EF90E65D74208B
:081AFC00F0D083D082D0E0326B
:0E1B0400C0E0C082C0835391EF90E65D744054
:081B1200F0D083D082D0E03254
:0C1B1A00C020C0E0C0F0C082C083C00248
:0E1B2600C003C004C005C006C007C000C00157
:0E1B3400C0D075D000C2E8121258903A2BE0D3
:071B4200FABA3003021BB2E6
:051B4900BA380280140F
:051B4E00BA3A02805FBD
:051B5300BA4002805AB7
:051B5800BA41028015F6
:051B5D00BA434980506D
:0E1B620090E68AE4F0120573E58290E68BF0BF
:021B70008040B3
:0D1B7200903A2AE0FA6020903A0CE4F0125C
:0E1B7F000F18903A0CE0FA601190E6A0E0FA20
:0C1B8D004401F0903A28E4F0A3F0801925
:0E1B990090E68AE4F0903A2AE0FA90E68BF0AB
:021BA7008009B3
:091BA90090E68AE4F090E68BF06E
:0E1BB2005391EF90E65F7401F0D2E8D0D0D0EE
:0E1BC00001D000D007D006D005D004D003D04D
:0C1BCE0002D083D082D0F0D0E0D02032D2
:0C1BDA00C020C0E0C0F0C082C083C00288
:0E1BE600C003C004C005C006C007C000C00197
:0E1BF400C0D075D000C2E8903A2CE0FA602014
:0D1C0200903A2CE4F090E6BFE0FB7A0090F1
:0E1C0F00E6BEE0FC7D00903A28EC4AF0ED4B7A
:051C1D00A3F012128586
:0D1C2200121258903A2BE0FABA31028044B9
:051C2F00BA3202803C06
:051C3400BA3902800531
:051C3900BA4237800BE8
:0B1C3E0090E68BE0F5821205A7802ADB
:0D1C4900903A2AE0FA6023903A0CE4F01281
:0E1C56000FDF903A0CE0FA601490E6A0E0FA7E
:0C1C64004401F0903A28E4F0A3F0800363
:031C7000121166E8
:0E1C730090E68BE4F05391EF90E65F7402F080
:0E1C8100903A28E0FAA3E0FB4A700890E6A033
:051C8F00E0FA4480F0C2
:0E1C9400D2E8D0D0D001D000D007D006D005C5
:0E1CA200D004D003D002D083D082D0F0D0E0A6
:031CB000D020320F
:0E1CB300C0E0C082C0835391EF90E65F7404DE
:081CC100F0D083D082D0E032A4
:0E1CC900C0E0C082C0835391EF90E65F7408C4
:081CD700F0D083D082D0E0328E
:0E1CDF00C0E0C082C0835391EF90E65F7410A6
:081CED00F0D083D082D0E03278
:0E1CF500C0E0C082C0835391EF90E65F742080
:081D0300F0D083D082D0E03261
:0E1D0B00C0E0C082C0835391EF90E65F744049
:081D1900F0D083D082D0E0324B
:0E1D2100C0E0C082C0835391EF90E65F7480F3
:081D2F00F0D083D082D0E03235
:0E1D370090E680E04408F090E6007412F09010
:0E1D45000002120265538EF8D28143B202C230
:0E1D5300AFC2E89000437402F09000447401A7
:0E1D6100F090004574B8F090E668E04408F099
:0A1D6F009001007402F07AA97B13C2
:0D1D79008B04900101ECF0900102EAF09063
:0A1D860001047402F07A967B1A8BB8
:0E1D900004900105ECF0900106EAF0900108C5
:0A1D9E007402F07AAC7B1A8B0490FB
:0E1DA8000109ECF090010AEAF090010C7402BF
:0A1DB600F07AC27B1A8B0490010D35
:0E1DC000ECF090010EEAF09001107402F07A3F
:0A1DCE00D87B1A8B04900111ECF091
:0C1DD800900112EAF09001147402F07AFD
:0A1DE400EE7B1A8B04900115ECF061
:0C1DEE00900116EAF09001187402F07ADF
:0A1DFA00047B1B8B04900119ECF030
:0C1E040090011AEAF09001207402F07ABC
:0A1E10001A7B1B8B04900121ECF0FB
:0C1E1A00900122EAF09001247402F07A9A
:0A1E2600DA7B1B8B04900125ECF021
:0C1E3000900126EAF09001287402F07A7C
:0A1E3C00B37B1C8B04900129ECF02D
:0C1E460090012AEAF090012C7402F07A5E
:0A1E5200C97B1C8B0490012DECF0FD
:0C1E5C0090012EEAF09001307402F07A40
:0A1E6800DF7B1C8B04900131ECF0CD
:0C1E7200900132EAF09001347402F07A22
:0A1E7E00F57B1C8B04900135ECF09D
:0C1E8800900136EAF09001387402F07A04
:0A1E94000B7B1D8B04900139ECF06C
:0C1E9E0090013AEAF090013C7402F07AE6
:0A1EAA00217B1D8B0490013DECF03C
:0E1EB40090013EEAF05391EF90E65D747FF0EE
:0E1EC20090E65CE0FA447FF090E65F74FFF07B
:0E1ED00090E65E74FFF0D2E8D2AF90E6117497
:0E1EDE00A0F00000000090E61074A0F00000DC
:0E1EEC00000090E612E4F00000000090E61303
:0E1EFA00E4F00000000090E614E4F0000000A8
:0E1F08000090E615E4F000000000120A64905C
:0D1F16003A05E0FA70099000FA1202651217
:021F23000A644E
:0E1F250090E680E04482F090000A120265907F
:071F3300E680E054F7F02204
:031F3A00121D373E
:021F3D0080FE24
:051F43005A544558004E
:0E1F4800666C61736862656E636820666F7216
:0A1F56002055464D20312E31310098
:081F600064656661756C740094
:0E1F680012010002FFFFFF401A2200010000DC
:041F76000102030160
:0A1F7A000A060002FFFFFF4001000D
:0E1F840009022000010104C03209040000021D
:0E1F9200FFFFFF0007058102000200070501A6
:041FA0000200020039
:021FA40000003B
:0E1FA60009022000010104C0320904000002FB
:0E1FB400FFFFFF000705810240000007050146
:041FC20002400000D9
:021FC600000019
:041FC800040300000E
:021FCC00000013
:011FCE000012
:011FCF00FF12
:011FD0000010
:081FD100000000000000000008
:06023700E478FFF6D8FD9B
:08021500790DE94400601B7A39
:05021D0001901FCC78E8
:03022200287592AA
:0A0225003AE493F2A308B8000205C2
:08022F0092D9F4DAF27592FF96
:08023D007800E84400600A7932
:03024500007592AF
:060248003AE4F309D8FCC2
:08024E007828E84400600C79F7
:0B02560001903A00E4F0A3D8FCD9FAB4
:03020800758120DD
:0A020B00121F3FE5826003020203A8
:041F3F007582002285
:00000001FF
