:03020000020208EF
:0302610002020393
:0502030012182E80FE20
:03000000020200F9
:0100030032CA
:01000B0032C2
:0100130032BA
:01001B0032B2
:0100230032AA
:01002B0032A2
:01003300329A
:01003B003292
:01004300328A
:01004B003282
:01005300327A
:01005B003272
:01006300326A
:0101000032CC
:0101040032C8
:0101080032C4
:01010C0032C0
:0101100032BC
:0101140032B8
:0101180032B4
:0101200032AC
:0101240032A8
:0101280032A4
:01012C0032A0
:01013000329C
:010134003298
:010138003294
:01013C003290
:01014000328C
:010148003284
:01014C003280
:01015000327C
:010154003278
:010158003274
:01015C003270
:01016000326C
:01017000325C
:010174003258
:010178003254
:01017C003250
:01018000324C
:010184003248
:010188003244
:01018C003240
:01019000323C
:010194003238
:010198003234
:01019C003230
:0101A000322C
:0101A8003224
:0101AC003220
:0101B000321C
:0101B4003218
:0101B8003214
:010264002277
:08026500AA82AB837C007D003E
:0B026D00C3EC9AED9B50147EB07F04A0
:050278001EBEFF011F86
:0B027D00EE4F70F70CBC00E80D80E5B0
:010288002253
:08028900AA82AB837C007D001A
:0B029100C3EC9AED9B50147E0A7F0026
:05029C001EBEFF011F62
:0B02A100EE4F70F70CBC00E80D80E58C
:0102AC00222F
:0E02AD0075AF0790E67BE090E67CF0DAF32276
:0102BB002220
:0202BC007A00C6
:0302BE00BAFF0084
:0D02C100500B90E678E0FB20E0030A80F08F
:0C02CE0090E678E0FA20E204EA20E10B60
:0B02DA0090E678E04440F075820122BD
:0402E50075820022FC
:0202E9007A0099
:0302EB00BAFF0057
:0D02EE00500B90E678E0FB20E0030A80F062
:0E02FB0090E678E0FA30E20B90E678E04440BE
:05030900F075820122E5
:04030E0075820022D2
:020312007A006F
:03031400BAFF002D
:0E031700500F90E678E0FB20E2047582002291
:030325000A80EC5F
:0403280075820122B7
:02032C007A0055
:03032E00BAFF0013
:0E033100500F90E678E0FB20E6047582002273
:03033F000A80EC45
:04034200758201229D
:09034600AA82C3E49508E433FB2C
:0E034F0090E678E04480F0C002C00312031272
:0E035D00D003D00290E679EAF0C002C003128D
:0C036B0002BCE582D003D0027012E5094C
:0C037700600A90E678E04440F012032C8D
:04038300758200225D
:0E038700EB601090000AC002C003120289D081
:0503950003D00280B559
:0C039A00E509600890E678E0FA4440F0C5
:0403A6007582012239
:0C03AA00AA82AB837C00E50C7003F58296
:0103B6002224
:0A03B7007508647509007582A2C084
:0E03C10002C003C004120346E582D004D0033C
:0703CF00D00260030204B03C
:0C03D60090E679E50BF0C002C003C00403
:0E03E2001202BCE582D004D003D002600302F8
:0203F00004B057
:0C03F20090E679E50AF0C002C003C004E8
:0E03FE001202BCE582D004D003D002600302DC
:02040C0004B03A
:0E040E0090E678E04440F0C002C003C0041243
:0D041C00032C90E678E04480F0120312906B
:0E042900E67974A3F01202BCE582D004D00381
:0E043700D002707590E679E08A828B83F0C067
:0E04450002C003C0041202E9E582D004D00315
:05045300D0027059FD0C
:0C045800C3ED950C502A90E679E08A82F2
:0E0464008B83F0A3AA82AB83C002C003C00446
:0E047200C0051202E9E582D005D004D003D007
:0804800002702D0D8D0480D0E7
:0E04880090E678E04420F090E679E0C004129F
:0E04960002E9E582D004701290E678E044405E
:0C04A400F090E679E0C00412032CD004B4
:0304B0008C822219
:0C04B300AA82AB837C00E50F7003F58289
:0104BF00221A
:0A04C0007508647509007582A2C07A
:0E04CA0002C003C004120346E582D004D00332
:0704D800D002600302057071
:0C04DF0090E679E50EF0C002C003C004F6
:0E04EB001202BCE582D004D003D002600302EE
:0204F90005708C
:0C04FB0090E679E50DF0C002C003C004DB
:0E0507001202BCE582D004D003D002705CFD6D
:0C051500C3ED950F50478A828B83E0FEF7
:0E052100A3AA82AB8390E679EEF0903A05E053
:0D052F00FFEE2FF0903A03E0FEA3E0FF90F6
:0E053C003A0374012EF0E43FA3F0C002C003A6
:0E054A00C004C0051202BCE582D005D004D06A
:0A05580003D00270130D8D0480B370
:0E05620090E678E04440F0C00412032CD00470
:030570008C822258
:0A057300903A1AE0FA903A01E0F520
:06057D000AA3E0F50B8A61
:0C0583000C90E740C0021203AAAB82D02B
:0E058F00027C00903A01E0FDA3E0FE903A01EC
:0A059D00EA2DF0EC3EA3F08B822261
:0B05A700AA82903A01E0F50DA3E0F5F8
:0905B2000E8A0F90E740C002120E
:0E05BB0004B3D0027B00903A01E0FCA3E0FD07
:0B05C900903A01EA2CF0EB3DA3F02279
:0C05D400AA82AB837C00E5117003F58265
:0105E00022F8
:0A05E1007508647509007582A6C054
:0E05EB0002C003C004120346E582D004D00310
:0705F900D00260030206BE00
:0C06000090E679E510F0C002C003C004D1
:0E060C001202BCE582D004D003D002600302CB
:02061A0006BE1A
:0E061C0090E678E04440F0C002C003C0041233
:0D062A00032C90E678E04480F0120312905B
:0E063700E67974A7F01202BCE582D004D0036D
:0E064500D002707590E679E08A828B83F0C057
:0E06530002C003C0041202E9E582D004D00305
:05066100D0027059FDFC
:0C066600C3ED9511502A90E679E08A82DD
:0E0672008B83F0A3AA82AB83C002C003C00436
:0E068000C0051202E9E582D005D004D003D0F7
:08068E0002702D0D8D0480D0D7
:0E06960090E678E04420F090E679E0C004128F
:0E06A40002E9E582D004701290E678E044404E
:0C06B200F090E679E0C00412032CD004A4
:0306BE008C822209
:0C06C100AA82AB837C00E5137003F58275
:0106CD00220A
:0A06CE007508647509007582A6C066
:0E06D80002C003C004120346E582D004D00322
:0706E600D00260030207B01F
:0C06ED0090E679E512F0C002C003C004E2
:0E06F9001202BCE582D004D003D002600302DE
:0207070007B039
:04070900AD127E00AF
:09070D00C3EE951340030207A29C
:0E0716008A828B83E0FFA3AA82AB8390E679F0
:0D072400EFF0C002C003C004C005C0061203
:0E07310002BCE582D006D005D004D003D00271
:0C073F00706F0D8D120E8E04ED20E3C2D1
:0C074B00C3EE951350BC90E678E04440EB
:0E075700F0C002C003C004C005C00612032C8F
:0A0765007508647509007582A6127C
:0E076F000346E582D006D005D004D003D002A8
:0E077D00703190E679EDF0C002C003C004C0F8
:0E078B0005C0061202BCE582D006D005D004DF
:09079900D003D002701102070D1B
:0E07A20090E678E04440F0C00412032CD0042E
:0907B000903A06E512F08C822259
:0A07B900903A1AE0FA903A06E0F5D3
:0907C300108A1190E740C00212F7
:0E07CC0005D4AB82D002903A06E0FCEA2CF095
:0307DA008B8222ED
:0E07DD0075B11F75B6FF903A0FE4F0903A0E1A
:0E07EB00F0903A107410F0903A117410F090E3
:0607F9003A127401F02227
:0E07FF0090E6017480F00000000090E670E4C7
:0E080D00F090E671F0D2A243B40453B2BF5390
:0E081B00B4FDC2A343B40843B2AEC28543800D
:0E0829008E903A12E0F4FA53020F903A11E06A
:0E0837004AF5B175B6FF900001120265C28746
:0E084500C281903A11E0FA740F4AF5B153B433
:05085300FB7A007B00B0
:0E08580020A2208A048B057E007F00C3EC9452
:0E086600FFED94FFEE9400EF64809480500745
:070874000ABA00E00B80DD71
:07087B0030A2047AC88002DC
:020882007A6496
:0E088400903A0DEAF0903A09E4F0A3F0A3F0E8
:08089200A3F0903A08E4F02203
:08089A00903A00E4F00207FFB0
:0E08A20090E6017480F00000000090E618E47B
:0E08B000F00000000090E619E4F000000000E7
:0E08BE0090E60BE4F00000000090E6A3E0FAE4
:0E08CC0054FEF00000000090E6A4E0FA54FE96
:0E08DA00F00000000090E6957480F000000031
:0E08E8000090E6957480F090E6047480F000B5
:0E08F60000000090E6047482F0000000009004
:0E090400E604E4F00000000075B4FF903A0035
:040912007401F0225A
:0B091600903A0DE0FA74162AF07A0007
:03092100BAFF001A
:090924005007D281C2810A80F45F
:0E092D00D287D284C284D284C284D284C2848F
:0E093B00D284C28453B27153B4F775B6F090F3
:0D0949003A12E0FA55B1FBB502031208A204
:0E095600903A10E0FA740F4AF5B175B6FF2220
:0C09640085B31475B3FF903A1AE0FB90C5
:0E0970003A09E0FCA3E0FDA3E0FEA3E0FF785F
:0E097E000079007A00903A09EB2CF0E83DA3D6
:0E098C00F0E93EA3F0EA3FA3F090E68BE060B6
:0E099A0022FA759B40759AE775AF07903A08F0
:0509A800E0F990E67B80
:0E09AD00E0F590D28129F9C281DAF5903A087E
:0209BB00E9F061
:0B09BD008514B390E68BE0FABA40000E
:0509C8005003020916B6
:0109CD002207
:0E09CE0090E60174C2F090E6F3E4F090E6C308
:0E09DC00F090E6C1F090E6C27420F090E6C004
:0C09EA00744EF090E6F4E4F0759B1B7A6C
:0A09F6001B7B3A8B9A759E60759D7D
:0E0A0000E4C0027A201202ADD00290E6C6E4F5
:0D0A0E00F090E6C77410F090E6C8E4F09098
:0E0A1B00E6C9F090E6CAF090E6CBF090E6CC8B
:0E0A2900E4F090E6CDF090E60B7401F00000D2
:0D0A3700000090E6047480F00000000090C4
:0E0A4400E6047404F00000000090E604E4F004
:0E0A52000000000090E619E4F00000000090A3
:0E0A6000E6197410F00000000090E6DA740150
:0E0A6E00F00000000090E6CE7401F0000000E1
:0E0A7C000090E6CFE4F00000000090E6D0E429
:0E0A8A00F00000000090E6D1E4F00000000053
:0D0A980090E6DC74FFF000000000C2832235
:0C0AA500AA82903A0EE0FB903A0FF0900D
:0E0AB1003A0E74035AF08AF005F074108002B9
:020ABF0025E030
:0E0AC100D5F0FBFA903A10F0903A11EAF0747A
:070ACF000FF5B14AF5B12259
:01006C00286B
:01006D000191
:04006E005A54455843
:040072000A0F000071
:010076000089
:010077000187
:06007800E300000000009F
:0C007E0000000000000000000000000076
:0A008A00303030303030303030308C
:010AD60022FD
:0E0AD70090E678E04480F012031290E6797405
:0A0AE50090F01202BCE582600122CD
:0E0AEF0090E6797444F01202BCE582600122A8
:0E0AFD0090E6797414F090E678E04440F01230
:070B0B00032CE582600122CA
:0E0B1200900079E0FA430201900079EAF022A7
:0E0B200090E683E4F07420F07410F07430F06E
:0E0B2E0090E6837401F07421F07411F07431BC
:0E0B3C00F090E6837412F07432F07404F074DA
:030B4A0024F02272
:0A0B4D00AA82E51624E05003751695
:010B57001F7E
:0D0B580090E6BFE0701090E6BEE0FBC39594
:090B650016500690E6BEE0F516FC
:0C0B6E0075AF078A9B85159A759E41752E
:0A0B7A009DE790E67C7403F07A001A
:0C0B8400C3EA9516501190E67BE0FB9050
:0B0B9000E67CF090E67CE4F00A80E9CF
:0B0B9B00E5160425E0FA90E740F0901A
:0E0BA600E7417403F090E68AE4F090E68BEAF3
:020BB400F0222D
:0E0BB600903A18E0FAA3E0FBC374409AE49B67
:080BC40050067C407D00800416
:040BCC008A048B0507
:0E0BD000903A1AECF07D00903A18EAC39CF0BF
:050BDE00EB9DA3F022D5
:0A0BE300903A5BE0FABA3102804E4E
:040BED00BA320122F5
:050BF100BA3402804847
:050BF600BA3502805633
:050BFB00BA3902800E72
:050C0000BA3C02802D4A
:060C0500BA5103020C6C61
:030C0B00020C9147
:0E0C0E00903A05E4F0903A03F0A3F090E6BBB4
:0E0C1C00E0FB7A0090E6BAE0FC7D00903A0121
:080C2A00EC4AF0ED4BA3F022AF
:090C320090E6BAE0903A06F022C7
:030C3B0002089A12
:0E0C3E0012089A90E6A4E054FEF090E6F574D9
:050C4C00FFF00209CEDB
:0D0C5100D28390E6F574FFF00000000090E3
:0E0C5E00E601E0FA54F0F00000000002091672
:0E0C6C0090E6BCE0FABA0108903A1174F0F07C
:020C7A008009EF
:090C7C0090E6BAE0F582120AA527
:0C0C8500903A11E0C4540F903A12F02293
:080C910090E6A0E04401F0220E
:0C0C9900C020C0E0C0F0C082C083C002D8
:0E0CA500C003C004C005C006C007C000C001E7
:0E0CB300C0D075D00090E6B9E0FA903A5BF040
:0E0CC10090E6B57401F090E6B9E0FA24F35025
:040CCF000302104FBD
:070CD300EA2A2A900CDA73F3
:070CDA00020D01020DB5023D
:060CE100104F020E32026A
:060CE700104F02104F0245
:060CED000ECA020FE50231
:060CF3000FE7020FF802FA
:060CF9000FFD02100E02C7
:020CFF001013D0
:0A0D010090E6B8E0FABA8002800D17
:050D0B00BA8102801E08
:050D1000BA8202802FF1
:030D150002104F7A
:0E0D180090E740E4F090E741F090E68AF0901A
:080D2600E68B7402F002104F8D
:0E0D2E0090E740E4F090E741F090E68AF09004
:080D3C00E68B7402F002104F77
:0C0D440090E6BCE0FA600FBA01028019D2
:050D5000BA80028005DD
:050D5500BA812F801E91
:0E0D5A0090E6A0E0FA53020190E740EAF08034
:010D68003A50
:0E0D690090E6A1E0FA53020190E740EAF08024
:010D77002B50
:0E0D780090E6A2E0FA53020190E740EAF08014
:010D86001C50
:0E0D870090E6BCE0C31314540324A3F582E4E9
:0E0D950034E6F583E0FA53020190E740EAF0FD
:0E0DA30090E741E4F090E68AF090E68B74024F
:040DB100F002104FED
:0A0DB50090E6B8E0FABA02028003EB
:030DBF0002104FD0
:090DC20090E6BAE0600302104F54
:0C0DCB0090E6BCE0FA600FBA010280154F
:050DD700BA8002800556
:050DDC00BA812380161E
:0B0DE10090E6A0E0FA54FEF002104F74
:0B0DEC0090E6A1E0FA54FEF002104F68
:0B0DF70090E6A2E0FA54FEF002104F5C
:0E0E020090E6BCE0C31314540324A3FAE434B6
:0E0E1000E6FB90E6BCE0C31314540324A3F5E4
:0E0E1E0082E434E6F583E0FC5304FE8A828B06
:060E2C0083ECF002104F00
:0A0E320090E6B8E0FABA020280036D
:030E3C0002104F52
:090E3F0090E6BAE0600302104FD6
:0C0E480090E6BCE0FA600FBA01028014D2
:050E5400BA80028005D8
:050E5900BA81208014A5
:0A0E5E0090E6A0E0FA4401F08041A4
:0A0E680090E6A1E0FA4401F08037A3
:0A0E720090E6A2E0FA4401F0802DA2
:0E0E7C0090E6BCE0C31314540324A3FAE4343C
:0E0E8A00E6FB90E6BCE0C31314540324A3F56A
:0E0E980082E434E6F583E0FC4304FE8A828B9C
:030EA60083ECF0EA
:0E0EA90090E6BCE05480C423541FFA90E6BCCF
:0E0EB700E0FB740F5B420290E683EAF07420C9
:050EC5004AF002104F8D
:0A0ECA0090E6BBE0FABA01028019BD
:050ED400BA02028026B5
:050ED900BA0302804D88
:060EDE00BA0603020F9E9C
:060EE400BA0703020FB083
:030EEA00020FDB19
:0A0EED007AE27B1890E6B3EBF09078
:080EF700E6B474E2F002104FB2
:0B0EFF0090E680E0FA30E7127AFE7BFC
:0A0F0A001890E6B3EBF090E6B47423
:050F1400FEF002104F89
:0A0F19007A2E7B1990E6B3EBF090FE
:080F2300E6B4742EF002104F39
:0A0F2B0090E6BAE0FABA0102800F66
:050F3500BA0202801C5D
:050F3A00BA030280294A
:050F3F00BA044A8036EF
:060F44007582B77AB77B4D
:040F4A00188B157576
:060F4E001605120B4D0216
:020F5400104F3C
:060F56007582BC7ABC7B31
:040F5C00188B157564
:060F6000161D120B4D02EC
:020F6600104F2A
:0A0F680075828A7A8A7B008B15756A
:060F7200160A120B4D02ED
:020F7800104F18
:060F7A007582D97AD97BD3
:040F8000188B157540
:060F84001608120B4D02DD
:020F8A00104F06
:0A0F8C007A5E7B1990E6B3EBF0905B
:080F9600E6B4745EF002104F96
:0A0F9E007AF47B1890E6B3EBF090B4
:080FA800E6B474F4F002104FEE
:0B0FB00090E680E0FA30E7127A2E7B1A
:0A0FBB001990E6B3EBF090E6B47471
:050FC5002EF002104FA8
:0A0FCA007AFE7B1890E6B3EBF0907E
:070FD400E6B474FEF0807426
:0A0FDB0090E6A0E0FA4401F0806AFD
:020FE500806822
:0E0FE70090E740E4F090E68AF090E68B74010B
:030FF500F0805732
:050FF800120B208052E5
:0E0FFD0090E740E4F090E68AF090E68B7401F5
:03100B00F0804131
:05100E00120B20803CE4
:0E10130090E6B8E0FABA823490E6BCE0C3136F
:0B10210014540325E0245DF582E43444
:0C102C003AF583E4F0A3F090E685E09034
:0D103800E740F090E684E0FA90E741F09088
:0A104500E68AE4F090E68B7402F0F6
:0B104F0090E6B8E0FABA40030212ADD0
:05105A00BAC002800392
:03105F000212D7A3
:0E10620090E6BFE0FB7A0090E6BEE0FC7D0069
:0E107000903A18EC4AF0ED4BA3F0120BB6903C
:09107E00E6B9E0FABA2202803161
:06108700BA3003021177EC
:06108D00BA33030211D387
:05109300BA3802803DA7
:05109800BA3A0280617C
:06109D00BA3B0302113D05
:0610A300BA3D03021156E4
:0610A900BA50030211EB36
:0610AF00BA580302120C06
:0310B5000212A381
:0E10B80090E6B5E4F090E68AF090E68B74289E
:0D10C600F090E6B3E4F090E6B4746CF00234
:0210D30012D732
:0E10D50090E6BBE0FB7A0090E6BAE0FC7D00FE
:0E10E300903A01EC4AF0ED4BA3F090E68AE45F
:0D10F100F0120573E58290E68BF00212D735
:0E10FE00903A03E0FAA3E0FB8A0490E740EC8E
:0D110C00F08B0290E741EAF0903A05E09088
:0A111900E742F07508007509017542
:0D11230082A2120346AA8290E743EAF090F0
:0D113000E68AE4F090E68B7404F00212D71A
:0E113D0090E6BAE0903A06F090E68AE4F012EE
:0B114B0007B9E58290E68BF00212D796
:0A1156007508007509017582A612E4
:0E1160000346AA8290E740EAF090E68AE4F0A7
:09116E0090E68B7401F00212D727
:06117700759B087A087B5D
:0C117D003A8B9A759E417A417BE78B9D6E
:0D118900C0027A061202ADD00275B6F090D9
:0E1196003A12E0FA55B1FBB5021490E740E4BE
:0E11A400F0903A10E0FA740F4AF5B175B6FFFC
:0211B2008009B2
:0911B40090E7407401F01207FFFE
:0E11BD0090E747E4F090E748F090E68AF09063
:0811CB00E68B7409F00212D753
:0E11D30090E7407404F090E741E4F090E68A63
:0A11E100F090E68B7402F00212D7C2
:0E11EB0090E7407403F0903A0EE0FA90E7416E
:0E11F900F090E742E4F090E68AF090E68B7406
:0512070003F00212D704
:0E120C0090E678E04480F012031290E67974C8
:0E121A0091F01202BC90E7407401F090E6796A
:0D122800E090E741F01202E990E679E090D5
:0E123500E741F01202E990E679E090E742F01E
:0E1243001202E990E679E090E743F01202E92A
:0E12510090E679E090E744F01202E990E67929
:0D125F00E090E741F01202E990E679E0909E
:0E126C00E742F01202E990E678E04420F090AC
:0E127A00E679E090E743F01202E990E678E0B2
:0E1288004440F090E679E090E744F012032C29
:0D12960090E68AE4F090E68B7405F0803459
:0A12A30090E6A0E0FA4401F0802A72
:0C12AD0090E6BFE0700690E6BEE0601620
:0E12B900903A5C7401F090E68BE4F05391EFF4
:0812C70090E65D7401F080194E
:0812CF00120BE390E68BE4F042
:0E12D7005391EF90E65D7401F090E6A0E0FA0E
:0312E5004480F052
:0E12E800D0D0D001D000D007D006D005D00461
:0D12F600D003D002D083D082D0F0D0E0D061
:02130300203296
:0E130500C0E0C082C0835391EF90E65D740299
:08131300F0D083D082D0E0325B
:0E131B00C0E0C082C0835391EF90E65D740481
:08132900F0D083D082D0E03245
:0E133100C0E0C082C0835391EF90E65D740867
:08133F00F0D083D082D0E0322F
:0E134700C0E0C082C0835391EF90E65D741049
:08135500F0D083D082D0E03219
:0E135D00C0E0C082C0835391EF90E65D742023
:08136B00F0D083D082D0E03203
:0E137300C0E0C082C0835391EF90E65D7440ED
:08138100F0D083D082D0E032ED
:0C138900C020C0E0C0F0C082C083C002E1
:0E139500C003C004C005C006C007C000C001F0
:0E13A300C0D075D000C2E8120BB6903A5BE0E5
:0613B100FABA3002804C84
:0513B700BA330280477B
:0513BC00BA380280199F
:0513C100BA3A02803D74
:0513C600BA3B02801F8C
:0513CB00BA3D02803371
:0513D000BA5002802E5E
:0513D500BA5822802936
:0E13DA0090E68AE4F0120573E58290E68BF04F
:0213E80080196A
:0E13EA0090E68AE4F01207B9E58290E68BF0F7
:0213F80080096A
:0913FA0090E68AE4F090E68BF025
:0E1403005391EF90E65F7401F0D2E8D0D0D0A4
:0E14110001D000D007D006D005D004D003D003
:0C141F0002D083D082D0F0D0E0D0203288
:0C142B00C020C0E0C0F0C082C083C0023E
:0E143700C003C004C005C006C007C000C0014D
:0E144500C0D075D000C2E8903A5CE0FA60209A
:0D145300903A5CE4F090E6BFE0FB7A009078
:0E146000E6BEE0FC7D00903A18EC4AF0ED4B41
:05146E00A3F0120BE3E6
:0C147300120BB6903A5BE0FABA310302AB
:02147F0014CC8B
:05148100BA3202803FB9
:06148600BA34030214CC8D
:06148C00BA35030214CC86
:05149200BA3902800DD3
:05149700BA3C028014C4
:05149C00BA5102802A94
:0314A1000214CC66
:0C14A40090E68BE0F5821205A70214CC44
:0B14B000903A06E0F51290E68BE0F5A4
:0814BB001390E7401206C10284
:0214C30014CC47
:0614C5001209640214CCC0
:0114CB000020
:0E14CC0090E68BE4F05391EF90E65F7402F02F
:0E14DA00903A18E0FAA3E0FB4A700890E6A0F2
:0514E800E0FA4480F071
:0E14ED00D2E8D0D0D001D000D007D006D00574
:0E14FB00D004D003D002D083D082D0F0D0E055
:03150900D02032BD
:0E150C00C0E0C082C0835391EF90E65F74048C
:08151A00F0D083D082D0E03252
:0E152200C0E0C082C0835391EF90E65F740872
:08153000F0D083D082D0E0323C
:0E153800C0E0C082C0835391EF90E65F741054
:08154600F0D083D082D0E03226
:0E154E00C0E0C082C0835391EF90E65F74202E
:08155C00F0D083D082D0E03210
:0E156400C0E0C082C0835391EF90E65F7440F8
:08157200F0D083D082D0E032FA
:0E157A00C0E0C082C0835391EF90E65F7480A2
:08158800F0D083D082D0E032E4
:0715900075100075110390B6
:061597003A131205D49086
:0E159D003A13E0FABA4324903A14E0FABA4442
:0E15AB001C903A15E0FABA3014903A07740119
:0A15B900F075101075110A90008AF9
:0515C3001205D48005B3
:0515C800903A07E4F079
:0215CD007A00A2
:0315CF00BA0A0055
:0E15D2005012EA248AF582E43400F583E0FB2F
:0615E000BB30540A80E953
:0715E6007510FB7511059063
:0915ED003A131205D47A007B00C8
:0315F600BB050032
:0A15F900503CEB2413F582E4343A71
:0E160300F583E0FCEA248AFDE43400FEECC42A
:0E161100540F90196293FF8D828E83F00AEAC7
:0E161F00248AFDE43400FE740F5C901962937F
:0A162D00FC8D828E83F00A0B80BF53
:011637002290
:0E16380090E680E04408F090E6007412F09016
:0E1646000002120265538EF81207DDC2AFC219
:0E165400E89000437402F09000447401F0909E
:0D166200004574B8F090E668E04408F09090
:0A166F0001007402F07A997B0C8BE5
:0E16790004900101ECF0900102EAF0900104EF
:0A1687007402F07A057B138B0490C7
:0E1691000105ECF0900106EAF09001087402E9
:0A169F00F07A1B7B138B0490010905
:0E16A900ECF090010AEAF090010C7402F07A65
:0A16B700317B138B0490010DECF061
:0C16C10090010EEAF09001107402F07A23
:0A16CD00477B138B04900111ECF031
:0C16D700900112EAF09001147402F07A05
:0A16E3005D7B138B04900115ECF001
:0C16ED00900116EAF09001187402F07AE7
:0A16F900737B138B04900119ECF0D1
:0C17030090011AEAF09001207402F07AC4
:0A170F00897B138B04900121ECF09C
:0C171900900122EAF09001247402F07AA2
:0A1725002B7B148B04900125ECF0DF
:0C172F00900126EAF09001287402F07A84
:0A173B000C7B158B04900129ECF0E3
:0C17450090012AEAF090012C7402F07A66
:0A175100227B158B0490012DECF0B3
:0C175B0090012EEAF09001307402F07A48
:0A176700387B158B04900131ECF083
:0C177100900132EAF09001347402F07A2A
:0A177D004E7B158B04900135ECF053
:0C178700900136EAF09001387402F07A0C
:0A179300647B158B04900139ECF023
:0C179D0090013AEAF090013C7402F07AEE
:0A17A9007A7B158B0490013DECF0F3
:0E17B30090013EEAF05391EF90E65D747FF0F6
:0E17C10090E65CE0FA447FF090E65F74FFF083
:0E17CF0090E65E74FFF0D2E8D2AF90E611749F
:0E17DD00A0F00000000090E61074A0F00000E4
:0D17EB00000090E61274E2F0000000009093
:0E17F800E61374A2F00000000090E614E4F086
:0E1806000000000090E615E4F0000000001263
:0D1814001590120AD790E680E04482F09013
:0D182100000A12026590E680E054F7F02204
:03182E0012163857
:0E183100903A00E0FA60F990E6A4E0FA20E2B6
:0E183F00F190E694E0FB7A0090E695E0FC7DE7
:0D184D00004202ED4203EA4B70030218A6B0
:0B185A00C3E49A74029B50030218A61E
:0B18650090E6A3E0FC30E3030218A6AD
:041870007C007D007B
:0E187400C3EC9AED9B501B8C8274F42DF5830F
:0E188200E0F5A08C8274F02DF583E590F00C5B
:06189000BC00E10D80DE4A
:0E18960090E690EBF0000000007B0090E691E1
:0218A400EAF068
:0D18A6000000000090E6957480F0021831FB
:0518B7005A54455800E1
:0E18BC0075636563686F206578616D706C659B
:0E18CA0020666F722055464D20312E31357943
:0118D800000F
:0818D90064656661756C740022
:0118E1000006
:0E18E20012010002FFFFFF401A220001000069
:0418F00001020301ED
:0A18F4000A060002FFFFFF4001009A
:0E18FE0009022E00010104C03209040000049A
:0E190C00FFFFFF000705810200020007050132
:0E191A00020002000705820200020007050419
:0419280002000200B7
:02192C000000B9
:0E192E0009022E00010104C032090400000469
:0E193C00FFFFFF0007058102400000070501C4
:0E194A0002400000070582024000000705046D
:041958000240000049
:02195C00000089
:04195E00040300007E
:0E196200303132333435363738394142434460
:03197000454600E9
:02197300000072
:011975000071
:0E1976000188010101010107020702020202BD
:0E1984000200200000000000002000360000DD
:041992000000003F12
:0E199600020190010101010702020702020294
:0E19A4000200200000000000002000003600BD
:0419B2000000003FF2
:0119B600FF31
:0119B700002F
:0819B800000000000000000027
:06023700E478FFF6D8FD9B
:08021500794DE94400601B7AF9
:05021D00019019737847
:03022200187592BA
:0A0225003AE493F2A308B8000205C2
:08022F0092D9F4DAF27592FF96
:08023D007800E84400600A7932
:03024500007592AF
:060248003AE4F309D8FCC2
:08024E007818E84400600C7907
:0B02560001903A00E4F0A3D8FCD9FAB4
:03020800758120DD
:0A020B001218B3E58260030202033B
:0418B3007582002218
:00000001FF
