:03020000020208EF
:0302610002020393
:05020300121DAB80FE9E
:03000000020200F9
:0100030032CA
:01000B0032C2
:0100130032BA
:01001B0032B2
:0100230032AA
:01002B0032A2
:01003300329A
:01003B003292
:01004300328A
:01004B003282
:01005300327A
:01005B003272
:01006300326A
:0101000032CC
:0101040032C8
:0101080032C4
:01010C0032C0
:0101100032BC
:0101140032B8
:0101180032B4
:0101200032AC
:0101240032A8
:0101280032A4
:01012C0032A0
:01013000329C
:010134003298
:010138003294
:01013C003290
:01014000328C
:010148003284
:01014C003280
:01015000327C
:010154003278
:010158003274
:01015C003270
:01016000326C
:01017000325C
:010174003258
:010178003254
:01017C003250
:01018000324C
:010184003248
:010188003244
:01018C003240
:01019000323C
:010194003238
:010198003234
:01019C003230
:0101A000322C
:0101A8003224
:0101AC003220
:0101B000321C
:0101B4003218
:0101B8003214
:010264002277
:08026500AA82AB837C007D003E
:0B026D00C3EC9AED9B50147EB07F04A0
:050278001EBEFF011F86
:0B027D00EE4F70F70CBC00E80D80E5B0
:010288002253
:08028900AA82AB837C007D001A
:0B029100C3EC9AED9B50147E0A7F0026
:05029C001EBEFF011F62
:0B02A100EE4F70F70CBC00E80D80E58C
:0102AC00222F
:0E02AD0075AF0790E67BE090E67CF0DAF32276
:0102BB002220
:0202BC007A00C6
:0302BE00BAFF0084
:0D02C100500B90E678E0FB20E0030A80F08F
:0C02CE0090E678E0FA20E204EA20E10B60
:0B02DA0090E678E04440F075820122BD
:0402E50075820022FC
:0202E9007A0099
:0302EB00BAFF0057
:0D02EE00500B90E678E0FB20E0030A80F062
:0E02FB0090E678E0FA30E20B90E678E04440BE
:05030900F075820122E5
:04030E0075820022D2
:020312007A006F
:03031400BAFF002D
:0E031700500F90E678E0FB20E2047582002291
:030325000A80EC5F
:0403280075820122B7
:02032C007A0055
:03032E00BAFF0013
:0E033100500F90E678E0FB20E6047582002273
:03033F000A80EC45
:04034200758201229D
:09034600AA82C3E49521E433FB13
:0E034F0090E678E04480F0C002C00312031272
:0E035D00D003D00290E679EAF0C002C003128D
:0C036B0002BCE582D003D0027012E52233
:0C037700600A90E678E04440F012032C8D
:04038300758200225D
:0E038700EB601090000AC002C003120289D081
:0503950003D00280B559
:0C039A00E522600890E678E0FA4440F0AC
:0403A6007582012239
:0C03AA00AA82AB837C00E5257003F5827D
:0103B6002224
:0A03B7007521647522007582A2C052
:0E03C10002C003C004120346E582D004D0033C
:0703CF00D00260030204B03C
:0C03D60090E679E524F0C002C003C004EA
:0E03E2001202BCE582D004D003D002600302F8
:0203F00004B057
:0C03F20090E679E523F0C002C003C004CF
:0E03FE001202BCE582D004D003D002600302DC
:02040C0004B03A
:0E040E0090E678E04440F0C002C003C0041243
:0D041C00032C90E678E04480F0120312906B
:0E042900E67974A3F01202BCE582D004D00381
:0E043700D002707590E679E08A828B83F0C067
:0E04450002C003C0041202E9E582D004D00315
:05045300D0027059FD0C
:0C045800C3ED9525502A90E679E08A82D9
:0E0464008B83F0A3AA82AB83C002C003C00446
:0E047200C0051202E9E582D005D004D003D007
:0804800002702D0D8D0480D0E7
:0E04880090E678E04420F090E679E0C004129F
:0E04960002E9E582D004701290E678E044405E
:0C04A400F090E679E0C00412032CD004B4
:0304B0008C822219
:0C04B300AA82AB837C00E5287003F58270
:0104BF00221A
:0A04C0007521647522007582A2C048
:0E04CA0002C003C004120346E582D004D00332
:0704D800D002600302057071
:0C04DF0090E679E527F0C002C003C004DD
:0E04EB001202BCE582D004D003D002600302EE
:0204F90005708C
:0C04FB0090E679E526F0C002C003C004C2
:0E0507001202BCE582D004D003D002705CFD6D
:0C051500C3ED952850478A828B83E0FEDE
:0E052100A3AA82AB8390E679EEF0903A04E054
:0D052F00FFEE2FF0903A02E0FEA3E0FF90F7
:0E053C003A0274012EF0E43FA3F0C002C003A7
:0E054A00C004C0051202BCE582D005D004D06A
:0A05580003D00270130D8D0480B370
:0E05620090E678E04440F0C00412032CD00470
:030570008C822258
:0A057300903A27E0FA903A00E0F514
:06057D0023A3E0F5248A2F
:0C0583002590E740C0021203AAAB82D012
:0E058F00027C00903A00E0FDA3E0FE903A00EE
:0A059D00EA2DF0EC3EA3F08B822261
:0B05A700AA82903A00E0F526A3E0F5E0
:0905B200278A2890E740C00212DC
:0E05BB0004B3D0027B00903A00E0FCA3E0FD08
:0B05C900903A00EA2CF0EB3DA3F0227A
:0C05D400AA82AB837C00E52A7003F5824C
:0105E00022F8
:0A05E1007521647522007582A6C022
:0E05EB0002C003C004120346E582D004D00310
:0705F900D00260030206BE00
:0C06000090E679E529F0C002C003C004B8
:0E060C001202BCE582D004D003D002600302CB
:02061A0006BE1A
:0E061C0090E678E04440F0C002C003C0041233
:0D062A00032C90E678E04480F0120312905B
:0E063700E67974A7F01202BCE582D004D0036D
:0E064500D002707590E679E08A828B83F0C057
:0E06530002C003C0041202E9E582D004D00305
:05066100D0027059FDFC
:0C066600C3ED952A502A90E679E08A82C4
:0E0672008B83F0A3AA82AB83C002C003C00436
:0E068000C0051202E9E582D005D004D003D0F7
:08068E0002702D0D8D0480D0D7
:0E06960090E678E04420F090E679E0C004128F
:0E06A40002E9E582D004701290E678E044404E
:0C06B200F090E679E0C00412032CD004A4
:0306BE008C822209
:0C06C100AA82AB837C00E52C7003F5825C
:0106CD00220A
:0A06CE007521647522007582A6C034
:0E06D80002C003C004120346E582D004D00322
:0706E600D00260030207B01F
:0C06ED0090E679E52BF0C002C003C004C9
:0E06F9001202BCE582D004D003D002600302DE
:0207070007B039
:04070900AD2B7E0096
:09070D00C3EE952C40030207A283
:0E0716008A828B83E0FFA3AA82AB8390E679F0
:0D072400EFF0C002C003C004C005C0061203
:0E07310002BCE582D006D005D004D003D00271
:0C073F00706F0D8D2B0E8E04ED20E3C2B8
:0C074B00C3EE952C50BC90E678E04440D2
:0E075700F0C002C003C004C005C00612032C8F
:0A0765007521647522007582A6124A
:0E076F000346E582D006D005D004D003D002A8
:0E077D00703190E679EDF0C002C003C004C0F8
:0E078B0005C0061202BCE582D006D005D004DF
:09079900D003D002701102070D1B
:0E07A20090E678E04440F0C00412032CD0042E
:0907B000903A05E52BF08C822241
:0A07B900903A27E0FA903A05E0F5C7
:0907C300298A2A90E740C00212C5
:0E07CC0005D4AB82D002903A05E0FCEA2CF096
:0307DA008B8222ED
:0D07DD00AA8290E6017480F00000000090F8
:0E07EA00E670E4F090E671F053B4F975B2B623
:0E07F80074904AF58043B40853A0F790000AAD
:0E080600C002120265D00274024AF5807A0028
:020814007B0067
:0E08160020A2208A048B057E007F00C3EC9494
:0E082400FFED94FFEE9400EF64809480500787
:070832000ABA00E00B80DDB3
:0708390030A2047AC880021E
:020840007A64D8
:0E084200903A0CEAF0903A08E4F0A3F0A3F02C
:08085000A3F0903A07E4F02246
:060858007582040207DDB9
:06085E007582340207DD83
:030864000208582F
:01086700226E
:0708680030A2047A168002A1
:02086F007A0B02
:0A087100903A0CE0FBEA2BF07A004D
:03087B00BA400080
:09087E005007D284C2840A80F400
:0E088700D287D284C284D284C284D284C28436
:0E089500D284C28475B20053B4F7308105D20C
:0408A300811208674F
:0608A700D28143B20222DF
:0C08AD0085B32D75B3FF903A27E0FB9057
:0E08B9003A08E0FCA3E0FDA3E0FEA3E0FF7818
:0E08C7000079007A00903A08EB2CF0E83DA38F
:0E08D500F0E93EA3F0EA3FA3F090E68BE0606E
:0E08E30022FA759B40759AE775AF07903A07A9
:0508F100E0F990E67B38
:0E08F600E0F590D28429F9C284DAF5903A0731
:02090400E9F018
:0B090600852DB390E68BE0FABA4000AC
:0509110050030208681C
:0109160022BE
:0E09170043B610E58253B1EF53B1DF1343B185
:090925002053B1EF500343B1105F
:0E092E0053B1DF1343B12053B1EF500343B177
:01093C0010AA
:0E093D0053B1DF1343B12053B1EF500343B168
:01094B00109B
:0E094C0053B1DF1343B12053B1EF500343B159
:01095A00108C
:0E095B0053B1DF1343B12053B1EF500343B14A
:01096900107D
:0E096A0053B1DF1343B12053B1EF500343B13B
:01097800106E
:0E09790053B1DF1343B12053B1EF500343B12C
:01098700105F
:0E09880053B1DF1343B12053B1EF500343B11D
:010996001050
:0E09970053B1DF1343B12053B1EF30D003430F
:0209A500B1108F
:0E09A70053B1DF43B12043B11053B1DF43B170
:0809B5002053B1DF43B1202201
:0B09BD0053B6EF53B1DF43B120A90097
:0E09C800E5B15410600853B1DF43B120D9F2FD
:0E09D60053B1DF43B120E5B154109401E91391
:0E09E400F953B1DF43B120E5B154109401E99D
:0E09F20013F953B1DF43B120E5B15410940165
:0E0A0000E913F953B1DF43B120E5B15410946E
:0E0A0E0001E913F953B1DF43B120E5B15410F3
:0E0A1C009401E913F953B1DF43B120E5B15461
:0E0A2A00109401E913F953B1DF43B120E5B197
:0E0A380054109401E913F953B1DF43B120E5E6
:0E0A4600B154109401E91364FFF953B1DF437A
:0E0A5400B120E5B154109401E9500520D020E6
:020A620080030F
:030A640030D01B74
:0E0A670053B1DF43B120E5B15410601553B117
:0D0A7500DF43B120E5B154106009898222F1
:060A820053B1DF43B12077
:060A880053B1DF43B12071
:0A0A8E00903A0E7401F07582002208
:0E0A980053B1EF43B12043B63043B11000001C
:060AA600000000007A00D0
:030AAC00BA10007D
:0B0AAF00500953B1DF43B1200A80F270
:0C0ABA007582C21209177582020209172A
:0E0AC60075820C1209177582CF1209177582FE
:0E0AD4000112091775820012091775820112AE
:050AE20009170209BD27
:040AE7007A007B0016
:0E0AEB008A048B057E007F00C3EC9440ED94DE
:0E0AF9009CEE9400EF64809480501FC002C0F9
:0E0B070003120AC6E582D003D00230E7079041
:060B15003A0EE0FC600155
:010B1B0022B7
:070B1C000ABA00CB0B80C8F0
:070B2300903A0E7405F02268
:0D0B2A00120A987582C112091775825912BE
:0C0B370009177582E01209177582FF1281
:0C0B430009177582881209177582D812F4
:0C0B4F0009177582CD1209177582451236
:0C0B5B0009177582AB1209177582891208
:0A0B670009177582121209177A00AF
:0E0B7100758280C0021209171209BDE582D0FC
:0D0B7F00025402FB7007903A0EE0FB600488
:040B8C007B00800268
:020B90007B01E7
:070B92000AEA6003EB70D8D2
:090B9900EB6006903A0E7402F0C4
:010BA2002230
:0E0BA300AA8275824CC002120917D0028A8203
:0D0BB10012091775820112091775820012D2
:090BBE000917758201120917855F
:050BC7002E8202091757
:0D0BCC007582C11209177582001209177594
:0C0BD9002E007582CA120BA353B1EF432B
:030BE500B120221A
:0C0BE800752E007582CA120BA353B1EFEA
:040BF40043B12022C7
:0C0BF800AA82AB83E533FC7003F5822277
:0C0C0400752E437582CAC002C003C004F4
:0A0C1000120BA375826B120917ADD9
:070C1A002F8D8212091785DE
:060C210030821209178564
:060C27003182120917855D
:090C2D0032821209177582A0122F
:0E0C36000917D004EC14F582C00412091775DA
:0D0C44008224120917D004D003D0028C05C1
:0E0C5100ED602A903A0EE0FE7023C002C00350
:0E0C5F00C004C0051209BDAE82D005D004D07D
:0E0C6D0003D0028A828B83EEF0A3AA82AB83AF
:030C7B001D80D306
:060C7E00ECC39DF582228B
:080C8400AA82E53AFB7001228F
:0C0C8C008A2E7582CAC003120BA3758269
:090C98006B120917AA368A8212B8
:060CA100091785378212DD
:060CA700091785388212D6
:060CAD00091785398212CF
:0E0CB30009177582A0120917D003EB14F58201
:0E0CC100C003120917758264120917D003AA26
:030CCF0034AC350D
:0E0CD200EB601F8A828C83E0FDA3AA82AC83B4
:0E0CE0008D82C002C003C004120917D004D0D8
:060CEE0003D0021B80DEB2
:010CF40022DD
:0C0CF50085822E7582CA120BA375824CFA
:080D0100120917AA3B8A8212B5
:060D09000917853C82126F
:060D0F000917853D821268
:060D15000917853E821261
:090D1B0009177582001209170284
:020D24000AE7DC
:0B0D2600AA82752E4C7582CAC0021212
:0E0D31000BA375824C120917D00274204AF5EC
:0E0D3F008212091775820012091775828F1231
:090D4D00091775820012091785CF
:060D56003F8212091702A2
:020D5C000AE7A4
:0D0D5E0043B62090001412028953B1DF90BB
:090D6B00000512028943B12022A7
:0C0D7400903A15E4F0903A0FF0A3F090D4
:0E0D80003A117440F0E4A3F0903A147405F0B8
:0A0D8E00903A137409F0120B2A903A
:070D98003A0EE0FA600122AF
:070D9F00752F9075300075FF
:060DA600310075320175F9
:060DAC003303903A1D1212
:0A0DB2000BF8903A0EE0FA600122FF
:0D0DBC00120BCC903A1DE0FABA1E0280071F
:070DC900903A0E7403F022C2
:0A0DD000903A1EE0FAE4BA9701041D
:0E0DDA00FB6019903A1FE0FCBC4C11903A0FE0
:0E0DE8007410F0A37401F0903A1C7482F02293
:0E0DF600EB6019903A1FE0FBBB4E11903A0FD4
:0E0E04007490F0A37401F0903A1C7483F022F5
:0E0E1200BA9822903A1FE0FABA461A903A0FA8
:0E0E20007410F0A37402F0903A117480F0E4A4
:090E2E00A3F0903A1C7484F02238
:070E3700903A0E7403F02253
:0A0E3E00903A27E0FA7003F58222D3
:0E0E4800C002120B2AD002903A0EE0FBB40159
:010E5600009B
:0C0E5700E433FB6022903A18E0F52FA372
:0A0E6300E0F530A3E0F531A3E0F55F
:090E6D00328A3390E740C0021202
:080E76000BF8AB82D0028002F0
:020E7E007B00F7
:0A0E80008B40C002120BCCD0029090
:0E0E8A003A18E0FCA3E0FDA3E0FEA3E0FF7831
:0E0E98000079007B00903A18EA2CF0E83DA3A8
:0C0EA600F0E93EA3F0EB3FA3F085408292
:010EB200221D
:0D0EB300903A27E0FAC002120B2AD00290FC
:070EC0003A0EE0FB60012285
:070EC7007534407535E7901A
:080ECE003A18E0F536A3E0F547
:080ED60037A3E0F538A3E0F5B5
:090EDE00398A3A758223C0021220
:0E0EE7000C84D002903A25E0FBA3E0FC4B7097
:0E0EF50036903A18E0FBA3E0FCA3E0FDA3E07A
:0E0F0300FE8D07903A1CE0F8C3EF9850047F73
:030F110025800236
:020F14007F2D2F
:050F16008B3B8C3C8DBB
:080F1B003D8E3E8F82C00212E0
:090F23000CF5120BCCD002800782
:070F2C00C002120BE8D00225
:0E0F3300903A18E0FBA3E0FCA3E0FDA3E0FE73
:0E0F41007F0078007900903A18EA2BF0EF3C20
:0B0F4F00A3F0E83DA3F0E93EA3F02270
:01006C00286B
:01006D000191
:04006E005A54455843
:040072000A0D000073
:010076000089
:010077000187
:060078005300000000002F
:0C007E0000000000000000000000000076
:0A008A00303030303030303030308C
:010F5A002274
:0E0F5B0090E683E4F07420F07410F07430F02F
:0E0F690090E6837401F07421F07411F074317D
:020F7700F02266
:0A0F7900AA82E50924E0500375097F
:010F83001F4E
:0D0F840090E6BFE0701090E6BEE0FBC39564
:090F910009500690E6BEE0F509E6
:0C0F9A0075AF078A9B85089A759E41750B
:0A0FA6009DE790E67C7403F07A00EA
:0C0FB000C3EA9509501190E67BE0FB902D
:0B0FBC00E67CF090E67CE4F00A80E99F
:0B0FC700E5090425E0FA90E740F090F7
:0E0FD200E7417403F090E68AE4F090E68BEAC3
:020FE000F022FD
:0E0FE200903A25E0FAA3E0FBC374409AE49B2A
:080FF00050067C407D008004E6
:040FF8008A048B05D7
:0E0FFC00903A27ECF07D00903A25EAC39CF075
:05100A00EB9DA3F022A4
:0A100F00903A28E0FABA310280544A
:04101900BA320122C4
:05101D00BA3902801E3B
:05102200BA3C02803D14
:05102700BA49028044FB
:05102C00BA4B028042F6
:06103100BA4C030210E0BE
:06103700BA4D03021199FD
:03103D000211DFBE
:0E104000903A04E4F0903A02F0A3F090E6BB80
:0E104E00E0FB7A0090E6BAE0FC7D00903A00EC
:08105C00EC4AF0ED4BA3F02279
:0910640090E6BAE0903A05F02292
:03106D0002086412
:03107000020D5E10
:0E10730090E6BAE0FAA3E0FBA3E0FCA3E0FDE8
:0E108100903A18EAF0A3EBF074802CA3F0E490
:0E108F003DA3F090E6BAE0703390E6BBE0FAC5
:0E109D0020E02B90E6BFE0FABA022390E6BEF8
:0E10AB00E0701D90E6BBE0FAA3E0C313CA1389
:0E10B900CAFB903A0FE0FCA3E0FDC3EA9CEBFB
:0410C7009D50012215
:0E10CB00903A0E7404F090E6A0E04401F0901C
:0710D9003A25E4F0A3F02228
:0E10E00090E6BAE0FAA3E0FBA3E0FCA3E0FD7B
:0E10EE00903A18EAF0A3EBF0748C2CA3F0E417
:0E10FC003DA3F090E6BAE0FA541F6002803384
:0E110A0090E6BFE0702D90E6BEE0FABA202518
:0E11180090E6BAE0FAA3E0C403CAC403540789
:0E1126006ACA5407CA6ACAFB903A11E0FCA3D9
:09113400E0FDC3EA9CEB9D4015AF
:0E113D00903A0E7404F090E6A0E04401F090A9
:07114B003A25E4F0A3F022B5
:0B115200120B2A903A0EE0FA60012216
:07115D007534407535E79081
:081164003A18E0F536A3E0F5AE
:08116C0037A3E0F538A3E0F51C
:0811740039753A20758233122F
:07117C000C84903A18E0F525
:081183003BA3E0F53CA3E0F5FD
:09118B003DA3E0F53E758235122A
:051194000CF5020BCC7C
:0D11990090E6BEE0701590E6BFE0700F908C
:0E11A600E6BDE0700990E6BCE0FA24F85015B2
:0E11B400903A0E7404F090E6A0E04401F09032
:0711C2003A25E4F0A3F0223E
:0D11C900120B2A90E6BCE0FA90E6BAE0F5C1
:0711D6003F8A82120D260280
:0211DD000BCC39
:0811DF0090E6A0E04401F022BB
:0C11E700C020C0E0C0F0C082C083C00285
:0E11F300C003C004C005C006C007C000C00194
:0E120100C0D075D00090E6B9E0FA903A28F01F
:0E120F0090E6B57401F090E6B9E0FA24F350D1
:04121D000302159D16
:07122100EA2A2A901228734B
:0712280002124F0213030242
:06122F00159D0213800270
:06123500159D02159D024B
:06123B0014180215330235
:06124100153502154602FE
:06124700154B02155C02CC
:02124D00156129
:0A124F0090E6B8E0FABA8002800DC4
:05125900BA8102801EB5
:05125E00BA8202802F9E
:0312630002159DD4
:0E12660090E740E4F090E741F090E68AF090C7
:08127400E68B7402F002159DE7
:0E127C0090E740E4F090E741F090E68AF090B1
:08128A00E68B7402F002159DD1
:0C12920090E6BCE0FA600FBA010280197F
:05129E00BA800280058A
:0512A300BA812F801E3E
:0E12A80090E6A0E0FA53020190E740EAF080E1
:0112B6003AFD
:0E12B70090E6A1E0FA53020190E740EAF080D1
:0112C5002BFD
:0E12C60090E6A2E0FA53020190E740EAF080C1
:0112D4001CFD
:0E12D50090E6BCE0C31314540324A3F582E496
:0E12E30034E6F583E0FA53020190E740EAF0AA
:0E12F10090E741E4F090E68AF090E68B7402FC
:0412FF00F002159D47
:0A13030090E6B8E0FABA0202800397
:03130D0002159D29
:0913100090E6BAE0600302159DAD
:0C13190090E6BCE0FA600FBA01028015FB
:05132500BA8002800502
:05132A00BA81238016CA
:0B132F0090E6A0E0FA54FEF002159DCD
:0B133A0090E6A1E0FA54FEF002159DC1
:0B13450090E6A2E0FA54FEF002159DB5
:0E13500090E6BCE0C31314540324A3FAE43463
:0E135E00E6FB90E6BCE0C31314540324A3F591
:0E136C0082E434E6F583E0FC5304FE8A828BB3
:06137A0083ECF002159D5A
:0A13800090E6B8E0FABA020280031A
:03138A0002159DAC
:09138D0090E6BAE0600302159D30
:0C13960090E6BCE0FA600FBA010280147F
:0513A200BA8002800585
:0513A700BA8120801452
:0A13AC0090E6A0E0FA4401F0804151
:0A13B60090E6A1E0FA4401F0803750
:0A13C00090E6A2E0FA4401F0802D4F
:0E13CA0090E6BCE0C31314540324A3FAE434E9
:0E13D800E6FB90E6BCE0C31314540324A3F517
:0E13E60082E434E6F583E0FC4304FE8A828B49
:0313F40083ECF097
:0E13F70090E6BCE05480C423541FFA90E6BC7C
:0E140500E0FB740F5B420290E683EAF0742075
:051413004AF002159DE6
:0A14180090E6BBE0FABA0102801969
:05142200BA0202802661
:05142700BA0302804D34
:06142C00BA06030214ECF5
:06143200BA07030214FEDC
:0314380002152971
:0A143B007AD47B1D90E6B3EBF0902D
:08144500E6B474D4F002159D19
:0B144D0090E680E0FA30E7127AF07BB6
:0A1458001D90E6B3EBF090E6B474CB
:05146200F0F002159DF1
:0A1467007A127B1E90E6B3EBF090C2
:08147100E6B47412F002159DAF
:0A14790090E6BAE0FABA0102800F13
:05148300BA0202801C0A
:05148800BA03028029F7
:05148D00BA044A80369C
:061492007582B27AB27B04
:041498001D8B08752B
:06149C000905120F7902A0
:0214A200159D96
:0614A4007582B77AB77BE8
:0414AA001D8B087519
:0614AE000915120F79027E
:0214B400159D84
:0A14B60075828A7A8A7B008B087524
:0614C000090A120F790277
:0214C600159D72
:0614C8007582CC7ACC7B9A
:0414CE001D8B0875F5
:0614D2000908120F790267
:0214D800159D60
:0A14DA007A347B1E90E6B3EBF0902D
:0814E400E6B47434F002159D1A
:0A14EC007AE67B1D90E6B3EBF0906A
:0814F600E6B474E6F002159D56
:0B14FE0090E680E0FA30E7127A127BE3
:0A1509001E90E6B3EBF090E6B47418
:0515130012F002159D1D
:0A1518007AF07B1D90E6B3EBF09033
:07152200E6B474F0F08074E0
:0A15290090E6A0E0FA4401F0806AA9
:021533008068CE
:0E15350090E740E4F090E68AF090E68B7401B7
:03154300F08057DE
:05154600120F5B805252
:0E154B0090E740E4F090E68AF090E68B7401A1
:03155900F08041DE
:05155C00120F5B803C52
:0E15610090E6B8E0FABA823490E6BCE0C3131C
:0B156F0014540325E0242AF582E43424
:0C157A003AF583E4F0A3F090E685E090E1
:0D158600E740F090E684E0FA90E741F09035
:0A159300E68AE4F090E68B7402F0A3
:0B159D0090E6B8E0FABA40030217C95C
:0515A800BAC00280033F
:0315AD000217F32F
:0E15B00090E6BFE0FB7A0090E6BEE0FC7D0016
:0E15BE00903A25EC4AF0ED4BA3F0120FE290AC
:0915CC00E6B9E0FABA2202803D02
:0615D500BA30030216D13A
:0515DB00BA3802804F48
:0515E000BA3A0280731D
:0615E500BA3B0302169759
:0615EB00BA3D030216B038
:0615F100BA480302171BBB
:0615F700BA4A030217418D
:0615FD00BA4B0302174186
:06160300BA4C030217417E
:06160900BA4D0302174177
:03160F000217BF00
:0E16120090E6B5E4F090E68AF090E68B74283E
:0D162000F090E6B3E4F090E6B4746CF002D4
:02162D0017F3B1
:0E162F0090E6BBE0FB7A0090E6BAE0FC7D009E
:0E163D00903A00EC4AF0ED4BA3F090E68AE400
:0D164B00F0120573E58290E68BF00217F3B4
:0E165800903A02E0FAA3E0FB8A0490E740EC2F
:0D166600F08B0290E741EAF0903A04E0902A
:0A167300E742F075210075220175B1
:0D167D0082A2120346AA8290E743EAF09091
:0D168A00E68AE4F090E68B7404F00217F39A
:0E16970090E6BAE0903A05F090E68AE4F01290
:0B16A50007B9E58290E68BF00217F316
:0A16B0007521007522017582A61253
:0E16BA000346AA8290E740EAF090E68AE4F048
:0916C80090E68B7401F00217F3A7
:0616D100759B077A077B00
:0C16D7003A8B9A759E417A417BE78B9D0F
:0E16E300C0027A071202ADD00253B2FD308170
:0D16F1000C90E740E4F0D28143B202800982
:0916FE0090E7407401F012085855
:0E17070090E7487401F090E68AE4F090E68BDB
:061715007409F00217F355
:06171B00759B0E7A0E7BA7
:0C1721003A8B9A759E40759DE7C0027AD5
:0E172D00071202ADD00290E68AE4F090E68B3F
:06173B007407F00217F331
:0E17410090E6BAE0FAA3E0FBA3E0FCA3E0FD13
:0E174F00903A18EAF0A3EBF0A3ECF0A3EDF053
:0E175D0090E6B9E0FEBE4B13903A18EAF0A3F6
:0D176B00EBF074802CA3F0E43DA3F0803778
:0E17780090E6B9E0FEBE4C13903A18EAF0A3DA
:0D178600EBF0748C2CA3F0E43DA3F0801C6C
:0E17930090E6B9E0FEBE4D14903A1874202A7C
:0E17A100F0E43BA3F0748F3CA3F0E43DA3F012
:0E17AF0090E68AE4F0120E3EE58290E68BF0A2
:0217BD00803476
:0A17BF0090E6A0E0FA4401F0802A51
:0C17C90090E6BFE0700690E6BEE06016FF
:0E17D500903A297401F090E68BE4F05391EF06
:0817E30090E65D7401F080192D
:0817EB0012100F90E68BE4F0F0
:0E17F3005391EF90E65D7401F090E6A0E0FAED
:031801004480F030
:0E180400D0D0D001D000D007D006D005D0043F
:0D181200D003D002D083D082D0F0D0E0D03F
:02181F00203275
:0E182100C0E0C082C0835391EF90E65D740278
:08182F00F0D083D082D0E0323A
:0E183700C0E0C082C0835391EF90E65D740460
:08184500F0D083D082D0E03224
:0E184D00C0E0C082C0835391EF90E65D740846
:08185B00F0D083D082D0E0320E
:0E186300C0E0C082C0835391EF90E65D741028
:08187100F0D083D082D0E032F8
:0E187900C0E0C082C0835391EF90E65D742002
:08188700F0D083D082D0E032E2
:0E188F00C0E0C082C0835391EF90E65D7440CC
:08189D00F0D083D082D0E032CC
:0C18A500C020C0E0C0F0C082C083C002C0
:0E18B100C003C004C005C006C007C000C001CF
:0E18BF00C0D075D000C2E8120FE2903A28E0C7
:0718CD00FABA3003021948CA
:0518D400BA380280316A
:0618D900BA3A03021948AF
:0518DF00BA3B02803756
:0618E400BA3D03021948A1
:0518EA00BA4802803D38
:0618EF00BA4A0302192FA2
:0618F500BA4B0302192F9B
:0618FB00BA4C0302192F94
:06190100BA4D0302192F8C
:0319070002193F83
:0E190A0090E68AE4F0120573E58290E68BF019
:0319180002194869
:0E191B0090E68AE4F01207B9E58290E68BF0C0
:0319290002194858
:03192C000080191F
:0E192F0090E68AE4F0120E3EE58290E68BF020
:02193D0080091F
:09193F0090E68AE4F090E68BF0DA
:0E1948005391EF90E65F7401F0D2E8D0D0D05A
:0E19560001D000D007D006D005D004D003D0B9
:0C19640002D083D082D0F0D0E0D020323E
:0C197000C020C0E0C0F0C082C083C002F4
:0E197C00C003C004C005C006C007C000C00103
:0E198A00C0D075D000C2E8903A29E0FA602083
:0D199800903A29E4F090E6BFE0FB7A009061
:0E19A500E6BEE0FC7D00903A25EC4AF0ED4BEA
:0519B300A3F012100F6B
:0C19B800120FE2903A28E0FABA31030264
:0219C4001A49BE
:0519C600BA3202804569
:0519CB00BA3902801F83
:0519D000BA3C02802674
:0519D500BA4902803C4C
:0619DA00BA4B03021A1AC9
:0619E000BA4C03021A4993
:0619E600BA4D03021A488D
:0319EC00021A4993
:0C19EF0090E68BE0F5821205A7021A4971
:0B19FB00903A05E0F52B90E68BE0F53C
:081A06002C90E7401206C1021A
:021A0E001A4973
:061A10001208AD021A49A4
:041A160000021A4967
:0A1A1A00903A27E0FA7003021A491F
:091A2400903A0EE4F0120EB390AA
:091A2D003A0EE0FA7003021A49B6
:0E1A360090E6A0E0FA4401F0903A25E4F0A317
:041A4400F0021A4949
:011A4800009D
:0E1A490090E68BE4F05391EF90E65F7402F0AC
:0E1A5700903A25E0FAA3E0FB4A700890E6A062
:051A6500E0FA4480F0EE
:0E1A6A00D2E8D0D0D001D000D007D006D005F1
:0E1A7800D004D003D002D083D082D0F0D0E0D2
:031A8600D020323B
:0E1A8900C0E0C082C0835391EF90E65F74040A
:081A9700F0D083D082D0E032D0
:0E1A9F00C0E0C082C0835391EF90E65F7408F0
:081AAD00F0D083D082D0E032BA
:0E1AB500C0E0C082C0835391EF90E65F7410D2
:081AC300F0D083D082D0E032A4
:0E1ACB00C0E0C082C0835391EF90E65F7420AC
:081AD900F0D083D082D0E0328E
:0E1AE100C0E0C082C0835391EF90E65F744076
:081AEF00F0D083D082D0E03278
:0E1AF700C0E0C082C0835391EF90E65F748020
:081B0500F0D083D082D0E03261
:071B0D00752900752A039001
:061B14003A201205D490F6
:0E1B1A003A20E0FABA4324903A21E0FABA44A5
:0E1B28001C903A22E0FABA3014903A0674018A
:0A1B3600F0752910752A0A90008A44
:051B40001205D4800530
:051B4500903A06E4F0F7
:021B4A007A001F
:031B4C00BA0A00D2
:0E1B4F005012EA248AF582E43400F583E0FBAC
:061B5D00BB30540A80E9D0
:071B63007529FB752A0590AE
:091B6A003A201205D47A007B0038
:031B7300BB0500AF
:0A1B7600503CEB2420F582E4343AE1
:0E1B8000F583E0FCEA248AFDE43400FEECC4A8
:0E1B8E00540F901E3893FF8D828E83F00AEA6A
:0E1B9C00248AFDE43400FE740F5C901E389322
:0A1BAA00FC8D828E83F00A0B80BFD1
:011BB400220E
:0E1BB50090E680E04408F090E6007412F09094
:0E1BC3000002120265538EF8D28143B202C2B4
:0E1BD100AFC2E89000437402F090004474012B
:0E1BDF00F090004574B8F090E668E04408F01D
:0A1BED009001007402F07AE77B110A
:0D1BF7008B04900101ECF0900102EAF090E7
:0A1C040001047402F07A217B188BB2
:0E1C0E0004900105ECF0900106EAF090010848
:0A1C1C007402F07A377B188B0490F5
:0E1C26000109ECF090010AEAF090010C740242
:0A1C3400F07A4D7B188B0490010D2F
:0E1C3E00ECF090010EEAF09001107402F07AC2
:0A1C4C00637B188B04900111ECF08B
:0C1C5600900112EAF09001147402F07A80
:0A1C6200797B188B04900115ECF05B
:0C1C6C00900116EAF09001187402F07A62
:0A1C78008F7B188B04900119ECF02B
:0C1C820090011AEAF09001207402F07A40
:0A1C8E00A57B188B04900121ECF0F7
:0C1C9800900122EAF09001247402F07A1E
:0A1CA400707B198B04900125ECF011
:0C1CAE00900126EAF09001287402F07A00
:0A1CBA00897B1A8B04900129ECF0DD
:0C1CC40090012AEAF090012C7402F07AE2
:0A1CD0009F7B1A8B0490012DECF0AD
:0C1CDA0090012EEAF09001307402F07AC4
:0A1CE600B57B1A8B04900131ECF07D
:0C1CF000900132EAF09001347402F07AA6
:0A1CFC00CB7B1A8B04900135ECF04D
:0C1D0600900136EAF09001387402F07A87
:0A1D1200E17B1A8B04900139ECF01C
:0C1D1C0090013AEAF090013C7402F07A69
:0A1D2800F77B1A8B0490013DECF0EC
:0E1D320090013EEAF05391EF90E65D747FF071
:0E1D400090E65CE0FA447FF090E65F74FFF0FE
:0E1D4E0090E65E74FFF0D2E8D2AF90E611741A
:0E1D5C00A0F00000000090E61074A0F000005F
:0E1D6A00000090E612E4F00000000090E61386
:0E1D7800E4F00000000090E614E4F00000002B
:0E1D86000090E615E4F000000000120D74124B
:0D1D94001B0D90E680E04482F090000A12E2
:0A1DA100026590E680E054F7F0229E
:031DAB00021BB563
:051DB2005A54455800E1
:0E1DB7006E766D7465737420666F72204558E9
:071DC500502D312E313000DA
:081DCC0064656661756C74002A
:0E1DD40012010002FFFFFF401A220001000072
:041DE20001020301F6
:0A1DE6000A060002FFFFFF400100A3
:0E1DF00009022000010104C0320904000002B3
:0E1DFE00FFFFFF00070581020002000705013C
:041E0C0002000200CE
:021E10000000D0
:0E1E120009022000010104C032090400000290
:0E1E2000FFFFFF0007058102400000070501DB
:041E2E00024000006E
:021E32000000AE
:041E340004030000A3
:0E1E3800303132333435363738394142434485
:031E46004546000E
:021E4900000097
:011E4B000096
:011E4C00FF96
:011E4D000094
:081E4E0000000000000000008C
:06023700E478FFF6D8FD9B
:08021500790DE94400601B7A39
:05021D0001901E49786C
:03022200257592AD
:0A0225003AE493F2A308B8000205C2
:08022F0092D9F4DAF27592FF96
:08023D007800E84400600A7932
:03024500007592AF
:060248003AE4F309D8FCC2
:08024E007825E84400600C79FA
:0B02560001903A00E4F0A3D8FCD9FAB4
:03020800758140BD
:0A020B00121DAEE58260030202033B
:041DAE007582002218
:00000001FF
