:03020000020208EF
:0302610002020393
:05020300121BC380FE88
:03000000020200F9
:0100030032CA
:01000B0032C2
:0100130032BA
:01001B0032B2
:0100230032AA
:01002B0032A2
:01003300329A
:01003B003292
:01004300328A
:01004B003282
:01005300327A
:01005B003272
:01006300326A
:0101000032CC
:0101040032C8
:0101080032C4
:01010C0032C0
:0101100032BC
:0101140032B8
:0101180032B4
:0101200032AC
:0101240032A8
:0101280032A4
:01012C0032A0
:01013000329C
:010134003298
:010138003294
:01013C003290
:01014000328C
:010148003284
:01014C003280
:01015000327C
:010154003278
:010158003274
:01015C003270
:01016000326C
:01017000325C
:010174003258
:010178003254
:01017C003250
:01018000324C
:010184003248
:010188003244
:01018C003240
:01019000323C
:010194003238
:010198003234
:01019C003230
:0101A000322C
:0101A8003224
:0101AC003220
:0101B000321C
:0101B4003218
:0101B8003214
:010264002277
:08026500AA82AB837C007D003E
:0B026D00C3EC9AED9B50147EB07F04A0
:050278001EBEFF011F86
:0B027D00EE4F70F70CBC00E80D80E5B0
:010288002253
:08028900AA82AB837C007D001A
:0B029100C3EC9AED9B50147E0A7F0026
:05029C001EBEFF011F62
:0B02A100EE4F70F70CBC00E80D80E58C
:0102AC00222F
:0E02AD0075AF0790E67BE090E67CF0DAF32276
:0102BB002220
:0202BC007A00C6
:0302BE00BAFF0084
:0D02C100500B90E678E0FB20E0030A80F08F
:0C02CE0090E678E0FA20E204EA20E10B60
:0B02DA0090E678E04440F075820122BD
:0402E50075820022FC
:0202E9007A0099
:0302EB00BAFF0057
:0D02EE00500B90E678E0FB20E0030A80F062
:0E02FB0090E678E0FA30E20B90E678E04440BE
:05030900F075820122E5
:04030E0075820022D2
:020312007A006F
:03031400BAFF002D
:0E031700500F90E678E0FB20E2047582002291
:030325000A80EC5F
:0403280075820122B7
:02032C007A0055
:03032E00BAFF0013
:0E033100500F90E678E0FB20E6047582002273
:03033F000A80EC45
:04034200758201229D
:09034600AA82C3E49508E433FB2C
:0E034F0090E678E04480F0C002C00312031272
:0E035D00D003D00290E679EAF0C002C003128D
:0C036B0002BCE582D003D0027012E5094C
:0C037700600A90E678E04440F012032C8D
:04038300758200225D
:0E038700EB601090000AC002C003120289D081
:0503950003D00280B559
:0C039A00E509600890E678E0FA4440F0C5
:0403A6007582012239
:0C03AA00AA82AB837C00E50C7003F58296
:0103B6002224
:0A03B7007508647509007582A2C084
:0E03C10002C003C004120346E582D004D0033C
:0703CF00D00260030204B03C
:0C03D60090E679E50BF0C002C003C00403
:0E03E2001202BCE582D004D003D002600302F8
:0203F00004B057
:0C03F20090E679E50AF0C002C003C004E8
:0E03FE001202BCE582D004D003D002600302DC
:02040C0004B03A
:0E040E0090E678E04440F0C002C003C0041243
:0D041C00032C90E678E04480F0120312906B
:0E042900E67974A3F01202BCE582D004D00381
:0E043700D002707590E679E08A828B83F0C067
:0E04450002C003C0041202E9E582D004D00315
:05045300D0027059FD0C
:0C045800C3ED950C502A90E679E08A82F2
:0E0464008B83F0A3AA82AB83C002C003C00446
:0E047200C0051202E9E582D005D004D003D007
:0804800002702D0D8D0480D0E7
:0E04880090E678E04420F090E679E0C004129F
:0E04960002E9E582D004701290E678E044405E
:0C04A400F090E679E0C00412032CD004B4
:0304B0008C822219
:0C04B300AA82AB837C00E50F7003F58289
:0104BF00221A
:0A04C0007508647509007582A2C07A
:0E04CA0002C003C004120346E582D004D00332
:0704D800D002600302057071
:0C04DF0090E679E50EF0C002C003C004F6
:0E04EB001202BCE582D004D003D002600302EE
:0204F90005708C
:0C04FB0090E679E50DF0C002C003C004DB
:0E0507001202BCE582D004D003D002705CFD6D
:0C051500C3ED950F50478A828B83E0FEF7
:0E052100A3AA82AB8390E679EEF0903A04E054
:0D052F00FFEE2FF0903A02E0FEA3E0FF90F7
:0E053C003A0274012EF0E43FA3F0C002C003A7
:0E054A00C004C0051202BCE582D005D004D06A
:0A05580003D00270130D8D0480B370
:0E05620090E678E04440F0C00412032CD00470
:030570008C822258
:0A057300903A34E0FA903A00E0F507
:06057D000AA3E0F50B8A61
:0C0583000C90E740C0021203AAAB82D02B
:0E058F00027C00903A00E0FDA3E0FE903A00EE
:0A059D00EA2DF0EC3EA3F08B822261
:0B05A700AA82903A00E0F50DA3E0F5F9
:0905B2000E8A0F90E740C002120E
:0E05BB0004B3D0027B00903A00E0FCA3E0FD08
:0B05C900903A00EA2CF0EB3DA3F0227A
:0C05D400AA82AB837C00E5117003F58265
:0105E00022F8
:0A05E1007508647509007582A6C054
:0E05EB0002C003C004120346E582D004D00310
:0705F900D00260030206BE00
:0C06000090E679E510F0C002C003C004D1
:0E060C001202BCE582D004D003D002600302CB
:02061A0006BE1A
:0E061C0090E678E04440F0C002C003C0041233
:0D062A00032C90E678E04480F0120312905B
:0E063700E67974A7F01202BCE582D004D0036D
:0E064500D002707590E679E08A828B83F0C057
:0E06530002C003C0041202E9E582D004D00305
:05066100D0027059FDFC
:0C066600C3ED9511502A90E679E08A82DD
:0E0672008B83F0A3AA82AB83C002C003C00436
:0E068000C0051202E9E582D005D004D003D0F7
:08068E0002702D0D8D0480D0D7
:0E06960090E678E04420F090E679E0C004128F
:0E06A40002E9E582D004701290E678E044404E
:0C06B200F090E679E0C00412032CD004A4
:0306BE008C822209
:0C06C100AA82AB837C00E5137003F58275
:0106CD00220A
:0A06CE007508647509007582A6C066
:0E06D80002C003C004120346E582D004D00322
:0706E600D00260030207B01F
:0C06ED0090E679E512F0C002C003C004E2
:0E06F9001202BCE582D004D003D002600302DE
:0207070007B039
:04070900AD127E00AF
:09070D00C3EE951340030207A29C
:0E0716008A828B83E0FFA3AA82AB8390E679F0
:0D072400EFF0C002C003C004C005C0061203
:0E07310002BCE582D006D005D004D003D00271
:0C073F00706F0D8D120E8E04ED20E3C2D1
:0C074B00C3EE951350BC90E678E04440EB
:0E075700F0C002C003C004C005C00612032C8F
:0A0765007508647509007582A6127C
:0E076F000346E582D006D005D004D003D002A8
:0E077D00703190E679EDF0C002C003C004C0F8
:0E078B0005C0061202BCE582D006D005D004DF
:09079900D003D002701102070D1B
:0E07A20090E678E04440F0C00412032CD0042E
:0907B000903A05E512F08C82225A
:0A07B900903A34E0FA903A05E0F5BA
:0907C300108A1190E740C00212F7
:0E07CC0005D4AB82D002903A05E0FCEA2CF096
:0307DA008B8222ED
:0207DD00AA82EE
:0A07DF00D280000000C280DAF72289
:0E07E900A2A0D28033C280A2A0D28033C280F0
:0E07F700A2A0D28033C280A2A0D28033C280E2
:0E080500A2A0D28033C280A2A0D28033C280D3
:0E081300A2A0D28033C280A2A0D28033C280C5
:07082100F58222758200221E
:02082800AA160E
:0E082A00A2A0D28033C280A2A0D28033C280AE
:0E083800A2A0D28033C280A2A0D28033C280A0
:0E084600A2A0D28033C280A2A0D28033C28092
:0E085400A2A0D28033C280A2A0D28033C28084
:05086200F0A3DAC4223E
:0E086700E582339281D28033C2809281D280AA
:0E08750033C2809281D28033C2809281D280C1
:0E08830033C2809281D28033C2809281D280B3
:0E08910033C2809281D28033C2809281D280A5
:04089F0000C28022F1
:0208A300AA1693
:0E08A500E0339281D28033C2809281D28033C0
:0E08B300C2809281D28033C2809281D2803383
:0E08C100C2809281D28033C2809281D2803375
:0E08CF00C2809281D28033C2809281D280A3F7
:0508DD00C280DAC42214
:0B08E200D2837582081207DDC283225A
:0808ED00D2837582080207DDC9
:0D08F500903A137405F01208E275820512A6
:0609020008677A007B008B
:0E090800C002C0031207E9E582D003D002301E
:0E091600E02E8A048B057E007F00C3EC94FF68
:0E092400ED94FFEE9400EF6480948050157502
:0E0932008200C002C0031207DDD003D0020A0B
:06094000BA00C50B80C2E5
:0C0946001207E9E58230E0047A0280022A
:020952007A0029
:09095400903A0EEAF01208ED9051
:06095D003A0EE0F58222D3
:0E096300AA82AB8320830A903A0E7404F075CA
:03097100820422DB
:0E09740053B4FE43B20BC002C0031208F5E5F7
:0E09820082D003D0026007903A0EE0F5822288
:0E099000903A08E0FCA3E07D00EC24F8FCEDBA
:09099E0034FFFD8CF005F0800629
:0609A700EA2AFAEB33FB23
:0E09AD00D5F0F7903A13740BF0C002C003129D
:0E09BB0008E275820B120867D0038B82C0031E
:0E09C900120867D003D0028A82120867758276
:0E09D700001208677582081207DD7582002283
:0409E50075820022F5
:0309E9000208ED14
:0909EC001208ED903A1BE4F01230
:0D09F50008F5E5826007903A0EE0F58222D9
:0D0A0200903A137406F01208E27582061295
:060A0F0008671208ED90DB
:0C0A15003A137402F01208E2758202121B
:0B0A21000867903A18E0A3E0F582128D
:0C0A2C000867903A18E0FAA3E08A8212F2
:0C0A3800086775820012086775820022B2
:0E0A4400AA82903A1BE0FB6012C0021209EC7D
:0D0A5200E582D0026007903A0EE0F58222A6
:0A0A5F008A82120867903A1AE090AC
:0C0A69003A1A04F0903A1AE0FA701C905F
:0E0A75003A18E0FAA3E0FB903A1874012AF058
:0D0A8300E43BA3F01208ED903A1B7401F063
:040A90007582002249
:0E0A9400AA82AB83903A1BE0FC6016C002C041
:0D0AA200031209ECE582D003D0026007903A
:060AAF003A0EE0F5822280
:090AB500903A1AE0FC700C851463
:0A0ABE00168A828B831208A380675A
:0B0AC800ECF4FC0CE5146006C3EC9598
:030AD30014504F6D
:0C0AD6008C168A828B83C002C003C0040F
:0C0AE2001208A3D004D003D002E514C316
:0C0AEE009CF514903A18E0FDA3E0FE9087
:0E0AFA003A1874012DF0E43EA3F0903A1AE48D
:0E0B0800F0EC2AFAE43BFBC002C0031209EC39
:0E0B1600E582D003D0026007903A0EE0F5822F
:010B240022AE
:080B25008514168A828B8312ED
:020B2D0008A31B
:0A0B2F00903A1AE0FAE5142AF0905B
:0E0B39003A1AE0FA701C903A18E0FAA3E0FBBA
:0E0B4700903A1874012AF0E43BA3F01208ED76
:060B5500903A1B7401F050
:040B5B00758200227D
:0E0B5F00AA82AB8320830A903A0E7404F075CC
:030B6D00820422DD
:0E0B700053B4FE43B20BC002C0031208F5E5F9
:0E0B7E0082D003D0026007903A0EE0F582228A
:0E0B8C00903A1CEAF0A3EBF0903A08E0FCA3CC
:0E0B9A00E07D00EC24F8FCED34FFFD8CF0054E
:030BA800F08006D4
:060BAB00EA2AFAEB33FB1D
:0E0BB100D5F0F7903A18EAF0A3EBF0903A1A5C
:0D0BBF00E4F0903A137406F0C002C0031277
:090BCC0008E275820612086712A6
:070BD50008ED903A12E090D8
:070BDC003A13F01208E29049
:0E0BE3003A12E0F582120867D0038B82C0033D
:0E0BF100120867D003D0028A8212086775824C
:080BFF00001208671208ED90D6
:090C07003A1B7401F07582002211
:070C10001208ED75820022BD
:030C17000208EDE3
:0E0C1A001208ED903A1CE0FAA3E0FB8A828BF0
:050C280083A3020B5F35
:0E0C2D0090E671E4F0903A077401F0903A0EF0
:0D0C3B00E4F0903A087410F0A37480F0907B
:0E0C48003A1274D8F053B4FE43B20BD2837547
:0C0C560082001207DD903A137490F01237
:0C0C620008E27582901208677582181273
:080C6E0007DD1207E9E58290A1
:070C76003A10F01208ED90A6
:0C0C7D003A13749FF01208E275829F1277
:060C8900086775160390D8
:060C8F003A1412082812BD
:0A0C950008ED903A16E0FABA1000DC
:0E0C9F00403DEA24E74038903A14E0903A0FC6
:0E0CAD00F0903A15E0903A11F0EA24F0FA8A3D
:090CBB00F005F07A017B008006CF
:060CC400EA2AFAEB33FB03
:0E0CCA00D5F0F7903A0AEAF0A3EBF0EB339581
:060CD800E0A3F0A3F022EE
:0E0CDE00903A07E4F0903A0E7407F053B2F427
:010CEC0022E5
:0A0CED00903A34E0F51690E740124B
:0B0CF7000828903A1EE0FABA020E90A6
:0D0D02003A32E0FAA3E0FB4A70030208ED6C
:010D0F0022C1
:0A0D1000903A34E0F51490E7401229
:0B0D1A000A94903A1FE0FABA020E9013
:0D0D25003A32E0FAA3E0FB4A70030208ED49
:010D3200229E
:0E0D3300AAB674BF5AF5F0748045F0F5B653B9
:0E0D4100B17F90000112026543B180903A2705
:030D4F00E4F022AB
:0E0D520043B180AAB674BF5AF5F0748045F024
:0E0D6000F5B6E5B120E62453B17F740455B218
:0E0D6E00F5F0747045F0F5B274045580F5F0A0
:0E0D7C00742045F0F58090000112026543B12D
:010D8A0080E8
:060D8B00903A27E4F0227B
:0E0D910090E6017480F00000000090E670E42F
:0E0D9F00F090E671F0903A28E5B2F0903A2715
:0E0DAD00747BF053B204AAB674BF5AF5F0740A
:0E0DBB008045F0F5B653B17F43B27274045513
:0D0DC90080F5F0742245F0F58090000512D1
:0B0DD600026543B180C2817A007B00FF
:0E0DE1002087208A048B057E007F00C3EC94DF
:0E0DEF00FFED94FFEE9400EF648094805007B7
:070DFD000ABA00E00B80DDE3
:0A0E040043B2013087047AC880026F
:020E0E007A6404
:0E0E1000903A25EAF0903A21E4F0A3F0A3F026
:080E1E00A3F0903A20E4F02259
:010E260022A9
:070E27003087047A168002F7
:020E2E007A0B3D
:0A0E3000903A25E0FBEA2BF07A006F
:030E3A00BA4000BB
:090E3D005007D280C2800A80F443
:0E0E4600D281D280C280D280C280D280C2808F
:0E0E5400D280C280903A28E0F5B2E5B130E6D7
:040E620003020E2653
:010E66002269
:0C0E670085B41575B4FF903A34E0FB90A0
:0E0E73003A21E0FCA3E0FDA3E0FEA3E0FF783F
:0E0E81000079007A00903A21EB2CF0E83DA3B6
:0E0E8F00F0E93EA3F0EA3FA3F090E68BE060AE
:0E0E9D0022FA759B40759AE775AF07903A20D0
:050EAB00E0F990E67B78
:0E0EB000E0F5A0D28029F9C280DAF5903A2050
:020EBE00E9F059
:0B0EC0008515B490E68BE0FABA400004
:050ECB005003020E2798
:010ED00022FF
:01006C00286B
:01006D000191
:04006E005A54455843
:040072000A1200006E
:010076000089
:010077000187
:060078004700000000003B
:0C007E0000000000000000000000000076
:0A008A00303030303030303030308C
:010ED10022FE
:0E0ED20090E683E4F07420F07410F07430F0B9
:0E0EE00090E6837401F07421F07411F0743107
:020EEE00F022F0
:0A0EF000AA82E51724E050037517ED
:010EFA001FD8
:0D0EFB0090E6BFE0701090E6BEE0FBC395EE
:090F080017500690E6BEE0F51753
:0C0F110075AF078A9B85169A759E417586
:0A0F1D009DE790E67C7403F07A0073
:0C0F2700C3EA9517501190E67BE0FB90A8
:0B0F3300E67CF090E67CE4F00A80E928
:0B0F3E00E5170425E0FA90E740F09072
:0E0F4900E7417403F090E68AE4F090E68BEA4C
:020F5700F02286
:0E0F5900903A32E0FAA3E0FBC374409AE49BA6
:080F670050067C407D0080046F
:040F6F008A048B0560
:0E0F7300903A34ECF07D00903A32EAC39CF0E4
:050F8100EB9DA3F0222E
:0A0F8600903A35E0FABA31028077A4
:050F9000BA3202807579
:050F9500BA3902800AD8
:050F9A00BA3C028029B1
:050F9F00BA4274802D30
:0E0FA400903A04E4F0903A02F0A3F090E6BB1D
:0E0FB200E0FB7A0090E6BAE0FC7D00903A0089
:080FC000EC4AF0ED4BA3F02216
:090FC80090E6BAE0903A05F0222F
:0D0FD10090E6BDE0FA903A1FF0EA70419002
:0E0FDE00E6BBE0FB7A0090E6BAE07D004AF543
:0D0FEC0082ED4BF583120B5FE582602690CD
:0E0FF900E6A0E04401F0903A32E4F0A3F022CA
:03100700020D33A4
:09100A00903A27E0FABA7B0122BA
:03101300020D913A
:0810160090E6A0E0FA4401F0AD
:01101E0022AF
:0C101F00C020C0E0C0F0C082C083C0024E
:0E102B00C003C004C005C006C007C000C0015D
:0E103900C0D075D00090E6B9E0FA903A35F0DC
:0E10470090E6B57401F090E6B9E0FA24F3509B
:04105500030213D5AA
:07105900EA2A2A90106073DF
:0710600002108702113B02A0
:0610670013D50211B802CE
:06106D0013D50213D502A9
:06107300125002136B0293
:06107900136D02137E025C
:06107F001383021394022A
:021085001399BD
:0A10870090E6B8E0FABA8002800D8E
:05109100BA8102801E7F
:05109600BA8202802F68
:03109B000213D568
:0E109E0090E740E4F090E741F090E68AF09091
:0810AC00E68B7402F00213D57B
:0E10B40090E740E4F090E741F090E68AF0907B
:0810C200E68B7402F00213D565
:0C10CA0090E6BCE0FA600FBA0102801949
:0510D600BA8002800554
:0510DB00BA812F801E08
:0E10E00090E6A0E0FA53020190E740EAF080AB
:0110EE003AC7
:0E10EF0090E6A1E0FA53020190E740EAF0809B
:0110FD002BC7
:0E10FE0090E6A2E0FA53020190E740EAF0808B
:01110C001CC6
:0E110D0090E6BCE0C31314540324A3F582E45F
:0E111B0034E6F583E0FA53020190E740EAF073
:0E11290090E741E4F090E68AF090E68B7402C5
:04113700F00213D5DA
:0A113B0090E6B8E0FABA0202800361
:031145000213D5BD
:0911480090E6BAE060030213D541
:0C11510090E6BCE0FA600FBA01028015C5
:05115D00BA80028005CC
:05116200BA8123801694
:0B11670090E6A0E0FA54FEF00213D561
:0B11720090E6A1E0FA54FEF00213D555
:0B117D0090E6A2E0FA54FEF00213D549
:0E11880090E6BCE0C31314540324A3FAE4342D
:0E119600E6FB90E6BCE0C31314540324A3F55B
:0E11A40082E434E6F583E0FC5304FE8A828B7D
:0611B20083ECF00213D5EE
:0A11B80090E6B8E0FABA02028003E4
:0311C2000213D540
:0911C50090E6BAE060030213D5C4
:0C11CE0090E6BCE0FA600FBA0102801449
:0511DA00BA800280054F
:0511DF00BA812080141C
:0A11E40090E6A0E0FA4401F080411B
:0A11EE0090E6A1E0FA4401F080371A
:0A11F80090E6A2E0FA4401F0802D19
:0E12020090E6BCE0C31314540324A3FAE434B2
:0E121000E6FB90E6BCE0C31314540324A3F5E0
:0E121E0082E434E6F583E0FC4304FE8A828B12
:03122C0083ECF060
:0E122F0090E6BCE05480C423541FFA90E6BC45
:0E123D00E0FB740F5B420290E683EAF074203F
:05124B004AF00213D57A
:0A12500090E6BBE0FABA0102801933
:05125A00BA020280262B
:05125F00BA0302804DFE
:06126400BA060302132488
:06126A00BA07030213366F
:0312700002136105
:0A1273007AE27B1C90E6B3EBF090EA
:08127D00E6B474E2F00213D59F
:0B12850090E680E0FA30E7127AFE7B72
:0A1290001C90E6B3EBF090E6B47496
:05129A00FEF00213D577
:0A129F007A207B1D90E6B3EBF0907F
:0812A900E6B47420F00213D535
:0A12B10090E6BAE0FABA0102800FDD
:0512BB00BA0202801CD4
:0512C000BA03028029C1
:0512C500BA044A803666
:0612CA007582BD7ABD7BB8
:0412D0001C8B1675E8
:0612D4001705120EF002E6
:0212DA0013D52A
:0612DC007582C27AC27B9C
:0412E2001C8B1675D6
:0612E6001718120EF002C1
:0212EC0013D518
:0A12EE0075828A7A8A7B008B1675E0
:0612F800170A120EF002BD
:0212FE0013D506
:061300007582DA7ADA7B47
:041306001C8B1675B1
:06130A001708120EF002AC
:0213100013D5F3
:0A1312007A427B1D90E6B3EBF090E9
:08131C00E6B47442F00213D59F
:0A1324007AF47B1C90E6B3EBF09026
:08132E00E6B474F4F00213D5DB
:0B13360090E680E0FA30E7127A207B9E
:0A1341001D90E6B3EBF090E6B474E3
:05134B0020F00213D5A3
:0A1350007AFE7B1C90E6B3EBF090F0
:07135A00E6B474FEF080749C
:0A13610090E6A0E0FA4401F0806A73
:02136B00806898
:0E136D0090E740E4F090E68AF090E68B740181
:03137B00F08057A8
:05137E00120ED28052A6
:0E13830090E740E4F090E68AF090E68B74016B
:03139100F08041A8
:05139400120ED2803CA6
:0E13990090E6B8E0FABA823490E6BCE0C313E6
:0B13A70014540325E02437F582E434E1
:0C13B2003AF583E4F0A3F090E685E090AB
:0D13BE00E740F090E684E0FA90E741F090FF
:0A13CB00E68AE4F090E68B7402F06D
:0B13D50090E6B8E0FABA4003021600F0
:0513E000BAC002800309
:0313E50002162AC3
:0E13E80090E6BFE0FB7A0090E6BEE0FC7D00E0
:0E13F600903A32EC4AF0ED4BA3F0120F5990F2
:09140400E6B9E0FABA22028031D7
:06140D00BA30030215A62F
:05141300BA380280431D
:05141800BA3A028067F2
:06141D00BA3B030214C3F8
:06142300BA3D030214DCD7
:06142900BA40030214FDAD
:06142F00BA41030215336F
:06143500BA43030215801A
:03143B000215F6A1
:0E143E0090E6B5E4F090E68AF090E68B742814
:0D144C00F090E6B3E4F090E6B4746CF002AA
:02145900162A51
:0E145B0090E6BBE0FB7A0090E6BAE0FC7D0074
:0E146900903A00EC4AF0ED4BA3F090E68AE4D6
:0D147700F0120573E58290E68BF002162A54
:0E148400903A02E0FAA3E0FB8A0490E740EC05
:0D149200F08B0290E741EAF0903A04E09000
:0A149F00E742F075080075090175B9
:0D14A90082A2120346AA8290E743EAF09067
:0D14B600E68AE4F090E68B7404F002162A3A
:0E14C30090E6BAE0903A05F090E68AE4F01266
:0B14D10007B9E58290E68BF002162AB6
:0A14DC007508007509017582A6125B
:0E14E6000346AA8290E740EAF090E68AE4F01E
:0914F40090E68B7401F002162A47
:0E14FD00903A0EE0FA7009208306903A0E74C1
:02150B0004F0EA
:06150D00759B077A077BC5
:0C1513003A8B9A759E40759DE7C0027AE5
:0E151F00081202ADD00290E68AE4F090E68B4E
:06152D007408F002162A0A
:0D15330090E6BDE0FA903A1EF0EA702D90AF
:0E154000E6BBE0FB7A0090E6BAE07D004AF5DB
:0D154E0082ED4BF583120963E58260129077
:0E155B00E6A0E0FA4401F0903A32E4F0A3F08A
:0315690002162A3D
:0E156C00120CED90E68AE4F0903A34E0FA902A
:06157A00E68BF002162AC8
:06158000759B0E7A0E7B44
:0C1586003A8B9A759E40759DE7C0027A72
:0E1592000A1202ADD00290E68AE4F090E68BD9
:0615A000740AF002162A95
:0615A600759B207A207BFA
:0C15AC003A8B9A759E417A417BE78B9D3B
:0E15B800C0027A071202ADD002AAB674BF5A62
:0E15C600F5F0748045F0F5B6E5B130E607901B
:0615D400E740E4F080098D
:0915DA0090E7407401F0120D339A
:0E15E30090E7487401F090E68AE4F090E68B01
:0515F1007409F08034D4
:0A15F60090E6A0E0FA4401F0802A1C
:0C16000090E6BFE0700690E6BEE06016C9
:0E160C00903A367401F090E68BE4F05391EFC3
:08161A0090E65D7401F08019F7
:08162200120F8690E68BE4F044
:0E162A005391EF90E65D7401F090E6A0E0FAB7
:031638004480F0FB
:0E163B00D0D0D001D000D007D006D005D0040A
:0D164900D003D002D083D082D0F0D0E0D00A
:02165600203240
:0E165800C0E0C082C0835391EF90E65D740243
:08166600F0D083D082D0E03205
:0E166E00C0E0C082C0835391EF90E65D74042B
:08167C00F0D083D082D0E032EF
:0E168400C0E0C082C0835391EF90E65D740811
:08169200F0D083D082D0E032D9
:0E169A00C0E0C082C0835391EF90E65D7410F3
:0816A800F0D083D082D0E032C3
:0E16B000C0E0C082C0835391EF90E65D7420CD
:0816BE00F0D083D082D0E032AD
:0E16C600C0E0C082C0835391EF90E65D744097
:0816D400F0D083D082D0E03297
:0C16DC00C020C0E0C0F0C082C083C0028B
:0E16E800C003C004C005C006C007C000C0019A
:0E16F600C0D075D000C2E8120F59903A35E00E
:07170400FABA300302177668
:05170B00BA3802801E47
:05171000BA3A028061FD
:05171500BA3B02802434
:05171A00BA3D028057FA
:05171F00BA40028052F7
:05172400BA410280251E
:05172900BA43418048B5
:0E172E0090E68AE4F0120573E58290E68BF0F7
:02173C008038F3
:0E173E0090E68AE4F01207B9E58290E68BF09F
:02174C008028F3
:0D174E00903A34E0FA6008903A0EE4F01290
:02175B000CED93
:0E175D0090E68AE4F0903A34E0FA90E68BF0E1
:02176B008009F3
:09176D0090E68AE4F090E68BF0AE
:0E1776005391EF90E65F7401F0D2E8D0D0D02E
:0E17840001D000D007D006D005D004D003D08D
:0C17920002D083D082D0F0D0E0D0203212
:0C179E00C020C0E0C0F0C082C083C002C8
:0E17AA00C003C004C005C006C007C000C001D7
:0E17B800C0D075D000C2E8903A36E0FA60204A
:0D17C600903A36E4F090E6BFE0FB7A009028
:0E17D300E6BEE0FC7D00903A32EC4AF0ED4BB1
:0517E100A3F0120F86C9
:0D17E600120F59903A35E0FABA31028060D6
:0517F300BA320280582B
:0517F800BA3902800A6D
:0517FD00BA3C0280105F
:05180200BA424E801FF8
:0B18070090E68BE0F5821205A78041FF
:0B181200903A05E0F51290E68BE0F53F
:09181D001390E7401206C1802D72
:0D182600903A34E0FA6026903A0EE4F01299
:0A1833000D10903A0EE0FA60171253
:0E183D0008ED90E6A0E0FA4401F0903A32E4A3
:05184B00F0A3F0800392
:03185000120E670E
:0E18530090E68BE4F05391EF90E65F7402F0A4
:0E186100903A32E0FAA3E0FB4A700890E6A04D
:05186F00E0FA4480F0E6
:0E187400D2E8D0D0D001D000D007D006D005E9
:0E188200D004D003D002D083D082D0F0D0E0CA
:03189000D0203233
:0E189300C0E0C082C0835391EF90E65F740402
:0818A100F0D083D082D0E032C8
:0E18A900C0E0C082C0835391EF90E65F7408E8
:0818B700F0D083D082D0E032B2
:0E18BF00C0E0C082C0835391EF90E65F7410CA
:0818CD00F0D083D082D0E0329C
:0E18D500C0E0C082C0835391EF90E65F7420A4
:0818E300F0D083D082D0E03286
:0E18EB00C0E0C082C0835391EF90E65F74406E
:0818F900F0D083D082D0E03270
:0E190100C0E0C082C0835391EF90E65F748017
:08190F00F0D083D082D0E03259
:07191700751000751103902B
:06191E003A291205D490E5
:0E1924003A29E0FABA4324903A2AE0FABA448B
:0E1932001C903A2BE0FABA3014903A06740179
:0A194000F075101075110A90008A6E
:05194A001205D4800528
:05194F00903A06E4F0EF
:021954007A0017
:03195600BA0A00CA
:0E1959005012EA248AF582E43400F583E0FBA4
:06196700BB30540A80E9C8
:07196D007510FB75110590D8
:091974003A291205D47A007B0027
:03197D00BB0500A7
:0A198000503CEB2429F582E4343AD0
:0E198A00F583E0FCEA248AFDE43400FEECC4A0
:0E199800540F901D4693FF8D828E83F00AEA55
:0E19A600248AFDE43400FE740F5C901D46930D
:0A19B400FC8D828E83F00A0B80BFC9
:0119BE002206
:0E19BF0090E680E04408F090E6007412F0908C
:0E19CD000002120265538EF8120D52C2AFC214
:0E19DB00E89000437402F09000447401F09014
:0D19E900004574B8F090E668E04408F09006
:0A19F60001007402F07A1F7B108BD1
:0E1A000004900101ECF0900102EAF090010464
:0A1A0E007402F07A587B168B0490E6
:0E1A18000105ECF0900106EAF090010874025E
:0A1A2600F07A6E7B168B0490010924
:0E1A3000ECF090010AEAF090010C7402F07ADA
:0A1A3E00847B168B0490010DECF080
:0C1A480090010EEAF09001107402F07A98
:0A1A54009A7B168B04900111ECF050
:0C1A5E00900112EAF09001147402F07A7A
:0A1A6A00B07B168B04900115ECF020
:0C1A7400900116EAF09001187402F07A5C
:0A1A8000C67B168B04900119ECF0F0
:0C1A8A0090011AEAF09001207402F07A3A
:0A1A9600DC7B168B04900121ECF0BC
:0C1AA000900122EAF09001247402F07A18
:0A1AAC009E7B178B04900125ECF0DF
:0C1AB600900126EAF09001287402F07AFA
:0A1AC200937B188B04900129ECF0CF
:0C1ACC0090012AEAF090012C7402F07ADC
:0A1AD800A97B188B0490012DECF09F
:0C1AE20090012EEAF09001307402F07ABE
:0A1AEE00BF7B188B04900131ECF06F
:0C1AF800900132EAF09001347402F07AA0
:0A1B0400D57B188B04900135ECF03E
:0C1B0E00900136EAF09001387402F07A81
:0A1B1A00EB7B188B04900139ECF00E
:0C1B240090013AEAF090013C7402F07A63
:0A1B3000017B198B0490013DECF0DD
:0E1B3A0090013EEAF05391EF90E65D747FF06B
:0E1B480090E65CE0FA447FF090E65F74FFF0F8
:0E1B560090E65E74FFF0D2E8D2AF90E6117414
:0E1B6400A0F00000000090E61074A0F0000059
:0E1B7200000090E612E4F00000000090E61380
:0E1B8000E4F00000000090E614E4F000000025
:0E1B8E000090E615E4F000000000120C2D900F
:0D1B9C003A07E0FA70099000FA1202651293
:021BA9000C2D01
:0E1BAB0012191790E680E04482F090000A12B2
:0A1BB900026590E680E054F7F02288
:0B1BC3001219BF903A07E0FA7003020D
:021BCE001CAA4F
:0A1BD00090000012096375160490DE
:061BDA003A2E12082890CB
:0E1BE0003A08E0FAA3E0FBEA24FCF582EB34BD
:0E1BEE00FFF5831209E9903A2EE0FAA3E0FB1E
:0E1BFC00A3E0FCA3E0FD903A2E74012AF0E471
:0E1C0A003BA3F0E43CA3F0E43DA3F0903A2E9F
:0E1C1800E0FAA3E0FBA3E0FCA3E0FD903A0A93
:0E1C2600E0FEA3E0FFA3E0F8A3E0F9C3EE9A0E
:0E1C3400EF9BE89CE99D4006EA4B4C4D700D7D
:0D1C4200903A2E7401F0E4A3F0A3F0A3F09B
:0A1C4F00900000120B5F7514049062
:061C59003A2E120A9490DD
:0E1C5F003A08E0FAA3E0FBEA24FCF582EB343D
:0A1C6D00FFF583120C10120C179003
:0E1C77003A2EE0FAA3E0FBA3E0A3E08A828B02
:081C850083120B5F901CB07587
:061C8D00140D120A9490F0
:0E1C93003A08E0FAA3E0FBEA24F3F582EB3412
:091CA100FFF583120C10120C1760
:021CAA0080FEBA
:0D1CB00048656C6C6F20576F726C642100EA
:051CBD005A54455800D7
:0E1CC200466C6173682064656D6F20666F72FA
:0A1CD0002055464D20322E30310021
:081CDA0064656661756C74001D
:0E1CE20012010002FFFFFF401A220001000065
:041CF00001020301E9
:0A1CF4000A060002FFFFFF40010096
:0E1CFE0009022000010104C0320904000002A6
:0E1D0C00FFFFFF00070581020002000705012E
:041D1A0002000200C1
:021D1E000000C3
:0E1D200009022000010104C032090400000283
:0E1D2E00FFFFFF0007058102400000070501CE
:041D3C000240000061
:021D40000000A1
:041D42000403000096
:0E1D4600303132333435363738394142434478
:031D540045460001
:021D570000008A
:011D59000089
:011D5A00FF89
:011D5B000087
:081D5C0000000000000000007F
:06023700E478FFF6D8FD9B
:08021500790DE94400601B7A39
:05021D0001901D57785F
:03022200327592A0
:0A0225003AE493F2A308B8000205C2
:08022F0092D9F4DAF27592FF96
:08023D007800E84400600A7932
:03024500007592AF
:060248003AE4F309D8FCC2
:08024E007832E84400600C79ED
:0B02560001903A00E4F0A3D8FCD9FAB4
:03020800758120DD
:0A020B00121CACE58260030202033E
:041CAC00758200221B
:00000001FF
