:03020000020208EF
:0302610002020393
:05020300121FC980FE7E
:03000000020200F9
:0100030032CA
:01000B0032C2
:0100130032BA
:01001B0032B2
:0100230032AA
:01002B0032A2
:01003300329A
:01003B003292
:01004300328A
:01004B003282
:01005300327A
:01005B003272
:01006300326A
:0101000032CC
:0101040032C8
:0101080032C4
:01010C0032C0
:0101100032BC
:0101140032B8
:0101180032B4
:0101200032AC
:0101240032A8
:0101280032A4
:01012C0032A0
:01013000329C
:010134003298
:010138003294
:01013C003290
:01014000328C
:010148003284
:01014C003280
:01015000327C
:010154003278
:010158003274
:01015C003270
:01016000326C
:01017000325C
:010174003258
:010178003254
:01017C003250
:01018000324C
:010184003248
:010188003244
:01018C003240
:01019000323C
:010194003238
:010198003234
:01019C003230
:0101A000322C
:0101A8003224
:0101AC003220
:0101B000321C
:0101B4003218
:0101B8003214
:010264002277
:08026500AA82AB837C007D003E
:0B026D00C3EC9AED9B50147EB07F04A0
:050278001EBEFF011F86
:0B027D00EE4F70F70CBC00E80D80E5B0
:010288002253
:08028900AA82AB837C007D001A
:0B029100C3EC9AED9B50147E0A7F0026
:05029C001EBEFF011F62
:0B02A100EE4F70F70CBC00E80D80E58C
:0102AC00222F
:0E02AD0075AF0790E67BE090E67CF0DAF32276
:0102BB002220
:0E02BC0043B283740E45B454FEF5B485B6B655
:0E02CA00D287C28190E6A3E054FEF090E6A534
:0E02D800E0FA54FEF090E60174E3F00000003E
:0E02E6000090E60B7401F00000000090E604AA
:0E02F4007480F00000000090E6047402F00038
:0E03020000000090E6047404F000000000907B
:0E031000E604E4F00000000090E6187401F02E
:0E031E000000000090E6187409F000000000D6
:0E032C0090E6207402F00000000090E621E44C
:0E033A00F00000000090E61A7401F0000000D0
:0E0348000090E61A7411F00000000090E60923
:0E035600E4F00000000090E60274CAF000001F
:0B0364000000900002120265C2872218
:0E036F00E5821392A1D2A2001392A1C2A200B5
:0E037D001392A1D2A2001392A1C2A200139269
:0E038B00A1D2A2001392A1C2A2001392A1D28D
:08039900A2001392A1C2A222EE
:0203A1007A00E0
:0E03A30090E68BE0FBC3EA9B5036EA2440F55F
:0E03B10082E434E7F583E0F582C00212036FA8
:0E03BF00D002903A00E0FBBB0411C2A1D2A311
:0D03CD00D2A2903A00E4F0C2A3C2A28006C2
:0603DA00903A00EB04F074
:0303E0000A80C0D0
:0103E30022F7
:0E03E400A2A0C2A20013A2A0D2A20013A2A047
:0E03F200C2A20013A2A0D2A20013A2A0C2A217
:0E0400000013A2A0D2A20013A2A0C2A2001359
:0D040E00A2A0D2A20013F582227582002266
:07041B00903A33E0FA7B0088
:0E042200C3EB9A505A903A02E0FC7022C2A33B
:0D043000C2A2903A01E0F582C002C00312A2
:0D043D00036FD003D002D2A1D2A3D2A290AF
:06044A003A01E0FC04F0A1
:0E045000903A02E004903A025403F0EB24408C
:0E045E00FCE434E7FDC002C003C004C0051278
:0E046C0003E4AE82D005D004D003D0028C820F
:07047A008D83EEF00B80A161
:0B04810090E68AE4F090E68BEAF0229F
:02048C007A00F4
:03048E00BAFF00B2
:0D049100500B90E678E0FB20E0030A80F0BD
:0C049E0090E678E0FA20E204EA20E10B8E
:0B04AA0090E678E04440F075820122EB
:0404B500758200222A
:0204B9007A00C7
:0304BB00BAFF0085
:0D04BE00500B90E678E0FB20E0030A80F090
:0E04CB0090E678E0FA30E20B90E678E04440EC
:0504D900F07582012214
:0404DE007582002201
:0204E2007A009E
:0304E400BAFF005C
:0E04E700500F90E678E0FB20E20475820022C0
:0304F5000A80EC8E
:0404F80075820122E6
:0204FC007A0084
:0304FE00BAFF0042
:0E050100500F90E678E0FB20E60475820022A1
:03050F000A80EC73
:0405120075820122CB
:09051600AA82C3E49508E433FB5A
:0E051F0090E678E04480F0C002C0031204E2CF
:0E052D00D003D00290E679EAF0C002C00312BB
:0C053B00048CE582D003D0027012E509A8
:0C054700600A90E678E04440F01204FCEA
:04055300758200228B
:0E055700EB601090000AC002C003120289D0AF
:0505650003D00280B587
:0C056A00E509600890E678E0FA4440F0F3
:040576007582012267
:0C057A00AA82AB837C00E50C7003F582C4
:010586002252
:0A0587007508647509007582A2C0B2
:0E05910002C003C004120516E582D004D00398
:07059F00D002600302068098
:0C05A60090E679E50BF0C002C003C00431
:0E05B20012048CE582D004D003D00260030254
:0205C0000680B3
:0C05C20090E679E50AF0C002C003C00416
:0E05CE0012048CE582D004D003D00260030238
:0205DC00068097
:0E05DE0090E678E04440F0C002C003C0041272
:0D05EC0004FC90E678E04480F01204E290F8
:0E05F900E67974A3F012048CE582D004D003DE
:0E060700D002707590E679E08A828B83F0C095
:0E06150002C003C0041204B9E582D004D00371
:05062300D0027059FD3A
:0C062800C3ED950C502A90E679E08A8220
:0E0634008B83F0A3AA82AB83C002C003C00474
:0E064200C0051204B9E582D005D004D003D063
:0806500002702D0D8D0480D015
:0E06580090E678E04420F090E679E0C00412CD
:0E06660004B9E582D004701290E678E04440BA
:0C067400F090E679E0C0041204FCD00411
:030680008C822247
:0C068300AA82AB837C00E50F7003F582B7
:01068F002248
:0A0690007508647509007582A2C0A8
:0E069A0002C003C004120516E582D004D0038E
:0706A800D0026003020740CD
:0C06AF0090E679E50EF0C002C003C00424
:0E06BB0012048CE582D004D003D0026003024A
:0206C9000740E8
:0C06CB0090E679E50DF0C002C003C00409
:0E06D70012048CE582D004D003D002705CFDCA
:0C06E500C3ED950F50478A828B83E0FE26
:0E06F100A3AA82AB8390E679EEF0903A07E080
:0D06FF00FFEE2FF0903A05E0FEA3E0FF9023
:0E070C003A0574012EF0E43FA3F0C002C003D2
:0E071A00C004C00512048CE582D005D004D0C6
:0A07280003D00270130D8D0480B39E
:0E07320090E678E04440F0C0041204FCD004CD
:030740008C822286
:0A074300903A33E0FA903A03E0F533
:06074D000AA3E0F50B8A8F
:0C0753000C90E740C00212057AAB82D087
:0E075F00027C00903A03E0FDA3E0FE903A0316
:0A076D00EA2DF0EC3EA3F08B82228F
:0B077700AA82903A03E0F50DA3E0F524
:090782000E8A0F90E740C002123C
:0E078B000683D0027B00903A03E0FCA3E0FD61
:0B079900903A03EA2CF0EB3DA3F022A5
:0C07A400AA82AB837C00E5117003F58293
:0107B0002226
:0A07B1007508647509007582A6C082
:0E07BB0002C003C004120516E582D004D0036C
:0707C900D002600302088E5C
:0C07D00090E679E510F0C002C003C00400
:0E07DC0012048CE582D004D003D00260030228
:0207EA00088E77
:0E07EC0090E678E04440F0C002C003C0041262
:0D07FA0004FC90E678E04480F01204E290E8
:0E080700E67974A7F012048CE582D004D003C9
:0E081500D002707590E679E08A828B83F0C085
:0E08230002C003C0041204B9E582D004D00361
:05083100D0027059FD2A
:0C083600C3ED9511502A90E679E08A820B
:0E0842008B83F0A3AA82AB83C002C003C00464
:0E085000C0051204B9E582D005D004D003D053
:08085E0002702D0D8D0480D005
:0E08660090E678E04420F090E679E0C00412BD
:0E08740004B9E582D004701290E678E04440AA
:0C088200F090E679E0C0041204FCD00401
:03088E008C822237
:0C089100AA82AB837C00E5137003F582A3
:01089D002238
:0A089E007508647509007582A6C094
:0E08A80002C003C004120516E582D004D0037E
:0708B600D00260030209807B
:0C08BD0090E679E512F0C002C003C00410
:0E08C90012048CE582D004D003D0026003023A
:0208D700098096
:0408D900AD127E00DE
:0908DD00C3EE95134003020972F9
:0E08E6008A828B83E0FFA3AA82AB8390E6791F
:0D08F400EFF0C002C003C004C005C0061232
:0E090100048CE582D006D005D004D003D002CD
:0C090F00706F0D8D120E8E04ED20E3C2FF
:0C091B00C3EE951350BC90E678E0444019
:0E092700F0C002C003C004C005C0061204FCEC
:0A0935007508647509007582A612AA
:0E093F000516E582D006D005D004D003D00204
:0E094D00703190E679EDF0C002C003C004C026
:0E095B0005C00612048CE582D006D005D0043B
:09096900D003D00270110208DD78
:0E09720090E678E04440F0C0041204FCD0048B
:09098000903A08E512F08C822285
:0A098900903A33E0FA903A08E0F5E6
:09099300108A1190E740C0021225
:0E099C0007A4AB82D002903A08E0FCEA2CF0EF
:0309AA008B82221B
:0209AD00AA821C
:0A09AF00D2A6000000C2A6DAF7226B
:0E09B900A2A4D2A633C2A6A2A4D2A633C2A67E
:0E09C700A2A4D2A633C2A6A2A4D2A633C2A670
:0E09D500A2A4D2A633C2A6A2A4D2A633C2A662
:0E09E300A2A4D2A633C2A6A2A4D2A633C2A654
:0709F100F58222758200224D
:0209F800AA163D
:0E09FA00A2A4D2A633C2A6A2A4D2A633C2A63D
:0E0A0800A2A4D2A633C2A6A2A4D2A633C2A62E
:0E0A1600A2A4D2A633C2A6A2A4D2A633C2A620
:0E0A2400A2A4D2A633C2A6A2A4D2A633C2A612
:050A3200F0A3DAC4226C
:0E0A3700E5823392A7D2A633C2A692A7D2A61A
:0E0A450033C2A692A7D2A633C2A692A7D2A60B
:0E0A530033C2A692A7D2A633C2A692A7D2A6FD
:0E0A610033C2A692A7D2A633C2A692A7D2A6EF
:040A6F0000C2A622F9
:020A7300AA16C1
:0E0A7500E03392A7D2A633C2A692A7D2A63330
:0E0A8300C2A692A7D2A633C2A692A7D2A633CD
:0E0A9100C2A692A7D2A633C2A692A7D2A633BF
:0E0A9F00C2A692A7D2A633C2A692A7D2A6A341
:050AAD00C2A6DAC4221C
:0B0AB200D2A57582081209ADC2A52272
:080ABD00D2A57582080209AD03
:0D0AC500903A167405F0120AB275820512FF
:060AD2000A377A007B00E8
:0E0AD800C002C0031209B9E582D003D002307B
:0E0AE600E02E8A048B057E007F00C3EC94FF97
:0E0AF400ED94FFEE9400EF6480948050157531
:0E0B02008200C002C0031209ADD003D0020A67
:060B1000BA00C50B80C213
:0C0B16001209B9E58230E0047A02800286
:020B22007A0057
:090B2400903A11EAF0120ABD90AA
:060B2D003A11E0F58222FE
:0E0B3300AA82AB8320A50A903A117404F075D3
:030B410082042209
:0E0B440053B4EF43B4E0C002C003120AC5E58B
:0E0B520082D003D0026007903A11E0F58222B3
:0E0B6000903A0BE0FCA3E07D00EC24F8FCEDE5
:090B6E0034FFFD8CF005F0800657
:060B7700EA2AFAEB33FB51
:0E0B7D00D5F0F7903A16740BF0C002C00312C8
:0E0B8B000AB275820B120A37D0038B82C003A8
:0E0B9900120A37D003D0028A82120A37758200
:0E0BA70000120A377582081209AD758200220D
:040BB5007582002223
:030BB900020ABD70
:090BBC00120ABD903A1EE4F01289
:0D0BC5000AC5E5826007903A11E0F5822232
:0D0BD200903A167406F0120AB275820612EF
:060BDF000A37120ABD9066
:0C0BE5003A167402F0120AB27582021275
:0B0BF1000A37903A1BE0A3E0F58212E7
:0C0BFC000A37903A1BE0FAA3E08A82124C
:0C0C08000A37758200120A37758200223C
:0E0C1400AA82903A1EE0FB6012C002120BBCD6
:0D0C2200E582D0026007903A11E0F58222D1
:0A0C2F008A82120A37903A1DE09005
:0C0C39003A1D04F0903A1DE0FA701C9087
:0E0C45003A1BE0FAA3E0FB903A1B74012AF080
:0D0C5300E43BA3F0120ABD903A1E7401F0BC
:040C60007582002277
:0E0C6400AA82AB83903A1EE0FC6016C002C06C
:0D0C720003120BBCE582D003D00260079096
:060C7F003A11E0F58222AB
:090C8500903A1DE0FC700C85148E
:0A0C8E00168A828B83120A738067B6
:0B0C9800ECF4FC0CE5146006C3EC95C6
:030CA30014504F9B
:0C0CA6008C168A828B83C002C003C0043D
:0C0CB200120A73D004D003D002E514C372
:0C0CBE009CF514903A1BE0FDA3E0FE90B2
:0E0CCA003A1B74012DF0E43EA3F0903A1DE4B5
:0E0CD800F0EC2AFAE43BFBC002C003120BBC96
:0E0CE600E582D003D0026007903A11E0F5825B
:010CF40022DD
:080CF5008514168A828B83121C
:020CFD000A7378
:0A0CFF00903A1DE0FAE5142AF09087
:0E0D09003A1DE0FA701C903A1BE0FAA3E0FBE2
:0E0D1700903A1B74012AF0E43BA3F0120ABDCF
:060D2500903A1E7401F07B
:040D2B0075820022AB
:0E0D2F00AA82AB8320A50A903A117404F075D5
:030D3D008204220B
:0E0D400053B4EF43B4E0C002C003120AC5E58D
:0E0D4E0082D003D0026007903A11E0F58222B5
:0E0D5C00903A1FEAF0A3EBF0903A0BE0FCA3F4
:0E0D6A00E07D00EC24F8FCED34FFFD8CF0057C
:030D7800F0800602
:060D7B00EA2AFAEB33FB4B
:0E0D8100D5F0F7903A1BEAF0A3EBF0903A1D84
:0D0D8F00E4F0903A167406F0C002C00312A2
:090D9C000AB2758206120A371230
:070DA5000ABD903A15E09031
:070DAC003A16F0120AB290A2
:0E0DB3003A15E0F582120A37D0038B82C00396
:0E0DC100120A37D003D0028A82120A377582D6
:080DCF0000120A37120ABD9060
:090DD7003A1E7401F0758200223D
:070DE000120ABD758200221A
:030DE700020ABD40
:0E0DEA00120ABD903A1FE0FAA3E0FB8A828B4A
:050DF80083A3020D2F92
:0E0DFD0090E671E4F0903A0A7401F0903A1119
:0D0E0B00E4F0903A0B7410F0A37480F090A6
:0E0E18003A1574D8F053B4EF43B4E0D2A57588
:0C0E260082001209AD903A167490F01290
:0C0E32000AB2758290120A3775821812FD
:080E3E0009AD1209B9E582902B
:070E46003A13F0120ABD90FF
:0C0E4D003A16749FF0120AB275829F12D0
:060E59000A377516039034
:060E5F003A171209F81217
:0A0E65000ABD903A19E0FABA100035
:0E0E6F00403DEA24E74038903A17E0903A12EE
:0E0E7D00F0903A18E0903A14F0EA24F0FA8A65
:090E8B00F005F07A017B008006FD
:060E9400EA2AFAEB33FB31
:0E0E9A00D5F0F7903A0DEAF0A3EBF0EB3395AC
:060EA800E0A3F0A3F0221C
:0E0EAE00903A0AE4F0903A117407F053B41F22
:010EBC002213
:0A0EBD00903A33E0F51690E740127A
:0B0EC70009F8903A21E0FABA020E9000
:0D0ED2003A31E0FAA3E0FB4A7003020ABDCA
:010EDF0022F0
:0A0EE000903A33E0F51490E7401259
:0B0EEA000C64903A22E0FABA020E906D
:0D0EF5003A31E0FAA3E0FB4A7003020ABDA7
:010F020022CC
:0E0F030075B68075B10090000112026575B6DA
:070F110000903A2AE4F022EF
:0E0F1800E5B120E00C75B68075B100900001C7
:030F26001202654F
:090F290075B600903A2AE4F022AA
:0E0F320090E6017480F00000000090E671E48B
:0E0F4000F090E672F0903A2BE5B4F0903A2A69
:0E0F4E00747BF053B46F43B440D2A675B6BCAA
:0E0F5C0075B10890000212026575B188C2A638
:040F6A007A007B008E
:0E0F6E00E5B120E1208A048B057E007F00C3E0
:0E0F7C00EC94FFED94FFEE9400EF64809480FF
:090F8A0050070ABA00DE0B80DBFF
:090F9300E5B130E1047AC88002E6
:020F9C007A6475
:0E0F9E00903A28EAF0903A24E4F0A3F0A3F091
:080FAC00A3F0903A23E4F022C7
:030FB4000202BC7A
:090FB700E5B130E1047A16800274
:020FC0007A0BAA
:0A0FC200903A28E0FBEA2BF07A00D9
:030FCC00BA400028
:090FCF005007D2A6C2A60A80F464
:0E0FD80043B104D2A6C2A6D2A6C2A6D2A6C219
:0E0FE600A6D2A6C2A675B600903A2BE0F5B4CE
:080FF400E5B130E003020FB487
:010FFC0022D2
:0C0FFD0085B31575B3FF903A33E0FB900C
:0E1009003A24E0FCA3E0FDA3E0FEA3E0FF78A4
:0E1017000079007A00903A24EB2CF0E83DA31B
:0E102500F0E93EA3F0EA3FA3F090E68BE06016
:0E10330022FA759B40759AE775AF07903A2335
:05104100E0F990E67BE0
:0E104600E0F590D2A629F9C2A6DAF5903A2379
:02105400E9F0C1
:0B1056008515B390E68BE0FABA40006D
:051061005003020FB76F
:011066002267
:0E10670090E60174C2F090E6F3E4F090E6C368
:0E107500F090E6C1F090E6C27404F090E6C080
:0C108300744EF090E6F4E4F0759B347AB3
:0A108F00347B3A8B9A759E60759DC4
:0E109900E4C0027A201202ADD00290E6C6E456
:0D10A700F090E6C77410F090E6C8E4F090F9
:0E10B400E6C9F090E6CAF090E6CBF090E6CCEC
:0E10C200E4F090E6CDF090E60B7401F0000033
:0D10D000000090E6047480F0000000009025
:0E10DD00E6047406F00000000090E604E4F063
:0E10EB000000000090E61AE4F0000000009003
:0E10F900E61A7410F00000000090E6E27401A8
:0E110700F00000000090E6CE7401F000000041
:0E1115000090E6CFE4F00000000090E6D0E489
:0E112300F00000000090E6D1E4F000000000B3
:0E11310090E6E474FFF00000000053B4BF75B8
:03113F00B190224A
:01006C00286B
:01006D000191
:04006E005A54455843
:040072000A10000070
:010076000089
:010077000187
:060078006710000000000B
:0C007E0000000000000000000000000076
:0A008A00303030303030303030308C
:01114200228A
:0E11430090E683E4F07420F07410F07430F045
:0E11510090E6837401F07421F07411F0743193
:0E115F00F090E6837412F07432F07406F074AF
:03116D0026F02247
:0A117000AA82E51724E0500375176A
:01117A001F55
:0D117B0090E6BFE0701090E6BEE0FBC3956B
:0911880017500690E6BEE0F517D1
:0C11910075AF078A9B85169A759E417504
:0A119D009DE790E67C7403F07A00F1
:0C11A700C3EA9517501190E67BE0FB9026
:0B11B300E67CF090E67CE4F00A80E9A6
:0B11BE00E5170425E0FA90E740F090F0
:0E11C900E7417403F090E68AE4F090E68BEACA
:0211D700F02204
:0E11D900903A31E0FAA3E0FBC374409AE49B25
:0811E70050067C407D008004ED
:0411EF008A048B05DE
:0E11F300903A33ECF07D00903A31EAC39CF064
:05120100EB9DA3F022AB
:0B120600903A74E0FABA31030212C003
:06121100BA32030212C311
:06121700BA34030212CFFD
:06121D00BA35030212E2E3
:05122300BA390280331E
:05122800BA3C028052F7
:05122D00BA42028056E8
:05123200BA6002800813
:05123700BA62028015FF
:03123C0002130199
:09123F00D28790E6BAE0600122BA
:09124800900002120265C2872227
:0A125100903A00E4F0C2A3C2A2220A
:0E125B00903A07E4F0903A05F0A3F090E6BB5D
:0E126900E0FB7A0090E6BAE0FC7D00903A03CC
:08127700EC4AF0ED4BA3F0225C
:09127F0090E6BAE0903A08F02272
:0D12880090E6BDE0FA903A22F0EA60012203
:0E12950090E6BBE0FB7A0090E6BAE07D004AEE
:0E12A300F582ED4BF583120D2FE582700122CE
:0E12B10090E6A0E04401F0903A31E4F0A3F0A2
:0112BF00220C
:0312C000020F0317
:0912C300903A2AE0FABA7B0122FC
:0312CC00020F32DC
:0E12CF00120F3290E6A5E054FEF090E6F574A2
:0512DD00FFF0021067A4
:0E12E20075B18843B44090E6F574FFF000004B
:0E12F000000090E601E0FA54F0F0000000006B
:0312FE00020FB725
:0813010090E6A0E04401F02297
:0C130900C020C0E0C0F0C082C083C00261
:0E131500C003C004C005C006C007C000C00170
:0E132300C0D075D00090E6B9E0FA903A74F0B0
:0E13310090E6B57401F090E6B9E0FA24F350AE
:04133F00030216BFD0
:07134300EA2A2A90134A7305
:07134A0002137102142502D9
:0613510016BF0214A20207
:0613570016BF0216BF02E2
:06135D00153A02165502CC
:0613630016570216680295
:06136900166D02167E0263
:02136F001683E3
:0A13710090E6B8E0FABA8002800DA1
:05137B00BA8102801E92
:05138000BA8202802F7B
:031385000216BF8E
:0E13880090E740E4F090E741F090E68AF090A4
:08139600E68B7402F00216BFA1
:0E139E0090E740E4F090E741F090E68AF0908E
:0813AC00E68B7402F00216BF8B
:0C13B40090E6BCE0FA600FBA010280195C
:0513C000BA8002800567
:0513C500BA812F801E1B
:0E13CA0090E6A0E0FA53020190E740EAF080BE
:0113D8003ADA
:0E13D90090E6A1E0FA53020190E740EAF080AE
:0113E7002BDA
:0E13E80090E6A2E0FA53020190E740EAF0809E
:0113F6001CDA
:0E13F70090E6BCE0C31314540324A3F582E473
:0E14050034E6F583E0FA53020190E740EAF086
:0E14130090E741E4F090E68AF090E68B7402D8
:04142100F00216BF00
:0A14250090E6B8E0FABA0202800374
:03142F000216BFE3
:0914320090E6BAE060030216BF67
:0C143B0090E6BCE0FA600FBA01028015D8
:05144700BA80028005DF
:05144C00BA81238016A7
:0B14510090E6A0E0FA54FEF00216BF87
:0B145C0090E6A1E0FA54FEF00216BF7B
:0B14670090E6A2E0FA54FEF00216BF6F
:0E14720090E6BCE0C31314540324A3FAE43440
:0E148000E6FB90E6BCE0C31314540324A3F56E
:0E148E0082E434E6F583E0FC5304FE8A828B90
:06149C0083ECF00216BF14
:0A14A20090E6B8E0FABA02028003F7
:0314AC000216BF66
:0914AF0090E6BAE060030216BFEA
:0C14B80090E6BCE0FA600FBA010280145C
:0514C400BA8002800562
:0514C900BA812080142F
:0A14CE0090E6A0E0FA4401F080412E
:0A14D80090E6A1E0FA4401F080372D
:0A14E20090E6A2E0FA4401F0802D2C
:0E14EC0090E6BCE0C31314540324A3FAE434C6
:0E14FA00E6FB90E6BCE0C31314540324A3F5F4
:0E15080082E434E6F583E0FC4304FE8A828B25
:0315160083ECF073
:0E15190090E6BCE05480C423541FFA90E6BC58
:0E152700E0FB740F5B420290E683EAF0742052
:051535004AF00216BFA0
:0A153A0090E6BBE0FABA0102801946
:05154400BA020280263E
:05154900BA0302804D11
:06154E00BA060302160EAE
:06155400BA070302162095
:03155A0002164B2B
:0A155D007A007B2090E6B3EBF090DB
:08156700E6B47400F00216BFA7
:0B156F0090E680E0FA30E7127A1C7B67
:0A157A002090E6B3EBF090E6B474A5
:051584001CF00216BF7F
:0A1589007A4C7B2090E6B3EBF09063
:08159300E6B4744CF00216BF2F
:0A159B0090E6BAE0FABA0102800FF0
:0515A500BA0202801CE7
:0515AA00BA03028029D4
:0515AF00BA044A803679
:0615B4007582D27AD27BA1
:0415BA001F8B1675F8
:0615BE0017051211700276
:0215C40016BF50
:0615C6007582D77AD77B85
:0415CC001F8B1675E6
:0615D00017201211700249
:0215D60016BF3E
:0A15D80075828A7A8A7B008B1675F3
:0615E200170A121170024D
:0215E80016BF2C
:0615EA007582F77AF77B21
:0415F0001F8B1675C2
:0615F4001708121170023D
:0215FA0016BF1A
:0A15FC007A7C7B2090E6B3EBF090C0
:08160600E6B4747CF00216BF8B
:0A160E007A127B2090E6B3EBF09017
:08161800E6B47412F00216BFE3
:0B16200090E680E0FA30E7127A4C7B85
:0A162B002090E6B3EBF090E6B474F3
:051635004CF00216BF9D
:0A163A007A1C7B2090E6B3EBF090E1
:07164400E6B4741CF0807491
:0A164B0090E6A0E0FA4401F0806A86
:021655008068AB
:0E16570090E740E4F090E68AF090E68B740194
:03166500F08057BB
:05166800121143805245
:0E166D0090E740E4F090E68AF090E68B74017E
:03167B00F08041BB
:05167E00121143803C45
:0E16830090E6B8E0FABA823490E6BCE0C313F9
:0B16910014540325E02476F582E434B5
:0C169C003AF583E4F0A3F090E685E090BE
:0D16A800E740F090E684E0FA90E741F09012
:0A16B500E68AE4F090E68B7402F080
:0B16BF0090E6B8E0FABA40030219CD33
:0516CA00BAC00280031C
:0316CF000219F706
:0E16D20090E6BFE0FB7A0090E6BEE0FC7D00F3
:0E16E000903A31EC4AF0ED4BA3F01211D99084
:0916EE00E6B9E0FABA2202804AD2
:0616F700BA30030219667F
:0616FD00BA33030219AC30
:06170300BA380302181BB6
:06170900BA3A0302184485
:06170F00BA3B030218833F
:06171500BA3D0302189C1E
:06171B00BA40030218BDF4
:06172100BA41030218F3B7
:06172700BA430302194061
:05172D00BA6102802CEE
:06173200BA63030217BEBA
:06173800BA64030217D39E
:03173E000219C3CA
:0E17410090E6B5E4F090E68AF090E68B74280E
:0D174F00F090E6B3E4F090E6B4746CF002A4
:02175C0019F77B
:0D175E00C280C28143B20890E6BCE0FA9060
:0E176B00E6BAE05A139283D28000139283C232
:0E1779008000139283D28000139283C28053AB
:0E178700B2F7D2810000000000000000E50073
:0E179500A283D2803300A283C2803300A283DD
:0E17A300D2803300A2833390E740F0C28190E1
:0D17B100E68AE4F090E68B7401F00219F76F
:0E17BE00903A02E4F090E6BCE0903A01F0C2EE
:0717CC00A212041B0219F731
:0D17D30090E7407401F090E7417406F0903B
:0E17E000E7427402F090E7437401F090E74492
:0E17EE00E4F090E745F090E746F090E747F012
:0E17FC0090E68AE4F0903A33E0FA24F75009C0
:09180A0090E68B7408F00219F756
:0818130090E68BEAF00219F7E0
:0E181B0090E6BBE0FB7A0090E6BAE0FC7D00B0
:0E182900903A03EC4AF0ED4BA3F090E68AE40F
:0D183700F0120743E58290E68BF00219F7EE
:0E184400903A05E0FAA3E0FB8A0490E740EC3E
:0D185200F08B0290E741EAF0903A07E09039
:0A185F00E742F075080075090175F5
:0D18690082A2120516AA8290E743EAF090D1
:0D187600E68AE4F090E68B7404F00219F7A6
:0E18830090E6BAE0903A08F090E68AE4F0129F
:0B1891000989E58290E68BF00219F750
:0A189C007508007509017582A61297
:0E18A6000516AA8290E740EAF090E68AE4F088
:0918B40090E68B7401F00219F7B3
:0E18BD00903A11E0FA700920A506903A1174D5
:0218CB0004F027
:0618CD00759B0A7A0A7BFC
:0C18D3003A8B9A759E40759DE7C0027A22
:0E18DF00081202ADD00290E68AE4F090E68B8B
:0618ED007408F00219F777
:0D18F30090E6BDE0FA903A21F0EA702D90E9
:0E190000E6BBE0FB7A0090E6BAE07D004AF517
:0D190E0082ED4BF583120B33E582601290E1
:0E191B00E6A0E0FA4401F0903A31E4F0A3F0C7
:031929000219F7A9
:0E192C00120EBD90E68AE4F0903A33E0FA9095
:06193A00E68BF00219F734
:06194000759B117A117B7A
:0C1946003A8B9A759E40759DE7C0027AAE
:0E1952000A1202ADD00290E68AE4F090E68B15
:06196000740AF00219F701
:06196600759B237A237B30
:0C196C003A8B9A759E417A417BE78B9D77
:0E197800C0027A071202ADD002E5B130E007DE
:0719860090E740E4F0800C43
:0C198D0090E7407401F075B600120F03E3
:0E19990090E7487401F090E68AE4F090E68B47
:0519A7007409F0804B03
:0E19AC0090E7407406F090E741E4F090E68A80
:0919BA00F090E68B7402F0803419
:0A19C30090E6A0E0FA4401F0802A4B
:0C19CD0090E6BFE0700690E6BEE06016F9
:0E19D900903A757401F090E68BE4F05391EFB4
:0819E70090E65D7401F0801927
:0819EF0012120690E68BE4F0F1
:0E19F7005391EF90E65D7401F090E6A0E0FAE7
:031A05004480F02A
:0E1A0800D0D0D001D000D007D006D005D00439
:0D1A1600D003D002D083D082D0F0D0E0D039
:021A230020326F
:0E1A2500C0E0C082C0835391EF90E65D740272
:081A3300F0D083D082D0E03234
:0E1A3B00C0E0C082C0835391EF90E65D74045A
:081A4900F0D083D082D0E0321E
:0E1A5100C0E0C082C0835391EF90E65D740840
:081A5F00F0D083D082D0E03208
:0E1A6700C0E0C082C0835391EF90E65D741022
:081A7500F0D083D082D0E032F2
:0E1A7D00C0E0C082C0835391EF90E65D7420FC
:081A8B00F0D083D082D0E032DC
:0E1A9300C0E0C082C0835391EF90E65D7440C6
:081AA100F0D083D082D0E032C6
:0C1AA900C020C0E0C0F0C082C083C002BA
:0E1AB500C003C004C005C006C007C000C001C9
:0E1AC300C0D075D000C2E81211D9903A74E07C
:071AD100FABA3003021B5FAB
:061AD800BA3303021B5F9C
:051ADE00BA380280345B
:061AE300BA3A03021B5F8A
:051AE900BA3B02803948
:061AEE00BA3D03021B5F7C
:051AF400BA400280660B
:051AF900BA4102803932
:051AFE00BA4302805C08
:051B0300BA61028057E9
:051B0800BA6302800534
:051B0D00BA6446804DA2
:051B120012041B8048D5
:0E1B170090E68AE4F0120743E58290E68BF038
:021B2500803806
:0E1B270090E68AE4F0120989E58290E68BF0E0
:021B3500802806
:0D1B3700903A33E0FA6008903A11E4F012A1
:021B44000EBDD4
:0E1B460090E68AE4F0903A33E0FA90E68BF0F5
:021B5400800906
:091B560090E68AE4F090E68BF0C1
:0E1B5F005391EF90E65F7401F0D2E8D0D0D041
:0E1B6D0001D000D007D006D005D004D003D0A0
:0C1B7B0002D083D082D0F0D0E0D0203225
:0C1B8700C020C0E0C0F0C082C083C002DB
:0E1B9300C003C004C005C006C007C000C001EA
:0E1BA100C0D075D000C2E8903A75E0FA60201E
:0D1BAF00903A75E4F090E6BFE0FB7A0090FC
:0E1BBC00E6BEE0FC7D00903A31EC4AF0ED4BC5
:051BCA00A3F012120659
:0C1BCF001211D9903A74E0FABA31030206
:021BDB001C5795
:061BDD00BA3203021C54A1
:061BE300BA3403021C5796
:061BE900BA3503021C578F
:051BEF00BA3902801765
:051BF400BA3C02801D57
:051BF900BA4202802C3D
:051BFE00BA60028054F2
:081C0300BA62511203A1804CEA
:0B1C0B0090E68BE0F582120777804125
:0B1C1600903A08E0F51290E68BE0F534
:091C21001390E740120891802D98
:0D1C2A00903A33E0FA6026903A11E4F0128F
:0A1C37000EE0903A11E0FA60171277
:0E1C41000ABD90E6A0E0FA4401F0903A31E4CA
:051C4F00F0A3F080038A
:031C5400120FFD6F
:0E1C570090E68BE4F05391EF90E65F7402F09C
:0E1C6500903A31E0FAA3E0FB4A700890E6A046
:051C7300E0FA4480F0DE
:0E1C7800D2E8D0D0D001D000D007D006D005E1
:0E1C8600D004D003D002D083D082D0F0D0E0C2
:031C9400D020322B
:0E1C9700C0E0C082C0835391EF90E65F7404FA
:081CA500F0D083D082D0E032C0
:0E1CAD00C0E0C082C0835391EF90E65F7408E0
:081CBB00F0D083D082D0E032AA
:0E1CC300C0E0C082C0835391EF90E65F7410C2
:081CD100F0D083D082D0E03294
:0E1CD900C0E0C082C0835391EF90E65F74209C
:081CE700F0D083D082D0E0327E
:0E1CEF00C0E0C082C0835391EF90E65F744066
:081CFD00F0D083D082D0E03268
:0E1D0500C0E0C082C0835391EF90E65F74800F
:081D1300F0D083D082D0E03251
:071D1B007510007511039023
:061D22003A2C1207A49008
:0E1D28003A2CE0FABA4324903A2DE0FABA447D
:0E1D36001C903A2EE0FABA3014903A0974016B
:0A1D4400F075101075110A90008A66
:051D4E001207A480054E
:051D5300903A09E4F0E4
:021D58007A000F
:031D5A00BA0A00C2
:0E1D5D005012EA248AF582E43400F583E0FB9C
:061D6B00BB30540A80E9C0
:071D71007510FB75110590D0
:091D78003A2C1207A47A007B004A
:031D8100BB05009F
:0A1D8400503CEB242CF582E4343AC5
:0E1D8E00F583E0FCEA248AFDE43400FEECC498
:0E1D9C00540F90208093FF8D828E83F00AEA10
:0E1DAA00248AFDE43400FE740F5C90208093C8
:0A1DB800FC8D828E83F00A0B80BFC1
:011DC20022FE
:0E1DC30090E680E04408F090E6007412F09084
:0E1DD1000002120265538EF8120F18C2AFC244
:0E1DDF00E89000437402F09000447401F0900C
:0D1DED00004574B8F090E668E04408F090FE
:0A1DFA0001007402F07A097B138BDC
:0E1E040004900101ECF0900102EAF09001045C
:0A1E12007402F07A257B1A8B04900D
:0E1E1C000105ECF0900106EAF0900108740256
:0A1E2A00F07A3B7B1A8B049001094B
:0E1E3400ECF090010AEAF090010C7402F07AD2
:0A1E4200517B1A8B0490010DECF0A7
:0C1E4C0090010EEAF09001107402F07A90
:0A1E5800677B1A8B04900111ECF077
:0C1E6200900112EAF09001147402F07A72
:0A1E6E007D7B1A8B04900115ECF047
:0C1E7800900116EAF09001187402F07A54
:0A1E8400937B1A8B04900119ECF017
:0C1E8E0090011AEAF09001207402F07A32
:0A1E9A00A97B1A8B04900121ECF0E3
:0C1EA400900122EAF09001247402F07A10
:0A1EB000877B1B8B04900125ECF0EA
:0C1EBA00900126EAF09001287402F07AF2
:0A1EC600977B1C8B04900129ECF0BF
:0C1ED00090012AEAF090012C7402F07AD4
:0A1EDC00AD7B1C8B0490012DECF08F
:0C1EE60090012EEAF09001307402F07AB6
:0A1EF200C37B1C8B04900131ECF05F
:0C1EFC00900132EAF09001347402F07A98
:0A1F0800D97B1C8B04900135ECF02E
:0C1F1200900136EAF09001387402F07A79
:0A1F1E00EF7B1C8B04900139ECF0FE
:0C1F280090013AEAF090013C7402F07A5B
:0A1F3400057B1D8B0490013DECF0CD
:0E1F3E0090013EEAF05391EF90E65D747FF063
:0E1F4C0090E65CE0FA447FF090E65F74FFF0F0
:0E1F5A0090E65E74FFF0D2E8D2AF90E611740C
:0E1F6800A0F00000000090E61074A0F0000051
:0D1F7600000090E61274E0F0000000009002
:0E1F8300E613E4F00000000090E61474A0F0F5
:0E1F91000000000090E615E4F00000000012D1
:0D1F9F000DFD903A0AE0FA70099000FA1268
:051FAC000265120DFDAD
:0E1FB100121D1B90E680E04482F090000A12A0
:0A1FBF00026590E680E054F7F0227E
:031FC900121DC323
:021FCC0080FE95
:051FD2005A54455800BF
:0E1FD7005553422D46504741204D6F64756CA6
:0E1FE5006520322E31362064656661756C749D
:041FF300204657002D
:081FF70064656661756C7400FD
:011FFF0000E1
:0E20000012010002FFFFFF401A220001000043
:04200E0001020301C7
:0A2012000A060002FFFFFF40010074
:0E201C0009022E00010104C032090400000474
:0E202A00FFFFFF00070581020002000705010D
:0E2038000200020007058202000200070506F2
:042046000200020092
:02204A00000094
:0E204C0009022E00010104C032090400000444
:0E205A00FFFFFF00070581024000000705019F
:0E206800024000000705820240000007050646
:042076000240000024
:02207A00000064
:04207C000403000059
:0E20800030313233343536373839414243443B
:03208E00454600C4
:0220910000004D
:01209300004C
:0E209400018801010101010702070202020298
:0E20A2000200200000000000002000360000B8
:0420B0000000003FED
:0E20B40002019001010101070202070202026F
:0E20C200020020000000000000200000360098
:0420D0000000003FCD
:0120D400FF0C
:0120D500000A
:0820D600000000000000000002
:06023700E478FFF6D8FD9B
:08021500794DE94400601B7AF9
:05021D00019020917822
:03022200317592A1
:0A0225003AE493F2A308B8000205C2
:08022F0092D9F4DAF27592FF96
:08023D007800E84400600A7932
:03024500007592AF
:060248003AE4F309D8FCC2
:08024E007831E84400600C79EE
:0B02560001903A00E4F0A3D8FCD9FAB4
:03020800758120DD
:0A020B00121FCEE582600302020319
:041FCE0075820022F6
:00000001FF
