:03020000020208EF
:0302610002020393
:05020300121EC280FE86
:03000000020200F9
:0100030032CA
:01000B0032C2
:0100130032BA
:01001B0032B2
:0100230032AA
:01002B0032A2
:01003300329A
:01003B003292
:01004300328A
:01004B003282
:01005300327A
:01005B003272
:01006300326A
:0101000032CC
:0101040032C8
:0101080032C4
:01010C0032C0
:0101100032BC
:0101140032B8
:0101180032B4
:0101200032AC
:0101240032A8
:0101280032A4
:01012C0032A0
:01013000329C
:010134003298
:010138003294
:01013C003290
:01014000328C
:010148003284
:01014C003280
:01015000327C
:010154003278
:010158003274
:01015C003270
:01016000326C
:01017000325C
:010174003258
:010178003254
:01017C003250
:01018000324C
:010184003248
:010188003244
:01018C003240
:01019000323C
:010194003238
:010198003234
:01019C003230
:0101A000322C
:0101A8003224
:0101AC003220
:0101B000321C
:0101B4003218
:0101B8003214
:010264002277
:08026500AA82AB837C007D003E
:0B026D00C3EC9AED9B50147EB07F04A0
:050278001EBEFF011F86
:0B027D00EE4F70F70CBC00E80D80E5B0
:010288002253
:08028900AA82AB837C007D001A
:0B029100C3EC9AED9B50147E0A7F0026
:05029C001EBEFF011F62
:0B02A100EE4F70F70CBC00E80D80E58C
:0102AC00222F
:0E02AD0075AF0790E67BE090E67CF0DAF32276
:0102BB002220
:0202BC007A00C6
:0302BE00BAFF0084
:0D02C100500B90E678E0FB20E0030A80F08F
:0C02CE0090E678E0FA20E204EA20E10B60
:0B02DA0090E678E04440F075820122BD
:0402E50075820022FC
:0202E9007A0099
:0302EB00BAFF0057
:0D02EE00500B90E678E0FB20E0030A80F062
:0E02FB0090E678E0FA30E20B90E678E04440BE
:05030900F075820122E5
:04030E0075820022D2
:020312007A006F
:03031400BAFF002D
:0E031700500F90E678E0FB20E2047582002291
:030325000A80EC5F
:0403280075820122B7
:02032C007A0055
:03032E00BAFF0013
:0E033100500F90E678E0FB20E6047582002273
:03033F000A80EC45
:04034200758201229D
:09034600AA82C3E49508E433FB2C
:0E034F0090E678E04480F0C002C00312031272
:0E035D00D003D00290E679EAF0C002C003128D
:0C036B0002BCE582D003D0027012E5094C
:0C037700600A90E678E04440F012032C8D
:04038300758200225D
:0E038700EB601090000AC002C003120289D081
:0503950003D00280B559
:0C039A00E509600890E678E0FA4440F0C5
:0403A6007582012239
:0C03AA00AA82AB837C00E50C7003F58296
:0103B6002224
:0A03B7007508647509007582A2C084
:0E03C10002C003C004120346E582D004D0033C
:0703CF00D00260030204B03C
:0C03D60090E679E50BF0C002C003C00403
:0E03E2001202BCE582D004D003D002600302F8
:0203F00004B057
:0C03F20090E679E50AF0C002C003C004E8
:0E03FE001202BCE582D004D003D002600302DC
:02040C0004B03A
:0E040E0090E678E04440F0C002C003C0041243
:0D041C00032C90E678E04480F0120312906B
:0E042900E67974A3F01202BCE582D004D00381
:0E043700D002707590E679E08A828B83F0C067
:0E04450002C003C0041202E9E582D004D00315
:05045300D0027059FD0C
:0C045800C3ED950C502A90E679E08A82F2
:0E0464008B83F0A3AA82AB83C002C003C00446
:0E047200C0051202E9E582D005D004D003D007
:0804800002702D0D8D0480D0E7
:0E04880090E678E04420F090E679E0C004129F
:0E04960002E9E582D004701290E678E044405E
:0C04A400F090E679E0C00412032CD004B4
:0304B0008C822219
:0C04B300AA82AB837C00E50F7003F58289
:0104BF00221A
:0A04C0007508647509007582A2C07A
:0E04CA0002C003C004120346E582D004D00332
:0704D800D002600302057071
:0C04DF0090E679E50EF0C002C003C004F6
:0E04EB001202BCE582D004D003D002600302EE
:0204F90005708C
:0C04FB0090E679E50DF0C002C003C004DB
:0E0507001202BCE582D004D003D002705CFD6D
:0C051500C3ED950F50478A828B83E0FEF7
:0E052100A3AA82AB8390E679EEF0903A05E053
:0D052F00FFEE2FF0903A03E0FEA3E0FF90F6
:0E053C003A0374012EF0E43FA3F0C002C003A6
:0E054A00C004C0051202BCE582D005D004D06A
:0A05580003D00270130D8D0480B370
:0E05620090E678E04440F0C00412032CD00470
:030570008C822258
:0A057300903A39E0FA903A01E0F501
:06057D000AA3E0F50B8A61
:0C0583000C90E740C0021203AAAB82D02B
:0E058F00027C00903A01E0FDA3E0FE903A01EC
:0A059D00EA2DF0EC3EA3F08B822261
:0B05A700AA82903A01E0F50DA3E0F5F8
:0905B2000E8A0F90E740C002120E
:0E05BB0004B3D0027B00903A01E0FCA3E0FD07
:0B05C900903A01EA2CF0EB3DA3F02279
:0C05D400AA82AB837C00E5117003F58265
:0105E00022F8
:0A05E1007508647509007582A6C054
:0E05EB0002C003C004120346E582D004D00310
:0705F900D00260030206BE00
:0C06000090E679E510F0C002C003C004D1
:0E060C001202BCE582D004D003D002600302CB
:02061A0006BE1A
:0E061C0090E678E04440F0C002C003C0041233
:0D062A00032C90E678E04480F0120312905B
:0E063700E67974A7F01202BCE582D004D0036D
:0E064500D002707590E679E08A828B83F0C057
:0E06530002C003C0041202E9E582D004D00305
:05066100D0027059FDFC
:0C066600C3ED9511502A90E679E08A82DD
:0E0672008B83F0A3AA82AB83C002C003C00436
:0E068000C0051202E9E582D005D004D003D0F7
:08068E0002702D0D8D0480D0D7
:0E06960090E678E04420F090E679E0C004128F
:0E06A40002E9E582D004701290E678E044404E
:0C06B200F090E679E0C00412032CD004A4
:0306BE008C822209
:0C06C100AA82AB837C00E5137003F58275
:0106CD00220A
:0A06CE007508647509007582A6C066
:0E06D80002C003C004120346E582D004D00322
:0706E600D00260030207B01F
:0C06ED0090E679E512F0C002C003C004E2
:0E06F9001202BCE582D004D003D002600302DE
:0207070007B039
:04070900AD127E00AF
:09070D00C3EE951340030207A29C
:0E0716008A828B83E0FFA3AA82AB8390E679F0
:0D072400EFF0C002C003C004C005C0061203
:0E07310002BCE582D006D005D004D003D00271
:0C073F00706F0D8D120E8E04ED20E3C2D1
:0C074B00C3EE951350BC90E678E04440EB
:0E075700F0C002C003C004C005C00612032C8F
:0A0765007508647509007582A6127C
:0E076F000346E582D006D005D004D003D002A8
:0E077D00703190E679EDF0C002C003C004C0F8
:0E078B0005C0061202BCE582D006D005D004DF
:09079900D003D002701102070D1B
:0E07A20090E678E04440F0C00412032CD0042E
:0907B000903A06E512F08C822259
:0A07B900903A39E0FA903A06E0F5B4
:0907C300108A1190E740C00212F7
:0E07CC0005D4AB82D002903A06E0FCEA2CF095
:0307DA008B8222ED
:0207DD00AA82EE
:0A07DF00D280000000C280DAF72289
:0E07E900A2A0D28033C280A2A0D28033C280F0
:0E07F700A2A0D28033C280A2A0D28033C280E2
:0E080500A2A0D28033C280A2A0D28033C280D3
:0E081300A2A0D28033C280A2A0D28033C280C5
:07082100F58222758200221E
:02082800AA160E
:0E082A00A2A0D28033C280A2A0D28033C280AE
:0E083800A2A0D28033C280A2A0D28033C280A0
:0E084600A2A0D28033C280A2A0D28033C28092
:0E085400A2A0D28033C280A2A0D28033C28084
:05086200F0A3DAC4223E
:0E086700E582339281D28033C2809281D280AA
:0E08750033C2809281D28033C2809281D280C1
:0E08830033C2809281D28033C2809281D280B3
:0E08910033C2809281D28033C2809281D280A5
:04089F0000C28022F1
:0208A300AA1693
:0E08A500E0339281D28033C2809281D28033C0
:0E08B300C2809281D28033C2809281D2803383
:0E08C100C2809281D28033C2809281D2803375
:0E08CF00C2809281D28033C2809281D280A3F7
:0508DD00C280DAC42214
:0B08E200D2837582081207DDC283225A
:0808ED00D2837582080207DDC9
:0D08F500903A147405F01208E275820512A5
:0609020008677A007B008B
:0E090800C002C0031207E9E582D003D002301E
:0E091600E02E8A048B057E007F00C3EC94FF68
:0E092400ED94FFEE9400EF6480948050157502
:0E0932008200C002C0031207DDD003D0020A0B
:06094000BA00C50B80C2E5
:0C0946001207E9E58230E0047A0280022A
:020952007A0029
:09095400903A0FEAF01208ED9050
:06095D003A0FE0F58222D2
:0E096300AA82AB8320830A903A0F7404F075C9
:03097100820422DB
:0E09740053B4FE43B20BC002C0031208F5E5F7
:0E09820082D003D0026007903A0FE0F5822287
:0E099000903A09E0FCA3E07D00EC24F8FCEDB9
:09099E0034FFFD8CF005F0800629
:0609A700EA2AFAEB33FB23
:0E09AD00D5F0F7903A14740BF0C002C003129C
:0E09BB0008E275820B120867D0038B82C0031E
:0E09C900120867D003D0028A82120867758276
:0E09D700001208677582081207DD7582002283
:0409E50075820022F5
:0309E9000208ED14
:0909EC001208ED903A1CE4F0122F
:0D09F50008F5E5826007903A0FE0F58222D8
:0D0A0200903A147406F01208E27582061294
:060A0F0008671208ED90DB
:0C0A15003A147402F01208E2758202121A
:0B0A21000867903A19E0A3E0F582128C
:0C0A2C000867903A19E0FAA3E08A8212F1
:0C0A3800086775820012086775820022B2
:0E0A4400AA82903A1CE0FB6012C0021209EC7C
:0D0A5200E582D0026007903A0FE0F58222A5
:0A0A5F008A82120867903A1BE090AB
:0C0A69003A1B04F0903A1BE0FA701C905D
:0E0A75003A19E0FAA3E0FB903A1974012AF056
:0D0A8300E43BA3F01208ED903A1C7401F062
:040A90007582002249
:0E0A9400AA82AB83903A1CE0FC6016C002C040
:0D0AA200031209ECE582D003D0026007903A
:060AAF003A0FE0F582227F
:090AB500903A1BE0FC700C851462
:0A0ABE00168A828B831208A380675A
:0B0AC800ECF4FC0CE5146006C3EC9598
:030AD30014504F6D
:0C0AD6008C168A828B83C002C003C0040F
:0C0AE2001208A3D004D003D002E514C316
:0C0AEE009CF514903A19E0FDA3E0FE9086
:0E0AFA003A1974012DF0E43EA3F0903A1BE48B
:0E0B0800F0EC2AFAE43BFBC002C0031209EC39
:0E0B1600E582D003D0026007903A0FE0F5822E
:010B240022AE
:080B25008514168A828B8312ED
:020B2D0008A31B
:0A0B2F00903A1BE0FAE5142AF0905A
:0E0B39003A1BE0FA701C903A19E0FAA3E0FBB8
:0E0B4700903A1974012AF0E43BA3F01208ED75
:060B5500903A1C7401F04F
:040B5B00758200227D
:0E0B5F00AA82AB8320830A903A0F7404F075CB
:030B6D00820422DD
:0E0B700053B4FE43B20BC002C0031208F5E5F9
:0E0B7E0082D003D0026007903A0FE0F5822289
:0E0B8C00903A1DEAF0A3EBF0903A09E0FCA3CA
:0E0B9A00E07D00EC24F8FCED34FFFD8CF0054E
:030BA800F08006D4
:060BAB00EA2AFAEB33FB1D
:0E0BB100D5F0F7903A19EAF0A3EBF0903A1B5A
:0D0BBF00E4F0903A147406F0C002C0031276
:090BCC0008E275820612086712A6
:070BD50008ED903A13E090D7
:070BDC003A14F01208E29048
:0E0BE3003A13E0F582120867D0038B82C0033C
:0E0BF100120867D003D0028A8212086775824C
:080BFF00001208671208ED90D6
:090C07003A1C7401F07582002210
:070C10001208ED75820022BD
:030C17000208EDE3
:0E0C1A001208ED903A1DE0FAA3E0FB8A828BEF
:050C280083A3020B5F35
:0E0C2D0090E671E4F0903A087401F0903A0FEE
:0D0C3B00E4F0903A097410F0A37480F0907A
:0E0C48003A1374D8F053B4FE43B20BD2837546
:0C0C560082001207DD903A147490F01236
:0C0C620008E27582901208677582181273
:080C6E0007DD1207E9E58290A1
:070C76003A11F01208ED90A5
:0C0C7D003A14749FF01208E275829F1276
:060C8900086775160390D8
:060C8F003A1512082812BC
:0A0C950008ED903A17E0FABA1000DB
:0E0C9F00403DEA24E74038903A15E0903A10C4
:0E0CAD00F0903A16E0903A12F0EA24F0FA8A3B
:090CBB00F005F07A017B008006CF
:060CC400EA2AFAEB33FB03
:0E0CCA00D5F0F7903A0BEAF0A3EBF0EB339580
:060CD800E0A3F0A3F022EE
:0E0CDE00903A08E4F0903A0F7407F053B2F425
:010CEC0022E5
:0A0CED00903A39E0F51690E7401246
:0B0CF7000828903A1FE0FABA020E90A5
:0D0D02003A37E0FAA3E0FB4A70030208ED67
:010D0F0022C1
:0A0D1000903A39E0F51490E7401224
:0B0D1A000A94903A20E0FABA020E9012
:0D0D25003A37E0FAA3E0FB4A70030208ED44
:010D3200229E
:0E0D3300AAB674BF5AF5F0748045F0F5B653B9
:0E0D4100B17F90000112026543B180903A2804
:030D4F00E4F022AB
:0E0D520043B180AAB674BF5AF5F0748045F024
:0E0D6000F5B6E5B120E62453B17F740455B218
:0E0D6E00F5F0747045F0F5B274045580F5F0A0
:0E0D7C00742045F0F58090000112026543B12D
:010D8A0080E8
:060D8B00903A28E4F0227A
:0E0D9100903A00E4F090E6017480F00000005B
:0E0D9F000090E670E4F090E671F0903A29E5DD
:0E0DAD00B2F0903A28747BF053B204AAB674E8
:0E0DBB00BF5AF5F0748045F0F5B653B17F4392
:0E0DC900B27274045580F5F0742245F0F58086
:0E0DD70090000512026543B180C2817A007B54
:010DE500000D
:0E0DE6002087208A048B057E007F00C3EC94DA
:0E0DF400FFED94FFEE9400EF648094805007B2
:070E02000ABA00E00B80DDDD
:0A0E090043B2013087047AC880026A
:020E13007A64FF
:0E0E1500903A26EAF0903A22E4F0A3F0A3F01F
:080E2300A3F0903A21E4F02253
:0E0E2B0090E6017480F00000000090E618E4EC
:0E0E3900F00000000090E619E4F00000000058
:0E0E470090E60BE4F00000000090E6A3E0FA55
:0E0E550054FEF00000000090E6A4E0FA54FE07
:0E0E6300F00000000090E6957480F0000000A2
:0E0E71000090E6957480F090E6047480F00026
:0E0E7F0000000090E6047482F0000000009075
:0E0E8D00E604E4F00000000075B4FF903A00A7
:040E9B007401F022CC
:070E9F003087047A1680027F
:020EA6007A0BC5
:0A0EA800903A26E0FBEA2BF07A00F6
:030EB200BA400043
:090EB5005007D280C2800A80F4CB
:0E0EBE00D281D280C280D280C280D280C28017
:0E0ECC00D280C280903A29E0F5B2E5B130E65E
:040EDA0003020E2BD6
:010EDE0022F1
:0C0EDF0085B41575B4FF903A39E0FB9023
:0E0EEB003A22E0FCA3E0FDA3E0FEA3E0FF78C6
:0E0EF9000079007A00903A22EB2CF0E83DA33D
:0E0F0700F0E93EA3F0EA3FA3F090E68BE06035
:0E0F150022FA759B40759AE775AF07903A2156
:050F2300E0F990E67BFF
:0E0F2800E0F5A0D28029F9C280DAF5903A21D6
:020F3600E9F0E0
:0B0F38008515B490E68BE0FABA40008B
:050F43005003020E9FA7
:010F48002286
:0E0F4900E582FA700FE5B130E60A903A27749F
:060F570001F07582012289
:0E0F5D00903A27E4F090E6017480F000000066
:0E0F6B000090E670E4F090E671F053B204538B
:0E0F7900B4FEAAB674BF5AF5F0748045F0F5C8
:0E0F8700B653B17F43B23074045580F5F07458
:0E0F95001045F0F58090000112026543B18016
:0A0FA3009000141202657A007B0032
:0E0FAD0030872120811EC3EA94A0EB940F50E0
:0E0FBB0015900001C002C003120265D003D0E1
:080FC900020ABA00DF0B80DC14
:0E0FD100900001120265E5B130E605120E2B0C
:020FDF00800987
:090FE100120D52903A277404F03D
:070FEA00903A27E0F5822296
:0B0FF100903A07E0FA605675101A7580
:060FFC001104903A2A12D4
:0E10020005D4903A2CE0FAA3E0FB4A603F9040
:0E1010003A2AE0FCA3E0FDC3EC9AED9B4004FD
:04101E008C028D03B0
:051022001ABAFF011BDA
:0E102700903A09E0FCA3E07D00EC24F4FCED1F
:0910350034FFFD8CF005F080078A
:07103E00C3EB13FBEA13FAF8
:09104500D5F0F68A828B83A32208
:08104E009000001209637A0012
:03105600BA0800D5
:0D1059005016C0021207E9AB82D002EA90E7
:0B1066001F4B93FCEBB504030A80E570
:05107100BA0802801A1C
:0E1076007B00903A09E0FCA3E0FDECC39AF584
:0C10840082ED9BF5831209E99000002228
:0D1090001207E9AA82C0021207E9AB8290A4
:0E109D003A09E0FCA3E0FDEC24F6F582ED3408
:0E10AB00FFF583C0031209E9D003D0028B04C5
:0E10B900E4FBFDEA4203ED42048B828C83A32C
:0110C7002206
:0B10C800903A07E0FA602F75101A75CF
:0610D3001104903A2E12F8
:0E10D90005D4903A30E0FAA3E0FB4A6018908C
:0D10E7003A2EE0FAA3E0FB4A600302118BF1
:0A10F400903A277403F0758203227E
:0E10FE00900000120963E582600A903A2774A0
:06110C0002F075820222D0
:021112007A0061
:03111400BA080016
:0D1117005016C0021207E9AB82D002EA9028
:0B1124001F4B93FCEBB504030A80E5B1
:05112F00BA0802802057
:0E1134007B00903A09E0FCA3E0FDECC39AF5C5
:0E11420082ED9BF5831209E9903A277403F0C1
:04115000758203227F
:0E1154001207E9AA82C0021207E9AB82D0029C
:0E116200EB4202903A09E0FBA3E0FCEB24F61E
:0E117000F582EC34FFF583C0021209E9D002CB
:0D117E00EA700A903A277403F0758203228C
:0E118B00758200120F49AA82903A27EAF0BA44
:071199000105120E2B800F6F
:0E11A000BA040C758200120F49E582903A27BE
:0111AE00F050
:0711AF00903A27E0F58222CF
:01006C00286B
:01006D000191
:04006E005A54455843
:040072000A1300006D
:010076000089
:010077000187
:060078004700000000003B
:0C007E0000000000000000000000000076
:0A008A00303030303030303030308C
:0111B6002216
:0E11B70090E683E4F07420F07410F07430F0D1
:0E11C50090E6837401F07421F07411F074311F
:0E11D300F090E6837412F07432F07404F0743D
:0311E10024F022D5
:0A11E400AA82E51724E050037517F6
:0111EE001FE1
:0D11EF0090E6BFE0701090E6BEE0FBC395F7
:0911FC0017500690E6BEE0F5175D
:0C12050075AF078A9B85169A759E41758F
:0A1211009DE790E67C7403F07A007C
:0C121B00C3EA9517501190E67BE0FB90B1
:0B122700E67CF090E67CE4F00A80E931
:0B123200E5170425E0FA90E740F0907B
:0E123D00E7417403F090E68AE4F090E68BEA55
:02124B00F0228F
:0E124D00903A37E0FAA3E0FBC374409AE49BAA
:08125B0050067C407D00800478
:041263008A048B0569
:0E126700903A39ECF07D00903A37EAC39CF0E3
:05127500EB9DA3F02237
:0A127A00903A3AE0FABA31028077A8
:05128400BA3202807582
:05128900BA3902800AE1
:05128E00BA3C028029BA
:05129300BA4274802D39
:0E129800903A05E4F0903A03F0A3F090E6BB24
:0E12A600E0FB7A0090E6BAE0FC7D00903A0191
:0812B400EC4AF0ED4BA3F0221F
:0912BC0090E6BAE0903A06F02237
:0D12C50090E6BDE0FA903A20F0EA7041900A
:0E12D200E6BBE0FB7A0090E6BAE07D004AF54C
:0D12E00082ED4BF583120B5FE582602690D6
:0E12ED00E6A0E04401F0903A37E4F0A3F022CE
:0312FB00020D33AE
:0912FE00903A28E0FABA7B0122C3
:03130700020D9143
:08130A0090E6A0E0FA4401F0B6
:0113120022B8
:0C131300C020C0E0C0F0C082C083C00257
:0E131F00C003C004C005C006C007C000C00166
:0E132D00C0D075D00090E6B9E0FA903A3AF0E0
:0E133B0090E6B57401F090E6B9E0FA24F350A4
:04134900030216C9BC
:07134D00EA2A2A90135473F1
:0713540002137B02142F02BB
:06135B0016C90214AC02E9
:0613610016C90216C902C4
:06136700154402165F02AE
:06136D0016610216720277
:0613730016770216880245
:02137900168DCF
:0A137B0090E6B8E0FABA8002800D97
:05138500BA8102801E88
:05138A00BA8202802F71
:03138F000216C97A
:0E13920090E740E4F090E741F090E68AF0909A
:0813A000E68B7402F00216C98D
:0E13A80090E740E4F090E741F090E68AF09084
:0813B600E68B7402F00216C977
:0C13BE0090E6BCE0FA600FBA0102801952
:0513CA00BA800280055D
:0513CF00BA812F801E11
:0E13D40090E6A0E0FA53020190E740EAF080B4
:0113E2003AD0
:0E13E30090E6A1E0FA53020190E740EAF080A4
:0113F1002BD0
:0E13F20090E6A2E0FA53020190E740EAF08094
:011400001CCF
:0E14010090E6BCE0C31314540324A3F582E468
:0E140F0034E6F583E0FA53020190E740EAF07C
:0E141D0090E741E4F090E68AF090E68B7402CE
:04142B00F00216C9EC
:0A142F0090E6B8E0FABA020280036A
:031439000216C9CF
:09143C0090E6BAE060030216C953
:0C14450090E6BCE0FA600FBA01028015CE
:05145100BA80028005D5
:05145600BA812380169D
:0B145B0090E6A0E0FA54FEF00216C973
:0B14660090E6A1E0FA54FEF00216C967
:0B14710090E6A2E0FA54FEF00216C95B
:0E147C0090E6BCE0C31314540324A3FAE43436
:0E148A00E6FB90E6BCE0C31314540324A3F564
:0E14980082E434E6F583E0FC5304FE8A828B86
:0614A60083ECF00216C900
:0A14AC0090E6B8E0FABA02028003ED
:0314B6000216C952
:0914B90090E6BAE060030216C9D6
:0C14C20090E6BCE0FA600FBA0102801452
:0514CE00BA8002800558
:0514D300BA8120801425
:0A14D80090E6A0E0FA4401F0804124
:0A14E20090E6A1E0FA4401F0803723
:0A14EC0090E6A2E0FA4401F0802D22
:0E14F60090E6BCE0C31314540324A3FAE434BC
:0E150400E6FB90E6BCE0C31314540324A3F5E9
:0E15120082E434E6F583E0FC4304FE8A828B1B
:0315200083ECF069
:0E15230090E6BCE05480C423541FFA90E6BC4E
:0E153100E0FB740F5B420290E683EAF0742048
:05153F004AF00216C98C
:0A15440090E6BBE0FABA010280193C
:05154E00BA0202802634
:05155300BA0302804D07
:06155800BA06030216189A
:06155E00BA070302162A81
:0315640002165517
:0A1567007A7C7B1F90E6B3EBF09056
:08157100E6B4747CF00216C917
:0B15790090E680E0FA30E7127A987BE1
:0A1584001F90E6B3EBF090E6B4749C
:05158E0098F00216C9EF
:0A1593007AC87B1F90E6B3EBF090DE
:08159D00E6B474C8F00216C99F
:0A15A50090E6BAE0FABA0102800FE6
:0515AF00BA0202801CDD
:0515B400BA03028029CA
:0515B900BA044A80366F
:0615BE007582537A537B95
:0415C4001F8B1675EE
:0615C80017051211E402F8
:0215CE0016C93C
:0615D0007582587A587B79
:0415D6001F8B1675DC
:0615DA00171C1211E402CF
:0215E00016C92A
:0A15E20075828A7A8A7B008B1675E9
:0615EC00170A1211E402CF
:0215F20016C918
:0615F4007582747A747B1D
:0415FA001F8B1675B8
:0615FE0017081211E402BF
:0216040016C905
:0A1606007AF87B1F90E6B3EBF0903A
:08161000E6B474F8F00216C9FB
:0A1618007A8E7B1F90E6B3EBF09092
:08162200E6B4748EF00216C953
:0B162A0090E680E0FA30E7127AC87BFF
:0A1635001F90E6B3EBF090E6B474EA
:05163F00C8F00216C90D
:0A1644007A987B1F90E6B3EBF0905C
:07164E00E6B47498F080740B
:0A16550090E6A0E0FA4401F0806A7C
:02165F008068A1
:0E16610090E740E4F090E68AF090E68B74018A
:03166F00F08057B1
:051672001211B78052C7
:0E16770090E740E4F090E68AF090E68B740174
:03168500F08041B1
:051688001211B7803CC7
:0E168D0090E6B8E0FABA823490E6BCE0C313EF
:0B169B0014540325E0243CF582E434E5
:0C16A6003AF583E4F0A3F090E685E090B4
:0D16B200E740F090E684E0FA90E741F09008
:0A16BF00E68AE4F090E68B7402F076
:0B16C90090E6B8E0FABA40030218F403
:0516D400BAC002800312
:0316D90002191ED5
:0E16DC0090E6BFE0FB7A0090E6BEE0FC7D00E9
:0E16EA00903A37EC4AF0ED4BA3F012124D90FF
:0916F800E6B9E0FABA22028031E1
:06170100BA300302189A41
:05170700BA3802804326
:05170C00BA3A028067FB
:06171100BA3B030217B70A
:06171700BA3D030217D0E9
:06171D00BA40030217F1BF
:06172300BA410302182781
:06172900BA43030218742C
:03172F000218EAB3
:0E17320090E6B5E4F090E68AF090E68B74281D
:0D174000F090E6B3E4F090E6B4746CF002B3
:02174D00191E63
:0E174F0090E6BBE0FB7A0090E6BAE0FC7D007D
:0E175D00903A01EC4AF0ED4BA3F090E68AE4DE
:0D176B00F0120573E58290E68BF002191E66
:0E177800903A03E0FAA3E0FB8A0490E740EC0D
:0D178600F08B0290E741EAF0903A05E09008
:0A179300E742F075080075090175C2
:0D179D0082A2120346AA8290E743EAF09070
:0D17AA00E68AE4F090E68B7404F002191E4C
:0E17B70090E6BAE0903A06F090E68AE4F0126E
:0B17C50007B9E58290E68BF002191EC8
:0A17D0007508007509017582A61264
:0E17DA000346AA8290E740EAF090E68AE4F027
:0917E80090E68B7401F002191E59
:0E17F100903A0FE0FA7009208306903A0F74C8
:0217FF0004F0F4
:06180100759B087A087BCC
:0C1807003A8B9A759E40759DE7C0027AEE
:0E181300081202ADD00290E68AE4F090E68B57
:061821007408F002191E1C
:0D18270090E6BDE0FA903A1FF0EA702D90B7
:0E183400E6BBE0FB7A0090E6BAE07D004AF5E4
:0D18420082ED4BF583120963E58260129080
:0E184F00E6A0E0FA4401F0903A37E4F0A3F08E
:03185D0002191E4F
:0E186000120CED90E68AE4F0903A39E0FA902E
:06186E00E68BF002191EDA
:06187400759B0F7A0F7B4B
:0C187A003A8B9A759E40759DE7C0027A7B
:0E1886000A1202ADD00290E68AE4F090E68BE2
:06189400740AF002191EA7
:06189A00759B217A217B01
:0C18A0003A8B9A759E417A417BE78B9D44
:0E18AC00C0027A071202ADD002AAB674BF5A6B
:0E18BA00F5F0748045F0F5B6E5B130E6079024
:0618C800E740E4F0800996
:0918CE0090E7407401F0120D33A3
:0E18D70090E7487401F090E68AE4F090E68B0A
:0518E5007409F08034DD
:0A18EA0090E6A0E0FA4401F0802A25
:0C18F40090E6BFE0700690E6BEE06016D3
:0E190000903A3B7401F090E68BE4F05391EFC7
:08190E0090E65D7401F0801900
:0819160012127A90E68BE4F056
:0E191E005391EF90E65D7401F090E6A0E0FAC0
:03192C004480F004
:0E192F00D0D0D001D000D007D006D005D00413
:0D193D00D003D002D083D082D0F0D0E0D013
:02194A00203249
:0E194C00C0E0C082C0835391EF90E65D74024C
:08195A00F0D083D082D0E0320E
:0E196200C0E0C082C0835391EF90E65D740434
:08197000F0D083D082D0E032F8
:0E197800C0E0C082C0835391EF90E65D74081A
:08198600F0D083D082D0E032E2
:0E198E00C0E0C082C0835391EF90E65D7410FC
:08199C00F0D083D082D0E032CC
:0E19A400C0E0C082C0835391EF90E65D7420D6
:0819B200F0D083D082D0E032B6
:0E19BA00C0E0C082C0835391EF90E65D7440A0
:0819C800F0D083D082D0E032A0
:0C19D000C020C0E0C0F0C082C083C00294
:0E19DC00C003C004C005C006C007C000C001A3
:0E19EA00C0D075D000C2E812124D903A3AE01B
:0719F800FABA3003021A6A7B
:0519FF00BA3802801E51
:051A0400BA3A02806106
:051A0900BA3B0280243D
:051A0E00BA3D02805703
:051A1300BA4002805200
:051A1800BA4102802527
:051A1D00BA43418048BE
:0E1A220090E68AE4F0120573E58290E68BF000
:021A30008038FC
:0E1A320090E68AE4F01207B9E58290E68BF0A8
:021A40008028FC
:0D1A4200903A39E0FA6008903A0FE4F01293
:021A4F000CED9C
:0E1A510090E68AE4F0903A39E0FA90E68BF0E5
:021A5F008009FC
:091A610090E68AE4F090E68BF0B7
:0E1A6A005391EF90E65F7401F0D2E8D0D0D037
:0E1A780001D000D007D006D005D004D003D096
:0C1A860002D083D082D0F0D0E0D020321B
:0C1A9200C020C0E0C0F0C082C083C002D1
:0E1A9E00C003C004C005C006C007C000C001E0
:0E1AAC00C0D075D000C2E8903A3BE0FA60204E
:0D1ABA00903A3BE4F090E6BFE0FB7A00902C
:0E1AC700E6BEE0FC7D00903A37EC4AF0ED4BB5
:051AD500A3F012127ADB
:0D1ADA0012124D903A3AE0FABA31028060E3
:051AE700BA3202805834
:051AEC00BA3902800A76
:051AF100BA3C02801068
:051AF600BA424E801F02
:0B1AFB0090E68BE0F5821205A7804109
:0B1B0600903A06E0F51290E68BE0F547
:091B11001390E7401206C1802D7B
:0D1B1A00903A39E0FA6026903A0FE4F0129C
:0A1B27000D10903A0FE0FA6017125B
:0E1B310008ED90E6A0E0FA4401F0903A37E4A7
:051B3F00F0A3F080039B
:031B4400120EDF9F
:0E1B470090E68BE4F05391EF90E65F7402F0AD
:0E1B5500903A37E0FAA3E0FB4A700890E6A051
:051B6300E0FA4480F0EF
:0E1B6800D2E8D0D0D001D000D007D006D005F2
:0E1B7600D004D003D002D083D082D0F0D0E0D3
:031B8400D020323C
:0E1B8700C0E0C082C0835391EF90E65F74040B
:081B9500F0D083D082D0E032D1
:0E1B9D00C0E0C082C0835391EF90E65F7408F1
:081BAB00F0D083D082D0E032BB
:0E1BB300C0E0C082C0835391EF90E65F7410D3
:081BC100F0D083D082D0E032A5
:0E1BC900C0E0C082C0835391EF90E65F7420AD
:081BD700F0D083D082D0E0328F
:0E1BDF00C0E0C082C0835391EF90E65F744077
:081BED00F0D083D082D0E03279
:0E1BF500C0E0C082C0835391EF90E65F748021
:081C0300F0D083D082D0E03262
:071C0B007510007511039034
:061C12003A321205D490E5
:0E1C18003A32E0FABA4324903A33E0FABA4482
:0E1C26001C903A34E0FABA3014903A07740178
:0A1C3400F075101075110A90008A77
:051C3E001205D4800531
:051C4300903A07E4F0F7
:021C48007A0020
:031C4A00BA0A00D3
:0E1C4D005012EA248AF582E43400F583E0FBAD
:061C5B00BB30540A80E9D1
:071C61007510FB75110590E1
:091C68003A321205D47A007B0027
:031C7100BB0500B0
:0A1C7400503CEB2432F582E4343AD0
:0E1C7E00F583E0FCEA248AFDE43400FEECC4A9
:0E1C8C00540F901FFC93FF8D828E83F00AEAA6
:0E1C9A00248AFDE43400FE740F5C901FFC935E
:0A1CA800FC8D828E83F00A0B80BFD2
:011CB200220F
:0E1CB30090E680E04408F090E6007412F09095
:0C1CC1000002120265538EF8120D5290C2
:0E1CCD003A2774FFF0C2AFC2E89000437402E1
:0E1CDB00F09000447401F090004574B8F09051
:0D1CE900E668E04408F09001007402F07A13
:0A1CF600137B138B04900101ECF046
:0C1D0000900102EAF09001047402F07AF5
:0A1D0C004C7B198B04900105ECF0EC
:0C1D1600900106EAF09001087402F07AD7
:0A1D2200627B198B04900109ECF0BC
:0C1D2C0090010AEAF090010C7402F07AB9
:0A1D3800787B198B0490010DECF08C
:0C1D420090010EEAF09001107402F07A9B
:0A1D4E008E7B198B04900111ECF05C
:0C1D5800900112EAF09001147402F07A7D
:0A1D6400A47B198B04900115ECF02C
:0C1D6E00900116EAF09001187402F07A5F
:0A1D7A00BA7B198B04900119ECF0FC
:0C1D840090011AEAF09001207402F07A3D
:0A1D9000D07B198B04900121ECF0C8
:0C1D9A00900122EAF09001247402F07A1B
:0A1DA600927B1A8B04900125ECF0EB
:0C1DB000900126EAF09001287402F07AFD
:0A1DBC00877B1B8B04900129ECF0DB
:0C1DC60090012AEAF090012C7402F07ADF
:0A1DD2009D7B1B8B0490012DECF0AB
:0C1DDC0090012EEAF09001307402F07AC1
:0A1DE800B37B1B8B04900131ECF07B
:0C1DF200900132EAF09001347402F07AA3
:0A1DFE00C97B1B8B04900135ECF04B
:0C1E0800900136EAF09001387402F07A84
:0A1E1400DF7B1B8B04900139ECF01A
:0C1E1E0090013AEAF090013C7402F07A66
:0A1E2A00F57B1B8B0490013DECF0EA
:0E1E340090013EEAF05391EF90E65D747FF06E
:0E1E420090E65CE0FA447FF090E65F74FFF0FB
:0E1E500090E65E74FFF0D2E8D2AF90E6117417
:0E1E5E00A0F00000000090E61074A0F000005C
:0D1E6C00000090E61274E2F000000000900B
:0E1E7900E61374A2F00000000090E614E4F0FE
:0E1E87000000000090E615E4F00000000012DC
:0D1E95000C2D903A08E0FA70099000FA1246
:051EA2000265120C2D89
:0E1EA700121C0B1210C890E680E04482F090EE
:0D1EB500000A12026590E680E054F7F0226A
:031EC200121CB33C
:0E1EC500903A00E0FA60F990E6A4E0FA20E21C
:0E1ED300F190E694E0FB7A0090E695E0FC7D4D
:0D1EE100004202ED4203EA4B7003021F3A7B
:0B1EEE00C3E49A74029B5003021F3AE9
:0B1EF90090E6A3E0FC30E303021F3A78
:041F04007C007D00E0
:0E1F0800C3EC9AED9B501B8C8274F42DF58374
:0E1F1600E0F5A08C8274F02DF583E590F00CC0
:061F2400BC00E10D80DEAF
:0E1F2A0090E690EBF0000000007B0090E69146
:021F3800EAF0CD
:0D1F3A000000000090E6957480F0021EC5C6
:081F4B005A54455842530101AC
:051F53005A544558003E
:0E1F580075636563686F206578616D706C65F8
:0E1F660020666F722055464D20322E3034001A
:081F740064656661756C740080
:0E1F7C0012010002FFFFFF401A2200010000C8
:041F8A00010203014C
:0A1F8E000A060002FFFFFF400100F9
:0E1F980009022E00010104C0320904000004F9
:0E1FA600FFFFFF000705810200020007050192
:0E1FB400020002000705820200020007050479
:041FC2000200020017
:021FC600000019
:0E1FC80009022E00010104C0320904000004C9
:0E1FD600FFFFFF000705810240000007050124
:0E1FE4000240000007058202400000070504CD
:041FF20002400000A9
:021FF6000000E9
:041FF80004030000DE
:0E1FFC003031323334353637383941424344C0
:03200A0045460048
:02200D000000D1
:01200F0000D0
:01201000FFD0
:0120110000CE
:082012000000000000000000C6
:06023700E478FFF6D8FD9B
:08021500790DE94400601B7A39
:05021D000190200D78A6
:030222003775929B
:0A0225003AE493F2A308B8000205C2
:08022F0092D9F4DAF27592FF96
:08023D007800E84400600A7932
:03024500007592AF
:060248003AE4F309D8FCC2
:08024E007837E84400600C79E8
:0B02560001903A00E4F0A3D8FCD9FAB4
:03020800758120DD
:0A020B00121F47E5826003020203A0
:041F4700758200227D
:00000001FF
