:03020000020208EF
:0302610002020393
:0502030012168B80FEC5
:03000000020200F9
:0100030032CA
:01000B0032C2
:0100130032BA
:01001B0032B2
:0100230032AA
:01002B0032A2
:01003300329A
:01003B003292
:01004300328A
:01004B003282
:01005300327A
:01005B003272
:01006300326A
:0101000032CC
:0101040032C8
:0101080032C4
:01010C0032C0
:0101100032BC
:0101140032B8
:0101180032B4
:0101200032AC
:0101240032A8
:0101280032A4
:01012C0032A0
:01013000329C
:010134003298
:010138003294
:01013C003290
:01014000328C
:010148003284
:01014C003280
:01015000327C
:010154003278
:010158003274
:01015C003270
:01016000326C
:01017000325C
:010174003258
:010178003254
:01017C003250
:01018000324C
:010184003248
:010188003244
:01018C003240
:01019000323C
:010194003238
:010198003234
:01019C003230
:0101A000322C
:0101A8003224
:0101AC003220
:0101B000321C
:0101B4003218
:0101B8003214
:010264002277
:08026500AA82AB837C007D003E
:0B026D00C3EC9AED9B50147EB07F04A0
:050278001EBEFF011F86
:0B027D00EE4F70F70CBC00E80D80E5B0
:010288002253
:08028900AA82AB837C007D001A
:0B029100C3EC9AED9B50147E0A7F0026
:05029C001EBEFF011F62
:0B02A100EE4F70F70CBC00E80D80E58C
:0102AC00222F
:0E02AD0075AF0790E67BE090E67CF0DAF32276
:0102BB002220
:0202BC007A00C6
:0302BE00BAFF0084
:0D02C100500B90E678E0FB20E0030A80F08F
:0C02CE0090E678E0FA20E204EA20E10B60
:0B02DA0090E678E04440F075820122BD
:0402E50075820022FC
:0202E9007A0099
:0302EB00BAFF0057
:0D02EE00500B90E678E0FB20E0030A80F062
:0E02FB0090E678E0FA30E20B90E678E04440BE
:05030900F075820122E5
:04030E0075820022D2
:020312007A006F
:03031400BAFF002D
:0E031700500F90E678E0FB20E2047582002291
:030325000A80EC5F
:0403280075820122B7
:02032C007A0055
:03032E00BAFF0013
:0E033100500F90E678E0FB20E6047582002273
:03033F000A80EC45
:04034200758201229D
:09034600AA82C3E49508E433FB2C
:0E034F0090E678E04480F0C002C00312031272
:0E035D00D003D00290E679EAF0C002C003128D
:0C036B0002BCE582D003D0027012E5094C
:0C037700600A90E678E04440F012032C8D
:04038300758200225D
:0E038700EB601090000AC002C003120289D081
:0503950003D00280B559
:0C039A00E509600890E678E0FA4440F0C5
:0403A6007582012239
:0C03AA00AA82AB837C00E50C7003F58296
:0103B6002224
:0A03B7007508647509007582A2C084
:0E03C10002C003C004120346E582D004D0033C
:0703CF00D00260030204B03C
:0C03D60090E679E50BF0C002C003C00403
:0E03E2001202BCE582D004D003D002600302F8
:0203F00004B057
:0C03F20090E679E50AF0C002C003C004E8
:0E03FE001202BCE582D004D003D002600302DC
:02040C0004B03A
:0E040E0090E678E04440F0C002C003C0041243
:0D041C00032C90E678E04480F0120312906B
:0E042900E67974A3F01202BCE582D004D00381
:0E043700D002707590E679E08A828B83F0C067
:0E04450002C003C0041202E9E582D004D00315
:05045300D0027059FD0C
:0C045800C3ED950C502A90E679E08A82F2
:0E0464008B83F0A3AA82AB83C002C003C00446
:0E047200C0051202E9E582D005D004D003D007
:0804800002702D0D8D0480D0E7
:0E04880090E678E04420F090E679E0C004129F
:0E04960002E9E582D004701290E678E044405E
:0C04A400F090E679E0C00412032CD004B4
:0304B0008C822219
:0C04B300AA82AB837C00E50F7003F58289
:0104BF00221A
:0A04C0007508647509007582A2C07A
:0E04CA0002C003C004120346E582D004D00332
:0704D800D002600302057071
:0C04DF0090E679E50EF0C002C003C004F6
:0E04EB001202BCE582D004D003D002600302EE
:0204F90005708C
:0C04FB0090E679E50DF0C002C003C004DB
:0E0507001202BCE582D004D003D002705CFD6D
:0C051500C3ED950F50478A828B83E0FEF7
:0E052100A3AA82AB8390E679EEF0903A04E054
:0D052F00FFEE2FF0903A02E0FEA3E0FF90F7
:0E053C003A0274012EF0E43FA3F0C002C003A7
:0E054A00C004C0051202BCE582D005D004D06A
:0A05580003D00270130D8D0480B370
:0E05620090E678E04440F0C00412032CD00470
:030570008C822258
:0A057300903A15E0FA903A00E0F526
:06057D000AA3E0F50B8A61
:0C0583000C90E740C0021203AAAB82D02B
:0E058F00027C00903A00E0FDA3E0FE903A00EE
:0A059D00EA2DF0EC3EA3F08B822261
:0B05A700AA82903A00E0F50DA3E0F5F9
:0905B2000E8A0F90E740C002120E
:0E05BB0004B3D0027B00903A00E0FCA3E0FD08
:0B05C900903A00EA2CF0EB3DA3F0227A
:0C05D400AA82AB837C00E5117003F58265
:0105E00022F8
:0A05E1007508647509007582A6C054
:0E05EB0002C003C004120346E582D004D00310
:0705F900D00260030206BE00
:0C06000090E679E510F0C002C003C004D1
:0E060C001202BCE582D004D003D002600302CB
:02061A0006BE1A
:0E061C0090E678E04440F0C002C003C0041233
:0D062A00032C90E678E04480F0120312905B
:0E063700E67974A7F01202BCE582D004D0036D
:0E064500D002707590E679E08A828B83F0C057
:0E06530002C003C0041202E9E582D004D00305
:05066100D0027059FDFC
:0C066600C3ED9511502A90E679E08A82DD
:0E0672008B83F0A3AA82AB83C002C003C00436
:0E068000C0051202E9E582D005D004D003D0F7
:08068E0002702D0D8D0480D0D7
:0E06960090E678E04420F090E679E0C004128F
:0E06A40002E9E582D004701290E678E044404E
:0C06B200F090E679E0C00412032CD004A4
:0306BE008C822209
:0C06C100AA82AB837C00E5137003F58275
:0106CD00220A
:0A06CE007508647509007582A6C066
:0E06D80002C003C004120346E582D004D00322
:0706E600D00260030207B01F
:0C06ED0090E679E512F0C002C003C004E2
:0E06F9001202BCE582D004D003D002600302DE
:0207070007B039
:04070900AD127E00AF
:09070D00C3EE951340030207A29C
:0E0716008A828B83E0FFA3AA82AB8390E679F0
:0D072400EFF0C002C003C004C005C0061203
:0E07310002BCE582D006D005D004D003D00271
:0C073F00706F0D8D120E8E04ED20E3C2D1
:0C074B00C3EE951350BC90E678E04440EB
:0E075700F0C002C003C004C005C00612032C8F
:0A0765007508647509007582A6127C
:0E076F000346E582D006D005D004D003D002A8
:0E077D00703190E679EDF0C002C003C004C0F8
:0E078B0005C0061202BCE582D006D005D004DF
:09079900D003D002701102070D1B
:0E07A20090E678E04440F0C00412032CD0042E
:0907B000903A05E512F08C82225A
:0A07B900903A15E0FA903A05E0F5D9
:0907C300108A1190E740C00212F7
:0E07CC0005D4AB82D002903A05E0FCEA2CF096
:0307DA008B8222ED
:0D07DD00AA8290E6017480F00000000090F8
:0E07EA00E670E4F090E671F053B4F975B2B623
:0E07F80074904AF58043B40853A0F790000AAD
:0E080600C002120265D00274024AF5807A0028
:020814007B0067
:0E08160020A2208A048B057E007F00C3EC9494
:0E082400FFED94FFEE9400EF64809480500787
:070832000ABA00E00B80DDB3
:0708390030A2047AC880021E
:020840007A64D8
:0E084200903A0CEAF0903A08E4F0A3F0A3F02C
:08085000A3F0903A07E4F02246
:060858007582040207DDB9
:06085E007582340207DD83
:030864000208582F
:0E086700D28743B280903A16E024FF92A0752B
:0E087500B40190E6A3E0FA54FEF090E60B7496
:0E08830003F00000000090E60174A3F00000F6
:0D089100000090E6187409F00000000090CF
:0E089E00E6207402F00000000090E621E4F075
:0E08AC000000000090E6047480F000000000E0
:0E08BA0090E6047402F00000000090E604E4F2
:0E08C800F00000000090E609E4F000000000DF
:0E08D60090E602E4F00000000090E603E4F07B
:0708E40000000000C28722A2
:0708EB0030A2047A1680021E
:0208F2007A0B7F
:0A08F400903A0CE0FBEA2BF07A00CA
:0308FE00BA4000FD
:090901005007D284C2840A80F47C
:0E090A00D287D284C284D284C284D284C284B2
:0E091800D284C28475B20053B4F7308105D288
:0409260081120867CB
:06092A00D28143B202225B
:0C09300085B31475B3FF903A15E0FB90FE
:0E093C003A08E0FCA3E0FDA3E0FEA3E0FF7894
:0E094A000079007A00903A08EB2CF0E83DA30B
:0E095800F0E93EA3F0EA3FA3F090E68BE060EA
:0E09660022FA759B40759AE775AF07903A0725
:05097400E0F990E67BB4
:0E097900E0F590D28429F9C284DAF5903A07AD
:02098700E9F095
:0B0989008514B390E68BE0FABA400042
:0509940050030208EB16
:01099900223B
:0E099A0090E60174C2F090E6F3E4F090E6C33C
:0E09A800F090E6C1F090E6C27404F090E6C054
:0C09B600744EF090E6F4E4F0759B177AA4
:0A09C200177B3A8B9A759E60759DB5
:0E09CC00E4C0027A201202ADD00290E6C6E42A
:0D09DA00F090E6C77410F090E6C8E4F090CD
:0E09E700E6C9F090E6CAF090E6CBF090E6CCC0
:0E09F500E4F090E6CDF090E60B7401F0000007
:0D0A0300000090E6047480F00000000090F8
:0E0A1000E6047406F00000000090E604E4F036
:0E0A1E000000000090E61AE4F00000000090D6
:0E0A2C00E61A7410F00000000090E6E274017B
:0E0A3A00F00000000090E6CE7401F000000015
:0E0A48000090E6CFE4F00000000090E6D0E45D
:0E0A5600F00000000090E6D1E4F00000000087
:0E0A640090E6E474FFF00000000053B2EF4390
:050A7200B201C2802268
:01006C00286B
:01006D000191
:04006E005A54455843
:040072000A0D000073
:010076000089
:010077000187
:060078006300000000001F
:0C007E0000000000000000000000000076
:0A008A00303030303030303030308C
:010A7700225C
:0E0A780090E683E4F07420F07410F07430F017
:0E0A860090E6837401F07421F07411F0743165
:0E0A9400F090E6837412F07432F07406F07481
:030AA20026F02219
:0A0AA500AA82E51624E0500375163E
:010AAF001F27
:0D0AB00090E6BFE0701090E6BEE0FBC3953D
:090ABD0016500690E6BEE0F516A5
:0C0AC60075AF078A9B85159A759E4175D7
:0A0AD2009DE790E67C7403F07A00C3
:0C0ADC00C3EA9516501190E67BE0FB90F9
:0B0AE800E67CF090E67CE4F00A80E978
:0B0AF300E5160425E0FA90E740F090C3
:0E0AFE00E7417403F090E68AE4F090E68BEA9C
:020B0C00F022D5
:0E0B0E00903A13E0FAA3E0FBC374409AE49B14
:080B1C0050067C407D008004BE
:040B24008A048B05AF
:0E0B2800903A15ECF07D00903A13EAC39CF071
:050B3600EB9DA3F0227D
:0A0B3B00903A57E0FABA31028056F2
:040B4500BA3201229D
:050B4900BA34028050E7
:050B4E00BA3502805ED3
:050B5300BA3902801612
:050B5800BA3C028035EB
:050B5D00BA60028003F4
:030B6200020BD1B2
:090B650090E6BAE0903A16F02285
:0E0B6E00903A04E4F0903A02F0A3F090E6BB57
:0E0B7C00E0FB7A0090E6BAE0FC7D00903A00C3
:080B8A00EC4AF0ED4BA3F02250
:090B920090E6BAE0903A05F02269
:030B9B00020864E9
:0E0B9E0012086490E6A5E054FEF090E6F574AF
:050BAC00FFF002099AB0
:0E0BB100D280D28443B21090E6F574FFF000BB
:0E0BBF0000000090E601E0FA54F0F0000000A3
:040BCD00000208EB2F
:080BD10090E6A0E04401F022CF
:0C0BD900C020C0E0C0F0C082C083C00299
:0E0BE500C003C004C005C006C007C000C001A8
:0E0BF300C0D075D00090E6B9E0FA903A57F005
:0E0C010090E6B57401F090E6B9E0FA24F350E5
:040C0F0003020F8F3E
:070C1300EA2A2A900C1A7373
:070C1A00020C41020CF5027F
:060C21000F8F020D7202AC
:060C27000F8F020F8F0287
:060C2D000E0A020F250271
:060C33000F27020F38023A
:060C39000F3D020F4E0208
:020C3F000F5351
:0A0C410090E6B8E0FABA8002800DD8
:050C4B00BA8102801EC9
:050C5000BA8202802FB2
:030C5500020F8FFC
:0E0C580090E740E4F090E741F090E68AF090DB
:080C6600E68B7402F0020F8F0F
:0E0C6E0090E740E4F090E741F090E68AF090C5
:080C7C00E68B7402F0020F8FF9
:0C0C840090E6BCE0FA600FBA0102801993
:050C9000BA800280059E
:050C9500BA812F801E52
:0E0C9A0090E6A0E0FA53020190E740EAF080F5
:010CA8003A11
:0E0CA90090E6A1E0FA53020190E740EAF080E5
:010CB7002B11
:0E0CB80090E6A2E0FA53020190E740EAF080D5
:010CC6001C11
:0E0CC70090E6BCE0C31314540324A3F582E4AA
:0E0CD50034E6F583E0FA53020190E740EAF0BE
:0E0CE30090E741E4F090E68AF090E68B740210
:040CF100F0020F8F6F
:0A0CF50090E6B8E0FABA02028003AC
:030CFF00020F8F52
:090D020090E6BAE06003020F8FD5
:0C0D0B0090E6BCE0FA600FBA010280150F
:050D1700BA8002800516
:050D1C00BA81238016DE
:0B0D210090E6A0E0FA54FEF0020F8FF5
:0B0D2C0090E6A1E0FA54FEF0020F8FE9
:0B0D370090E6A2E0FA54FEF0020F8FDD
:0E0D420090E6BCE0C31314540324A3FAE43477
:0E0D5000E6FB90E6BCE0C31314540324A3F5A5
:0E0D5E0082E434E6F583E0FC5304FE8A828BC7
:060D6C0083ECF0020F8F82
:0A0D720090E6B8E0FABA020280032E
:030D7C00020F8FD4
:090D7F0090E6BAE06003020F8F58
:0C0D880090E6BCE0FA600FBA0102801493
:050D9400BA8002800599
:050D9900BA8120801466
:0A0D9E0090E6A0E0FA4401F0804165
:0A0DA80090E6A1E0FA4401F0803764
:0A0DB20090E6A2E0FA4401F0802D63
:0E0DBC0090E6BCE0C31314540324A3FAE434FD
:0E0DCA00E6FB90E6BCE0C31314540324A3F52B
:0E0DD80082E434E6F583E0FC4304FE8A828B5D
:030DE60083ECF0AB
:0E0DE90090E6BCE05480C423541FFA90E6BC90
:0E0DF700E0FB740F5B420290E683EAF074208A
:050E05004AF0020F8F0E
:0A0E0A0090E6BBE0FABA010280197D
:050E1400BA0202802675
:050E1900BA0302804D48
:060E1E00BA0603020EDE1D
:060E2400BA0703020EF004
:030E2A00020F1B99
:0A0E2D007ABE7B1690E6B3EBF0905E
:080E3700E6B474BEF0020F8F57
:0B0E3F0090E680E0FA30E7127ADA7BE0
:0A0E4A001690E6B3EBF090E6B474E6
:050E5400DAF0020F8F2F
:0A0E59007A0A7B1790E6B3EBF090E5
:080E6300E6B4740AF0020F8FDF
:0A0E6B0090E6BAE0FABA0102800F27
:050E7500BA0202801C1E
:050E7A00BA030280290B
:050E7F00BA044A8036B0
:060E84007582947A947B54
:040E8A00168B157539
:060E8E001605120AA50280
:020E94000F8FBE
:060E96007582997A997B38
:040E9C00168B157527
:060EA000161D120AA50256
:020EA6000F8FAC
:0A0EA80075828A7A8A7B008B15752B
:060EB200160A120AA50257
:020EB8000F8F9A
:060EBA007582B67AB67BDA
:040EC000168B157503
:060EC4001608120AA50247
:020ECA000F8F88
:0A0ECC007A3A7B1790E6B3EBF09042
:080ED600E6B4743AF0020F8F3C
:0A0EDE007AD07B1690E6B3EBF0909B
:080EE800E6B474D0F0020F8F94
:0B0EF00090E680E0FA30E7127A0A7BFF
:0A0EFB001790E6B3EBF090E6B47434
:050F05000AF0020F8F4D
:0A0F0A007ADA7B1690E6B3EBF09064
:070F1400E6B474DAF080740A
:0A0F1B0090E6A0E0FA4401F0806ABD
:020F25008068E2
:0E0F270090E740E4F090E68AF090E68B7401CB
:030F3500F08057F2
:050F3800120A7880524E
:0E0F3D0090E740E4F090E68AF090E68B7401B5
:030F4B00F08041F2
:050F4E00120A78803C4E
:0E0F530090E6B8E0FABA823490E6BCE0C31330
:0B0F610014540325E02459F582E43409
:0C0F6C003AF583E4F0A3F090E685E090F5
:0D0F7800E740F090E684E0FA90E741F09049
:0A0F8500E68AE4F090E68B7402F0B7
:0B0F8F0090E6B8E0FABA40030211152A
:050F9A00BAC002800353
:030F9F0002113FFD
:0E0FA20090E6BFE0FB7A0090E6BEE0FC7D002A
:0E0FB000903A13EC4AF0ED4BA3F0120B0E90AA
:090FBE00E6B9E0FABA220280252E
:060FC700BA30030210AB7A
:060FCD00BA33030210F428
:050FD300BA3802803174
:050FD800BA3A02805549
:060FDD00BA3B0302107193
:060FE300BA3D0302108A72
:030FE90002110BE7
:0E0FEC0090E6B5E4F090E68AF090E68B74286B
:0D0FFA00F090E6B3E4F090E6B4746CF00201
:02100700113F97
:0E10090090E6BBE0FB7A0090E6BAE0FC7D00CA
:0E101700903A00EC4AF0ED4BA3F090E68AE42C
:0D102500F0120573E58290E68BF002113F9A
:0E103200903A02E0FAA3E0FB8A0490E740EC5B
:0D104000F08B0290E741EAF0903A04E09056
:0A104D00E742F0750800750901750F
:0D10570082A2120346AA8290E743EAF090BD
:0D106400E68AE4F090E68B7404F002113F80
:0E10710090E6BAE0903A05F090E68AE4F012BC
:0B107F0007B9E58290E68BF002113FFC
:0A108A007508007509017582A612B1
:0E1094000346AA8290E740EAF090E68AE4F074
:0910A20090E68B7401F002113F8D
:0610AB00759B077A077B2C
:0C10B1003A8B9A759E417A417BE78B9D3B
:0E10BD00C0027A071202ADD00253B2FD30819C
:0D10CB000C90E740E4F0D28143B2028009AE
:0910D80090E7407401F012085881
:0E10E10090E7487401F090E68AE4F090E68B08
:0510EF007409F0804BC4
:0E10F40090E7407406F090E741E4F090E68A41
:09110200F090E68B7402F08034D9
:0A110B0090E6A0E0FA4401F0802A0B
:0C11150090E6BFE0700690E6BEE06016B9
:0E112100903A587401F090E68BE4F05391EF91
:08112F0090E65D7401F08019E7
:08113700120B3B90E68BE4F083
:0E113F005391EF90E65D7401F090E6A0E0FAA7
:03114D004480F0EB
:0E115000D0D0D001D000D007D006D005D004FA
:0D115E00D003D002D083D082D0F0D0E0D0FA
:02116B00203230
:0E116D00C0E0C082C0835391EF90E65D740233
:08117B00F0D083D082D0E032F5
:0E118300C0E0C082C0835391EF90E65D74041B
:08119100F0D083D082D0E032DF
:0E119900C0E0C082C0835391EF90E65D740801
:0811A700F0D083D082D0E032C9
:0E11AF00C0E0C082C0835391EF90E65D7410E3
:0811BD00F0D083D082D0E032B3
:0E11C500C0E0C082C0835391EF90E65D7420BD
:0811D300F0D083D082D0E0329D
:0E11DB00C0E0C082C0835391EF90E65D744087
:0811E900F0D083D082D0E03287
:0C11F100C020C0E0C0F0C082C083C0027B
:0E11FD00C003C004C005C006C007C000C0018A
:0E120B00C0D075D000C2E8120B0E903A57E02A
:06121900FABA3002804227
:05121F00BA3302803D1E
:05122400BA3802800F42
:05122900BA3A02803317
:05122E00BA3B0280152F
:05123300BA3D228029F4
:0E12380090E68AE4F0120573E58290E68BF0F2
:0212460080190D
:0E12480090E68AE4F01207B9E58290E68BF09A
:0212560080090D
:0912580090E68AE4F090E68BF0C8
:0E1261005391EF90E65F7401F0D2E8D0D0D048
:0E126F0001D000D007D006D005D004D003D0A7
:0C127D0002D083D082D0F0D0E0D020322C
:0C128900C020C0E0C0F0C082C083C002E2
:0E129500C003C004C005C006C007C000C001F1
:0E12A300C0D075D000C2E8903A58E0FA602042
:0D12B100903A58E4F090E6BFE0FB7A009020
:0E12BE00E6BEE0FC7D00903A13EC4AF0ED4BEA
:0512CC00A3F0120B3B32
:0C12D100120B0E903A57E0FABA310302FB
:0212DD00132AD2
:0612DF00BA3203021327DE
:0612E500BA340302132AD3
:0612EB00BA350302132ACC
:0612F100BA3903021308E4
:0612F700BA3C03021313D0
:0512FD00BA600280034D
:0313020002132AA9
:0313050000802243
:0B13080090E68BE0F5821205A780172D
:0B131300903A05E0F51290E68BE0F543
:09131E001390E7401206C18003A0
:0313270012093078
:0E132A0090E68BE4F05391EF90E65F7402F0D2
:0E133800903A13E0FAA3E0FB4A700890E6A09A
:05134600E0FA4480F014
:0E134B00D2E8D0D0D001D000D007D006D00517
:0E135900D004D003D002D083D082D0F0D0E0F8
:03136700D0203261
:0E136A00C0E0C082C0835391EF90E65F740430
:08137800F0D083D082D0E032F6
:0E138000C0E0C082C0835391EF90E65F740816
:08138E00F0D083D082D0E032E0
:0E139600C0E0C082C0835391EF90E65F7410F8
:0813A400F0D083D082D0E032CA
:0E13AC00C0E0C082C0835391EF90E65F7420D2
:0813BA00F0D083D082D0E032B4
:0E13C200C0E0C082C0835391EF90E65F74409C
:0813D000F0D083D082D0E0329E
:0E13D800C0E0C082C0835391EF90E65F748046
:0813E600F0D083D082D0E03288
:0713EE00751000751103905A
:0613F5003A0E1205D4902F
:0E13FB003A0EE0FABA4324903A0FE0FABA44F0
:0E1409001C903A10E0FABA3014903A067401C2
:0A141700F075101075110A90008A9C
:051421001205D4800556
:05142600903A06E4F01D
:02142B007A0045
:03142D00BA0A00F8
:0E1430005012EA248AF582E43400F583E0FBD2
:06143E00BB30540A80E9F6
:071444007510FB7511059006
:09144B003A0E1205D47A007B0070
:03145400BB0500D5
:0A145700503CEB240EF582E4343A19
:0E146100F583E0FCEA248AFDE43400FEECC4CE
:0E146F00540F90173E93FF8D828E83F00AEA91
:0E147D00248AFDE43400FE740F5C90173E9349
:0A148B00FC8D828E83F00A0B80BFF7
:011495002234
:0E14960090E680E04408F090E6007412F090BA
:0E14A4000002120265538EF8D28143B202C2DA
:0E14B200AFC2E89000437402F0900044740151
:0E14C000F090004574B8F090E668E04408F043
:0A14CE009001007402F07AD97B0B44
:0D14D8008B04900101ECF0900102EAF0900D
:0A14E50001047402F07A6D7B118B94
:0E14EF0004900105ECF0900106EAF09001086F
:0A14FD007402F07A837B118B0490D7
:0E1507000109ECF090010AEAF090010C740268
:0A151500F07A997B118B0490010D10
:0E151F00ECF090010EEAF09001107402F07AE8
:0A152D00AF7B118B04900111ECF06C
:0C153700900112EAF09001147402F07AA6
:0A154300C57B118B04900115ECF03C
:0C154D00900116EAF09001187402F07A88
:0A155900DB7B118B04900119ECF00C
:0C15630090011AEAF09001207402F07A66
:0A156F00F17B118B04900121ECF0D8
:0C157900900122EAF09001247402F07A44
:0A158500897B128B04900125ECF025
:0C158F00900126EAF09001287402F07A26
:0A159B006A7B138B04900129ECF029
:0C15A50090012AEAF090012C7402F07A08
:0A15B100807B138B0490012DECF0F9
:0C15BB0090012EEAF09001307402F07AEA
:0A15C700967B138B04900131ECF0C9
:0C15D100900132EAF09001347402F07ACC
:0A15DD00AC7B138B04900135ECF099
:0C15E700900136EAF09001387402F07AAE
:0A15F300C27B138B04900139ECF069
:0C15FD0090013AEAF090013C7402F07A90
:0A160900D87B138B0490013DECF038
:0E16130090013EEAF05391EF90E65D747FF097
:0E16210090E65CE0FA447FF090E65F74FFF024
:0E162F0090E65E74FFF0D2E8D2AF90E6117440
:0E163D00A0F00000000090E61074A0F0000085
:0D164B00000090E61274E0F0000000009036
:0E165800E613E4F00000000090E61474A2F027
:0E1666000000000090E615E4F0000000001205
:0D16740013EE90E680E04482F090000A1230
:0A168100026590E680E054F7F022C5
:03168B00121496A0
:02168E0080FEDC
:051694005A5445580006
:0E1699006D656D74657374206578616D706C9D
:0E16A7006520666F722055464D20312E31357C
:0116B5000034
:0816B60064656661756C740047
:0E16BE0012010002FFFFFF401A22000100008F
:0416CC000102030113
:0A16D0000A060002FFFFFF400100C0
:0E16DA0009022E00010104C0320904000004C0
:0E16E800FFFFFF000705810200020007050159
:0E16F60002000200070582020002000705063E
:0417040002000200DD
:021708000000DF
:0E170A0009022E00010104C03209040000048F
:0E171800FFFFFF0007058102400000070501EA
:0E172600024000000705820240000007050691
:04173400024000006F
:021738000000AF
:04173A0004030000A4
:0E173E00303132333435363738394142434486
:03174C004546000F
:02174F00000098
:011751000097
:011752000096
:0E1753000188010101010107020702020202E2
:0E17610002000400000000000004003600003A
:04176F000000003F37
:0E1773000201900101010107020207020202B9
:0E17810002000400000000000004000036001A
:04178F000000003F17
:01179300FF56
:011794000054
:0817950000000000000000004C
:06023700E478FFF6D8FD9B
:08021500794EE94400601B7AF8
:05021D000190174F786D
:03022200137592BF
:0A0225003AE493F2A308B8000205C2
:08022F0092D9F4DAF27592FF96
:08023D007800E84400600A7932
:03024500007592AF
:060248003AE4F309D8FCC2
:08024E007813E84400600C790C
:0B02560001903A00E4F0A3D8FCD9FAB4
:03020800758120DD
:0A020B00121690E582600302020360
:04169000758200223D
:00000001FF
