:03020000020208EF
:0302610002020393
:05020300121DC980FE80
:03000000020200F9
:0100030032CA
:01000B0032C2
:0100130032BA
:01001B0032B2
:0100230032AA
:01002B0032A2
:01003300329A
:01003B003292
:01004300328A
:01004B003282
:01005300327A
:01005B003272
:01006300326A
:0101000032CC
:0101040032C8
:0101080032C4
:01010C0032C0
:0101100032BC
:0101140032B8
:0101180032B4
:0101200032AC
:0101240032A8
:0101280032A4
:01012C0032A0
:01013000329C
:010134003298
:010138003294
:01013C003290
:01014000328C
:010148003284
:01014C003280
:01015000327C
:010154003278
:010158003274
:01015C003270
:01016000326C
:01017000325C
:010174003258
:010178003254
:01017C003250
:01018000324C
:010184003248
:010188003244
:01018C003240
:01019000323C
:010194003238
:010198003234
:01019C003230
:0101A000322C
:0101A8003224
:0101AC003220
:0101B000321C
:0101B4003218
:0101B8003214
:010264002277
:08026500AA82AB837C007D003E
:0B026D00C3EC9AED9B50147EB07F04A0
:050278001EBEFF011F86
:0B027D00EE4F70F70CBC00E80D80E5B0
:010288002253
:08028900AA82AB837C007D001A
:0B029100C3EC9AED9B50147E0A7F0026
:05029C001EBEFF011F62
:0B02A100EE4F70F70CBC00E80D80E58C
:0102AC00222F
:0E02AD0075AF0790E67BE090E67CF0DAF32276
:0102BB002220
:0E02BC0075B28375B30075B500D287C280C2DB
:0E02CA008190E6A3E054FEF090E6A5E0FA5421
:0D02D800FEF090E60174E3F00000000090DD
:0E02E500E60B7401F00000000090E604748047
:0E02F300F00000000090E6047402F00000002D
:0E0301000090E604E4F00000000090E60474B2
:0E030F0006F00000000090E604E4F00000009C
:0E031D000090E6187401F00000000090E61851
:0E032B007409F00000000090E6207402F0005B
:0D03390000000090E621E4F00000000090BC
:0E034600E61A7401F00000000090E61A74112F
:0E035400F00000000090E609E4F00000000058
:0E03620090E60274CAF0000000009000021243
:050370000265C28722B6
:020375007A000C
:03037700BAFF00CA
:0D037A00500B90E678E0FB20E0030A80F0D5
:0C03870090E678E0FA20E204EA20E10BA6
:0B03930090E678E04440F07582012203
:04039E007582002242
:0203A2007A00DF
:0303A400BAFF009D
:0D03A700500B90E678E0FB20E0030A80F0A8
:0E03B40090E678E0FA30E20B90E678E0444004
:0503C200F0758201222C
:0403C7007582002219
:0203CB007A00B6
:0303CD00BAFF0074
:0E03D000500F90E678E0FB20E20475820022D8
:0303DE000A80ECA6
:0403E10075820122FE
:0203E5007A009C
:0303E700BAFF005A
:0E03EA00500F90E678E0FB20E60475820022BA
:0303F8000A80EC8C
:0403FB0075820122E4
:0903FF00AA82C3E49508E433FB73
:0E04080090E678E04480F0C002C0031203CBFF
:0E041600D003D00290E679EAF0C002C00312D3
:0C0424000375E582D003D0027012E509D8
:0C043000600A90E678E04440F01203E51A
:04043C0075820022A3
:0E044000EB601090000AC002C003120289D0C7
:05044E0003D00280B59F
:0C045300E509600890E678E0FA4440F00B
:04045F00758201227F
:0C046300AA82AB837C00E50C7003F582DC
:01046F00226A
:0A0470007508647509007582A2C0CA
:0E047A0002C003C0041203FFE582D004D003C9
:07048800D0026003020569C8
:0C048F0090E679E50BF0C002C003C00449
:0E049B00120375E582D004D003D00260030284
:0204A9000569E3
:0C04AB0090E679E50AF0C002C003C0042E
:0E04B700120375E582D004D003D00260030268
:0204C5000569C7
:0E04C70090E678E04440F0C002C003C004128A
:0D04D50003E590E678E04480F01203CB9040
:0E04E200E67974A3F0120375E582D004D0030E
:0E04F000D002707590E679E08A828B83F0C0AE
:0E04FE0002C003C0041203A2E582D004D003A2
:05050C00D0027059FD52
:0C051100C3ED950C502A90E679E08A8238
:0E051D008B83F0A3AA82AB83C002C003C0048C
:0E052B00C0051203A2E582D005D004D003D093
:0805390002702D0D8D0480D02D
:0E05410090E678E04420F090E679E0C00412E5
:0E054F0003A2E582D004701290E678E04440EA
:0C055D00F090E679E0C0041203E5D00441
:030569008C82225F
:0C056C00AA82AB837C00E50F7003F582CF
:010578002260
:0A0579007508647509007582A2C0C0
:0E05830002C003C0041203FFE582D004D003BF
:07059100D0026003020629FD
:0C05980090E679E50EF0C002C003C0043C
:0E05A400120375E582D004D003D0026003027A
:0205B200062918
:0C05B40090E679E50DF0C002C003C00421
:0E05C000120375E582D004D003D002705CFDFA
:0C05CE00C3ED950F50478A828B83E0FE3E
:0E05DA00A3AA82AB8390E679EEF0903A04E09B
:0D05E800FFEE2FF0903A02E0FEA3E0FF903E
:0E05F5003A0274012EF0E43FA3F0C002C003EE
:0E060300C004C005120375E582D005D004D0F6
:0A06110003D00270130D8D0480B3B6
:0E061B0090E678E04440F0C0041203E5D004FD
:030629008C82229E
:0A062C00903A30E0FA903A00E0F551
:060636000AA3E0F50B8AA7
:0C063C000C90E740C002120463AB82D0B7
:0E064800027C00903A00E0FDA3E0FE903A0034
:0A065600EA2DF0EC3EA3F08B8222A7
:0B066000AA82903A00E0F50DA3E0F53F
:09066B000E8A0F90E740C0021254
:0E067400056CD0027B00903A00E0FCA3E0FD94
:0B068200903A00EA2CF0EB3DA3F022C0
:0C068D00AA82AB837C00E5117003F582AB
:01069900223E
:0A069A007508647509007582A6C09A
:0E06A40002C003C0041203FFE582D004D0039D
:0706B200D00260030207778C
:0C06B90090E679E510F0C002C003C00418
:0E06C500120375E582D004D003D00260030258
:0206D3000777A7
:0E06D50090E678E04440F0C002C003C004127A
:0D06E30003E590E678E04480F01203CB9030
:0E06F000E67974A7F0120375E582D004D003FA
:0E06FE00D002707590E679E08A828B83F0C09E
:0E070C0002C003C0041203A2E582D004D00391
:05071A00D0027059FD42
:0C071F00C3ED9511502A90E679E08A8223
:0E072B008B83F0A3AA82AB83C002C003C0047C
:0E073900C0051203A2E582D005D004D003D083
:0807470002702D0D8D0480D01D
:0E074F0090E678E04420F090E679E0C00412D5
:0E075D0003A2E582D004701290E678E04440DA
:0C076B00F090E679E0C0041203E5D00431
:030777008C82224F
:0C077A00AA82AB837C00E5137003F582BB
:010786002250
:0A0787007508647509007582A6C0AC
:0E07910002C003C0041203FFE582D004D003AF
:07079F00D0026003020869AB
:0C07A60090E679E512F0C002C003C00428
:0E07B200120375E582D004D003D0026003026A
:0207C0000869C6
:0407C200AD127E00F6
:0907C600C3EE9513400302085B29
:0E07CF008A828B83E0FFA3AA82AB8390E67937
:0D07DD00EFF0C002C003C004C005C006124A
:0E07EA000375E582D006D005D004D003D002FE
:0C07F800706F0D8D120E8E04ED20E3C218
:0C080400C3EE951350BC90E678E0444031
:0E081000F0C002C003C004C005C0061203E51C
:0A081E007508647509007582A612C2
:0E08280003FFE582D006D005D004D003D00235
:0E083600703190E679EDF0C002C003C004C03E
:0E08440005C006120375E582D006D005D0046B
:09085200D003D00270110207C6A8
:0E085B0090E678E04440F0C0041203E5D004BB
:09086900903A05E512F08C8222A0
:0A087200903A30E0FA903A05E0F504
:09087C00108A1190E740C002123D
:0E088500068DAB82D002903A05E0FCEA2CF022
:030893008B822233
:02089600AA8234
:0A089800D2A6000000C2A6DAF72283
:0E08A200A2A4D2A633C2A6A2A4D2A633C2A696
:0E08B000A2A4D2A633C2A6A2A4D2A633C2A688
:0E08BE00A2A4D2A633C2A6A2A4D2A633C2A67A
:0E08CC00A2A4D2A633C2A6A2A4D2A633C2A66C
:0708DA00F582227582002265
:0208E100AA1655
:0E08E300A2A4D2A633C2A6A2A4D2A633C2A655
:0E08F100A2A4D2A633C2A6A2A4D2A633C2A647
:0E08FF00A2A4D2A633C2A6A2A4D2A633C2A639
:0E090D00A2A4D2A633C2A6A2A4D2A633C2A62A
:05091B00F0A3DAC42284
:0E092000E5823392A7D2A633C2A692A7D2A632
:0E092E0033C2A692A7D2A633C2A692A7D2A623
:0E093C0033C2A692A7D2A633C2A692A7D2A615
:0E094A0033C2A692A7D2A633C2A692A7D2A607
:0409580000C2A62211
:02095C00AA16D9
:0E095E00E03392A7D2A633C2A692A7D2A63348
:0E096C00C2A692A7D2A633C2A692A7D2A633E5
:0E097A00C2A692A7D2A633C2A692A7D2A633D7
:0E098800C2A692A7D2A633C2A692A7D2A6A359
:05099600C2A6DAC42234
:0B099B00D2A5758208120896C2A522A2
:0809A600D2A575820802089633
:0D09AE00903A137405F012099B7582051232
:0609BB0009207A007B0018
:0E09C100C002C0031208A2E582D003D00230AB
:0E09CF00E02E8A048B057E007F00C3EC94FFAF
:0E09DD00ED94FFEE9400EF6480948050157549
:0E09EB008200C002C003120896D003D0020A98
:0609F900BA00C50B80C22C
:0C09FF001208A2E58230E0047A028002B7
:020A0B007A006F
:090A0D00903A0EEAF01209A690DD
:060A16003A0EE0F5822219
:0E0A1C00AA82AB8320A50A903A0E7404F075EE
:030A2A0082042221
:0E0A2D0053B4EF43B4E0C002C0031209AEE5BB
:0E0A3B0082D003D0026007903A0EE0F58222CE
:0E0A4900903A08E0FCA3E07D00EC24F8FCED00
:090A570034FFFD8CF005F080066F
:060A6000EA2AFAEB33FB69
:0E0A6600D5F0F7903A13740BF0C002C00312E3
:0E0A7400099B75820B120920D0038B82C003F0
:0E0A8200120920D003D0028A82120920758248
:0E0A9000001209207582081208967582002255
:040A9E00758200223B
:030AA2000209A6A0
:090AA5001209A6903A1BE4F012BC
:0D0AAE0009AEE5826007903A0EE0F5822265
:0D0ABB00903A137406F012099B7582061222
:060AC80009201209A690AE
:0C0ACE003A137402F012099B75820212A8
:0B0ADA000920903A18E0A3E0F582121A
:0C0AE5000920903A18E0FAA3E08A82127F
:0C0AF10009207582001209207582002285
:0E0AFD00AA82903A1BE0FB6012C002120AA50A
:0D0B0B00E582D0026007903A0EE0F58222EC
:0A0B18008A82120920903A1AE09038
:0C0B22003A1A04F0903A1AE0FA701C90A5
:0E0B2E003A18E0FAA3E0FB903A1874012AF09E
:0D0B3C00E43BA3F01209A6903A1B7401F0EF
:040B4900758200228F
:0E0B4D00AA82AB83903A1BE0FC6016C002C087
:0D0B5B0003120AA5E582D003D002600790C6
:060B68003A0EE0F58222C6
:090B6E00903A1AE0FC700C8514A9
:0A0B7700168A828B8312095C8067E6
:0B0B8100ECF4FC0CE5146006C3EC95DE
:030B8C0014504FB3
:0C0B8F008C168A828B83C002C003C00455
:0C0B9B0012095CD004D003D002E514C3A2
:0C0BA7009CF514903A18E0FDA3E0FE90CD
:0E0BB3003A1874012DF0E43EA3F0903A1AE4D3
:0E0BC100F0EC2AFAE43BFBC002C003120AA5C6
:0E0BCF00E582D003D0026007903A0EE0F58276
:010BDD0022F5
:080BDE008514168A828B831234
:020BE600095CA8
:0A0BE800903A1AE0FAE5142AF090A2
:0E0BF2003A1AE0FA701C903A18E0FAA3E0FB01
:0E0C0000903A1874012AF0E43BA3F01209A602
:060C0E00903A1B7401F096
:040C140075820022C3
:0E0C1800AA82AB8320A50A903A0E7404F075F0
:030C260082042223
:0E0C290053B4EF43B4E0C002C0031209AEE5BD
:0E0C370082D003D0026007903A0EE0F58222D0
:0E0C4500903A1CEAF0A3EBF0903A08E0FCA312
:0E0C5300E07D00EC24F8FCED34FFFD8CF00594
:030C6100F080061A
:060C6400EA2AFAEB33FB63
:0E0C6A00D5F0F7903A18EAF0A3EBF0903A1AA2
:0D0C7800E4F0903A137406F0C002C00312BD
:090C8500099B7582061209201278
:070C8E0009A6903A12E09064
:070C95003A13F012099B90D5
:0E0C9C003A12E0F582120920D0038B82C003C9
:0E0CAA00120920D003D0028A8212092075821E
:080CB800001209201209A690A8
:090CC0003A1B7401F07582002258
:070CC9001209A6758200224A
:030CD0000209A670
:0E0CD3001209A6903A1CE0FAA3E0FB8A828B7D
:050CE10083A3020C18C2
:0E0CE60090E671E4F0903A077401F0903A0E37
:0D0CF400E4F0903A087410F0A37480F090C2
:0E0D01003A1274D8F053B4EF43B4E0D2A575A3
:0C0D0F008200120896903A137490F012C3
:0C0D1B00099B7582901209207582181245
:080D270008961208A2E5829073
:070D2F003A10F01209A69032
:0C0D36003A13749FF012099B75829F1203
:060D420009207516039064
:060D48003A141208E1124A
:0A0D4E0009A6903A16E0FABA100068
:0E0D5800403DEA24E74038903A14E0903A0F0C
:0E0D6600F0903A15E0903A11F0EA24F0FA8A83
:090D7400F005F07A017B00800615
:060D7D00EA2AFAEB33FB49
:0E0D8300D5F0F7903A0AEAF0A3EBF0EB3395C7
:060D9100E0A3F0A3F02234
:0E0D9700903A07E4F0903A0E7407F053B41F40
:010DA500222B
:0A0DA600903A30E0F51690E7401295
:0B0DB00008E1903A1EE0FABA020E9033
:0D0DBB003A2EE0FAA3E0FB4A70030209A6FD
:010DC8002208
:0A0DC900903A30E0F51490E7401274
:0B0DD3000B4D903A1FE0FABA020E90A0
:0D0DDE003A2EE0FAA3E0FB4A70030209A6DA
:010DEB0022E5
:0E0DEC0075B68075B10090000112026575B6F3
:070DFA0000903A27E4F0220B
:0E0E0100E5B120E00C75B68075B100900001DF
:030E0F0012026567
:090E120075B600903A27E4F022C5
:0E0E1B0090E6017480F00000000090E671E4A3
:0E0E2900F090E672F0903A28E5B4F0903A2787
:0E0E3700747BF053B46F43B440D2A675B6BCC2
:0E0E450075B10890000212026575B188C2A650
:040E53007A007B00A6
:0E0E5700E5B120E1208A048B057E007F00C3F8
:0E0E6500EC94FFED94FFEE9400EF6480948017
:090E730050070ABA00DE0B80DB17
:090E7C00E5B130E1047AC88002FE
:020E85007A648D
:0E0E8700903A25EAF0903A21E4F0A3F0A3F0AF
:080E9500A3F0903A20E4F022E2
:030E9D000202BC92
:090EA000E5B130E1047A1680028C
:020EA9007A0BC2
:0A0EAB00903A25E0FBEA2BF07A00F4
:030EB500BA400040
:090EB8005007D2A6C2A60A80F47C
:0E0EC10043B104D2A6C2A6D2A6C2A6D2A6C231
:0E0ECF00A6D2A6C2A675B600903A28E0F5B4E9
:080EDD00E5B130E003020E9DB7
:010EE50022EA
:0C0EE60085B31575B3FF903A30E0FB9027
:0E0EF2003A21E0FCA3E0FDA3E0FEA3E0FF78C0
:0E0F00000079007A00903A21EB2CF0E83DA336
:0E0F0E00F0E93EA3F0EA3FA3F090E68BE0602E
:0E0F1C0022FA759B40759AE775AF07903A2050
:050F2A00E0F990E67BF8
:0E0F2F00E0F590D2A629F9C2A6DAF5903A2094
:020F3D00E9F0D9
:0B0F3F008515B390E68BE0FABA400085
:050F4A005003020EA09F
:010F4F00227F
:0E0F500090E60174C2F090E6F3E4F090E6C380
:0E0F5E00F090E6C1F090E6C27404F090E6C098
:0C0F6C00744EF090E6F4E4F0759B317ACE
:0A0F7800317B3A8B9A759E60759DDF
:0E0F8200E4C0027A201202ADD00290E6C6E46E
:0D0F9000F090E6C77410F090E6C8E4F09011
:0E0F9D00E6C9F090E6CAF090E6CBF090E6CC04
:0E0FAB00E4F090E6CDF090E60B7401F000004B
:0D0FB900000090E6047480F000000000903D
:0E0FC600E6047406F00000000090E604E4F07B
:0E0FD4000000000090E61AE4F000000000901B
:0E0FE200E61A7410F00000000090E6E27401C0
:0E0FF000F00000000090E6CE7401F00000005A
:0E0FFE000090E6CFE4F00000000090E6D0E4A2
:0E100C00F00000000090E6D1E4F000000000CB
:0E101A0090E6E474FFF00000000053B4BF75D0
:03102800B1902262
:01006C00286B
:01006D000191
:04006E005A54455843
:040072000A10000070
:010076000089
:010077000187
:060078006700000000001B
:0C007E0000000000000000000000000076
:0A008A00303030303030303030308C
:01102B0022A2
:0E102C0090E683E4F07420F07410F07430F05D
:0E103A0090E6837401F07421F07411F07431AB
:0E104800F090E6837412F07432F07406F074C7
:0310560026F0225F
:0A105900AA82E51724E05003751782
:011063001F6D
:0D10640090E6BFE0701090E6BEE0FBC39583
:0910710017500690E6BEE0F517E9
:0C107A0075AF078A9B85169A759E41751C
:0A1086009DE790E67C7403F07A0009
:0C109000C3EA9517501190E67BE0FB903E
:0B109C00E67CF090E67CE4F00A80E9BE
:0B10A700E5170425E0FA90E740F09008
:0E10B200E7417403F090E68AE4F090E68BEAE2
:0210C000F0221C
:0E10C200903A2EE0FAA3E0FBC374409AE49B40
:0810D00050067C407D00800405
:0410D8008A048B05F6
:0E10DC00903A30ECF07D00903A2EEAC39CF082
:0510EA00EB9DA3F022C4
:0B10EF00903A71E0FABA310302119B45
:0610FA00BA320302119E50
:06110000BA34030211AA3B
:06110600BA35030211BD21
:05110C00BA3902802544
:05111100BA3C0280441D
:05111600BA420280480E
:05111B00BA800280080B
:05112000BA8102800EFF
:031125000211DCD8
:0B11280090E6BAE0FA74035AF580224A
:031133000202BCF9
:0E113600903A04E4F0903A02F0A3F090E6BB89
:0E114400E0FB7A0090E6BAE0FC7D00903A00F5
:08115200EC4AF0ED4BA3F02282
:09115A0090E6BAE0903A05F0229B
:0D11630090E6BDE0FA903A1FF0EA6001222C
:0E11700090E6BBE0FB7A0090E6BAE07D004A14
:0E117E00F582ED4BF583120C18E5827001220C
:0E118C0090E6A0E04401F0903A2EE4F0A3F0CB
:01119A002232
:03119B00020DEC56
:09119E00903A27E0FABA7B012225
:0311A700020E1B1A
:0E11AA00120E1B90E6A5E054FEF090E6F574E0
:0511B800FFF0020F50E2
:0E11BD0075B18843B44090E6F574FFF0000071
:0E11CB00000090E601E0FA54F0F00000000091
:0311D900020EA063
:0811DC0090E6A0E04401F022BE
:0C11E400C020C0E0C0F0C082C083C00288
:0E11F000C003C004C005C006C007C000C00197
:0E11FE00C0D075D00090E6B9E0FA903A71F0DA
:0E120C0090E6B57401F090E6B9E0FA24F350D4
:04121A000302159A1C
:07121E00EA2A2A9012257351
:0712250002124C021300024B
:06122C00159A02137D0279
:06123200159A02159A0254
:061238001415021530023E
:06123E0015320215430207
:06124400154802155902D5
:02124A00155E2F
:0A124C0090E6B8E0FABA8002800DC7
:05125600BA8102801EB8
:05125B00BA8202802FA1
:0312600002159ADA
:0E12630090E740E4F090E741F090E68AF090CA
:08127100E68B7402F002159AED
:0E12790090E740E4F090E741F090E68AF090B4
:08128700E68B7402F002159AD7
:0C128F0090E6BCE0FA600FBA0102801982
:05129B00BA800280058D
:0512A000BA812F801E41
:0E12A50090E6A0E0FA53020190E740EAF080E4
:0112B3003A00
:0E12B40090E6A1E0FA53020190E740EAF080D4
:0112C2002B00
:0E12C30090E6A2E0FA53020190E740EAF080C4
:0112D1001C00
:0E12D20090E6BCE0C31314540324A3F582E499
:0E12E00034E6F583E0FA53020190E740EAF0AD
:0E12EE0090E741E4F090E68AF090E68B7402FF
:0412FC00F002159A4D
:0A13000090E6B8E0FABA020280039A
:03130A0002159A2F
:09130D0090E6BAE0600302159AB3
:0C13160090E6BCE0FA600FBA01028015FE
:05132200BA8002800505
:05132700BA81238016CD
:0B132C0090E6A0E0FA54FEF002159AD3
:0B13370090E6A1E0FA54FEF002159AC7
:0B13420090E6A2E0FA54FEF002159ABB
:0E134D0090E6BCE0C31314540324A3FAE43466
:0E135B00E6FB90E6BCE0C31314540324A3F594
:0E13690082E434E6F583E0FC5304FE8A828BB6
:0613770083ECF002159A60
:0A137D0090E6B8E0FABA020280031D
:0313870002159AB2
:09138A0090E6BAE0600302159A36
:0C13930090E6BCE0FA600FBA0102801482
:05139F00BA8002800588
:0513A400BA8120801455
:0A13A90090E6A0E0FA4401F0804154
:0A13B30090E6A1E0FA4401F0803753
:0A13BD0090E6A2E0FA4401F0802D52
:0E13C70090E6BCE0C31314540324A3FAE434EC
:0E13D500E6FB90E6BCE0C31314540324A3F51A
:0E13E30082E434E6F583E0FC4304FE8A828B4C
:0313F10083ECF09A
:0E13F40090E6BCE05480C423541FFA90E6BC7F
:0E140200E0FB740F5B420290E683EAF0742078
:051410004AF002159AEC
:0A14150090E6BBE0FABA010280196C
:05141F00BA0202802664
:05142400BA0302804D37
:06142900BA06030214E9FB
:06142F00BA07030214FBE2
:0314350002152677
:0A1438007AF47B1D90E6B3EBF09010
:08144200E6B474F4F002159AFF
:0B144A0090E680E0FA30E7127A107B99
:0A1455001E90E6B3EBF090E6B474CD
:05145F0010F002159AD7
:0A1464007A407B1E90E6B3EBF09097
:08146E00E6B47440F002159A87
:0A14760090E6BAE0FABA0102800F16
:05148000BA0202801C0D
:05148500BA03028029FA
:05148A00BA044A80369F
:06148F007582D27AD27BC7
:041495001D8B167520
:06149900170512105902B4
:02149F00159A9C
:0614A1007582D77AD77BAB
:0414A7001D8B16750E
:0614AB0017151210590292
:0214B100159A8A
:0A14B30075828A7A8A7B008B167519
:0614BD00170A121059028B
:0214C300159A78
:0614C5007582EC7AEC7B5D
:0414CB001D8B1675EA
:0614CF001708121059027B
:0214D500159A66
:0A14D7007A707B1E90E6B3EBF090F4
:0814E100E6B47470F002159AE4
:0A14E9007A067B1E90E6B3EBF0904C
:0814F300E6B47406F002159A3C
:0B14FB0090E680E0FA30E7127A407BB8
:0A1506001E90E6B3EBF090E6B4741B
:0515100040F002159AF5
:0A1515007A107B1E90E6B3EBF09015
:07151F00E6B47410F08074C3
:0A15260090E6A0E0FA4401F0806AAC
:021530008068D1
:0E15320090E740E4F090E68AF090E68B7401BA
:03154000F08057E1
:0515430012102C805283
:0E15480090E740E4F090E68AF090E68B7401A4
:03155600F08041E1
:0515590012102C803C83
:0E155E0090E6B8E0FABA823490E6BCE0C3131F
:0B156C0014540325E02473F582E434DE
:0C1577003AF583E4F0A3F090E685E090E4
:0D158300E740F090E684E0FA90E741F09038
:0A159000E68AE4F090E68B7402F0A6
:0B159A0090E6B8E0FABA40030217D850
:0515A500BAC002800342
:0315AA0002180222
:0E15AD0090E6BFE0FB7A0090E6BEE0FC7D0019
:0E15BB00903A2EEC4AF0ED4BA3F01210C290C5
:0915C900E6B9E0FABA220280370B
:0615D200BA30030217719C
:0615D800BA33030217B74D
:0515DE00BA3802804351
:0515E300BA3A02806726
:0615E800BA3B0302168E5F
:0615EE00BA3D030216A73E
:0615F400BA40030216C814
:0615FA00BA41030216FED7
:06160000BA430302174B80
:031606000217CEFA
:0E16090090E6B5E4F090E68AF090E68B742847
:0D161700F090E6B3E4F090E6B4746CF002DD
:021624001802AA
:0E16260090E6BBE0FB7A0090E6BAE0FC7D00A7
:0E163400903A00EC4AF0ED4BA3F090E68AE409
:0D164200F012062CE58290E68BF0021802F3
:0E164F00903A02E0FAA3E0FB8A0490E740EC38
:0D165D00F08B0290E741EAF0903A04E09033
:0A166A00E742F075080075090175EC
:0D16740082A21203FFAA8290E743EAF090E1
:0D168100E68AE4F090E68B7404F002180293
:0E168E0090E6BAE0903A05F090E68AE4F01299
:0B169C000872E58290E68BF002180255
:0A16A7007508007509017582A6128E
:0E16B10003FFAA8290E740EAF090E68AE4F098
:0916BF0090E68B7401F0021802A0
:0E16C800903A0EE0FA700920A506903A0E74D2
:0216D60004F01E
:0616D800759B077A077BF9
:0C16DE003A8B9A759E40759DE7C0027A19
:0E16EA00081202ADD00290E68AE4F090E68B82
:0616F8007408F002180264
:0D16FE0090E6BDE0FA903A1EF0EA702D90E3
:0E170B00E6BBE0FB7A0090E6BAE07D004AF50E
:0D17190082ED4BF583120A1CE582601290F0
:0E172600E6A0E0FA4401F0903A2EE4F0A3F0C1
:0317340002180296
:0E173700120DA690E68AE4F0903A30E0FA90A7
:06174500E68BF002180221
:06174B00759B0E7A0E7B77
:0C1751003A8B9A759E40759DE7C0027AA5
:0E175D000A1202ADD00290E68AE4F090E68B0C
:06176B00740AF0021802EE
:06177100759B207A207B2D
:0C1777003A8B9A759E417A417BE78B9D6E
:0E178300C0027A071202ADD002E5B130E007D5
:0717910090E740E4F0800C3A
:0C17980090E7407401F075B600120DECF3
:0E17A40090E7487401F090E68AE4F090E68B3E
:0517B2007409F0804BFA
:0E17B70090E7407406F090E741E4F090E68A77
:0917C500F090E68B7402F0803410
:0A17CE0090E6A0E0FA4401F0802A42
:0C17D80090E6BFE0700690E6BEE06016F0
:0E17E400903A727401F090E68BE4F05391EFAE
:0817F20090E65D7401F080191E
:0817FA001210EF90E68BE4F001
:0E1802005391EF90E65D7401F090E6A0E0FADD
:031810004480F021
:0E181300D0D0D001D000D007D006D005D00430
:0D182100D003D002D083D082D0F0D0E0D030
:02182E00203266
:0E183000C0E0C082C0835391EF90E65D740269
:08183E00F0D083D082D0E0322B
:0E184600C0E0C082C0835391EF90E65D740451
:08185400F0D083D082D0E03215
:0E185C00C0E0C082C0835391EF90E65D740837
:08186A00F0D083D082D0E032FF
:0E187200C0E0C082C0835391EF90E65D741019
:08188000F0D083D082D0E032E9
:0E188800C0E0C082C0835391EF90E65D7420F3
:08189600F0D083D082D0E032D3
:0E189E00C0E0C082C0835391EF90E65D7440BD
:0818AC00F0D083D082D0E032BD
:0C18B400C020C0E0C0F0C082C083C002B1
:0E18C000C003C004C005C006C007C000C001C0
:0E18CE00C0D075D000C2E81210C2903A71E08E
:0718DC00FABA3003021954AF
:0618E300BA3303021954A0
:0518E900BA3802801E68
:0518EE00BA3A0280611E
:0518F300BA3B02802455
:0518F800BA3D0280571B
:0518FD00BA4002805218
:05190200BA410280253E
:05190700BA43418048D5
:0E190C0090E68AE4F012062CE58290E68BF05D
:02191A00803813
:0E191C0090E68AE4F0120872E58290E68BF005
:02192A00802813
:0D192C00903A30E0FA6008903A0EE4F012B4
:021939000DA6F9
:0E193B0090E68AE4F0903A30E0FA90E68BF005
:02194900800913
:09194B0090E68AE4F090E68BF0CE
:0E1954005391EF90E65F7401F0D2E8D0D0D04E
:0E19620001D000D007D006D005D004D003D0AD
:0C19700002D083D082D0F0D0E0D0203232
:0C197C00C020C0E0C0F0C082C083C002E8
:0E198800C003C004C005C006C007C000C001F7
:0E199600C0D075D000C2E8903A72E0FA60202E
:0D19A400903A72E4F090E6BFE0FB7A00900C
:0E19B100E6BEE0FC7D00903A2EEC4AF0ED4BD5
:0519BF00A3F01210EF7F
:0C19C4001210C2903A71E0FABA3103022E
:0219D0001A57A4
:0619D200BA3203021A54B0
:0619D800BA3403021A57A5
:0619DE00BA3503021A579E
:0619E400BA3903021A0BE0
:0619EA00BA3C03021A16CC
:0619F000BA4203021A2AAC
:0519F600BA8002800927
:0619FB00BA8103021A0884
:031A0100021A576F
:041A040000021A576B
:031A080000804C0F
:0B1A0B0090E68BE0F58212066080413F
:0B1A1600903A05E0F51290E68BE0F539
:091A21001390E74012077A802DB2
:0D1A2A00903A30E0FA6026903A0EE4F01297
:0A1A37000DC9903A0EE0FA60171294
:0E1A410009A690E6A0E0FA4401F0903A2EE4E7
:051A4F00F0A3F080038C
:031A5400120EE689
:0E1A570090E68BE4F05391EF90E65F7402F09E
:0E1A6500903A2EE0FAA3E0FB4A700890E6A04B
:051A7300E0FA4480F0E0
:0E1A7800D2E8D0D0D001D000D007D006D005E3
:0E1A8600D004D003D002D083D082D0F0D0E0C4
:031A9400D020322D
:0E1A9700C0E0C082C0835391EF90E65F7404FC
:081AA500F0D083D082D0E032C2
:0E1AAD00C0E0C082C0835391EF90E65F7408E2
:081ABB00F0D083D082D0E032AC
:0E1AC300C0E0C082C0835391EF90E65F7410C4
:081AD100F0D083D082D0E03296
:0E1AD900C0E0C082C0835391EF90E65F74209E
:081AE700F0D083D082D0E03280
:0E1AEF00C0E0C082C0835391EF90E65F744068
:081AFD00F0D083D082D0E0326A
:0E1B0500C0E0C082C0835391EF90E65F748011
:081B1300F0D083D082D0E03253
:071B1B007510007511039025
:061B22003A2912068D9025
:0E1B28003A29E0FABA4324903A2AE0FABA4485
:0E1B36001C903A2BE0FABA3014903A06740173
:0A1B4400F075101075110A90008A68
:051B4E0012068D800568
:051B5300903A06E4F0E9
:021B58007A0011
:031B5A00BA0A00C4
:0E1B5D005012EA248AF582E43400F583E0FB9E
:061B6B00BB30540A80E9C2
:071B71007510FB75110590D2
:091B78003A2912068D7A007B0067
:031B8100BB0500A1
:0A1B8400503CEB2429F582E4343ACA
:0E1B8E00F583E0FCEA248AFDE43400FEECC49A
:0E1B9C00540F901E7493FF8D828E83F00AEA20
:0E1BAA00248AFDE43400FE740F5C901E7493D8
:0A1BB800FC8D828E83F00A0B80BFC3
:011BC2002200
:0E1BC30090E680E04408F090E6007412F09086
:0E1BD1000002120265538EF8120E01C2AFC25E
:0E1BDF00E89000437402F09000447401F0900E
:0D1BED00004574B8F090E668E04408F09000
:0A1BFA0001007402F07AE47B118B05
:0E1C040004900101ECF0900102EAF09001045E
:0A1C12007402F07A307B188B049006
:0E1C1C000105ECF0900106EAF0900108740258
:0A1C2A00F07A467B188B0490010944
:0E1C3400ECF090010AEAF090010C7402F07AD4
:0A1C42005C7B188B0490010DECF0A0
:0C1C4C0090010EEAF09001107402F07A92
:0A1C5800727B188B04900111ECF070
:0C1C6200900112EAF09001147402F07A74
:0A1C6E00887B188B04900115ECF040
:0C1C7800900116EAF09001187402F07A56
:0A1C84009E7B188B04900119ECF010
:0C1C8E0090011AEAF09001207402F07A34
:0A1C9A00B47B188B04900121ECF0DC
:0C1CA400900122EAF09001247402F07A12
:0A1CB0007C7B198B04900125ECF0F9
:0C1CBA00900126EAF09001287402F07AF4
:0A1CC600977B1A8B04900129ECF0C3
:0C1CD00090012AEAF090012C7402F07AD6
:0A1CDC00AD7B1A8B0490012DECF093
:0C1CE60090012EEAF09001307402F07AB8
:0A1CF200C37B1A8B04900131ECF063
:0C1CFC00900132EAF09001347402F07A9A
:0A1D0800D97B1A8B04900135ECF032
:0C1D1200900136EAF09001387402F07A7B
:0A1D1E00EF7B1A8B04900139ECF002
:0C1D280090013AEAF090013C7402F07A5D
:0A1D3400057B1B8B0490013DECF0D1
:0E1D3E0090013EEAF05391EF90E65D747FF065
:0E1D4C0090E65CE0FA447FF090E65F74FFF0F2
:0E1D5A0090E65E74FFF0D2E8D2AF90E611740E
:0E1D6800A0F00000000090E61074A0F0000053
:0D1D7600000090E61274E0F0000000009004
:0E1D8300E613E4F00000000090E61474A0F0F7
:0E1D91000000000090E615E4F00000000012D3
:0D1D9F000CE6903A07E0FA70099000FA1285
:051DAC000265120CE6C7
:0E1DB100121B1B90E680E04482F090000A12A4
:0A1DBF00026590E680E054F7F02280
:031DC900121BC327
:021DCC0080FE97
:051DD2005A54455800C1
:0E1DD7006D656D6669666F20666F72205546F9
:071DE5004D20322E313600C3
:081DEC0064656661756C74000A
:0E1DF40012010002FFFFFF401A220001000052
:041E020001020301D5
:0A1E06000A060002FFFFFF40010082
:0E1E100009022E00010104C032090400000482
:0E1E1E00FFFFFF00070581020002000705011B
:0E1E2C00020002000705820200020007050600
:041E3A0002000200A0
:021E3E000000A2
:0E1E400009022E00010104C032090400000452
:0E1E4E00FFFFFF0007058102400000070501AD
:0E1E5C00024000000705820240000007050654
:041E6A000240000032
:021E6E00000072
:041E70000403000067
:0E1E7400303132333435363738394142434449
:031E8200454600D2
:021E850000005B
:011E8700005A
:0E1E88000188010101010107020702020202A6
:0E1E96000200200000000000002000360000C6
:041EA4000000003FFB
:0E1EA80002019001010101070202070202027D
:0E1EB6000200200000000000002000003600A6
:041EC4000000003FDB
:011EC800FF1A
:011EC9000018
:081ECA00000000000000000010
:06023700E478FFF6D8FD9B
:08021500794DE94400601B7AF9
:05021D0001901E857830
:030222002E7592A4
:0A0225003AE493F2A308B8000205C2
:08022F0092D9F4DAF27592FF96
:08023D007800E84400600A7932
:03024500007592AF
:060248003AE4F309D8FCC2
:08024E00782EE84400600C79F1
:0B02560001903A00E4F0A3D8FCD9FAB4
:03020800758120DD
:0A020B00121DCEE58260030202031B
:041DCE0075820022F8
:00000001FF
