:03020000020208EF
:0302610002020393
:0502030012120180FE53
:03000000020200F9
:0100030032CA
:01000B0032C2
:0100130032BA
:01001B0032B2
:0100230032AA
:01002B0032A2
:01003300329A
:01003B003292
:01004300328A
:01004B003282
:01005300327A
:01005B003272
:01006300326A
:0101000032CC
:0101040032C8
:0101080032C4
:01010C0032C0
:0101100032BC
:0101140032B8
:0101180032B4
:0101200032AC
:0101240032A8
:0101280032A4
:01012C0032A0
:01013000329C
:010134003298
:010138003294
:01013C003290
:01014000328C
:010148003284
:01014C003280
:01015000327C
:010154003278
:010158003274
:01015C003270
:01016000326C
:01017000325C
:010174003258
:010178003254
:01017C003250
:01018000324C
:010184003248
:010188003244
:01018C003240
:01019000323C
:010194003238
:010198003234
:01019C003230
:0101A000322C
:0101A8003224
:0101AC003220
:0101B000321C
:0101B4003218
:0101B8003214
:010264002277
:08026500AA82AB837C007D003E
:0B026D00C3EC9AED9B50147EB07F04A0
:050278001EBEFF011F86
:0B027D00EE4F70F70CBC00E80D80E5B0
:010288002253
:08028900AA82AB837C007D001A
:0B029100C3EC9AED9B50147E0A7F0026
:05029C001EBEFF011F62
:0B02A100EE4F70F70CBC00E80D80E58C
:0102AC00222F
:0E02AD0075AF0790E67BE090E67CF0DAF32276
:0102BB002220
:0202BC007A00C6
:0302BE00BAFF0084
:0D02C100500B90E678E0FB20E0030A80F08F
:0C02CE0090E678E0FA20E204EA20E10B60
:0B02DA0090E678E04440F075820122BD
:0402E50075820022FC
:0202E9007A0099
:0302EB00BAFF0057
:0D02EE00500B90E678E0FB20E0030A80F062
:0E02FB0090E678E0FA30E20B90E678E04440BE
:05030900F075820122E5
:04030E0075820022D2
:020312007A006F
:03031400BAFF002D
:0E031700500F90E678E0FB20E2047582002291
:030325000A80EC5F
:0403280075820122B7
:02032C007A0055
:03032E00BAFF0013
:0E033100500F90E678E0FB20E6047582002273
:03033F000A80EC45
:04034200758201229D
:09034600AA82C3E49508E433FB2C
:0E034F0090E678E04480F0C002C00312031272
:0E035D00D003D00290E679EAF0C002C003128D
:0C036B0002BCE582D003D0027012E5094C
:0C037700600A90E678E04440F012032C8D
:04038300758200225D
:0E038700EB601090000AC002C003120289D081
:0503950003D00280B559
:0C039A00E509600890E678E0FA4440F0C5
:0403A6007582012239
:0C03AA00AA82AB837C00E50C7003F58296
:0103B6002224
:0A03B7007508647509007582A2C084
:0E03C10002C003C004120346E582D004D0033C
:0703CF00D00260030204B03C
:0C03D60090E679E50BF0C002C003C00403
:0E03E2001202BCE582D004D003D002600302F8
:0203F00004B057
:0C03F20090E679E50AF0C002C003C004E8
:0E03FE001202BCE582D004D003D002600302DC
:02040C0004B03A
:0E040E0090E678E04440F0C002C003C0041243
:0D041C00032C90E678E04480F0120312906B
:0E042900E67974A3F01202BCE582D004D00381
:0E043700D002707590E679E08A828B83F0C067
:0E04450002C003C0041202E9E582D004D00315
:05045300D0027059FD0C
:0C045800C3ED950C502A90E679E08A82F2
:0E0464008B83F0A3AA82AB83C002C003C00446
:0E047200C0051202E9E582D005D004D003D007
:0804800002702D0D8D0480D0E7
:0E04880090E678E04420F090E679E0C004129F
:0E04960002E9E582D004701290E678E044405E
:0C04A400F090E679E0C00412032CD004B4
:0304B0008C822219
:0C04B300AA82AB837C00E50F7003F58289
:0104BF00221A
:0A04C0007508647509007582A2C07A
:0E04CA0002C003C004120346E582D004D00332
:0704D800D002600302057071
:0C04DF0090E679E50EF0C002C003C004F6
:0E04EB001202BCE582D004D003D002600302EE
:0204F90005708C
:0C04FB0090E679E50DF0C002C003C004DB
:0E0507001202BCE582D004D003D002705CFD6D
:0C051500C3ED950F50478A828B83E0FEF7
:0E052100A3AA82AB8390E679EEF0903A04E054
:0D052F00FFEE2FF0903A02E0FEA3E0FF90F7
:0E053C003A0274012EF0E43FA3F0C002C003A7
:0E054A00C004C0051202BCE582D005D004D06A
:0A05580003D00270130D8D0480B370
:0E05620090E678E04440F0C00412032CD00470
:030570008C822258
:0A057300903A0EE0FA903A00E0F52D
:06057D000AA3E0F50B8A61
:0C0583000C90E740C0021203AAAB82D02B
:0E058F00027C00903A00E0FDA3E0FE903A00EE
:0A059D00EA2DF0EC3EA3F08B822261
:0B05A700AA82903A00E0F50DA3E0F5F9
:0905B2000E8A0F90E740C002120E
:0E05BB0004B3D0027B00903A00E0FCA3E0FD08
:0B05C900903A00EA2CF0EB3DA3F0227A
:0D05D400AA8290E6017480F0000000009003
:0E05E100E670E4F090E671F075B2FA74804AAC
:0E05EF00F58090000AC002120265D00253B4DB
:0A05FD00F774024AF5807A007B00D3
:0E0607002080208A048B057E007F00C3EC94C7
:0E061500FFED94FFEE9400EF64809480500798
:070623000ABA00E00B80DDC4
:07062A003080047AC8800251
:020631007A64E9
:0E063300903A0AEAF0903A06E4F0A3F0A3F041
:08064100A3F0903A05E4F02259
:060649007582200205D4B9
:06064F007582600205D473
:0306550002064951
:0E065800D28043B209903A0FE0FA6002D283DA
:0E06660090E6A3E0FA54FEF090E60B7403F069
:0E0674000000000090E60174A3F000000000FA
:0E06820090E6187409F00000000090E6207465
:0E06900002F00000000090E621E4F0000000FF
:0E069E000090E6047480F00000000090E60476
:0E06AC007402F00000000090E604E4F000008C
:0E06BA00000090E609E4F00000000090E60267
:0E06C800E4F00000000090E603E4F000000003
:0406D60000C28022BC
:0706DA003080047A14800255
:0206E1007A0A93
:0A06E300903A0AE0FBEA2BF07A00DF
:0306ED00BA400010
:0906F0005007D283C2830A80F492
:0E06F900D287D283C283D283C283D283C283CC
:0E070700D283C28353B2053080047A0280028E
:020715007A0167
:0E071700903A0AE0FBEA2BF0308105D2811205
:02072500065874
:06072700D28143B2022260
:0C072D0085B51075B5FF903A0EE0FB900A
:0E0739003A06E0FCA3E0FDA3E0FEA3E0FF789B
:0E0747000079007A00903A06EB2CF0E83DA312
:0E075500F0E93EA3F0EA3FA3F090E68BE060EF
:0E07630022FA759B40759AE775AF07903A052C
:05077100E0F990E67BB9
:0E077600E0F5B0D28329F9C283DAF5903A0596
:02078400E9F09A
:0B0786008510B590E68BE0FABA400049
:0507910050030206DA2E
:010796002240
:01006C00286B
:01006D000191
:04006E005A54455843
:040072000A0C000074
:010076000089
:010077000187
:060078000300000000007F
:0C007E0000000000000000000000000076
:0A008A00303030303030303030308C
:01079700223F
:0E07980090E683E4F07420F07410F07430F0FA
:0E07A60090E6837401F07421F07411F0743148
:0B07B400F090E6837412F07432F02223
:0A07BF00AA82E51224E0500375122F
:0107C9001F10
:0D07CA0090E6BFE0701090E6BEE0FBC39526
:0907D70012500690E6BEE0F51296
:0C07E00075AF078A9B85119A759E4175C4
:0A07EC009DE790E67C7403F07A00AC
:0C07F600C3EA9512501190E67BE0FB90E6
:0B080200E67CF090E67CE4F00A80E960
:0B080D00E5120425E0FA90E740F090AF
:0E081800E7417403F090E68AE4F090E68BEA84
:02082600F022BE
:0E082800903A0CE0FAA3E0FBC374409AE49B04
:0808360050067C407D008004A7
:04083E008A048B0598
:0E084200903A0EECF07D00903A0CEAC39CF068
:05085000EB9DA3F02266
:0A085500903A10E0FABA310280393F
:04085F00BA32012286
:05086300BA3902800C0F
:0C086800BA603090E6BAE0903A0FF0223F
:0E087400903A04E4F0903A02F0A3F090E6BB54
:0E088200E0FB7A0090E6BAE0FC7D00903A00C0
:08089000EC4AF0ED4BA3F0224D
:0308980002065500
:08089B0090E6A0E04401F02208
:0C08A300C020C0E0C0F0C082C083C002D2
:0E08AF00C003C004C005C006C007C000C001E1
:0E08BD00C0D075D00090E6B9E0FA903A10F085
:0E08CB0090E6B57401F090E6B9E0FA24F3501F
:0408D90003020C59B1
:0708DD00EA2A2A9008E473E7
:0708E40002090B0209BF022B
:0608EB000C59020A3C0258
:0608F1000C59020C590233
:0608F7000AD4020BEF021F
:0608FD000BF1020C0202E7
:060903000C07020C1802B3
:020909000C1DC3
:0A090B0090E6B8E0FABA8002800D11
:05091500BA8102801E02
:05091A00BA8202802FEB
:03091F00020C596E
:0E09220090E740E4F090E741F090E68AF09014
:08093000E68B7402F0020C5981
:0E09380090E740E4F090E741F090E68AF090FE
:08094600E68B7402F0020C596B
:0C094E0090E6BCE0FA600FBA01028019CC
:05095A00BA80028005D7
:05095F00BA812F801E8B
:0E09640090E6A0E0FA53020190E740EAF0802E
:010972003A4A
:0E09730090E6A1E0FA53020190E740EAF0801E
:010981002B4A
:0E09820090E6A2E0FA53020190E740EAF0800E
:010990001C4A
:0E09910090E6BCE0C31314540324A3F582E4E3
:0E099F0034E6F583E0FA53020190E740EAF0F7
:0E09AD0090E741E4F090E68AF090E68B740249
:0409BB00F0020C59E1
:0A09BF0090E6B8E0FABA02028003E5
:0309C900020C59C4
:0909CC0090E6BAE06003020C5948
:0C09D50090E6BCE0FA600FBA0102801549
:0509E100BA8002800550
:0509E600BA8123801618
:0B09EB0090E6A0E0FA54FEF0020C5968
:0B09F60090E6A1E0FA54FEF0020C595C
:0B0A010090E6A2E0FA54FEF0020C594F
:0E0A0C0090E6BCE0C31314540324A3FAE434B0
:0E0A1A00E6FB90E6BCE0C31314540324A3F5DE
:0E0A280082E434E6F583E0FC5304FE8A828B00
:060A360083ECF0020C59F4
:0A0A3C0090E6B8E0FABA0202800367
:030A4600020C5946
:090A490090E6BAE06003020C59CA
:0C0A520090E6BCE0FA600FBA01028014CC
:050A5E00BA80028005D2
:050A6300BA812080149F
:0A0A680090E6A0E0FA4401F080419E
:0A0A720090E6A1E0FA4401F080379D
:0A0A7C0090E6A2E0FA4401F0802D9C
:0E0A860090E6BCE0C31314540324A3FAE43436
:0E0A9400E6FB90E6BCE0C31314540324A3F564
:0E0AA20082E434E6F583E0FC4304FE8A828B96
:030AB00083ECF0E4
:0E0AB30090E6BCE05480C423541FFA90E6BCC9
:0E0AC100E0FB740F5B420290E683EAF07420C3
:050ACF004AF0020C5981
:0A0AD40090E6BBE0FABA01028019B7
:050ADE00BA02028026AF
:050AE300BA0302804D82
:060AE800BA0603020BA890
:060AEE00BA0703020BBA77
:030AF400020BE50D
:0A0AF7007A347B1290E6B3EBF09026
:080B0100E6B47434F0020C5953
:0B0B090090E680E0FA30E7127A507BA3
:0A0B14001290E6B3EBF090E6B47423
:050B1E0050F0020C592B
:0A0B23007A787B1290E6B3EBF090B5
:080B2D00E6B47478F0020C59E3
:0A0B350090E6BAE0FABA0102800F60
:050B3F00BA0202801C57
:050B4400BA0302802944
:050B4900BA044A8036E9
:060B4E0075820A7A0A7BA1
:040B5400128B11757A
:060B580012051207BF02A6
:020B5E000C5930
:060B600075820F7A0F7B85
:040B6600128B117568
:060B6A00121D1207BF027C
:020B70000C591E
:0A0B720075828A7A8A7B008B117568
:060B7C00120A1207BF027D
:020B82000C590C
:060B840075822C7A2C7B27
:040B8A00128B117544
:060B8E0012081207BF026D
:020B94000C59FA
:0A0B96007AA07B1290E6B3EBF0901A
:080BA000E6B474A0F0020C5948
:0A0BA8007A467B1290E6B3EBF09062
:080BB200E6B47446F0020C5990
:0B0BBA0090E680E0FA30E7127A787BCA
:0A0BC5001290E6B3EBF090E6B47472
:050BCF0078F0020C5952
:0A0BD4007A507B1290E6B3EBF0902C
:070BDE00E6B47450F08074CE
:0A0BE50090E6A0E0FA4401F0806AF7
:020BEF0080681C
:0E0BF10090E740E4F090E68AF090E68B740105
:030BFF00F080572C
:050C020012079880526A
:0E0C070090E740E4F090E68AF090E68B7401EE
:030C1500F080412B
:050C1800120798803C6A
:0E0C1D0090E6B8E0FABA823490E6BCE0C31369
:0B0C2B0014540325E02412F582E43489
:0C0C36003AF583E4F0A3F090E685E0902E
:0D0C4200E740F090E684E0FA90E741F09082
:0A0C4F00E68AE4F090E68B7402F0F0
:0B0C590090E6B8E0FABA4003020D7C00
:050C6400BAC00280038C
:030C6900020DA6D3
:0E0C6C0090E6BFE0FB7A0090E6BEE0FC7D0063
:0E0C7A00903A0CEC4AF0ED4BA3F012082890D3
:090C8800E6B9E0FABA2202801379
:060C9100BA3003020D2938
:050C9700BA38028025BF
:050C9C00BA3A02804994
:030CA100020D72CF
:0E0CA40090E6B5E4F090E68AF090E68B7428B6
:0D0CB200F090E6B3E4F090E6B4746CF0024C
:020CBF000DA680
:0E0CC10090E6BBE0FB7A0090E6BAE0FC7D0016
:0E0CCF00903A00EC4AF0ED4BA3F090E68AE478
:0D0CDD00F0120573E58290E68BF0020DA683
:0E0CEA00903A02E0FAA3E0FB8A0490E740ECA7
:0D0CF800F08B0290E741EAF0903A04E090A2
:0A0D0500E742F0750800750901755A
:0D0D0F0082A2120346AA8290E743EAF09008
:0D0D1C00E68AE4F090E68B7404F0020DA668
:060D2900759B057A057BB5
:0C0D2F003A8B9A759E417A417BE78B9DC0
:0E0D3B00C0027A071202ADD00253B2FD308121
:0D0D49000C90E740E4F0D28143B202800933
:090D560090E7407401F012064917
:0E0D5F0090E7487401F090E68AE4F090E68B8D
:050D6D007409F0803460
:0A0D720090E6A0E0FA4401F0802AA8
:0C0D7C0090E6BFE0700690E6BEE0601656
:0E0D8800903A117401F090E68BE4F05391EF75
:080D960090E65D7401F0801984
:080D9E0012085590E68BE4F009
:0E0DA6005391EF90E65D7401F090E6A0E0FA44
:030DB4004480F088
:0E0DB700D0D0D001D000D007D006D005D00497
:0D0DC500D003D002D083D082D0F0D0E0D097
:020DD2002032CD
:0E0DD400C0E0C082C0835391EF90E65D7402D0
:080DE200F0D083D082D0E03292
:0E0DEA00C0E0C082C0835391EF90E65D7404B8
:080DF800F0D083D082D0E0327C
:0E0E0000C0E0C082C0835391EF90E65D74089D
:080E0E00F0D083D082D0E03265
:0E0E1600C0E0C082C0835391EF90E65D74107F
:080E2400F0D083D082D0E0324F
:0E0E2C00C0E0C082C0835391EF90E65D742059
:080E3A00F0D083D082D0E03239
:0E0E4200C0E0C082C0835391EF90E65D744023
:080E5000F0D083D082D0E03223
:0C0E5800C020C0E0C0F0C082C083C00217
:0E0E6400C003C004C005C006C007C000C00126
:0E0E7200C0D075D000C2E8120828903A10E0F7
:060E8000FABA30028023E3
:050E8600BA38028005EE
:050E8B00BA3A128019C3
:0E0E900090E68AE4F0120573E58290E68BF09E
:020E9E008009C9
:090EA00090E68AE4F090E68BF084
:0E0EA9005391EF90E65F7401F0D2E8D0D0D004
:0E0EB70001D000D007D006D005D004D003D063
:0C0EC50002D083D082D0F0D0E0D02032E8
:0C0ED100C020C0E0C0F0C082C083C0029E
:0E0EDD00C003C004C005C006C007C000C001AD
:0E0EEB00C0D075D000C2E8903A11E0FA602045
:0D0EF900903A11E4F090E6BFE0FB7A009023
:0E0F0600E6BEE0FC7D00903A0CEC4AF0ED4BAC
:050F1400A3F0120855D6
:0C0F1900120828903A10E0FABA310302E6
:020F25000F4C6F
:060F2700BA3203020F497B
:060F2D00BA3903020F3E79
:050F3300BA600280031A
:030F3800020F4C59
:030F3B0000800E25
:0B0F3E0090E68BE0F5821205A780030F
:030F490012072D5F
:0E0F4C0090E68BE4F05391EF90E65F7402F0B4
:0E0F5A00903A0CE0FAA3E0FB4A700890E6A083
:050F6800E0FA4480F0F6
:0E0F6D00D2E8D0D0D001D000D007D006D005F9
:0E0F7B00D004D003D002D083D082D0F0D0E0DA
:030F8900D0203243
:0E0F8C00C0E0C082C0835391EF90E65F740412
:080F9A00F0D083D082D0E032D8
:0E0FA200C0E0C082C0835391EF90E65F7408F8
:080FB000F0D083D082D0E032C2
:0E0FB800C0E0C082C0835391EF90E65F7410DA
:080FC600F0D083D082D0E032AC
:0E0FCE00C0E0C082C0835391EF90E65F7420B4
:080FDC00F0D083D082D0E03296
:0E0FE400C0E0C082C0835391EF90E65F74407E
:080FF200F0D083D082D0E03280
:0E0FFA00C0E0C082C0835391EF90E65F748028
:08100800F0D083D082D0E03269
:0E10100090E680E04408F090E6007412F09044
:0E101E000002120265538EF8D28143B202C264
:0E102C00AFC2E89000437402F09000447401DB
:0E103A00F090004574B8F090E668E04408F0CD
:0A1048009001007402F07AA37B0807
:0D1052008B04900101ECF0900102EAF09097
:0A105F0001047402F07AD47B0D8BBB
:0E10690004900105ECF0900106EAF0900108F9
:0A1077007402F07AEA7B0D8B0490FE
:0E1081000109ECF090010AEAF090010C7402F3
:0A108F00F07A007B0E8B0490010D37
:0E109900ECF090010EEAF09001107402F07A73
:0A10A700167B0E8B04900111ECF093
:0C10B100900112EAF09001147402F07A31
:0A10BD002C7B0E8B04900115ECF063
:0C10C700900116EAF09001187402F07A13
:0A10D300427B0E8B04900119ECF033
:0C10DD0090011AEAF09001207402F07AF1
:0A10E900587B0E8B04900121ECF0FF
:0C10F300900122EAF09001247402F07ACF
:0A10FF00D17B0E8B04900125ECF06C
:0C110900900126EAF09001287402F07AB0
:0A1115008C7B0F8B04900129ECF095
:0C111F0090012AEAF090012C7402F07A92
:0A112B00A27B0F8B0490012DECF065
:0C11350090012EEAF09001307402F07A74
:0A114100B87B0F8B04900131ECF035
:0C114B00900132EAF09001347402F07A56
:0A115700CE7B0F8B04900135ECF005
:0C116100900136EAF09001387402F07A38
:0A116D00E47B0F8B04900139ECF0D5
:0C11770090013AEAF090013C7402F07A1A
:0A118300FA7B0F8B0490013DECF0A5
:0E118D0090013EEAF05391EF90E65D747FF022
:0E119B0090E65CE0FA447FF090E65F74FFF0AF
:0E11A90090E65E74FFF0D2E8D2AF90E61174CB
:0E11B700A0F00000000090E61074A0F0000010
:0D11C500000090E61274E0F00000000090C1
:0E11D200E613E4F00000000090E614E4F000E4
:0D11E00000000090E615E4F0000000009013
:0D11ED00E680E04482F090000A1202659056
:0711FA00E680E054F7F0224B
:03120100121010B8
:0212040080FE6A
:05120A005A5445580094
:0E120F006D656D74657374206578616D706C2B
:0E121D006520666F722055464D20312E31310E
:01122B0000C2
:08122C0064656661756C7400D5
:0E12340012010002FFFFFF401A22000100001D
:0412420001020301A1
:0A1246000A060002FFFFFF4001004E
:0E12500009022700010104C032090400000356
:0E125E00FFFFFF0007058102000200070501E7
:0B126C000200020007058202000200E1
:011277000076
:0E12780009022700010104C03209040000032E
:0E128600FFFFFF000705810240000007050181
:0B12940002400000070582024000003D
:01129F00004E
:0412A0000403000043
:0212A400000048
:0112A6000047
:0112A7000046
:0112A800FF46
:0112A9000044
:0812AA0000000000000000003C
:06023700E478FFF6D8FD9B
:08021500790EE94400601B7A38
:05021D00019012A4781D
:030222000C7592C6
:0A0225003AE493F2A308B8000205C2
:08022F0092D9F4DAF27592FF96
:08023D007800E84400600A7932
:03024500007592AF
:060248003AE4F309D8FCC2
:08024E00780CE84400600C7913
:0B02560001903A00E4F0A3D8FCD9FAB4
:03020800758120DD
:0A020B00121206E5826003020203EE
:0412060075820022CB
:00000001FF
