:03020000020208EF
:0302610002020393
:050203001217B080FE9F
:03000000020200F9
:0100030032CA
:01000B0032C2
:0100130032BA
:01001B0032B2
:0100230032AA
:01002B0032A2
:01003300329A
:01003B003292
:01004300328A
:01004B003282
:01005300327A
:01005B003272
:01006300326A
:0101000032CC
:0101040032C8
:0101080032C4
:01010C0032C0
:0101100032BC
:0101140032B8
:0101180032B4
:0101200032AC
:0101240032A8
:0101280032A4
:01012C0032A0
:01013000329C
:010134003298
:010138003294
:01013C003290
:01014000328C
:010148003284
:01014C003280
:01015000327C
:010154003278
:010158003274
:01015C003270
:01016000326C
:01017000325C
:010174003258
:010178003254
:01017C003250
:01018000324C
:010184003248
:010188003244
:01018C003240
:01019000323C
:010194003238
:010198003234
:01019C003230
:0101A000322C
:0101A8003224
:0101AC003220
:0101B000321C
:0101B4003218
:0101B8003214
:010264002277
:08026500AA82AB837C007D003E
:0B026D00C3EC9AED9B50147EB07F04A0
:050278001EBEFF011F86
:0B027D00EE4F70F70CBC00E80D80E5B0
:010288002253
:08028900AA82AB837C007D001A
:0B029100C3EC9AED9B50147E0A7F0026
:05029C001EBEFF011F62
:0B02A100EE4F70F70CBC00E80D80E58C
:0102AC00222F
:0E02AD0075AF0790E67BE090E67CF0DAF32276
:0102BB002220
:0202BC007A00C6
:0302BE00BAFF0084
:0D02C100500B90E678E0FB20E0030A80F08F
:0C02CE0090E678E0FA20E204EA20E10B60
:0B02DA0090E678E04440F075820122BD
:0402E50075820022FC
:0202E9007A0099
:0302EB00BAFF0057
:0D02EE00500B90E678E0FB20E0030A80F062
:0E02FB0090E678E0FA30E20B90E678E04440BE
:05030900F075820122E5
:04030E0075820022D2
:020312007A006F
:03031400BAFF002D
:0E031700500F90E678E0FB20E2047582002291
:030325000A80EC5F
:0403280075820122B7
:02032C007A0055
:03032E00BAFF0013
:0E033100500F90E678E0FB20E6047582002273
:03033F000A80EC45
:04034200758201229D
:09034600AA82C3E49508E433FB2C
:0E034F0090E678E04480F0C002C00312031272
:0E035D00D003D00290E679EAF0C002C003128D
:0C036B0002BCE582D003D0027012E5094C
:0C037700600A90E678E04440F012032C8D
:04038300758200225D
:0E038700EB601090000AC002C003120289D081
:0503950003D00280B559
:0C039A00E509600890E678E0FA4440F0C5
:0403A6007582012239
:0C03AA00AA82AB837C00E50C7003F58296
:0103B6002224
:0A03B7007508647509007582A2C084
:0E03C10002C003C004120346E582D004D0033C
:0703CF00D00260030204B03C
:0C03D60090E679E50BF0C002C003C00403
:0E03E2001202BCE582D004D003D002600302F8
:0203F00004B057
:0C03F20090E679E50AF0C002C003C004E8
:0E03FE001202BCE582D004D003D002600302DC
:02040C0004B03A
:0E040E0090E678E04440F0C002C003C0041243
:0D041C00032C90E678E04480F0120312906B
:0E042900E67974A3F01202BCE582D004D00381
:0E043700D002707590E679E08A828B83F0C067
:0E04450002C003C0041202E9E582D004D00315
:05045300D0027059FD0C
:0C045800C3ED950C502A90E679E08A82F2
:0E0464008B83F0A3AA82AB83C002C003C00446
:0E047200C0051202E9E582D005D004D003D007
:0804800002702D0D8D0480D0E7
:0E04880090E678E04420F090E679E0C004129F
:0E04960002E9E582D004701290E678E044405E
:0C04A400F090E679E0C00412032CD004B4
:0304B0008C822219
:0C04B300AA82AB837C00E50F7003F58289
:0104BF00221A
:0A04C0007508647509007582A2C07A
:0E04CA0002C003C004120346E582D004D00332
:0704D800D002600302057071
:0C04DF0090E679E50EF0C002C003C004F6
:0E04EB001202BCE582D004D003D002600302EE
:0204F90005708C
:0C04FB0090E679E50DF0C002C003C004DB
:0E0507001202BCE582D004D003D002705CFD6D
:0C051500C3ED950F50478A828B83E0FEF7
:0E052100A3AA82AB8390E679EEF0903A05E053
:0D052F00FFEE2FF0903A03E0FEA3E0FF90F6
:0E053C003A0374012EF0E43FA3F0C002C003A6
:0E054A00C004C0051202BCE582D005D004D06A
:0A05580003D00270130D8D0480B370
:0E05620090E678E04440F0C00412032CD00470
:030570008C822258
:0A057300903A1AE0FA903A01E0F520
:06057D000AA3E0F50B8A61
:0C0583000C90E740C0021203AAAB82D02B
:0E058F00027C00903A01E0FDA3E0FE903A01EC
:0A059D00EA2DF0EC3EA3F08B822261
:0B05A700AA82903A01E0F50DA3E0F5F8
:0905B2000E8A0F90E740C002120E
:0E05BB0004B3D0027B00903A01E0FCA3E0FD07
:0B05C900903A01EA2CF0EB3DA3F02279
:0C05D400AA82AB837C00E5117003F58265
:0105E00022F8
:0A05E1007508647509007582A6C054
:0E05EB0002C003C004120346E582D004D00310
:0705F900D00260030206BE00
:0C06000090E679E510F0C002C003C004D1
:0E060C001202BCE582D004D003D002600302CB
:02061A0006BE1A
:0E061C0090E678E04440F0C002C003C0041233
:0D062A00032C90E678E04480F0120312905B
:0E063700E67974A7F01202BCE582D004D0036D
:0E064500D002707590E679E08A828B83F0C057
:0E06530002C003C0041202E9E582D004D00305
:05066100D0027059FDFC
:0C066600C3ED9511502A90E679E08A82DD
:0E0672008B83F0A3AA82AB83C002C003C00436
:0E068000C0051202E9E582D005D004D003D0F7
:08068E0002702D0D8D0480D0D7
:0E06960090E678E04420F090E679E0C004128F
:0E06A40002E9E582D004701290E678E044404E
:0C06B200F090E679E0C00412032CD004A4
:0306BE008C822209
:0C06C100AA82AB837C00E5137003F58275
:0106CD00220A
:0A06CE007508647509007582A6C066
:0E06D80002C003C004120346E582D004D00322
:0706E600D00260030207B01F
:0C06ED0090E679E512F0C002C003C004E2
:0E06F9001202BCE582D004D003D002600302DE
:0207070007B039
:04070900AD127E00AF
:09070D00C3EE951340030207A29C
:0E0716008A828B83E0FFA3AA82AB8390E679F0
:0D072400EFF0C002C003C004C005C0061203
:0E07310002BCE582D006D005D004D003D00271
:0C073F00706F0D8D120E8E04ED20E3C2D1
:0C074B00C3EE951350BC90E678E04440EB
:0E075700F0C002C003C004C005C00612032C8F
:0A0765007508647509007582A6127C
:0E076F000346E582D006D005D004D003D002A8
:0E077D00703190E679EDF0C002C003C004C0F8
:0E078B0005C0061202BCE582D006D005D004DF
:09079900D003D002701102070D1B
:0E07A20090E678E04440F0C00412032CD0042E
:0907B000903A06E512F08C822259
:0A07B900903A1AE0FA903A06E0F5D3
:0907C300108A1190E740C00212F7
:0E07CC0005D4AB82D002903A06E0FCEA2CF095
:0307DA008B8222ED
:0D07DD00AA8290E6017480F00000000090F8
:0E07EA00E670E4F090E671F053B4F975B2B623
:0E07F80074904AF58043B40853A0F790000AAD
:0E080600C002120265D00274024AF5807A0028
:020814007B0067
:0E08160020A2208A048B057E007F00C3EC9494
:0E082400FFED94FFEE9400EF64809480500787
:070832000ABA00E00B80DDB3
:0708390030A2047AC880021E
:020840007A64D8
:0E084200903A0DEAF0903A09E4F0A3F0A3F02A
:08085000A3F0903A08E4F02245
:060858007582040207DDB9
:06085E007582340207DD83
:030864000208582F
:01086700226E
:0708680030A2047A168002A1
:02086F007A0B02
:0A087100903A0DE0FBEA2BF07A004C
:03087B00BA400080
:09087E005007D284C2840A80F400
:0E088700D287D284C284D284C284D284C28436
:0E089500D284C28475B20053B4F7308105D20C
:0408A300811208674F
:0608A700D28143B20222DF
:0C08AD0085B31475B3FF903A1AE0FB907D
:0E08B9003A09E0FCA3E0FDA3E0FEA3E0FF7817
:0E08C7000079007A00903A09EB2CF0E83DA38E
:0E08D500F0E93EA3F0EA3FA3F090E68BE0606E
:0E08E30022FA759B40759AE775AF07903A08A8
:0508F100E0F990E67B38
:0E08F600E0F590D28429F9C284DAF5903A0830
:02090400E9F018
:0B0906008514B390E68BE0FABA4000C5
:0509110050030208681C
:0109160022BE
:0E091700C0E0C082C083C002C003C004C0059F
:0E092500C006C007C000C001C0D075D000855C
:0C093300B315C2E890E690E0FC7B009059
:0E093F00E691E07E004203EE4204903A09E0A9
:0E094D00FDA3E0FEA3E0FFA3E0F8EC3395E08D
:0E095B00F9FA903A09EB2DF0EC3EA3F0E93FDB
:0E096900A3F0EA38A3F075B3FF90E691E0FA30
:0E0977005407FB90E690E0340013F9EA13FAFF
:0E098500E913F9EA13FAE913F9EA13FA759B7C
:0D09930000759AF075AF0790E67BEB600CE5
:0C09A000E0F590D284C284DBF7EA603AF4
:0E09AC00E0F590D284C284E0F590D284C2843B
:0E09BA00E0F590D284C284E0F590D284C2842D
:0E09C800E0F590D284C284E0F590D284C2841F
:0E09D600E0F590D284C284E0F590D284C28411
:0209E400DAC671
:0C09E6008515B390E6497482F000000013
:0E09F200005391EF90E65F7410F0D2E8D0D081
:0E0A0000D001D000D007D006D005D004D0031E
:090A0E00D002D083D082D0E03286
:0E0A170090E60174C2F090E6F3E4F090E6C3BE
:0E0A2500F090E6C1F090E6C27404F090E6C0D6
:0C0A3300744EF090E6F4E4F0759B1B7A22
:0A0A3F001B7B3A8B9A759E60759D33
:0E0A4900E4C0027A201202ADD00290E6C6E4AC
:0D0A5700F090E6C77410F090E6C8E4F0904F
:0E0A6400E6C9F090E6CAF090E6CBF090E6CC42
:0E0A7200E4F090E6CDF090E60B7401F0000089
:0D0A8000000090E6047480F000000000907B
:0E0A8D00E6047402F00000000090E604E4F0BD
:0E0A9B000000000090E618E4F000000000905B
:0E0AA900E6187410F00000000090E6D2740110
:0E0AB700F00000000090E6CE7401F000000098
:0E0AC5000090E6CFE4F00000000090E6D0E4E0
:0E0AD300F00000000090E6D1E4F0000000000A
:0E0AE10090E6D474FFF00000000053B2EF4323
:050AEF00B201C28022EB
:0E0AF40090E6017480F090E60B7403F00000B1
:0D0B0200000090E6047480F00000000090F8
:0E0B0F00E6047402F00000000090E604E4F03A
:0E0B1D000000000090E618E4F00000000090D8
:0E0B2B00E6497482F00000000090E6497482F2
:0E0B3900F00000000090E6497482F000000019
:0E0B47000090E6497482F00000000090013238
:0D0B5500E0903A11F0A3E4F0900131E0903F
:090B62003A0FF0A3E4F07A177BCE
:0C0B6B00098B04900131ECF0900132EA9B
:0B0B7700F05391EF90E65F7410F02245
:01006C00286B
:01006D000191
:04006E005A54455843
:040072000A0D000073
:010076000089
:010077000187
:060078006300000000001F
:0C007E0000000000000000000000000076
:0A008A00303030303030303030308C
:010B82002250
:0E0B830090E683E4F07420F07410F07430F00B
:0E0B910090E6837401F07421F07411F0743159
:0B0B9F00F090E6837402F07422F02254
:0A0BAA00AA82E51724E05003751736
:010BB4001F21
:0D0BB50090E6BFE0701090E6BEE0FBC39537
:090BC20017500690E6BEE0F5179D
:0C0BCB0075AF078A9B85169A759E4175D0
:0A0BD7009DE790E67C7403F07A00BD
:0C0BE100C3EA9517501190E67BE0FB90F2
:0B0BED00E67CF090E67CE4F00A80E972
:0B0BF800E5170425E0FA90E740F090BC
:0E0C0300E7417403F090E68AE4F090E68BEA95
:020C1100F022CF
:0E0C1300903A18E0FAA3E0FBC374409AE49B09
:080C210050067C407D008004B8
:040C29008A048B05A9
:0E0C2D00903A1AECF07D00903A18EAC39CF061
:050C3B00EB9DA3F02277
:0A0C4000903A5BE0FABA31028048F6
:040C4A00BA32012297
:050C4E00BA34028042EF
:050C5300BA3502805AD1
:050C5800BA390280081A
:050C5D00BA3C028027F3
:030C6200020CF58C
:0E0C6500903A05E4F0903A03F0A3F090E6BB5D
:0E0C7300E0FB7A0090E6BAE0FC7D00903A01CA
:080C8100EC4AF0ED4BA3F02258
:090C890090E6BAE0903A06F02270
:030C9200020864F1
:0E0C950012086490E6A3E054FEF090E6F574B9
:0C0CA300FFF0903A00E0FA6003020AF44F
:030CAF00020A171F
:0E0CB200903A00E0FA601C903A11E0FAA3E0DC
:0E0CC000900132EAF0903A0FE0FAA3E0FB90C8
:070CCE000131EAF0020CF213
:0E0CD500D280D28443B21090E6F574FFF00096
:0E0CE30000000090E601E0FA54F0F00000007E
:010CF1000002
:030CF2000208688D
:080CF50090E6A0E04401F022AA
:0C0CFD00C020C0E0C0F0C082C083C00274
:0E0D0900C003C004C005C006C007C000C00182
:0E0D1700C0D075D00090E6B9E0FA903A5BF0DB
:0E0D250090E6B57401F090E6B9E0FA24F350C0
:040D3300030210B3F4
:070D3700EA2A2A900D3E7329
:070D3E00020D65020E19020F
:060D450010B3020E96023D
:060D4B0010B30210B30218
:060D51000F2E0210490202
:060D5700104B02105C02CB
:060D5D0010610210720299
:020D6300107707
:0A0D650090E6B8E0FABA8002800DB3
:050D6F00BA8102801EA4
:050D7400BA8202802F8D
:030D79000210B3B2
:0E0D7C0090E740E4F090E741F090E68AF090B6
:080D8A00E68B7402F00210B3C5
:0E0D920090E740E4F090E741F090E68AF090A0
:080DA000E68B7402F00210B3AF
:0C0DA80090E6BCE0FA600FBA010280196E
:050DB400BA8002800579
:050DB900BA812F801E2D
:0E0DBE0090E6A0E0FA53020190E740EAF080D0
:010DCC003AEC
:0E0DCD0090E6A1E0FA53020190E740EAF080C0
:010DDB002BEC
:0E0DDC0090E6A2E0FA53020190E740EAF080B0
:010DEA001CEC
:0E0DEB0090E6BCE0C31314540324A3F582E485
:0E0DF90034E6F583E0FA53020190E740EAF099
:0E0E070090E741E4F090E68AF090E68B7402EA
:040E1500F00210B324
:0A0E190090E6B8E0FABA0202800386
:030E23000210B307
:090E260090E6BAE060030210B38B
:0C0E2F0090E6BCE0FA600FBA01028015EA
:050E3B00BA80028005F1
:050E4000BA81238016B9
:0B0E450090E6A0E0FA54FEF00210B3AB
:0B0E500090E6A1E0FA54FEF00210B39F
:0B0E5B0090E6A2E0FA54FEF00210B393
:0E0E660090E6BCE0C31314540324A3FAE43452
:0E0E7400E6FB90E6BCE0C31314540324A3F580
:0E0E820082E434E6F583E0FC5304FE8A828BA2
:060E900083ECF00210B338
:0A0E960090E6B8E0FABA0202800309
:030EA0000210B38A
:090EA30090E6BAE060030210B30E
:0C0EAC0090E6BCE0FA600FBA010280146E
:050EB800BA8002800574
:050EBD00BA8120801441
:0A0EC20090E6A0E0FA4401F0804140
:0A0ECC0090E6A1E0FA4401F080373F
:0A0ED60090E6A2E0FA4401F0802D3E
:0E0EE00090E6BCE0C31314540324A3FAE434D8
:0E0EEE00E6FB90E6BCE0C31314540324A3F506
:0E0EFC0082E434E6F583E0FC4304FE8A828B38
:030F0A0083ECF085
:0E0F0D0090E6BCE05480C423541FFA90E6BC6A
:0E0F1B00E0FB740F5B420290E683EAF0742064
:050F29004AF00210B3C4
:0A0F2E0090E6BBE0FABA0102801958
:050F3800BA0202802650
:050F3D00BA0302804D23
:060F4200BA0603021002D2
:060F4800BA0703021014B9
:030F4E0002103F4F
:0A0F51007AE67B1790E6B3EBF09010
:080F5B00E6B474E6F00210B3E5
:0B0F630090E680E0FA30E7127A027B93
:0A0F6E001890E6B3EBF090E6B474BF
:050F780002F00210B3BD
:0A0F7D007A2A7B1890E6B3EBF0909F
:080F8700E6B4742AF00210B375
:0A0F8F0090E6BAE0FABA0102800F02
:050F9900BA0202801CF9
:050F9E00BA03028029E6
:050FA300BA044A80368B
:060FA8007582B97AB97BE5
:040FAE00178B167512
:060FB2001705120BAA0254
:020FB80010B374
:060FBA007582BE7ABE7BC9
:040FC000178B167500
:060FC4001720120BAA0227
:020FCA0010B362
:0A0FCC0075828A7A8A7B008B167505
:060FD600170A120BAA022B
:020FDC0010B350
:060FDE007582DE7ADE7B65
:040FE400178B1675DC
:060FE8001708120BAA021B
:020FEE0010B33E
:0A0FF0007A527B1890E6B3EBF09004
:080FFA00E6B47452F00210B3DA
:0A1002007AF87B1790E6B3EBF0904C
:08100C00E6B474F8F00210B321
:0B10140090E680E0FA30E7127A2A7BB9
:0A101F001890E6B3EBF090E6B4740D
:051029002AF00210B3E3
:0A102E007A027B1890E6B3EBF09015
:07103800E6B47402F08074BD
:0A103F0090E6A0E0FA4401F0806A98
:021049008068BD
:0E104B0090E740E4F090E68AF090E68B7401A6
:03105900F08057CD
:05105C00120B8380521D
:0E10610090E740E4F090E68AF090E68B740190
:03106F00F08041CD
:05107200120B83803C1D
:0E10770090E6B8E0FABA823490E6BCE0C3130B
:0B10850014540325E0245DF582E434E0
:0C1090003AF583E4F0A3F090E685E090D0
:0D109C00E740F090E684E0FA90E741F09024
:0A10A900E68AE4F090E68B7402F092
:0B10B30090E6B8E0FABA4003021239E0
:0510BE00BAC00280032E
:0310C300021263B3
:0E10C60090E6BFE0FB7A0090E6BEE0FC7D0005
:0E10D400903A18EC4AF0ED4BA3F0120C13907A
:0910E200E6B9E0FABA2202802509
:0610EB00BA30030211CF30
:0610F100BA3303021218DD
:0510F700BA380280314F
:0510FC00BA3A02805524
:06110100BA3B0302119548
:06110700BA3D030211AE27
:03110D0002122F9C
:0E11100090E6B5E4F090E68AF090E68B742845
:0D111E00F090E6B3E4F090E6B4746CF002DB
:02112B0012634D
:0E112D0090E6BBE0FB7A0090E6BAE0FC7D00A5
:0E113B00903A01EC4AF0ED4BA3F090E68AE406
:0D114900F0120573E58290E68BF002126350
:0E115600903A03E0FAA3E0FB8A0490E740EC35
:0D116400F08B0290E741EAF0903A05E09030
:0A117100E742F075080075090175EA
:0D117B0082A2120346AA8290E743EAF09098
:0D118800E68AE4F090E68B7404F002126336
:0E11950090E6BAE0903A06F090E68AE4F01296
:0B11A30007B9E58290E68BF0021263B2
:0A11AE007508007509017582A6128C
:0E11B8000346AA8290E740EAF090E68AE4F04F
:0911C60090E68B7401F002126343
:0611CF00759B087A087B05
:0C11D5003A8B9A759E417A417BE78B9D16
:0E11E100C0027A071202ADD00253B2FD308177
:0D11EF000C90E740E4F0D28143B202800989
:0911FC0090E7407401F01208585C
:0E12050090E7487401F090E68AE4F090E68BE2
:051213007409F0804B9E
:0E12180090E7407402F090E741E4F090E68A1F
:09122600F090E68B7402F08034B4
:0A122F0090E6A0E0FA4401F0802AE6
:0C12390090E6BFE0700690E6BEE0601694
:0E124500903A5C7401F090E68BE4F05391EF68
:0812530090E65D7401F08019C2
:08125B00120C4090E68BE4F058
:0E1263005391EF90E65D7401F090E6A0E0FA82
:031271004480F0C6
:0E127400D0D0D001D000D007D006D005D004D5
:0D128200D003D002D083D082D0F0D0E0D0D5
:02128F0020320B
:0E129100C0E0C082C0835391EF90E65D74020E
:08129F00F0D083D082D0E032D0
:0E12A700C0E0C082C0835391EF90E65D7404F6
:0812B500F0D083D082D0E032BA
:0E12BD00C0E0C082C0835391EF90E65D7408DC
:0812CB00F0D083D082D0E032A4
:0E12D300C0E0C082C0835391EF90E65D7410BE
:0812E100F0D083D082D0E0328E
:0E12E900C0E0C082C0835391EF90E65D742098
:0812F700F0D083D082D0E03278
:0E12FF00C0E0C082C0835391EF90E65D744062
:08130D00F0D083D082D0E03261
:0C131500C020C0E0C0F0C082C083C00255
:0E132100C003C004C005C006C007C000C00164
:0E132F00C0D075D000C2E8120C13903A5BE0FB
:06133D00FABA3002804202
:05134300BA3302803DF9
:05134800BA3802800F1D
:05134D00BA3A028033F2
:05135200BA3B0280150A
:05135700BA3D228029CF
:0E135C0090E68AE4F0120573E58290E68BF0CD
:02136A008019E8
:0E136C0090E68AE4F01207B9E58290E68BF075
:02137A008009E8
:09137C0090E68AE4F090E68BF0A3
:0E1385005391EF90E65F7401F0D2E8D0D0D023
:0E13930001D000D007D006D005D004D003D082
:0C13A10002D083D082D0F0D0E0D0203207
:0C13AD00C020C0E0C0F0C082C083C002BD
:0E13B900C003C004C005C006C007C000C001CC
:0E13C700C0D075D000C2E8903A5CE0FA602019
:0D13D500903A5CE4F090E6BFE0FB7A0090F7
:0E13E200E6BEE0FC7D00903A18EC4AF0ED4BC0
:0513F000A3F0120C4007
:0D13F500120C13903A5BE0FABA3102803B13
:05140200BA3202803344
:05140700BA340280313F
:05140C00BA3502802C3E
:05141100BA390280055C
:05141600BA3C24800B2C
:0B141B0090E68BE0F5821205A7801719
:0B142600903A06E0F51290E68BE0F52E
:091431001390E7401206C180038C
:03143A001208ADE8
:0E143D0090E68BE4F05391EF90E65F7402F0BE
:0E144B00903A18E0FAA3E0FB4A700890E6A081
:05145900E0FA4480F000
:0E145E00D2E8D0D0D001D000D007D006D00503
:0E146C00D004D003D002D083D082D0F0D0E0E4
:03147A00D020324D
:0E147D00C0E0C082C0835391EF90E65F74041C
:08148B00F0D083D082D0E032E2
:0E149300C0E0C082C0835391EF90E65F740802
:0814A100F0D083D082D0E032CC
:0E14A900C0E0C082C0835391EF90E65F7410E4
:0814B700F0D083D082D0E032B6
:0E14BF00C0E0C082C0835391EF90E65F7420BE
:0814CD00F0D083D082D0E032A0
:0E14D500C0E0C082C0835391EF90E65F744088
:0814E300F0D083D082D0E0328A
:0E14EB00C0E0C082C0835391EF90E65F748032
:0814F900F0D083D082D0E03274
:071501007510007511039045
:061508003A131205D49015
:0E150E003A13E0FABA4324903A14E0FABA44D1
:0E151C001C903A15E0FABA3014903A077401A8
:0A152A00F075101075110A90008A88
:051534001205D4800542
:05153900903A07E4F008
:02153E007A0031
:03154000BA0A00E4
:0E1543005012EA248AF582E43400F583E0FBBE
:06155100BB30540A80E9E2
:071557007510FB75110590F2
:09155E003A131205D47A007B0057
:03156700BB0500C1
:0A156A00503CEB2413F582E4343A00
:0E157400F583E0FCEA248AFDE43400FEECC4BA
:0E158200540F90185693FF8D828E83F00AEA64
:0E159000248AFDE43400FE740F5C901856931C
:0A159E00FC8D828E83F00A0B80BFE3
:0115A8002220
:0E15A90090E680E04408F090E6007412F090A6
:0E15B7000002120265538EF8D28143B202C2C6
:0E15C500AFC2E89000437402F090004474013D
:0E15D300F090004574B8F090E668E04408F02F
:0A15E1009001007402F07AFD7B0C0B
:0D15EB008B04900101ECF0900102EAF090F9
:0A15F80001047402F07A917B128B5B
:0E16020004900105ECF0900106EAF09001085A
:0A1610007402F07AA77B128B04909D
:0E161A000109ECF090010AEAF090010C740254
:0A162800F07ABD7B128B0490010DD7
:0E163200ECF090010EEAF09001107402F07AD4
:0A164000D37B128B04900111ECF033
:0C164A00900112EAF09001147402F07A92
:0A165600E97B128B04900115ECF003
:0C166000900116EAF09001187402F07A74
:0A166C00FF7B128B04900119ECF0D3
:0C16760090011AEAF09001207402F07A52
:0A168200157B138B04900121ECF09E
:0C168C00900122EAF09001247402F07A30
:0A169800AD7B138B04900125ECF0EC
:0C16A200900126EAF09001287402F07A12
:0A16AE007D7B148B04900129ECF001
:0C16B80090012AEAF090012C7402F07AF4
:0A16C400937B148B0490012DECF0D1
:0C16CE0090012EEAF09001307402F07AD6
:0A16DA00A97B148B04900131ECF0A1
:0C16E400900132EAF09001347402F07AB8
:0A16F000BF7B148B04900135ECF071
:0C16FA00900136EAF09001387402F07A9A
:0A170600D57B148B04900139ECF040
:0C17100090013AEAF090013C7402F07A7B
:0A171C00EB7B148B0490013DECF010
:0E17260090013EEAF05391EF90E65D747FF083
:0E17340090E65CE0FA447FF090E65F74FFF010
:0E17420090E65E74FFF0D2E8D2AF90E611742C
:0E175000A0F00000000090E61074A0F0000071
:0D175E00000090E61274A0F0000000009062
:0E176B00E613E4F00000000090E614E4F00045
:0E17790000000090E615E4F00000000053B2FE
:0B178700F7308307903A00E4F0800682
:06179200903A007401F022
:0E17980012150190E680E04482F090000A12E3
:0A17A600026590E680E054F7F0229F
:0317B0001215A966
:0217B30080FEB6
:0517B9005A54455800E0
:0E17BE005553422D46504741204D6F64756CC7
:0E17CC006520312E3135782028646566617500
:0417DA006C74290002
:0817DE0064656661756C74001E
:0E17E60012010002FFFFFF401A220001000066
:0417F40001020301EA
:0A17F8000A060002FFFFFF40010097
:0E18020009022700010104C03209040000039E
:0E181000FFFFFF00070581020002000705012F
:0B181E000200020007050202000200A9
:0118290000BE
:0E182A0009022700010104C032090400000376
:0E183800FFFFFF0007058102400000070501C9
:0B184600024000000705020240000005
:011851000096
:04185200040300008B
:0E18560030313233343536373839414243446D
:03186400454600F6
:0218670000007F
:01186900007E
:0E186A000188010101010107020702020202CA
:0E187800020004000000000000040036000022
:041886000000003F1F
:0E188A000201900101010107020207020202A1
:0E189800020004000000000000040000360002
:0418A6000000003FFF
:0118AA00FF3E
:0118AB00003C
:0818AC00000000000000000034
:06023700E478FFF6D8FD9B
:08021500794DE94400601B7AF9
:05021D00019018677854
:03022200187592BA
:0A0225003AE493F2A308B8000205C2
:08022F0092D9F4DAF27592FF96
:08023D007800E84400600A7932
:03024500007592AF
:060248003AE4F309D8FCC2
:08024E007818E84400600C7907
:0B02560001903A00E4F0A3D8FCD9FAB4
:03020800758120DD
:0A020B001217B5E58260030202033A
:0417B5007582002217
:00000001FF
