:03020000020208EF
:0302610002020393
:0502030012227080FED4
:03000000020200F9
:0100030032CA
:01000B0032C2
:0100130032BA
:01001B0032B2
:0100230032AA
:01002B0032A2
:01003300329A
:01003B003292
:01004300328A
:01004B003282
:01005300327A
:01005B003272
:01006300326A
:0101000032CC
:0101040032C8
:0101080032C4
:01010C0032C0
:0101100032BC
:0101140032B8
:0101180032B4
:0101200032AC
:0101240032A8
:0101280032A4
:01012C0032A0
:01013000329C
:010134003298
:010138003294
:01013C003290
:01014000328C
:010148003284
:01014C003280
:01015000327C
:010154003278
:010158003274
:01015C003270
:01016000326C
:01017000325C
:010174003258
:010178003254
:01017C003250
:01018000324C
:010184003248
:010188003244
:01018C003240
:01019000323C
:010194003238
:010198003234
:01019C003230
:0101A000322C
:0101A8003224
:0101AC003220
:0101B000321C
:0101B4003218
:0101B8003214
:010264002277
:08026500AA82AB837C007D003E
:0B026D00C3EC9AED9B50147EB07F04A0
:050278001EBEFF011F86
:0B027D00EE4F70F70CBC00E80D80E5B0
:010288002253
:08028900AA82AB837C007D001A
:0B029100C3EC9AED9B50147E0A7F0026
:05029C001EBEFF011F62
:0B02A100EE4F70F70CBC00E80D80E58C
:0102AC00222F
:0E02AD0075AF0790E67BE090E67CF0DAF32276
:0102BB002220
:0202BC007A00C6
:0302BE00BAFF0084
:0D02C100500B90E678E0FB20E0030A80F08F
:0C02CE0090E678E0FA20E204EA20E10B60
:0B02DA0090E678E04440F075820122BD
:0402E50075820022FC
:0202E9007A0099
:0302EB00BAFF0057
:0D02EE00500B90E678E0FB20E0030A80F062
:0E02FB0090E678E0FA30E20B90E678E04440BE
:05030900F075820122E5
:04030E0075820022D2
:020312007A006F
:03031400BAFF002D
:0E031700500F90E678E0FB20E2047582002291
:030325000A80EC5F
:0403280075820122B7
:02032C007A0055
:03032E00BAFF0013
:0E033100500F90E678E0FB20E6047582002273
:03033F000A80EC45
:04034200758201229D
:09034600AA82C3E49508E433FB2C
:0E034F0090E678E04480F0C002C00312031272
:0E035D00D003D00290E679EAF0C002C003128D
:0C036B0002BCE582D003D0027012E5094C
:0C037700600A90E678E04440F012032C8D
:04038300758200225D
:0E038700EB601090000AC002C003120289D081
:0503950003D00280B559
:0C039A00E509600890E678E0FA4440F0C5
:0403A6007582012239
:0C03AA00AA82AB837C00E50C7003F58296
:0103B6002224
:0A03B7007508647509007582A2C084
:0E03C10002C003C004120346E582D004D0033C
:0703CF00D00260030204B03C
:0C03D60090E679E50BF0C002C003C00403
:0E03E2001202BCE582D004D003D002600302F8
:0203F00004B057
:0C03F20090E679E50AF0C002C003C004E8
:0E03FE001202BCE582D004D003D002600302DC
:02040C0004B03A
:0E040E0090E678E04440F0C002C003C0041243
:0D041C00032C90E678E04480F0120312906B
:0E042900E67974A3F01202BCE582D004D00381
:0E043700D002707590E679E08A828B83F0C067
:0E04450002C003C0041202E9E582D004D00315
:05045300D0027059FD0C
:0C045800C3ED950C502A90E679E08A82F2
:0E0464008B83F0A3AA82AB83C002C003C00446
:0E047200C0051202E9E582D005D004D003D007
:0804800002702D0D8D0480D0E7
:0E04880090E678E04420F090E679E0C004129F
:0E04960002E9E582D004701290E678E044405E
:0C04A400F090E679E0C00412032CD004B4
:0304B0008C822219
:0C04B300AA82AB837C00E50F7003F58289
:0104BF00221A
:0A04C0007508647509007582A2C07A
:0E04CA0002C003C004120346E582D004D00332
:0704D800D002600302057071
:0C04DF0090E679E50EF0C002C003C004F6
:0E04EB001202BCE582D004D003D002600302EE
:0204F90005708C
:0C04FB0090E679E50DF0C002C003C004DB
:0E0507001202BCE582D004D003D002705CFD6D
:0C051500C3ED950F50478A828B83E0FEF7
:0E052100A3AA82AB8390E679EEF0903A04E054
:0D052F00FFEE2FF0903A02E0FEA3E0FF90F7
:0E053C003A0274012EF0E43FA3F0C002C003A7
:0E054A00C004C0051202BCE582D005D004D06A
:0A05580003D00270130D8D0480B370
:0E05620090E678E04440F0C00412032CD00470
:030570008C822258
:0A057300903A35E0FA903A00E0F506
:06057D000AA3E0F50B8A61
:0C0583000C90E740C0021203AAAB82D02B
:0E058F00027C00903A00E0FDA3E0FE903A00EE
:0A059D00EA2DF0EC3EA3F08B822261
:0B05A700AA82903A00E0F50DA3E0F5F9
:0905B2000E8A0F90E740C002120E
:0E05BB0004B3D0027B00903A00E0FCA3E0FD08
:0B05C900903A00EA2CF0EB3DA3F0227A
:0C05D400AA82AB837C00E5117003F58265
:0105E00022F8
:0A05E1007508647509007582A6C054
:0E05EB0002C003C004120346E582D004D00310
:0705F900D00260030206BE00
:0C06000090E679E510F0C002C003C004D1
:0E060C001202BCE582D004D003D002600302CB
:02061A0006BE1A
:0E061C0090E678E04440F0C002C003C0041233
:0D062A00032C90E678E04480F0120312905B
:0E063700E67974A7F01202BCE582D004D0036D
:0E064500D002707590E679E08A828B83F0C057
:0E06530002C003C0041202E9E582D004D00305
:05066100D0027059FDFC
:0C066600C3ED9511502A90E679E08A82DD
:0E0672008B83F0A3AA82AB83C002C003C00436
:0E068000C0051202E9E582D005D004D003D0F7
:08068E0002702D0D8D0480D0D7
:0E06960090E678E04420F090E679E0C004128F
:0E06A40002E9E582D004701290E678E044404E
:0C06B200F090E679E0C00412032CD004A4
:0306BE008C822209
:0C06C100AA82AB837C00E5137003F58275
:0106CD00220A
:0A06CE007508647509007582A6C066
:0E06D80002C003C004120346E582D004D00322
:0706E600D00260030207B01F
:0C06ED0090E679E512F0C002C003C004E2
:0E06F9001202BCE582D004D003D002600302DE
:0207070007B039
:04070900AD127E00AF
:09070D00C3EE951340030207A29C
:0E0716008A828B83E0FFA3AA82AB8390E679F0
:0D072400EFF0C002C003C004C005C0061203
:0E07310002BCE582D006D005D004D003D00271
:0C073F00706F0D8D120E8E04ED20E3C2D1
:0C074B00C3EE951350BC90E678E04440EB
:0E075700F0C002C003C004C005C00612032C8F
:0A0765007508647509007582A6127C
:0E076F000346E582D006D005D004D003D002A8
:0E077D00703190E679EDF0C002C003C004C0F8
:0E078B0005C0061202BCE582D006D005D004DF
:09079900D003D002701102070D1B
:0E07A20090E678E04440F0C00412032CD0042E
:0907B000903A05E512F08C82225A
:0A07B900903A35E0FA903A05E0F5B9
:0907C300108A1190E740C00212F7
:0E07CC0005D4AB82D002903A05E0FCEA2CF096
:0307DA008B8222ED
:0207DD00AA82EE
:0807DF00D2A600C2A6DAF9223D
:0E07E700A2A4D2A633C2A6A2A4D2A633C2A652
:0E07F500A2A4D2A633C2A6A2A4D2A633C2A644
:0E080300A2A4D2A633C2A6A2A4D2A633C2A635
:0E081100A2A4D2A633C2A6A2A4D2A633C2A627
:07081F00F582227582002220
:02082600AA1511
:0E082800A2A4D2A633C2A6A2A4D2A633C2A610
:0E083600A2A4D2A633C2A6A2A4D2A633C2A602
:0E084400A2A4D2A633C2A6A2A4D2A633C2A6F4
:0E085200A2A4D2A633C2A6A2A4D2A633C2A6E6
:05086000F0A3DAC42240
:0E086500E5823392A7D2A633C2A692A7D2A6EE
:0E08730033C2A692A7D2A633C2A692A7D2A6DF
:0E08810033C2A692A7D2A633C2A692A7D2A6D1
:0E088F0033C2A692A7D2A633C2A692A7D2A6C3
:04089D0000C2A622CD
:0208A100AA1596
:0E08A300E03392A7D2A633C2A692A7D2A63304
:0E08B100C2A692A7D2A633C2A692A7D2A633A1
:0E08BF00C2A692A7D2A633C2A692A7D2A63393
:0E08CD00C2A692A7D2A633C2A692A7D2A6A315
:0508DB00C2A6DAC422F0
:0D08E000903A0E7403F043A0807A007B0074
:0E08ED00C002C0031207E7AC82D003D002BCE9
:0408FB00FF02802058
:0E08FF008A048B057E007F00C3EC94FFED940D
:0E090D00FFEE9400EF6480948050070ABA0059
:04091B00D10B80CEAE
:0E091F00E5A030E409903A0EE4F07582002263
:04092D0075820122AC
:0D09310043A0207582081207DD53A0DF02ED
:02093E0008E0CF
:0E09400043A0807582081207DD43A020758257
:04094E00080207DDB7
:0509520043A0807A556E
:0A0957001207E7E58230E702DAF646
:0B096100903A10F0F58222758200220F
:07096C0043A0807A007B002C
:0E097300C002C0031207E7AC82D003D002BC62
:04098100FE02800DE5
:050985000ABA00010B9D
:08098A00EA4B70E575820122C1
:040992007582002248
:0E099600AA82AB83ACF0FDE5A020E5047582DB
:0209A40004222B
:0E09A600C002C003C004C005120931E582D0B2
:0E09B40005D004D003D00260071209407582FE
:0209C20003220E
:0E09C400758208C002C003C004C0051207DD22
:0E09D200D005D004D003D002903A0F7412F07A
:0E09E000903A127452F0903A11E0FE7028EA3C
:0E09EE002AFAEB33FBEC33FCED33FD8C069064
:0E09FC003A13EEF08B06903A14EEF08A069055
:0B0A0A003A15EEF0903A16E4F0801A66
:0E0A15008D06903A13EEF08C06903A14EEF037
:0C0A23008B06903A15EEF0903A16EAF0BF
:0A0A2F00903A177401F07515069057
:060A39003A121208A1129E
:0A0A3F000952903A10E0FA60071225
:060A490009407582012244
:0E0A4F0012096CE582600712094075820222CE
:040A5D00758200227C
:0E0A61007582101207DD12096CE58260071223
:060A6F000940758202221D
:040A75007582002264
:040A7900AA82AB831F
:0E0A7D00C374209AE49B5018758200C002C01A
:0E0A8B00031207DDD003D002EA24E0FAEB34B8
:040A9900FFFB80E0FF
:0E0A9D00EA4B600AEAC40354F8F5821207DD42
:0D0AAB007582101207DD7582081207DD90BC
:0C0AB8003A0F740CF0903A12744CF0905D
:090AC4003A13E4F0903A14F090AA
:080ACD003A15F0903A16F09082
:090AD5003A177401F07515069042
:060ADE003A121208A112F9
:090AE40009527582081207DD02B7
:020AED000940BE
:0E0AEF00AA82AB83ACF0FDE5A020E504758281
:020AFD000422D1
:0E0AFF00C002C003C004C005120931E582D058
:0E0B0D0005D004D003D00260071209407582A3
:020B1B000322B3
:0E0B1D00758208C002C003C004C0051207DDC7
:0E0B2B00D005D004D003D002903A0F7419F018
:0E0B3900903A127459F0903A11E0FE7028EADA
:0E0B47002AFAEB33FBEC33FCED33FD8C069009
:0E0B55003A13EEF08B06903A14EEF08A0690FA
:0B0B63003A15EEF0903A16E4F0801A0C
:0E0B6E008D06903A13EEF08C06903A14EEF0DD
:0C0B7C008B06903A15EEF0903A16EAF065
:0A0B8800903A177401F075150690FD
:060B92003A121208A11244
:0A0B98000952903A10E0FA600712CB
:060BA200094075820122EA
:0D0BA80043A0807582081207DD7582FC12E3
:060BB500086575820022B4
:070BBB00AA82AB8353A07F67
:0E0BC200C374209AE49B5018758200C002C0D4
:0E0BD000031207DDD003D002EA24E0FAEB3472
:040BDE00FFFB80E0B9
:0E0BE200EA4B600AEAC40354F8F5821207DDFC
:0E0BF00043A0807582101207DD1207E7E58230
:080BFE00540FFABA0502804809
:0D0C0600903A0E7406F07582081207DD901A
:0C0C13003A0F740CF0903A12744CF09000
:090C1F003A13E4F0903A14F0904D
:080C28003A15F0903A16F09025
:090C30003A177401F075150690E5
:060C39003A121208A1129C
:090C3F0009527582081207DD124A
:060C48000940758206223E
:040C4E007582002289
:0D0C52001208E07582FD1208657582081217
:050C5F0007DD02094061
:090C64001208E07582FC0208652B
:0E0C6D00903A077401F0903A08E4F0A3740284
:0E0C7B00F0903A11E4F043B4E053B4EF43A01C
:0E0C89008043A0207582001207DD1209319011
:0C0C97003A0E7403F07582081207DD901D
:0B0CA3003A0FE4F0903A127440F09019
:090CAE003A13E4F0903A14F090BE
:080CB7003A15F0903A16F09096
:090CBF003A177495F075150690C2
:060CC8003A121208A1120D
:0E0CCE000952903A10E0FA7B0054FE7003EBDE
:020CDC00604B6B
:0D0CDE009000321202657582081207DD9049
:0B0CEB003A0FE4F0903A127440F090D1
:090CF6003A13E4F0903A14F09076
:080CFF003A15F0903A16F0904E
:090D07003A177495F07515069079
:060D10003A121208A112C4
:0E0D16000952903A10E0FA7B0054FE7003EB95
:020D240060036A
:030D2600021113A4
:0D0D29007582081207DD903A0F7408F090F3
:0B0D36003A127448F0903A13E4F09079
:0A0D41003A14F0903A157401F09096
:0C0D4B003A1674AAF0903A177487F075FD
:060D57001506903A12128D
:060D5D0008A112095290EA
:0D0D63003A10E0FA20E235EA54FE60030287
:020D700011135D
:070D7200751504903A1212FE
:0E0D79000826903A14E0FA53020FBA010A90CD
:090D87003A15E0FABAAA0280094B
:090D9000903A0E7407F0021119EB
:060D9900903A117401F014
:090D9F00903A11E0FA6002744080
:0E0DA800FA758208C0021207DD903A0F743708
:0D0DB600F0903A127477F0903A13E4F09048
:080DC3003A14F0903A15F0908B
:0A0DCB003A16F0903A177401F07523
:060DD5001506903A12120F
:080DDB0008A1120952D0029098
:0E0DE3003A10E0FB54FE703E758208C002120A
:0B0DF10007DDD002903A0F7429F0904B
:0B0DFC003A127469F0903A13EAF0908C
:090E07003A14E4F0903A15F09061
:0A0E10003A16F0903A177401F075DD
:080E1A001506903A12C0021205
:070E220008A1120952D002E1
:0A0E2900903A10E0FB5303FE7C003A
:0B0E3300903A10E0FDBD0003020F33F9
:030E3E00BCFF00F6
:050E41004003020F3325
:0E0E4600900004C002C003C004120265D00474
:0E0E5400D003D002EB6051758208C002C003CB
:0E0E6200C0041207DDD004D003D002903A0F76
:0E0E70007401F0903A127441F0903A13EAF0D7
:0A0E7E00903A14E4F0903A15F09059
:0A0E88003A16F0903A1774FFF07567
:0C0E92001506903A12C002C003C0041202
:0C0E9E0008A1120952D004D003D00202B7
:020EAA000F2F08
:0D0EAC00758208C002C003C0041207DD906B
:0C0EB9003A0F7437F0903A127477F09002
:090EC5003A13E4F0903A14F090A5
:080ECE003A15F0903A16F0907D
:090ED6003A177401F0751506903D
:060EDF003A121208A112F4
:0E0EE50009527582081207DDD004D003D00236
:0D0EF300903A0F7429F0903A127469F09053
:0A0F00003A13EAF0903A14E4F0907E
:080F0A003A15F0903A16F09040
:090F12003A177401F07515069000
:0C0F1B003A12C002C003C0041208A11268
:080F27000952D004D003D002EE
:040F2F000C020E336F
:0A0F3300903A10E0FA600302111377
:0E0F3D00903A11E0FA60557582081207DD90B7
:0C0F4B003A0F743AF0903A12747AF09069
:090F57003A13E4F0903A14F09012
:080F60003A15F0903A16F090EA
:090F68003A177401F075150690AA
:060F71003A121208A11261
:0A0F77000952903A10E0FA600302FC
:020F810011134A
:070F8300751504903A1212EB
:0B0F8A000826903A12E0FA20E60590DD
:040F95003A11E4F039
:0D0F99007582081207DD903A0F7409F09080
:0B0FA6003A127449F0903A13E4F09006
:080FB1003A14F0903A15F0909B
:0A0FB9003A16F0903A177401F07533
:060FC3001506903A12121F
:060FC90008A112095212FA
:0D0FCF00096CE5826009903A0E7402F00290
:020FDC001119E9
:070FDE00751510903A121284
:090FE50008267582101207DD9048
:0E0FEE003A12E0FA5302C0903A12EAF0EA54C6
:060FFC00C0600302108436
:0E100200903A17E0FA53020F903A1CE0235484
:0E10100001FB903A1BE0540325E04B2A24F923
:0E101E00FA903A1AE023235403FB903A19E0AB
:0E102C00FCE4CC25E0CC33CC25E0CC33FD7EBB
:0E103A0000EB4204EE4205903A18E05403FB2E
:0E1048002B25E0FEE4FB4204EE42050CBC004A
:02105600010D8A
:0C105800ED3395E0FBFE8AF005F0800C03
:0C106400EC2CFCED33FDEB33FBEE33FE17
:0E107000D5F0F1903A0AECF0A3EDF0A3EBF00E
:06107E00A3EEF002110BCD
:0E108400903A12E0FA5302C0BA4074903A1942
:0E109200E0FA53023F7B008B058A047B007A54
:0E10A00000903A1AE0FF7E003395E0F8F9EE7A
:0E10AE004202EF4203E84204E94205903A1B79
:0E10BC00E0FEE4FFF8F9EE4202EF4203E842E4
:0E10CA0004E942050ABA00090BBB00050CBC84
:0310D80000010D07
:0E10DB00EB2BCC33CC25E0CC33FDEA2A25E00C
:0E10E900FBEA232354034CFC7A00903A0AEAF7
:0C10F700F0A3EBF0A3ECF0A3EDF08008F8
:08110300903A0E7407F0800E13
:08110B00903A0EE4F0020940E5
:06111300903A0E7401F099
:08111900903A07E4F0020940DE
:0D112100903A22E0FA6050903A22E4F01279
:0E112E00096CE5826044903A0E7402F07582FE
:0B113C00081207DD903A0F740CF090D1
:0B1147003A12744CF0903A13E4F09060
:081152003A14F0903A15F090F8
:0A115A003A16F0903A177401F07590
:061164001506903A12127C
:09116A0008A11209527582081255
:0511730007DD02094048
:0A117800903A35E0F51590E74012BB
:0E1182000826903A33E0FAA3E0FB4A70447569
:0C11900082101207DD7582081207DD9046
:0C119C003A0F740CF0903A12744CF09072
:0911A8003A13E4F0903A14F090BF
:0811B1003A15F0903A16F09097
:0911B9003A177401F07515069057
:0611C2003A121208A1120E
:0911C80009527582081207DD02CC
:0211D1000940D3
:0711D300EA7004EB30E001BB
:0111DA0022F2
:0D11DB007582101207DD903A227401F02297
:0D11E800903A22E0FA600E903A22E4F012F4
:0811F50008E07582FC12086598
:0A11FD00903A35E0F51590E7401236
:0E12070008A1903A33E0FAA3E0FBEA7004EB92
:0312150030E001C5
:0112180022B3
:0E12190043A0807582101207DD1207E7E58200
:08122700540FFABA05028044DD
:0D122F00903A0E7406F07582081207DD90EB
:0C123C003A0F740CF0903A12744CF090D1
:091248003A13E4F0903A14F0901E
:081251003A15F0903A16F090F6
:091259003A177401F075150690B6
:061262003A121208A1126D
:0912680009527582081207DD121B
:02127100094032
:0E127300903A33E0FAA3E0FB4A6007903A227B
:041281007401F022E2
:0D1285001208E07582FD12086575820812DE
:0512920007DD02094028
:0D129700AA8290E6017480F0000000009033
:0E12A400E670E4F090E671F053B4F975B2B65E
:0E12B20074904AF58043B40853A0F790000AE8
:0E12C000C002120265D00274024AF5807A0064
:0212CE007B00A3
:0E12D00020A2208A048B057E007F00C3EC94D0
:0E12DE00FFED94FFEE9400EF648094805007C3
:0712EC000ABA00E00B80DDEF
:0712F30030A2047AC880025A
:0212FA007A6414
:0E12FC00903A28EAF0903A24E4F0A3F0A3F030
:08130A00A3F0903A23E4F02265
:061312007582040212972F
:06131800758234021297F9
:03131E00021312A5
:0113210022A9
:0713220030A2047A168002DC
:021329007A0B3D
:0A132B00903A28E0FBEA2BF07A006C
:03133500BA4000BB
:091338005007D284C2840A80F43B
:0E134100D287D284C284D284C284D284C28471
:0E134F00D284C28475B20053B4F7308105D247
:04135D0081121321C5
:06136100D28143B202221A
:0C13670085B31475B3FF903A35E0FB909D
:0E1373003A24E0FCA3E0FDA3E0FEA3E0FF7837
:0E1381000079007A00903A24EB2CF0E83DA3AE
:0E138F00F0E93EA3F0EA3FA3F090E68BE060A9
:0E139D0022FA759B40759AE775AF07903A23C8
:0513AB00E0F990E67B73
:0E13B000E0F590D28429F9C284DAF5903A2350
:0213BE00E9F054
:0B13C0008514B390E68BE0FABA400001
:0513CB00500302132293
:0113D00022FA
:01006C00286B
:01006D000191
:04006E005A54455843
:040072000A0D000073
:010076000089
:010077000187
:060078004700000000003B
:0C007E0000000000000000000000000076
:0A008A00303030303030303030308C
:0113D10022F9
:0E13D20090E683E4F07420F07410F07430F0B4
:0E13E00090E6837401F07421F07411F0743102
:0213EE00F022EB
:0A13F000AA82E51624E050037516EA
:0113FA001FD3
:0D13FB0090E6BFE0701090E6BEE0FBC395E9
:0914080016500690E6BEE0F51650
:0C14110075AF078A9B85159A759E417582
:0A141D009DE790E67C7403F07A006E
:0C142700C3EA9516501190E67BE0FB90A4
:0B143300E67CF090E67CE4F00A80E923
:0B143E00E5160425E0FA90E740F0906E
:0E144900E7417403F090E68AE4F090E68BEA47
:02145700F02281
:0E145900903A33E0FAA3E0FBC374409AE49BA0
:0814670050067C407D0080046A
:04146F008A048B055B
:0E147300903A35ECF07D00903A33EAC39CF0DD
:05148100EB9DA3F02229
:0B148600903A36E0FABA31030215ADCF
:04149100BA32012248
:05149500BA3902800DD0
:05149A00BA3C02802CA9
:05149F00BA420280309A
:0314A4000215B07E
:0E14A700903A04E4F0903A02F0A3F090E6BB15
:0E14B500E0FB7A0090E6BAE0FC7D00903A0081
:0814C300EC4AF0ED4BA3F0220E
:0914CB0090E6BAE0903A05F02227
:0E14D400E5A020E515903A0E7404F090E6A015
:0C14E200E04401F0903A33E4F0A3F02263
:0E14EE00120931E582601212094090E6A0E07A
:0B14FC004401F0903A33E4F0A3F0222A
:0D1507007582081207DD903A0F7419F090FC
:0D1514003A127459F0903A11E0FA600302A7
:0215210015466D
:0E152300C390E6BAE0903A1533F090E6BBE0D4
:0E153100903A1433F090E6BCE0903A1333F099
:07153F00903A16E4F0802150
:0D15460090E6BDE0903A13F090E6BCE09016
:0E1553003A14F090E6BBE0903A15F090E6BA3C
:06156100E0FA903A16F0DA
:0A156700903A177401F07515069014
:061571003A121208A1125B
:0A1577000952903A10E0FA60189053
:0E1581003A0E7401F012094090E6A0E0440119
:09158F00F0903A33E4F0A3F022DD
:0D15980043A0807582081207DD7582FC12E9
:0815A5000865903A22E4F022EF
:0315AD0002131E08
:0815B00090E6A0E04401F022E6
:0C15B800C020C0E0C0F0C082C083C002B0
:0E15C400C003C004C005C006C007C000C001BF
:0E15D200C0D075D00090E6B9E0FA903A36F03D
:0E15E00090E6B57401F090E6B9E0FA24F350FD
:0415EE000302196E6D
:0715F200EA2A2A9015F973A3
:0715F9000216200216D402C5
:06160000196E02175102F1
:06160600196E02196E02CC
:06160C0017E902190402B7
:061612001906021917027F
:06161800191C02192D024D
:02161E0019327F
:0A16200090E6B8E0FABA8002800DEF
:05162A00BA8102801EE0
:05162F00BA8202802FC9
:0316340002196E2A
:0E16370090E740E4F090E741F090E68AF090F2
:08164500E68B7402F002196E3D
:0E164D0090E740E4F090E741F090E68AF090DC
:08165B00E68B7402F002196E27
:0C16630090E6BCE0FA600FBA01028019AA
:05166F00BA80028005B5
:05167400BA812F801E69
:0E16790090E6A0E0FA53020190E740EAF0800C
:011687003A28
:0E16880090E6A1E0FA53020190E740EAF080FC
:011696002B28
:0E16970090E6A2E0FA53020190E740EAF080EC
:0116A5001C28
:0E16A60090E6BCE0C31314540324A3F582E4C1
:0E16B40034E6F583E0FA53020190E740EAF0D5
:0E16C20090E741E4F090E68AF090E68B740227
:0416D000F002196E9D
:0A16D40090E6B8E0FABA02028003C3
:0316DE0002196E80
:0916E10090E6BAE0600302196E04
:0C16EA0090E6BCE0FA600FBA0102801527
:0516F600BA800280052E
:0516FB00BA81238016F6
:0B17000090E6A0E0FA54FEF002196E23
:0B170B0090E6A1E0FA54FEF002196E17
:0B17160090E6A2E0FA54FEF002196E0B
:0E17210090E6BCE0C31314540324A3FAE4348E
:0E172F00E6FB90E6BCE0C31314540324A3F5BC
:0E173D0082E434E6F583E0FC5304FE8A828BDE
:06174B0083ECF002196EB0
:0A17510090E6B8E0FABA0202800345
:03175B0002196E02
:09175E0090E6BAE0600302196E86
:0C17670090E6BCE0FA600FBA01028014AA
:05177300BA80028005B0
:05177800BA812080147D
:0A177D0090E6A0E0FA4401F080417C
:0A17870090E6A1E0FA4401F080377B
:0A17910090E6A2E0FA4401F0802D7A
:0E179B0090E6BCE0C31314540324A3FAE43414
:0E17A900E6FB90E6BCE0C31314540324A3F542
:0E17B70082E434E6F583E0FC4304FE8A828B74
:0317C50083ECF0C2
:0E17C80090E6BCE05480C423541FFA90E6BCA7
:0E17D600E0FB740F5B420290E683EAF07420A1
:0517E4004AF002196E3D
:0A17E90090E6BBE0FABA0102801995
:0517F300BA020280268D
:0517F800BA0302804D60
:0617FD00BA06030218BD4C
:06180300BA07030218CF32
:031809000218FAC8
:0A180C007A987B2390E6B3EBF0908E
:08181600E6B47498F002196EAB
:0B181E0090E680E0FA30E7127AB47B1D
:0A1829002390E6B3EBF090E6B474F0
:05183300B4F002196E83
:0A1838007AD67B2390E6B3EBF09024
:08184200E6B474D6F002196E41
:0A184A0090E6BAE0FABA0102800F3E
:05185400BA0202801C35
:05185900BA0302802922
:05185E00BA044A8036C7
:061863007582737A737BAD
:04186900238B157543
:06186D0016051213F00243
:02187300196EEC
:061875007582787A787B91
:04187B00238B157531
:06187F0016181213F0021E
:02188500196EDA
:0A18870075828A7A8A7B008B157542
:06189100160A1213F0021A
:02189700196EC8
:061899007582907A907B3D
:04189F00238B15750D
:0618A30016081213F0020A
:0218A900196EB6
:0A18AB007AF87B2390E6B3EBF0908F
:0818B500E6B474F8F002196EAC
:0A18BD007AAA7B2390E6B3EBF090CB
:0818C700E6B474AAF002196EE8
:0B18CF0090E680E0FA30E7127AD67B4A
:0A18DA002390E6B3EBF090E6B4743F
:0518E400D6F002196EB0
:0A18E9007AB47B2390E6B3EBF09095
:0718F300E6B474B4F0807448
:0A18FA0090E6A0E0FA4401F0806AD5
:021904008068F9
:0E19060090E740E4F090E68AF090E68B7401E2
:03191400F0805709
:051917001213D2805202
:0E191C0090E740E4F090E68AF090E68B7401CC
:03192A00F0804109
:05192D001213D2803C02
:0E19320090E6B8E0FABA823490E6BCE0C31347
:0B19400014540325E02438F582E43441
:0C194B003AF583E4F0A3F090E685E0900C
:0D195700E740F090E684E0FA90E741F09060
:0A196400E68AE4F090E68B7402F0CE
:0B196E0090E6B8E0FABA4003021C93B8
:05197900BAC00280036A
:03197E00021CBD8B
:0E19810090E6BFE0FB7A0090E6BEE0FC7D0041
:0E198F00903A33EC4AF0ED4BA3F0121459904D
:09199D00E6B9E0FABA2202803139
:0619A600BA3003021C40F0
:0519AC00BA380280437F
:0519B100BA3A02806754
:0619B600BA3B03021A5CBB
:0619BC00BA3D03021A759A
:0619C200BA4003021A9670
:0619C800BA4103021ABC43
:0619CE00BA4303021BBC3A
:0319D400021C8969
:0E19D70090E6B5E4F090E68AF090E68B742876
:0D19E500F090E6B3E4F090E6B4746CF0020C
:0219F2001CBD1A
:0E19F40090E6BBE0FB7A0090E6BAE0FC7D00D6
:0E1A0200903A00EC4AF0ED4BA3F090E68AE437
:0D1A1000F0120573E58290E68BF0021CBD1C
:0E1A1D00903A02E0FAA3E0FB8A0490E740EC66
:0D1A2B00F08B0290E741EAF0903A04E09061
:0A1A3800E742F0750800750901751A
:0D1A420082A2120346AA8290E743EAF090C8
:0D1A4F00E68AE4F090E68B7404F0021CBD02
:0E1A5C0090E6BAE0903A05F090E68AE4F012C7
:0B1A6A0007B9E58290E68BF0021CBD7E
:0A1A75007508007509017582A612BC
:0E1A7F000346AA8290E740EAF090E68AE4F07F
:091A8D0090E68B7401F0021CBD0F
:061A9600759B077A077B37
:0C1A9C003A8B9A759E40759DE7C0027A57
:0E1AA800081202ADD00290E68AE4F090E68BC0
:061AB6007408F0021CBDE3
:0E1ABC00E5A020E518903A0E7404F090E6A024
:0D1ACA00E0FA4401F0903A33E4F0A3F0029A
:021AD7001CBD34
:0E1AD900120931E582601512094090E6A0E086
:0E1AE700FA4401F0903A33E4F0A3F0021CBD83
:0D1AF5007582081207DD903A0F7412F09010
:0D1B02003A127452F0903A11E0FA600302BA
:021B0F001B3485
:0E1B1100C390E6BAE0903A1533F090E6BBE0E0
:0E1B1F00903A1433F090E6BCE0903A1333F0A5
:071B2D00903A16E4F080215C
:0D1B340090E6BDE0903A13F090E6BCE09022
:0E1B41003A14F090E6BBE0903A15F090E6BA48
:061B4F00E0FA903A16F0E6
:0A1B5500903A177401F07515069020
:061B5F003A121208A11267
:0A1B65000952903A10E0FA601B905C
:0E1B6F003A0E7401F012094090E6A0E0FA442C
:0C1B7D0001F0903A33E4F0A3F0021CBD2C
:0A1B8900903A227401F0121121902D
:0E1B93003A0EE0FA601290E6A0E0FA4401F08B
:0A1BA100903A33E4F0A3F0021CBDFB
:0E1BAB0090E68AE4F0903A35E0FA90E68BF08E
:031BB900021CBD4E
:061BBC00759B0E7A0E7B02
:0C1BC2003A8B9A759E427A427BE78B9D1D
:0E1BCE00C0027A141202ADD002741055A0FAB3
:051BDC00E4BA00010461
:0E1BE10090E756F01209317582081207DD9068
:0C1BEF003A0F740DF0903A12744DF09013
:091BFB003A13E4F0903A14F09062
:081C04003A15F0903A16F09039
:091C0C003A177401F075150690F9
:061C15003A121208A112B0
:0B1C1B000952903A10E090E740F012F0
:0D1C260007E7AA8290E741EAF0120940901A
:0D1C3300E68AE4F090E68B7417F0021CBD09
:061C4000759B237A237B53
:0C1C46003A8B9A759E417A417BE78B9D9A
:0E1C5200C0027A071202ADD00253B2FD3081FB
:0D1C60000C90E740E4F0D28143B20280090D
:091C6D0090E7407401F01213121B
:0E1C760090E7487401F090E68AE4F090E68B67
:051C84007409F080343A
:0A1C890090E6A0E0FA4401F0802A82
:0C1C930090E6BFE0700690E6BEE0601630
:0E1C9F00903A377401F090E68BE4F05391EF29
:081CAD0090E65D7401F080195E
:081CB50012148690E68BE4F0A6
:0E1CBD005391EF90E65D7401F090E6A0E0FA1E
:031CCB004480F062
:0E1CCE00D0D0D001D000D007D006D005D00471
:0D1CDC00D003D002D083D082D0F0D0E0D071
:021CE9002032A7
:0E1CEB00C0E0C082C0835391EF90E65D7402AA
:081CF900F0D083D082D0E0326C
:0E1D0100C0E0C082C0835391EF90E65D740491
:081D0F00F0D083D082D0E03255
:0E1D1700C0E0C082C0835391EF90E65D740877
:081D2500F0D083D082D0E0323F
:0E1D2D00C0E0C082C0835391EF90E65D741059
:081D3B00F0D083D082D0E03229
:0E1D4300C0E0C082C0835391EF90E65D742033
:081D5100F0D083D082D0E03213
:0E1D5900C0E0C082C0835391EF90E65D7440FD
:081D6700F0D083D082D0E032FD
:0C1D6F00C020C0E0C0F0C082C083C002F1
:0E1D7B00C003C004C005C006C007C000C00100
:0E1D8900C0D075D000C2E8121459903A36E06E
:071D9700FABA3003021E241A
:051D9E00BA38028021AB
:061DA300BA3A03021E24FF
:051DA900BA3B02802698
:061DAE00BA3D03021E24F1
:061DB400BA4003021E24E8
:051DBA00BA4102802582
:051DBF00BA43598060E9
:0E1DC40090E68AE4F0120573E58290E68BF05B
:021DD20080503F
:0E1DD40090E68AE4F01207B9E58290E68BF003
:021DE20080403F
:0D1DE400903A35E0FA6020903A0EE4F012DB
:0E1DF1001121903A0EE0FA601190E6A0E0FA9F
:0C1DFF004401F0903A33E4F0A3F08019A6
:0E1E0B0090E68AE4F0903A35E0FA90E68BF02B
:021E190080093E
:091E1B0090E68AE4F090E68BF0F9
:0E1E24005391EF90E65F7401F0D2E8D0D0D079
:0E1E320001D000D007D006D005D004D003D0D8
:0C1E400002D083D082D0F0D0E0D020325D
:0C1E4C00C020C0E0C0F0C082C083C00213
:0E1E5800C003C004C005C006C007C000C00122
:0E1E6600C0D075D000C2E8903A37E0FA602094
:0D1E7400903A37E4F090E6BFE0FB7A009072
:0E1E8100E6BEE0FC7D00903A33EC4AF0ED4BFB
:051E8F00A3F01214860F
:0D1E9400121459903A36E0FABA3102805D1E
:051EA100BA3202805579
:051EA600BA3902800AB8
:051EAB00BA3C028010AA
:051EB000BA424B801F47
:0B1EB50090E68BE0F5821205A7803E4E
:0B1EC000903A05E0F51290E68BE0F58B
:091ECB001390E7401206C1802AC1
:0D1ED400903A35E0FA6023903A0EE4F012E7
:0E1EE10011E8903A0EE0FA601490E6A0E0FAE4
:0C1EEF004401F0903A33E4F0A3F08003CB
:031EFB0012136758
:0E1EFE0090E68BE4F05391EF90E65F7402F0F3
:0E1F0C00903A33E0FAA3E0FB4A700890E6A09A
:051F1A00E0FA4480F034
:0E1F1F00D2E8D0D0D001D000D007D006D00537
:0E1F2D00D004D003D002D083D082D0F0D0E018
:031F3B00D0203281
:0E1F3E00C0E0C082C0835391EF90E65F740450
:081F4C00F0D083D082D0E03216
:0E1F5400C0E0C082C0835391EF90E65F740836
:081F6200F0D083D082D0E03200
:0E1F6A00C0E0C082C0835391EF90E65F741018
:081F7800F0D083D082D0E032EA
:0E1F8000C0E0C082C0835391EF90E65F7420F2
:081F8E00F0D083D082D0E032D4
:0E1F9600C0E0C082C0835391EF90E65F7440BC
:081FA400F0D083D082D0E032BE
:0E1FAC00C0E0C082C0835391EF90E65F748066
:081FBA00F0D083D082D0E032A8
:071FC200751000751103907A
:061FC9003A2A1205D49033
:0E1FCF003A2AE0FABA4324903A2BE0FABA44D8
:0E1FDD001C903A2CE0FABA3014903A067401C7
:0A1FEB00F075101075110A90008ABD
:051FF5001205D4800577
:051FFA00903A06E4F03E
:021FFF007A0066
:03200100BA0A0018
:0E2004005012EA248AF582E43400F583E0FBF2
:06201200BB30540A80E916
:072018007510FB7511059026
:09201F003A2A1205D47A007B0074
:03202800BB0500F5
:0A202B00503CEB242AF582E4343A1D
:0E203500F583E0FCEA248AFDE43400FEECC4EE
:0E204300540F9023FC93FF8D828E83F00AEAE7
:0E205100248AFDE43400FE740F5C9023FC939F
:0A205F00FC8D828E83F00A0B80BF17
:012069002254
:0E206A0090E680E04408F090E6007412F090DA
:0E2078000002120265538EF8D28143B202C2FA
:0E208600AFC2E89000437402F0900044740171
:0E209400F090004574B8F090E668E04408F063
:0A20A2009001007402F07AB87B157B
:0D20AC008B04900101ECF0900102EAF0902D
:0A20B90001047402F07AEB7B1C8B2B
:0E20C30004900105ECF0900106EAF09001088F
:0A20D1007402F07A017B1D8B04906D
:0E20DB000109ECF090010AEAF090010C740289
:0A20E900F07A177B1D8B0490010DA7
:0E20F300ECF090010EEAF09001107402F07A09
:0A2101002D7B1D8B04900111ECF002
:0C210B00900112EAF09001147402F07AC6
:0A211700437B1D8B04900115ECF0D2
:0C212100900116EAF09001187402F07AA8
:0A212D00597B1D8B04900119ECF0A2
:0C21370090011AEAF09001207402F07A86
:0A2143006F7B1D8B04900121ECF06E
:0C214D00900122EAF09001247402F07A64
:0A2159004C7B1E8B04900125ECF076
:0C216300900126EAF09001287402F07A46
:0A216F003E7B1F8B04900129ECF069
:0C21790090012AEAF090012C7402F07A28
:0A218500547B1F8B0490012DECF039
:0C218F0090012EEAF09001307402F07A0A
:0A219B006A7B1F8B04900131ECF009
:0C21A500900132EAF09001347402F07AEC
:0A21B100807B1F8B04900135ECF0D9
:0C21BB00900136EAF09001387402F07ACE
:0A21C700967B1F8B04900139ECF0A9
:0C21D10090013AEAF090013C7402F07AB0
:0A21DD00AC7B1F8B0490013DECF079
:0E21E70090013EEAF05391EF90E65D747FF0B8
:0E21F50090E65CE0FA447FF090E65F74FFF045
:0E22030090E65E74FFF0D2E8D2AF90E6117460
:0E221100A0F00000000090E61074A0F00000A5
:0E221F00000090E612E4F00000000090E613CC
:0E222D00E4F00000000090E614E4F000000071
:0E223B000090E615E4F000000000120C6D901B
:0D2249003A07E0FA70099000FA12026512DF
:022256000C6D0D
:0E225800121FC290E680E04482F090000A124D
:0A226600026590E680E054F7F022D4
:0B22700012206A903A07E0FA700302A7
:02227B002360DE
:0C227D00900000E4F5F0120996751504BD
:07228900903A2F1208269085
:0E2290003A08E0FAA3E0FBEA24FCF582EB3406
:0E229E00FFF583120A79903A2FE0FAA3E0FBD5
:0E22AC00A3E0FCA3E0FD903A2F74012AF0E4B9
:0E22BA003BA3F0E43CA3F0E43DA3F0903A2FE8
:0E22C800E0FAA3E0FBA3E0FCA3E0FD903A0ADD
:0E22D600E0FEA3E0FFA3E0F8A3E0F9C3EE9A58
:0E22E400EF9BE89CE99D4006EA4B4C4D700DC7
:0D22F200903A2F7401F0E4A3F0A3F0A3F0E4
:0C22FF00900000E4F5F0120AEF751504E1
:07230B00903A2F1208A19087
:0E2312003A08E0FAA3E0FBEA24FCF582EB3483
:0A232000FFF583120BBB120C529064
:0E232A003A2FE0FAA3E0FBA3E0FCA3E08A82D6
:0B2338008B838CF0120AEF9023667577
:06234300150D1208A19027
:0E2349003A08E0FAA3E0FBEA24F3F582EB3455
:09235700FFF583120BBB120C52BE
:0223600080FEFD
:0D23660048656C6C6F20576F726C6421002D
:052373005A544558001A
:0E237800466C6173682064656D6F20666F723D
:0A2386002055464D20312E31350060
:0823900064656661756C740060
:0E23980012010002FFFFFF401A2200010000A8
:0423A600010203012C
:0A23AA000A060002FFFFFF400100D9
:0E23B40009022000010104C0320904000002E9
:0E23C200FFFFFF000705810200020007050172
:0423D0000200020005
:0223D400000007
:0E23D60009022000010104C0320904000002C7
:0E23E400FFFFFF000705810240000007050112
:0423F20002400000A5
:0223F6000000E5
:0423F80004030000DA
:0E23FC003031323334353637383941424344BC
:03240A0045460044
:02240D000000CD
:01240F0000CC
:01241000FFCC
:0124110000CA
:082412000000000000000000C2
:06023700E478FFF6D8FD9B
:08021500790DE94400601B7A39
:05021D000190240D78A2
:030222003375929F
:0A0225003AE493F2A308B8000205C2
:08022F0092D9F4DAF27592FF96
:08023D007800E84400600A7932
:03024500007592AF
:060248003AE4F309D8FCC2
:08024E007833E84400600C79EC
:0B02560001903A00E4F0A3D8FCD9FAB4
:03020800758120DD
:0A020B00122362E582600302020381
:04236200758200225E
:00000001FF
