:03020000020208EF
:0302610002020393
:05020300121CC680FE84
:03000000020200F9
:0100030032CA
:01000B0032C2
:0100130032BA
:01001B0032B2
:0100230032AA
:01002B0032A2
:01003300329A
:01003B003292
:01004300328A
:01004B003282
:01005300327A
:01005B003272
:01006300326A
:0101000032CC
:0101040032C8
:0101080032C4
:01010C0032C0
:0101100032BC
:0101140032B8
:0101180032B4
:0101200032AC
:0101240032A8
:0101280032A4
:01012C0032A0
:01013000329C
:010134003298
:010138003294
:01013C003290
:01014000328C
:010148003284
:01014C003280
:01015000327C
:010154003278
:010158003274
:01015C003270
:01016000326C
:01017000325C
:010174003258
:010178003254
:01017C003250
:01018000324C
:010184003248
:010188003244
:01018C003240
:01019000323C
:010194003238
:010198003234
:01019C003230
:0101A000322C
:0101A8003224
:0101AC003220
:0101B000321C
:0101B4003218
:0101B8003214
:010264002277
:08026500AA82AB837C007D003E
:0B026D00C3EC9AED9B50147EB07F04A0
:050278001EBEFF011F86
:0B027D00EE4F70F70CBC00E80D80E5B0
:010288002253
:08028900AA82AB837C007D001A
:0B029100C3EC9AED9B50147E0A7F0026
:05029C001EBEFF011F62
:0B02A100EE4F70F70CBC00E80D80E58C
:0102AC00222F
:0E02AD0075AF0790E67BE090E67CF0DAF32276
:0102BB002220
:0E02BC0075B28375B30075B500D287C280C2DB
:0E02CA008190E6A3E054FEF090E6A5E0FA5421
:0D02D800FEF090E60174E3F00000000090DD
:0E02E500E60B7401F00000000090E604748047
:0E02F300F00000000090E6047402F00000002D
:0E0301000090E604E4F00000000090E60474B2
:0E030F0006F00000000090E604E4F00000009C
:0E031D000090E6187401F00000000090E61851
:0E032B007409F00000000090E6207402F0005B
:0D03390000000090E621E4F00000000090BC
:0E034600E61A7401F00000000090E61A74112F
:0E035400F00000000090E609E4F00000000058
:0E03620090E60274CAF0000000009000021243
:050370000265C28722B6
:020375007A000C
:03037700BAFF00CA
:0D037A00500B90E678E0FB20E0030A80F0D5
:0C03870090E678E0FA20E204EA20E10BA6
:0B03930090E678E04440F07582012203
:04039E007582002242
:0203A2007A00DF
:0303A400BAFF009D
:0D03A700500B90E678E0FB20E0030A80F0A8
:0E03B40090E678E0FA30E20B90E678E0444004
:0503C200F0758201222C
:0403C7007582002219
:0203CB007A00B6
:0303CD00BAFF0074
:0E03D000500F90E678E0FB20E20475820022D8
:0303DE000A80ECA6
:0403E10075820122FE
:0203E5007A009C
:0303E700BAFF005A
:0E03EA00500F90E678E0FB20E60475820022BA
:0303F8000A80EC8C
:0403FB0075820122E4
:0903FF00AA82C3E49508E433FB73
:0E04080090E678E04480F0C002C0031203CBFF
:0E041600D003D00290E679EAF0C002C00312D3
:0C0424000375E582D003D0027012E509D8
:0C043000600A90E678E04440F01203E51A
:04043C0075820022A3
:0E044000EB601090000AC002C003120289D0C7
:05044E0003D00280B59F
:0C045300E509600890E678E0FA4440F00B
:04045F00758201227F
:0C046300AA82AB837C00E50C7003F582DC
:01046F00226A
:0A0470007508647509007582A2C0CA
:0E047A0002C003C0041203FFE582D004D003C9
:07048800D0026003020569C8
:0C048F0090E679E50BF0C002C003C00449
:0E049B00120375E582D004D003D00260030284
:0204A9000569E3
:0C04AB0090E679E50AF0C002C003C0042E
:0E04B700120375E582D004D003D00260030268
:0204C5000569C7
:0E04C70090E678E04440F0C002C003C004128A
:0D04D50003E590E678E04480F01203CB9040
:0E04E200E67974A3F0120375E582D004D0030E
:0E04F000D002707590E679E08A828B83F0C0AE
:0E04FE0002C003C0041203A2E582D004D003A2
:05050C00D0027059FD52
:0C051100C3ED950C502A90E679E08A8238
:0E051D008B83F0A3AA82AB83C002C003C0048C
:0E052B00C0051203A2E582D005D004D003D093
:0805390002702D0D8D0480D02D
:0E05410090E678E04420F090E679E0C00412E5
:0E054F0003A2E582D004701290E678E04440EA
:0C055D00F090E679E0C0041203E5D00441
:030569008C82225F
:0C056C00AA82AB837C00E50F7003F582CF
:010578002260
:0A0579007508647509007582A2C0C0
:0E05830002C003C0041203FFE582D004D003BF
:07059100D0026003020629FD
:0C05980090E679E50EF0C002C003C0043C
:0E05A400120375E582D004D003D0026003027A
:0205B200062918
:0C05B40090E679E50DF0C002C003C00421
:0E05C000120375E582D004D003D002705CFDFA
:0C05CE00C3ED950F50478A828B83E0FE3E
:0E05DA00A3AA82AB8390E679EEF0903A04E09B
:0D05E800FFEE2FF0903A02E0FEA3E0FF903E
:0E05F5003A0274012EF0E43FA3F0C002C003EE
:0E060300C004C005120375E582D005D004D0F6
:0A06110003D00270130D8D0480B3B6
:0E061B0090E678E04440F0C0041203E5D004FD
:030629008C82229E
:0A062C00903A30E0FA903A00E0F551
:060636000AA3E0F50B8AA7
:0C063C000C90E740C002120463AB82D0B7
:0E064800027C00903A00E0FDA3E0FE903A0034
:0A065600EA2DF0EC3EA3F08B8222A7
:0B066000AA82903A00E0F50DA3E0F53F
:09066B000E8A0F90E740C0021254
:0E067400056CD0027B00903A00E0FCA3E0FD94
:0B068200903A00EA2CF0EB3DA3F022C0
:0C068D00AA82AB837C00E5117003F582AB
:01069900223E
:0A069A007508647509007582A6C09A
:0E06A40002C003C0041203FFE582D004D0039D
:0706B200D00260030207778C
:0C06B90090E679E510F0C002C003C00418
:0E06C500120375E582D004D003D00260030258
:0206D3000777A7
:0E06D50090E678E04440F0C002C003C004127A
:0D06E30003E590E678E04480F01203CB9030
:0E06F000E67974A7F0120375E582D004D003FA
:0E06FE00D002707590E679E08A828B83F0C09E
:0E070C0002C003C0041203A2E582D004D00391
:05071A00D0027059FD42
:0C071F00C3ED9511502A90E679E08A8223
:0E072B008B83F0A3AA82AB83C002C003C0047C
:0E073900C0051203A2E582D005D004D003D083
:0807470002702D0D8D0480D01D
:0E074F0090E678E04420F090E679E0C00412D5
:0E075D0003A2E582D004701290E678E04440DA
:0C076B00F090E679E0C0041203E5D00431
:030777008C82224F
:0C077A00AA82AB837C00E5137003F582BB
:010786002250
:0A0787007508647509007582A6C0AC
:0E07910002C003C0041203FFE582D004D003AF
:07079F00D0026003020869AB
:0C07A60090E679E512F0C002C003C00428
:0E07B200120375E582D004D003D0026003026A
:0207C0000869C6
:0407C200AD127E00F6
:0907C600C3EE9513400302085B29
:0E07CF008A828B83E0FFA3AA82AB8390E67937
:0D07DD00EFF0C002C003C004C005C006124A
:0E07EA000375E582D006D005D004D003D002FE
:0C07F800706F0D8D120E8E04ED20E3C218
:0C080400C3EE951350BC90E678E0444031
:0E081000F0C002C003C004C005C0061203E51C
:0A081E007508647509007582A612C2
:0E08280003FFE582D006D005D004D003D00235
:0E083600703190E679EDF0C002C003C004C03E
:0E08440005C006120375E582D006D005D0046B
:09085200D003D00270110207C6A8
:0E085B0090E678E04440F0C0041203E5D004BB
:09086900903A05E512F08C8222A0
:0A087200903A30E0FA903A05E0F504
:09087C00108A1190E740C002123D
:0E088500068DAB82D002903A05E0FCEA2CF022
:030893008B822233
:02089600AA8234
:0A089800D280000000C280DAF722CF
:0E08A200A2A0D28033C280A2A0D28033C28036
:0E08B000A2A0D28033C280A2A0D28033C28028
:0E08BE00A2A0D28033C280A2A0D28033C2801A
:0E08CC00A2A0D28033C280A2A0D28033C2800C
:0708DA00F582227582002265
:0208E100AA1655
:0E08E300A2A0D28033C280A2A0D28033C280F5
:0E08F100A2A0D28033C280A2A0D28033C280E7
:0E08FF00A2A0D28033C280A2A0D28033C280D9
:0E090D00A2A0D28033C280A2A0D28033C280CA
:05091B00F0A3DAC42284
:0E092000E582339281D28033C2809281D280F0
:0E092E0033C2809281D28033C2809281D28007
:0E093C0033C2809281D28033C2809281D280F9
:0E094A0033C2809281D28033C2809281D280EB
:0409580000C2802237
:02095C00AA16D9
:0E095E00E0339281D28033C2809281D2803306
:0E096C00C2809281D28033C2809281D28033C9
:0E097A00C2809281D28033C2809281D28033BB
:0E098800C2809281D28033C2809281D280A33D
:05099600C280DAC4225A
:0B099B00D283758208120896C28322E6
:0809A600D28375820802089655
:0D09AE00903A137405F012099B7582051232
:0609BB0009207A007B0018
:0E09C100C002C0031208A2E582D003D00230AB
:0E09CF00E02E8A048B057E007F00C3EC94FFAF
:0E09DD00ED94FFEE9400EF6480948050157549
:0E09EB008200C002C003120896D003D0020A98
:0609F900BA00C50B80C22C
:0C09FF001208A2E58230E0047A028002B7
:020A0B007A006F
:090A0D00903A0EEAF01209A690DD
:060A16003A0EE0F5822219
:0E0A1C00AA82AB8320830A903A0E7404F07510
:030A2A0082042221
:0E0A2D0053B4FE43B20BC002C0031209AEE583
:0E0A3B0082D003D0026007903A0EE0F58222CE
:0E0A4900903A08E0FCA3E07D00EC24F8FCED00
:090A570034FFFD8CF005F080066F
:060A6000EA2AFAEB33FB69
:0E0A6600D5F0F7903A13740BF0C002C00312E3
:0E0A7400099B75820B120920D0038B82C003F0
:0E0A8200120920D003D0028A82120920758248
:0E0A9000001209207582081208967582002255
:040A9E00758200223B
:030AA2000209A6A0
:090AA5001209A6903A1BE4F012BC
:0D0AAE0009AEE5826007903A0EE0F5822265
:0D0ABB00903A137406F012099B7582061222
:060AC80009201209A690AE
:0C0ACE003A137402F012099B75820212A8
:0B0ADA000920903A18E0A3E0F582121A
:0C0AE5000920903A18E0FAA3E08A82127F
:0C0AF10009207582001209207582002285
:0E0AFD00AA82903A1BE0FB6012C002120AA50A
:0D0B0B00E582D0026007903A0EE0F58222EC
:0A0B18008A82120920903A1AE09038
:0C0B22003A1A04F0903A1AE0FA701C90A5
:0E0B2E003A18E0FAA3E0FB903A1874012AF09E
:0D0B3C00E43BA3F01209A6903A1B7401F0EF
:040B4900758200228F
:0E0B4D00AA82AB83903A1BE0FC6016C002C087
:0D0B5B0003120AA5E582D003D002600790C6
:060B68003A0EE0F58222C6
:090B6E00903A1AE0FC700C8514A9
:0A0B7700168A828B8312095C8067E6
:0B0B8100ECF4FC0CE5146006C3EC95DE
:030B8C0014504FB3
:0C0B8F008C168A828B83C002C003C00455
:0C0B9B0012095CD004D003D002E514C3A2
:0C0BA7009CF514903A18E0FDA3E0FE90CD
:0E0BB3003A1874012DF0E43EA3F0903A1AE4D3
:0E0BC100F0EC2AFAE43BFBC002C003120AA5C6
:0E0BCF00E582D003D0026007903A0EE0F58276
:010BDD0022F5
:080BDE008514168A828B831234
:020BE600095CA8
:0A0BE800903A1AE0FAE5142AF090A2
:0E0BF2003A1AE0FA701C903A18E0FAA3E0FB01
:0E0C0000903A1874012AF0E43BA3F01209A602
:060C0E00903A1B7401F096
:040C140075820022C3
:0E0C1800AA82AB8320830A903A0E7404F07512
:030C260082042223
:0E0C290053B4FE43B20BC002C0031209AEE585
:0E0C370082D003D0026007903A0EE0F58222D0
:0E0C4500903A1CEAF0A3EBF0903A08E0FCA312
:0E0C5300E07D00EC24F8FCED34FFFD8CF00594
:030C6100F080061A
:060C6400EA2AFAEB33FB63
:0E0C6A00D5F0F7903A18EAF0A3EBF0903A1AA2
:0D0C7800E4F0903A137406F0C002C00312BD
:090C8500099B7582061209201278
:070C8E0009A6903A12E09064
:070C95003A13F012099B90D5
:0E0C9C003A12E0F582120920D0038B82C003C9
:0E0CAA00120920D003D0028A8212092075821E
:080CB800001209201209A690A8
:090CC0003A1B7401F07582002258
:070CC9001209A6758200224A
:030CD0000209A670
:0E0CD3001209A6903A1CE0FAA3E0FB8A828B7D
:050CE10083A3020C18C2
:0E0CE60090E671E4F0903A077401F0903A0E37
:0D0CF400E4F0903A087410F0A37480F090C2
:0E0D01003A1274D8F053B4FE43B20BD283758D
:0C0D0F008200120896903A137490F012C3
:0C0D1B00099B7582901209207582181245
:080D270008961208A2E5829073
:070D2F003A10F01209A69032
:0C0D36003A13749FF012099B75829F1203
:060D420009207516039064
:060D48003A141208E1124A
:0A0D4E0009A6903A16E0FABA100068
:0E0D5800403DEA24E74038903A14E0903A0F0C
:0E0D6600F0903A15E0903A11F0EA24F0FA8A83
:090D7400F005F07A017B00800615
:060D7D00EA2AFAEB33FB49
:0E0D8300D5F0F7903A0AEAF0A3EBF0EB3395C7
:060D9100E0A3F0A3F02234
:0E0D9700903A07E4F0903A0E7407F053B2F46D
:010DA500222B
:0A0DA600903A30E0F51690E7401295
:0B0DB00008E1903A1EE0FABA020E9033
:0D0DBB003A2EE0FAA3E0FB4A70030209A6FD
:010DC8002208
:0A0DC900903A30E0F51490E7401274
:0B0DD3000B4D903A1FE0FABA020E90A0
:0D0DDE003A2EE0FAA3E0FB4A70030209A6DA
:010DEB0022E5
:0E0DEC00AAB674BF5AF5F0748045F0F5B65300
:0E0DFA00B17F90000112026543B180903A274C
:030E0800E4F022F1
:0E0E0B0043B180AAB674BF5AF5F0748045F06A
:0E0E1900F5B6E5B120E62453B17F740455B25E
:0E0E2700F5F0747045F0F5B274045580F5F0E6
:0E0E3500742045F0F58090000112026543B173
:010E4300802E
:060E4400903A27E4F022C1
:0E0E4A0090E6017480F00000000090E670E475
:0E0E5800F090E671F0903A28E5B2F0903A275B
:0E0E6600747BF053B204AAB674BF5AF5F07450
:0E0E74008045F0F5B653B17F43B27274045559
:0D0E820080F5F0742245F0F5809000051217
:0B0E8F00026543B180C2817A007B0045
:0E0E9A002087208A048B057E007F00C3EC9425
:0E0EA800FFED94FFEE9400EF648094805007FD
:070EB6000ABA00E00B80DD29
:0A0EBD0043B2013087047AC88002B6
:020EC7007A644B
:0E0EC900903A25EAF0903A21E4F0A3F0A3F06D
:080ED700A3F0903A20E4F022A0
:030EDF000202BC50
:070EE2003087047A1680023C
:020EE9007A0B82
:0A0EEB00903A25E0FBEA2BF07A00B4
:030EF500BA400000
:090EF8005007D280C2800A80F488
:0E0F0100D281D280C280D280C280D280C280D3
:0E0F0F00D280C280903A28E0F5B2E5B130E61B
:040F1D0003020EDFDE
:010F210022AD
:0C0F220085B41575B4FF903A30E0FB90E8
:0E0F2E003A21E0FCA3E0FDA3E0FEA3E0FF7883
:0E0F3C000079007A00903A21EB2CF0E83DA3FA
:0E0F4A00F0E93EA3F0EA3FA3F090E68BE060F2
:0E0F580022FA759B40759AE775AF07903A2014
:050F6600E0F990E67BBC
:0E0F6B00E0F5A0D28029F9C280DAF5903A2094
:020F7900E9F09D
:0B0F7B008515B490E68BE0FABA400048
:050F86005003020EE221
:010F8B002243
:01006C00286B
:01006D000191
:04006E005A54455843
:040072000A1200006E
:010076000089
:010077000187
:060078004700000000003B
:0C007E0000000000000000000000000076
:0A008A00303030303030303030308C
:010F8C002242
:0E0F8D0090E683E4F07420F07410F07430F0FD
:0E0F9B0090E6837401F07421F07411F074314B
:0E0FA900F090E6837412F07432F07406F07467
:030FB70026F022FF
:0A0FBA00AA82E51724E05003751722
:010FC4001F0D
:0D0FC50090E6BFE0701090E6BEE0FBC39523
:090FD20017500690E6BEE0F51789
:0C0FDB0075AF078A9B85169A759E4175BC
:0A0FE7009DE790E67C7403F07A00A9
:0C0FF100C3EA9517501190E67BE0FB90DE
:0B0FFD00E67CF090E67CE4F00A80E95E
:0B100800E5170425E0FA90E740F090A7
:0E101300E7417403F090E68AE4F090E68BEA81
:02102100F022BB
:0E102300903A2EE0FAA3E0FBC374409AE49BDF
:0810310050067C407D008004A4
:041039008A048B0595
:0E103D00903A30ECF07D00903A2EEAC39CF021
:05104B00EB9DA3F02263
:0B105000903A31E0FABA31030210EED2
:06105B00BA32030210F19D
:05106100BA39028025F0
:05106600BA3C028044C9
:05106B00BA42028048BA
:05107000BA80028008B7
:05107500BA8102800EAB
:03107A000210FD64
:0B107D0090E6BAE0FA74035AF58022F6
:031088000202BCA5
:0E108B00903A04E4F0903A02F0A3F090E6BB35
:0E109900E0FB7A0090E6BAE0FC7D00903A00A1
:0810A700EC4AF0ED4BA3F0222E
:0910AF0090E6BAE0903A05F02247
:0D10B80090E6BDE0FA903A1FF0EA7041901A
:0E10C500E6BBE0FB7A0090E6BAE07D004AF55B
:0D10D30082ED4BF583120C18E5826026902B
:0E10E000E6A0E04401F0903A2EE4F0A3F022E6
:0310EE00020DEC04
:0910F100903A27E0FABA7B0122D3
:0310FA00020E4A99
:0810FD0090E6A0E0FA4401F0C6
:0111050022C7
:0C110600C020C0E0C0F0C082C083C00266
:0E111200C003C004C005C006C007C000C00175
:0E112000C0D075D00090E6B9E0FA903A31F0F8
:0E112E0090E6B57401F090E6B9E0FA24F350B3
:04113C00030214BCDA
:07114000EA2A2A901147730F
:0711470002116E02122202E8
:06114E0014BC02129F0216
:0611540014BC0214BC02F1
:06115A00133702145202DB
:06116000145402146502A4
:06116600146A02147B0272
:02116C001480ED
:0A116E0090E6B8E0FABA8002800DA6
:05117800BA8102801E97
:05117D00BA8202802F80
:031182000214BC98
:0E11850090E740E4F090E741F090E68AF090A9
:08119300E68B7402F00214BCAB
:0E119B0090E740E4F090E741F090E68AF09093
:0811A900E68B7402F00214BC95
:0C11B10090E6BCE0FA600FBA0102801961
:0511BD00BA800280056C
:0511C200BA812F801E20
:0E11C70090E6A0E0FA53020190E740EAF080C3
:0111D5003ADF
:0E11D60090E6A1E0FA53020190E740EAF080B3
:0111E4002BDF
:0E11E50090E6A2E0FA53020190E740EAF080A3
:0111F3001CDF
:0E11F40090E6BCE0C31314540324A3F582E478
:0E12020034E6F583E0FA53020190E740EAF08B
:0E12100090E741E4F090E68AF090E68B7402DD
:04121E00F00214BC0A
:0A12220090E6B8E0FABA0202800379
:03122C000214BCED
:09122F0090E6BAE060030214BC71
:0C12380090E6BCE0FA600FBA01028015DD
:05124400BA80028005E4
:05124900BA81238016AC
:0B124E0090E6A0E0FA54FEF00214BC91
:0B12590090E6A1E0FA54FEF00214BC85
:0B12640090E6A2E0FA54FEF00214BC79
:0E126F0090E6BCE0C31314540324A3FAE43445
:0E127D00E6FB90E6BCE0C31314540324A3F573
:0E128B0082E434E6F583E0FC5304FE8A828B95
:0612990083ECF00214BC1E
:0A129F0090E6B8E0FABA02028003FC
:0312A9000214BC70
:0912AC0090E6BAE060030214BCF4
:0C12B50090E6BCE0FA600FBA0102801461
:0512C100BA8002800567
:0512C600BA8120801434
:0A12CB0090E6A0E0FA4401F0804133
:0A12D50090E6A1E0FA4401F0803732
:0A12DF0090E6A2E0FA4401F0802D31
:0E12E90090E6BCE0C31314540324A3FAE434CB
:0E12F700E6FB90E6BCE0C31314540324A3F5F9
:0E13050082E434E6F583E0FC4304FE8A828B2A
:0313130083ECF078
:0E13160090E6BCE05480C423541FFA90E6BC5D
:0E132400E0FB740F5B420290E683EAF0742057
:051332004AF00214BCAA
:0A13370090E6BBE0FABA010280194B
:05134100BA0202802643
:05134600BA0302804D16
:06134B00BA060302140BB8
:06135100BA070302141D9F
:0313570002144835
:0A135A007AF27B1C90E6B3EBF090F2
:08136400E6B474F2F00214BCBF
:0B136C0090E680E0FA30E7127A0E7B7A
:0A1377001D90E6B3EBF090E6B474AD
:051381000EF00214BC97
:0A1386007A3E7B1D90E6B3EBF09079
:08139000E6B4743EF00214BC47
:0A13980090E6BAE0FABA0102800FF5
:0513A200BA0202801CEC
:0513A700BA03028029D9
:0513AC00BA044A80367E
:0613B1007582CF7ACF7BAC
:0413B7001C8B167500
:0613BB001705120FBA0233
:0213C10014BC5A
:0613C3007582D47AD47B90
:0413C9001C8B1675EE
:0613CD001715120FBA0211
:0213D30014BC48
:0A13D50075828A7A8A7B008B1675F8
:0613DF00170A120FBA020A
:0213E50014BC36
:0613E7007582E97AE97B42
:0413ED001C8B1675CA
:0613F1001708120FBA02FA
:0213F70014BC24
:0A13F9007A6E7B1D90E6B3EBF090D6
:08140300E6B4746EF00214BCA3
:0A140B007A047B1D90E6B3EBF0902D
:08141500E6B47404F00214BCFB
:0B141D0090E680E0FA30E7127A3E7B98
:0A1428001D90E6B3EBF090E6B474FB
:051432003EF00214BCB5
:0A1437007A0E7B1D90E6B3EBF090F7
:07144100E6B4740EF08074A4
:0A14480090E6A0E0FA4401F0806A8B
:021452008068B0
:0E14540090E740E4F090E68AF090E68B740199
:03146200F08057C0
:05146500120F8D805202
:0E146A0090E740E4F090E68AF090E68B740183
:03147800F08041C0
:05147B00120F8D803C02
:0E14800090E6B8E0FABA823490E6BCE0C313FE
:0B148E0014540325E02433F582E434FD
:0C1499003AF583E4F0A3F090E685E090C3
:0D14A500E740F090E684E0FA90E741F09017
:0A14B200E68AE4F090E68B7402F085
:0B14BC0090E6B8E0FABA40030216E721
:0514C700BAC002800321
:0314CC00021711F3
:0E14CF0090E6BFE0FB7A0090E6BEE0FC7D00F8
:0E14DD00903A2EEC4AF0ED4BA3F01210239043
:0914EB00E6B9E0FABA22028031F0
:0614F400BA300302168D60
:0514FA00BA3802804336
:0514FF00BA3A0280670B
:06150400BA3B030215AA28
:06150A00BA3D030215C307
:06151000BA40030215E4DD
:06151600BA410302161A9F
:06151C00BA43030216674A
:031522000216DDD1
:0E15250090E6B5E4F090E68AF090E68B74282C
:0D153300F090E6B3E4F090E6B4746CF002C2
:02154000171181
:0E15420090E6BBE0FB7A0090E6BAE0FC7D008C
:0E155000903A00EC4AF0ED4BA3F090E68AE4EE
:0D155E00F012062CE58290E68BF0021711CA
:0E156B00903A02E0FAA3E0FB8A0490E740EC1D
:0D157900F08B0290E741EAF0903A04E09018
:0A158600E742F075080075090175D1
:0D15900082A21203FFAA8290E743EAF090C6
:0D159D00E68AE4F090E68B7404F00217116A
:0E15AA0090E6BAE0903A05F090E68AE4F0127E
:0B15B8000872E58290E68BF00217112C
:0A15C3007508007509017582A61273
:0E15CD0003FFAA8290E740EAF090E68AE4F07D
:0915DB0090E68B7401F002171177
:0E15E400903A0EE0FA7009208306903A0E74D9
:0215F20004F003
:0615F400759B077A077BDE
:0C15FA003A8B9A759E40759DE7C0027AFE
:0E160600081202ADD00290E68AE4F090E68B66
:061614007408F00217113A
:0D161A0090E6BDE0FA903A1EF0EA702D90C7
:0E162700E6BBE0FB7A0090E6BAE07D004AF5F3
:0D16350082ED4BF583120A1CE582601290D5
:0E164200E6A0E0FA4401F0903A2EE4F0A3F0A6
:031650000217116D
:0E165300120DA690E68AE4F0903A30E0FA908C
:06166100E68BF0021711F8
:06166700759B0E7A0E7B5C
:0C166D003A8B9A759E40759DE7C0027A8A
:0E1679000A1202ADD00290E68AE4F090E68BF1
:06168700740AF0021711C5
:06168D00759B207A207B12
:0C1693003A8B9A759E417A417BE78B9D53
:0E169F00C0027A071202ADD002AAB674BF5A7A
:0E16AD00F5F0748045F0F5B6E5B130E6079033
:0616BB00E740E4F08009A5
:0916C10090E7407401F0120DECF9
:0E16CA0090E7487401F090E68AE4F090E68B19
:0516D8007409F08034EC
:0A16DD0090E6A0E0FA4401F0802A34
:0C16E70090E6BFE0700690E6BEE06016E2
:0E16F300903A327401F090E68BE4F05391EFE0
:0817010090E65D7401F080190F
:0817090012105090E68BE4F091
:0E1711005391EF90E65D7401F090E6A0E0FACF
:03171F004480F013
:0E172200D0D0D001D000D007D006D005D00422
:0D173000D003D002D083D082D0F0D0E0D022
:02173D00203258
:0E173F00C0E0C082C0835391EF90E65D74025B
:08174D00F0D083D082D0E0321D
:0E175500C0E0C082C0835391EF90E65D740443
:08176300F0D083D082D0E03207
:0E176B00C0E0C082C0835391EF90E65D740829
:08177900F0D083D082D0E032F1
:0E178100C0E0C082C0835391EF90E65D74100B
:08178F00F0D083D082D0E032DB
:0E179700C0E0C082C0835391EF90E65D7420E5
:0817A500F0D083D082D0E032C5
:0E17AD00C0E0C082C0835391EF90E65D7440AF
:0817BB00F0D083D082D0E032AF
:0C17C300C020C0E0C0F0C082C083C002A3
:0E17CF00C003C004C005C006C007C000C001B2
:0E17DD00C0D075D000C2E8121023903A31E05F
:0717EB00FABA300302185D99
:0517F200BA3802801E60
:0517F700BA3A02806116
:0517FC00BA3B0280244D
:05180100BA3D02805712
:05180600BA400280520F
:05180B00BA4102802536
:05181000BA43418048CD
:0E18150090E68AE4F012062CE58290E68BF055
:0218230080380B
:0E18250090E68AE4F0120872E58290E68BF0FD
:0218330080280B
:0D183500903A30E0FA6008903A0EE4F012AC
:021842000DA6F1
:0E18440090E68AE4F0903A30E0FA90E68BF0FD
:0218520080090B
:0918540090E68AE4F090E68BF0C6
:0E185D005391EF90E65F7401F0D2E8D0D0D046
:0E186B0001D000D007D006D005D004D003D0A5
:0C18790002D083D082D0F0D0E0D020322A
:0C188500C020C0E0C0F0C082C083C002E0
:0E189100C003C004C005C006C007C000C001EF
:0E189F00C0D075D000C2E8903A32E0FA602066
:0D18AD00903A32E4F090E6BFE0FB7A009044
:0E18BA00E6BEE0FC7D00903A2EEC4AF0ED4BCD
:0518C800A3F012105016
:0C18CD00121023903A31E0FABA31030205
:0218D9001954A0
:0618DB00BA3203021951AC
:0618E100BA3903021908E8
:0618E700BA3C03021913D4
:0618ED00BA4203021927B4
:0518F300BA800280092B
:0618F800BA81030219058C
:0318FE0002195478
:041901000002195473
:0319050000804C13
:0B19080090E68BE0F582120660804143
:0B191300903A05E0F51290E68BE0F53D
:09191E001390E74012077A802DB6
:0D192700903A30E0FA6026903A0EE4F0129B
:0A1934000DC9903A0EE0FA60171298
:0E193E0009A690E6A0E0FA4401F0903A2EE4EB
:05194C00F0A3F0800390
:03195100120F2250
:0E19540090E68BE4F05391EF90E65F7402F0A2
:0E196200903A2EE0FAA3E0FB4A700890E6A04F
:05197000E0FA4480F0E4
:0E197500D2E8D0D0D001D000D007D006D005E7
:0E198300D004D003D002D083D082D0F0D0E0C8
:03199100D0203231
:0E199400C0E0C082C0835391EF90E65F740400
:0819A200F0D083D082D0E032C6
:0E19AA00C0E0C082C0835391EF90E65F7408E6
:0819B800F0D083D082D0E032B0
:0E19C000C0E0C082C0835391EF90E65F7410C8
:0819CE00F0D083D082D0E0329A
:0E19D600C0E0C082C0835391EF90E65F7420A2
:0819E400F0D083D082D0E03284
:0E19EC00C0E0C082C0835391EF90E65F74406C
:0819FA00F0D083D082D0E0326E
:0E1A0200C0E0C082C0835391EF90E65F748015
:081A1000F0D083D082D0E03257
:071A18007510007511039029
:061A1F003A2912068D9029
:0E1A25003A29E0FABA4324903A2AE0FABA4489
:0E1A33001C903A2BE0FABA3014903A06740177
:0A1A4100F075101075110A90008A6C
:051A4B0012068D80056C
:051A5000903A06E4F0ED
:021A55007A0015
:031A5700BA0A00C8
:0E1A5A005012EA248AF582E43400F583E0FBA2
:061A6800BB30540A80E9C6
:071A6E007510FB75110590D6
:091A75003A2912068D7A007B006B
:031A7E00BB0500A5
:0A1A8100503CEB2429F582E4343ACE
:0E1A8B00F583E0FCEA248AFDE43400FEECC49E
:0E1A9900540F901D7293FF8D828E83F00AEA27
:0E1AA700248AFDE43400FE740F5C901D7293DF
:0A1AB500FC8D828E83F00A0B80BFC7
:011ABF002204
:0E1AC00090E680E04408F090E6007412F0908A
:0E1ACE000002120265538EF8120E0BC2AFC258
:0E1ADC00E89000437402F09000447401F09012
:0D1AEA00004574B8F090E668E04408F09004
:0A1AF70001007402F07A067B118BE7
:0E1B010004900101ECF0900102EAF090010462
:0A1B0F007402F07A3F7B178B0490FC
:0E1B19000105ECF0900106EAF090010874025C
:0A1B2700F07A557B178B049001093A
:0E1B3100ECF090010AEAF090010C7402F07AD8
:0A1B3F006B7B178B0490010DECF096
:0C1B490090010EEAF09001107402F07A96
:0A1B5500817B178B04900111ECF066
:0C1B5F00900112EAF09001147402F07A78
:0A1B6B00977B178B04900115ECF036
:0C1B7500900116EAF09001187402F07A5A
:0A1B8100AD7B178B04900119ECF006
:0C1B8B0090011AEAF09001207402F07A38
:0A1B9700C37B178B04900121ECF0D2
:0C1BA100900122EAF09001247402F07A16
:0A1BAD00857B188B04900125ECF0F5
:0C1BB700900126EAF09001287402F07AF8
:0A1BC300947B198B04900129ECF0CB
:0C1BCD0090012AEAF090012C7402F07ADA
:0A1BD900AA7B198B0490012DECF09B
:0C1BE30090012EEAF09001307402F07ABC
:0A1BEF00C07B198B04900131ECF06B
:0C1BF900900132EAF09001347402F07A9E
:0A1C0500D67B198B04900135ECF03A
:0C1C0F00900136EAF09001387402F07A7F
:0A1C1B00EC7B198B04900139ECF00A
:0C1C250090013AEAF090013C7402F07A61
:0A1C3100027B1A8B0490013DECF0D9
:0E1C3B0090013EEAF05391EF90E65D747FF069
:0E1C490090E65CE0FA447FF090E65F74FFF0F6
:0E1C570090E65E74FFF0D2E8D2AF90E6117412
:0E1C6500A0F00000000090E61074A0F0000057
:0D1C7300000090E61274E0F0000000009008
:0E1C8000E613E4F00000000090E61474A0F0FB
:0E1C8E000000000090E615E4F00000000012D7
:0D1C9C000CE6903A07E0FA70099000FA1289
:051CA9000265120CE6CB
:0E1CAE00121A1890E680E04482F090000A12AC
:0A1CBC00026590E680E054F7F02284
:031CC600121AC02F
:021CC90080FE9B
:051CCF005A54455800C5
:0E1CD4006D656D6669666F20666F72205546FD
:071CE2004D20322E303100CD
:081CE90064656661756C74000E
:011CF10000F2
:0E1CF20012010002FFFFFF401A220001000055
:041D000001020301D8
:0A1D04000A060002FFFFFF40010085
:0E1D0E0009022E00010104C032090400000485
:0E1D1C00FFFFFF00070581020002000705011E
:0E1D2A00020002000705820200020007050603
:041D380002000200A3
:021D3C000000A5
:0E1D3E0009022E00010104C032090400000455
:0E1D4C00FFFFFF0007058102400000070501B0
:0E1D5A00024000000705820240000007050657
:041D68000240000035
:021D6C00000075
:041D6E00040300006A
:0E1D720030313233343536373839414243444C
:031D8000454600D5
:021D830000005E
:011D8500005D
:011D8600FF5D
:011D8700005B
:081D8800000000000000000053
:06023700E478FFF6D8FD9B
:08021500790DE94400601B7A39
:05021D0001901D837833
:030222002E7592A4
:0A0225003AE493F2A308B8000205C2
:08022F0092D9F4DAF27592FF96
:08023D007800E84400600A7932
:03024500007592AF
:060248003AE4F309D8FCC2
:08024E00782EE84400600C79F1
:0B02560001903A00E4F0A3D8FCD9FAB4
:03020800758120DD
:0A020B00121CCBE58260030202031F
:041CCB0075820022FC
:00000001FF
