:03020000020208EF
:0302610002020393
:050203001211FE80FE57
:03000000020200F9
:0100030032CA
:01000B0032C2
:0100130032BA
:01001B0032B2
:0100230032AA
:01002B0032A2
:01003300329A
:01003B003292
:01004300328A
:01004B003282
:01005300327A
:01005B003272
:01006300326A
:0101000032CC
:0101040032C8
:0101080032C4
:01010C0032C0
:0101100032BC
:0101140032B8
:0101180032B4
:0101200032AC
:0101240032A8
:0101280032A4
:01012C0032A0
:01013000329C
:010134003298
:010138003294
:01013C003290
:01014000328C
:010148003284
:01014C003280
:01015000327C
:010154003278
:010158003274
:01015C003270
:01016000326C
:01017000325C
:010174003258
:010178003254
:01017C003250
:01018000324C
:010184003248
:010188003244
:01018C003240
:01019000323C
:010194003238
:010198003234
:01019C003230
:0101A000322C
:0101A8003224
:0101AC003220
:0101B000321C
:0101B4003218
:0101B8003214
:010264002277
:08026500AA82AB837C007D003E
:0B026D00C3EC9AED9B50147EB07F04A0
:050278001EBEFF011F86
:0B027D00EE4F70F70CBC00E80D80E5B0
:010288002253
:08028900AA82AB837C007D001A
:0B029100C3EC9AED9B50147E0A7F0026
:05029C001EBEFF011F62
:0B02A100EE4F70F70CBC00E80D80E58C
:0102AC00222F
:0E02AD0075AF0790E67BE090E67CF0DAF32276
:0102BB002220
:0202BC007A00C6
:0302BE00BAFF0084
:0D02C100500B90E678E0FB20E0030A80F08F
:0C02CE0090E678E0FA20E204EA20E10B60
:0B02DA0090E678E04440F075820122BD
:0402E50075820022FC
:0202E9007A0099
:0302EB00BAFF0057
:0D02EE00500B90E678E0FB20E0030A80F062
:0E02FB0090E678E0FA30E20B90E678E04440BE
:05030900F075820122E5
:04030E0075820022D2
:020312007A006F
:03031400BAFF002D
:0E031700500F90E678E0FB20E2047582002291
:030325000A80EC5F
:0403280075820122B7
:02032C007A0055
:03032E00BAFF0013
:0E033100500F90E678E0FB20E6047582002273
:03033F000A80EC45
:04034200758201229D
:09034600AA82C3E49508E433FB2C
:0E034F0090E678E04480F0C002C00312031272
:0E035D00D003D00290E679EAF0C002C003128D
:0C036B0002BCE582D003D0027012E5094C
:0C037700600A90E678E04440F012032C8D
:04038300758200225D
:0E038700EB601090000AC002C003120289D081
:0503950003D00280B559
:0C039A00E509600890E678E0FA4440F0C5
:0403A6007582012239
:0C03AA00AA82AB837C00E50C7003F58296
:0103B6002224
:0A03B7007508647509007582A2C084
:0E03C10002C003C004120346E582D004D0033C
:0703CF00D00260030204B03C
:0C03D60090E679E50BF0C002C003C00403
:0E03E2001202BCE582D004D003D002600302F8
:0203F00004B057
:0C03F20090E679E50AF0C002C003C004E8
:0E03FE001202BCE582D004D003D002600302DC
:02040C0004B03A
:0E040E0090E678E04440F0C002C003C0041243
:0D041C00032C90E678E04480F0120312906B
:0E042900E67974A3F01202BCE582D004D00381
:0E043700D002707590E679E08A828B83F0C067
:0E04450002C003C0041202E9E582D004D00315
:05045300D0027059FD0C
:0C045800C3ED950C502A90E679E08A82F2
:0E0464008B83F0A3AA82AB83C002C003C00446
:0E047200C0051202E9E582D005D004D003D007
:0804800002702D0D8D0480D0E7
:0E04880090E678E04420F090E679E0C004129F
:0E04960002E9E582D004701290E678E044405E
:0C04A400F090E679E0C00412032CD004B4
:0304B0008C822219
:0C04B300AA82AB837C00E50F7003F58289
:0104BF00221A
:0A04C0007508647509007582A2C07A
:0E04CA0002C003C004120346E582D004D00332
:0704D800D002600302057071
:0C04DF0090E679E50EF0C002C003C004F6
:0E04EB001202BCE582D004D003D002600302EE
:0204F90005708C
:0C04FB0090E679E50DF0C002C003C004DB
:0E0507001202BCE582D004D003D002705CFD6D
:0C051500C3ED950F50478A828B83E0FEF7
:0E052100A3AA82AB8390E679EEF0903A04E054
:0D052F00FFEE2FF0903A02E0FEA3E0FF90F7
:0E053C003A0274012EF0E43FA3F0C002C003A7
:0E054A00C004C0051202BCE582D005D004D06A
:0A05580003D00270130D8D0480B370
:0E05620090E678E04440F0C00412032CD00470
:030570008C822258
:0A057300903A0EE0FA903A00E0F52D
:06057D000AA3E0F50B8A61
:0C0583000C90E740C0021203AAAB82D02B
:0E058F00027C00903A00E0FDA3E0FE903A00EE
:0A059D00EA2DF0EC3EA3F08B822261
:0B05A700AA82903A00E0F50DA3E0F5F9
:0905B2000E8A0F90E740C002120E
:0E05BB0004B3D0027B00903A00E0FCA3E0FD08
:0B05C900903A00EA2CF0EB3DA3F0227A
:0D05D400AA8290E6017480F0000000009003
:0E05E100E670E4F090E671F075B2FA74804AAC
:0E05EF00F58090000AC002120265D00253B4DB
:0A05FD00F774024AF5807A007B00D3
:0E0607002080208A048B057E007F00C3EC94C7
:0E061500FFED94FFEE9400EF64809480500798
:070623000ABA00E00B80DDC4
:07062A003080047AC8800251
:020631007A64E9
:0E063300903A0AEAF0903A06E4F0A3F0A3F041
:08064100A3F0903A05E4F02259
:060649007582200205D4B9
:06064F007582600205D473
:0306550002064951
:0E065800D280C28343B20990E6A3E0FA54FEBA
:0E066600F090E60B7403F00000000090E60137
:0E06740074A3F00000000090E6187409F00076
:0E06820000000090E6207402F00000000090DE
:0E069000E621E4F00000000090E6047480F023
:0E069E000000000090E6047402F0000000006E
:0E06AC0090E604E4F00000000090E609E4F09F
:0E06BA000000000090E602E4F0000000009056
:0B06C800E603E4F000000000C2802206
:0706D3003080047A1480025C
:0206DA007A0A9A
:0A06DC00903A0AE0FBEA2BF07A00E6
:0306E600BA400017
:0906E9005007D283C2830A80F499
:0E06F200D287D283C283D283C283D283C283D3
:0E070000D283C28353B2053080047A02800295
:02070E007A016E
:0E071000903A0AE0FBEA2BF0308105D281120C
:02071E0006587B
:06072000D28143B2022267
:0C07260085B51075B5FF903A0EE0FB9011
:0E0732003A06E0FCA3E0FDA3E0FEA3E0FF78A2
:0E0740000079007A00903A06EB2CF0E83DA319
:0E074E00F0E93EA3F0EA3FA3F090E68BE060F6
:0E075C0022FA759B40759AE775AF07903A0533
:05076A00E0F990E67BC0
:0E076F00E0F5B0D28329F9C283DAF5903A059D
:02077D00E9F0A1
:0B077F008510B590E68BE0FABA400050
:05078A0050030206D33C
:01078F002247
:01006C00286B
:01006D000191
:04006E005A54455843
:040072000A0C000074
:010076000089
:010077000187
:060078000300000000007F
:0C007E0000000000000000000000000076
:0A008A00303030303030303030308C
:010790002246
:0E07910090E683E4F07420F07410F07430F001
:0E079F0090E6837401F07421F07411F074314F
:0B07AD00F090E6837412F07432F0222A
:0A07B800AA82E51224E05003751236
:0107C2001F17
:0D07C30090E6BFE0701090E6BEE0FBC3952D
:0907D00012500690E6BEE0F5129D
:0C07D90075AF078A9B85119A759E4175CB
:0A07E5009DE790E67C7403F07A00B3
:0C07EF00C3EA9512501190E67BE0FB90ED
:0B07FB00E67CF090E67CE4F00A80E968
:0B080600E5120425E0FA90E740F090B6
:0E081100E7417403F090E68AE4F090E68BEA8B
:02081F00F022C5
:0E082100903A0CE0FAA3E0FBC374409AE49B0B
:08082F0050067C407D008004AE
:040837008A048B059F
:0E083B00903A0EECF07D00903A0CEAC39CF06F
:05084900EB9DA3F0226D
:0A084E00903A0FE0FABA3102803D43
:04085800BA3201228D
:05085C00BA3902801012
:0E086100BA6034D28090E6BAE024FF9283C2DF
:02086F008022E5
:0E087100903A04E4F0903A02F0A3F090E6BB57
:0E087F00E0FB7A0090E6BAE0FC7D00903A00C3
:08088D00EC4AF0ED4BA3F02250
:0308950002065503
:0808980090E6A0E04401F0220B
:0C08A000C020C0E0C0F0C082C083C002D5
:0E08AC00C003C004C005C006C007C000C001E4
:0E08BA00C0D075D00090E6B9E0FA903A0FF089
:0E08C80090E6B57401F090E6B9E0FA24F35022
:0408D60003020C56B7
:0708DA00EA2A2A9008E173ED
:0708E1000209080209BC0234
:0608E8000C56020A390261
:0608EE000C56020C56023C
:0608F4000AD1020BEC0228
:0608FA000BEE020BFF02F1
:060900000C04020C1502BC
:020906000C1AC9
:0A09080090E6B8E0FABA8002800D14
:05091200BA8102801E05
:05091700BA8202802FEE
:03091C00020C5674
:0E091F0090E740E4F090E741F090E68AF09017
:08092D00E68B7402F0020C5687
:0E09350090E740E4F090E741F090E68AF09001
:08094300E68B7402F0020C5671
:0C094B0090E6BCE0FA600FBA01028019CF
:05095700BA80028005DA
:05095C00BA812F801E8E
:0E09610090E6A0E0FA53020190E740EAF08031
:01096F003A4D
:0E09700090E6A1E0FA53020190E740EAF08021
:01097E002B4D
:0E097F0090E6A2E0FA53020190E740EAF08011
:01098D001C4D
:0E098E0090E6BCE0C31314540324A3F582E4E6
:0E099C0034E6F583E0FA53020190E740EAF0FA
:0E09AA0090E741E4F090E68AF090E68B74024C
:0409B800F0020C56E7
:0A09BC0090E6B8E0FABA02028003E8
:0309C600020C56CA
:0909C90090E6BAE06003020C564E
:0C09D20090E6BCE0FA600FBA010280154C
:0509DE00BA8002800553
:0509E300BA812380161B
:0B09E80090E6A0E0FA54FEF0020C566E
:0B09F30090E6A1E0FA54FEF0020C5662
:0B09FE0090E6A2E0FA54FEF0020C5656
:0E0A090090E6BCE0C31314540324A3FAE434B3
:0E0A1700E6FB90E6BCE0C31314540324A3F5E1
:0E0A250082E434E6F583E0FC5304FE8A828B03
:060A330083ECF0020C56FA
:0A0A390090E6B8E0FABA020280036A
:030A4300020C564C
:090A460090E6BAE06003020C56D0
:0C0A4F0090E6BCE0FA600FBA01028014CF
:050A5B00BA80028005D5
:050A6000BA81208014A2
:0A0A650090E6A0E0FA4401F08041A1
:0A0A6F0090E6A1E0FA4401F08037A0
:0A0A790090E6A2E0FA4401F0802D9F
:0E0A830090E6BCE0C31314540324A3FAE43439
:0E0A9100E6FB90E6BCE0C31314540324A3F567
:0E0A9F0082E434E6F583E0FC4304FE8A828B99
:030AAD0083ECF0E7
:0E0AB00090E6BCE05480C423541FFA90E6BCCC
:0E0ABE00E0FB740F5B420290E683EAF07420C6
:050ACC004AF0020C5687
:0A0AD10090E6BBE0FABA01028019BA
:050ADB00BA02028026B2
:050AE000BA0302804D85
:060AE500BA0603020BA596
:060AEB00BA0703020BB77D
:030AF100020BE213
:0A0AF4007A347B1290E6B3EBF09029
:080AFE00E6B47434F0020C565A
:0B0B060090E680E0FA30E7127A507BA6
:0A0B11001290E6B3EBF090E6B47426
:050B1B0050F0020C5631
:0A0B20007A787B1290E6B3EBF090B8
:080B2A00E6B47478F0020C56E9
:0A0B320090E6BAE0FABA0102800F63
:050B3C00BA0202801C5A
:050B4100BA0302802947
:050B4600BA044A8036EC
:060B4B007582077A077BAA
:040B5100128B11757D
:060B550012051207B802B0
:020B5B000C5636
:060B5D0075820C7A0C7B8E
:040B6300128B11756B
:060B6700121F1207B80284
:020B6D000C5624
:0A0B6F0075828A7A8A7B008B11756B
:060B7900120A1207B80287
:020B7F000C5612
:060B810075822B7A2B7B2C
:040B8700128B117547
:060B8B0012081207B80277
:020B91000C5600
:0A0B93007AA07B1290E6B3EBF0901D
:080B9D00E6B474A0F0020C564E
:0A0BA5007A467B1290E6B3EBF09065
:080BAF00E6B47446F0020C5696
:0B0BB70090E680E0FA30E7127A787BCD
:0A0BC2001290E6B3EBF090E6B47475
:050BCC0078F0020C5658
:0A0BD1007A507B1290E6B3EBF0902F
:070BDB00E6B47450F08074D1
:0A0BE20090E6A0E0FA4401F0806AFA
:020BEC0080681F
:0E0BEE0090E740E4F090E68AF090E68B740108
:030BFC00F080572F
:050BFF00120791805275
:0E0C040090E740E4F090E68AF090E68B7401F1
:030C1200F080412E
:050C1500120791803C74
:0E0C1A0090E6B8E0FABA823490E6BCE0C3136C
:0B0C280014540325E02411F582E4348D
:0C0C33003AF583E4F0A3F090E685E09031
:0D0C3F00E740F090E684E0FA90E741F09085
:0A0C4C00E68AE4F090E68B7402F0F3
:0B0C560090E6B8E0FABA4003020D7906
:050C6100BAC00280038F
:030C6600020DA3D9
:0E0C690090E6BFE0FB7A0090E6BEE0FC7D0066
:0E0C7700903A0CEC4AF0ED4BA3F012082190DD
:090C8500E6B9E0FABA220280137C
:060C8E00BA3003020D263E
:050C9400BA38028025C2
:050C9900BA3A02804997
:030C9E00020D6FD5
:0E0CA10090E6B5E4F090E68AF090E68B7428B9
:0D0CAF00F090E6B3E4F090E6B4746CF0024F
:020CBC000DA386
:0E0CBE0090E6BBE0FB7A0090E6BAE0FC7D0019
:0E0CCC00903A00EC4AF0ED4BA3F090E68AE47B
:0D0CDA00F0120573E58290E68BF0020DA389
:0E0CE700903A02E0FAA3E0FB8A0490E740ECAA
:0D0CF500F08B0290E741EAF0903A04E090A5
:0A0D0200E742F0750800750901755D
:0D0D0C0082A2120346AA8290E743EAF0900B
:0D0D1900E68AE4F090E68B7404F0020DA36E
:060D2600759B057A057BB8
:0C0D2C003A8B9A759E417A417BE78B9DC3
:0E0D3800C0027A071202ADD00253B2FD308124
:0D0D46000C90E740E4F0D28143B202800936
:090D530090E7407401F01206491A
:0E0D5C0090E7487401F090E68AE4F090E68B90
:050D6A007409F0803463
:0A0D6F0090E6A0E0FA4401F0802AAB
:0C0D790090E6BFE0700690E6BEE0601659
:0E0D8500903A107401F090E68BE4F05391EF79
:080D930090E65D7401F0801987
:080D9B0012084E90E68BE4F013
:0E0DA3005391EF90E65D7401F090E6A0E0FA47
:030DB1004480F08B
:0E0DB400D0D0D001D000D007D006D005D0049A
:0D0DC200D003D002D083D082D0F0D0E0D09A
:020DCF002032D0
:0E0DD100C0E0C082C0835391EF90E65D7402D3
:080DDF00F0D083D082D0E03295
:0E0DE700C0E0C082C0835391EF90E65D7404BB
:080DF500F0D083D082D0E0327F
:0E0DFD00C0E0C082C0835391EF90E65D7408A1
:080E0B00F0D083D082D0E03268
:0E0E1300C0E0C082C0835391EF90E65D741082
:080E2100F0D083D082D0E03252
:0E0E2900C0E0C082C0835391EF90E65D74205C
:080E3700F0D083D082D0E0323C
:0E0E3F00C0E0C082C0835391EF90E65D744026
:080E4D00F0D083D082D0E03226
:0C0E5500C020C0E0C0F0C082C083C0021A
:0E0E6100C003C004C005C006C007C000C00129
:0E0E6F00C0D075D000C2E8120821903A0FE002
:060E7D00FABA30028023E6
:050E8300BA38028005F1
:050E8800BA3A128019C6
:0E0E8D0090E68AE4F0120573E58290E68BF0A1
:020E9B008009CC
:090E9D0090E68AE4F090E68BF087
:0E0EA6005391EF90E65F7401F0D2E8D0D0D007
:0E0EB40001D000D007D006D005D004D003D066
:0C0EC20002D083D082D0F0D0E0D02032EB
:0C0ECE00C020C0E0C0F0C082C083C002A1
:0E0EDA00C003C004C005C006C007C000C001B0
:0E0EE800C0D075D000C2E8903A10E0FA602049
:0D0EF600903A10E4F090E6BFE0FB7A009027
:0E0F0300E6BEE0FC7D00903A0CEC4AF0ED4BAF
:050F1100A3F012084EE0
:0C0F1600120821903A0FE0FABA310302F1
:020F22000F4975
:060F2400BA3203020F4681
:060F2A00BA3903020F3B7F
:050F3000BA600280031D
:030F3500020F495F
:030F380000800E28
:0B0F3B0090E68BE0F5821205A7800312
:030F460012072669
:0E0F490090E68BE4F05391EF90E65F7402F0B7
:0E0F5700903A0CE0FAA3E0FB4A700890E6A086
:050F6500E0FA4480F0F9
:0E0F6A00D2E8D0D0D001D000D007D006D005FC
:0E0F7800D004D003D002D083D082D0F0D0E0DD
:030F8600D0203246
:0E0F8900C0E0C082C0835391EF90E65F740415
:080F9700F0D083D082D0E032DB
:0E0F9F00C0E0C082C0835391EF90E65F7408FB
:080FAD00F0D083D082D0E032C5
:0E0FB500C0E0C082C0835391EF90E65F7410DD
:080FC300F0D083D082D0E032AF
:0E0FCB00C0E0C082C0835391EF90E65F7420B7
:080FD900F0D083D082D0E03299
:0E0FE100C0E0C082C0835391EF90E65F744081
:080FEF00F0D083D082D0E03283
:0E0FF700C0E0C082C0835391EF90E65F74802B
:08100500F0D083D082D0E0326C
:0E100D0090E680E04408F090E6007412F09047
:0E101B000002120265538EF8D28143B202C267
:0E102900AFC2E89000437402F09000447401DE
:0E103700F090004574B8F090E668E04408F0D0
:0A1045009001007402F07AA07B080D
:0D104F008B04900101ECF0900102EAF0909A
:0A105C0001047402F07AD17B0D8BC1
:0E10660004900105ECF0900106EAF0900108FC
:0A1074007402F07AE77B0D8B049004
:0E107E000109ECF090010AEAF090010C7402F6
:0A108C00F07AFD7B0D8B0490010D3E
:0E109600ECF090010EEAF09001107402F07A76
:0A10A400137B0E8B04900111ECF099
:0C10AE00900112EAF09001147402F07A34
:0A10BA00297B0E8B04900115ECF069
:0C10C400900116EAF09001187402F07A16
:0A10D0003F7B0E8B04900119ECF039
:0C10DA0090011AEAF09001207402F07AF4
:0A10E600557B0E8B04900121ECF005
:0C10F000900122EAF09001247402F07AD2
:0A10FC00CE7B0E8B04900125ECF072
:0C110600900126EAF09001287402F07AB3
:0A111200897B0F8B04900129ECF09B
:0C111C0090012AEAF090012C7402F07A95
:0A1128009F7B0F8B0490012DECF06B
:0C11320090012EEAF09001307402F07A77
:0A113E00B57B0F8B04900131ECF03B
:0C114800900132EAF09001347402F07A59
:0A115400CB7B0F8B04900135ECF00B
:0C115E00900136EAF09001387402F07A3B
:0A116A00E17B0F8B04900139ECF0DB
:0C11740090013AEAF090013C7402F07A1D
:0A118000F77B0F8B0490013DECF0AB
:0E118A0090013EEAF05391EF90E65D747FF025
:0E11980090E65CE0FA447FF090E65F74FFF0B2
:0E11A60090E65E74FFF0D2E8D2AF90E61174CE
:0E11B400A0F00000000090E61074A0F0000013
:0D11C200000090E61274E0F00000000090C4
:0E11CF00E613E4F00000000090E614E4F000E7
:0D11DD0000000090E615E4F0000000009016
:0D11EA00E680E04482F090000A1202659059
:0711F700E680E054F7F0224E
:0311FE0012100DBF
:0212010080FE6D
:051207005A5445580097
:0E120C00696E74726166666963206578616D53
:0E121A00706C6520666F722055464D20312E97
:0312280031310061
:08122B0064656661756C7400D6
:0112330000BA
:0E12340012010002FFFFFF401A22000100001D
:0412420001020301A1
:0A1246000A060002FFFFFF4001004E
:0E12500009022700010104C032090400000356
:0E125E00FFFFFF0007058102000200070501E7
:0B126C000200020007058202000200E1
:011277000076
:0E12780009022700010104C03209040000032E
:0E128600FFFFFF000705810240000007050181
:0B12940002400000070582024000003D
:01129F00004E
:0412A0000403000043
:0212A400000048
:0112A6000047
:0112A700FF47
:0112A8000045
:0812A90000000000000000003D
:06023700E478FFF6D8FD9B
:08021500790DE94400601B7A39
:05021D00019012A4781D
:030222000C7592C6
:0A0225003AE493F2A308B8000205C2
:08022F0092D9F4DAF27592FF96
:08023D007800E84400600A7932
:03024500007592AF
:060248003AE4F309D8FCC2
:08024E00780CE84400600C7913
:0B02560001903A00E4F0A3D8FCD9FAB4
:03020800758120DD
:0A020B00121203E5826003020203F1
:0412030075820022CE
:00000001FF
