:03020000020208EF
:0302610002020393
:05020300121A7580FED7
:03000000020200F9
:0100030032CA
:01000B0032C2
:0100130032BA
:01001B0032B2
:0100230032AA
:01002B0032A2
:01003300329A
:01003B003292
:01004300328A
:01004B003282
:01005300327A
:01005B003272
:01006300326A
:0101000032CC
:0101040032C8
:0101080032C4
:01010C0032C0
:0101100032BC
:0101140032B8
:0101180032B4
:0101200032AC
:0101240032A8
:0101280032A4
:01012C0032A0
:01013000329C
:010134003298
:010138003294
:01013C003290
:01014000328C
:010148003284
:01014C003280
:01015000327C
:010154003278
:010158003274
:01015C003270
:01016000326C
:01017000325C
:010174003258
:010178003254
:01017C003250
:01018000324C
:010184003248
:010188003244
:01018C003240
:01019000323C
:010194003238
:010198003234
:01019C003230
:0101A000322C
:0101A8003224
:0101AC003220
:0101B000321C
:0101B4003218
:0101B8003214
:010264002277
:08026500AA82AB837C007D003E
:0B026D00C3EC9AED9B50147EB07F04A0
:050278001EBEFF011F86
:0B027D00EE4F70F70CBC00E80D80E5B0
:010288002253
:08028900AA82AB837C007D001A
:0B029100C3EC9AED9B50147E0A7F0026
:05029C001EBEFF011F62
:0B02A100EE4F70F70CBC00E80D80E58C
:0102AC00222F
:0E02AD0075AF0790E67BE090E67CF0DAF32276
:0102BB002220
:0202BC007A00C6
:0302BE00BAFF0084
:0D02C100500B90E678E0FB20E0030A80F08F
:0C02CE0090E678E0FA20E204EA20E10B60
:0B02DA0090E678E04440F075820122BD
:0402E50075820022FC
:0202E9007A0099
:0302EB00BAFF0057
:0D02EE00500B90E678E0FB20E0030A80F062
:0E02FB0090E678E0FA30E20B90E678E04440BE
:05030900F075820122E5
:04030E0075820022D2
:020312007A006F
:03031400BAFF002D
:0E031700500F90E678E0FB20E2047582002291
:030325000A80EC5F
:0403280075820122B7
:02032C007A0055
:03032E00BAFF0013
:0E033100500F90E678E0FB20E6047582002273
:03033F000A80EC45
:04034200758201229D
:09034600AA82C3E49521E433FB13
:0E034F0090E678E04480F0C002C00312031272
:0E035D00D003D00290E679EAF0C002C003128D
:0C036B0002BCE582D003D0027012E52233
:0C037700600A90E678E04440F012032C8D
:04038300758200225D
:0E038700EB601090000AC002C003120289D081
:0503950003D00280B559
:0C039A00E522600890E678E0FA4440F0AC
:0403A6007582012239
:0C03AA00AA82AB837C00E5257003F5827D
:0103B6002224
:0A03B7007521647522007582A2C052
:0E03C10002C003C004120346E582D004D0033C
:0703CF00D00260030204B03C
:0C03D60090E679E524F0C002C003C004EA
:0E03E2001202BCE582D004D003D002600302F8
:0203F00004B057
:0C03F20090E679E523F0C002C003C004CF
:0E03FE001202BCE582D004D003D002600302DC
:02040C0004B03A
:0E040E0090E678E04440F0C002C003C0041243
:0D041C00032C90E678E04480F0120312906B
:0E042900E67974A3F01202BCE582D004D00381
:0E043700D002707590E679E08A828B83F0C067
:0E04450002C003C0041202E9E582D004D00315
:05045300D0027059FD0C
:0C045800C3ED9525502A90E679E08A82D9
:0E0464008B83F0A3AA82AB83C002C003C00446
:0E047200C0051202E9E582D005D004D003D007
:0804800002702D0D8D0480D0E7
:0E04880090E678E04420F090E679E0C004129F
:0E04960002E9E582D004701290E678E044405E
:0C04A400F090E679E0C00412032CD004B4
:0304B0008C822219
:0C04B300AA82AB837C00E5287003F58270
:0104BF00221A
:0A04C0007521647522007582A2C048
:0E04CA0002C003C004120346E582D004D00332
:0704D800D002600302057071
:0C04DF0090E679E527F0C002C003C004DD
:0E04EB001202BCE582D004D003D002600302EE
:0204F90005708C
:0C04FB0090E679E526F0C002C003C004C2
:0E0507001202BCE582D004D003D002705CFD6D
:0C051500C3ED952850478A828B83E0FEDE
:0E052100A3AA82AB8390E679EEF0903A04E054
:0D052F00FFEE2FF0903A02E0FEA3E0FF90F7
:0E053C003A0274012EF0E43FA3F0C002C003A7
:0E054A00C004C0051202BCE582D005D004D06A
:0A05580003D00270130D8D0480B370
:0E05620090E678E04440F0C00412032CD00470
:030570008C822258
:0A057300903A20E0FA903A00E0F51B
:06057D0023A3E0F5248A2F
:0C0583002590E740C0021203AAAB82D012
:0E058F00027C00903A00E0FDA3E0FE903A00EE
:0A059D00EA2DF0EC3EA3F08B822261
:0B05A700AA82903A00E0F526A3E0F5E0
:0905B200278A2890E740C00212DC
:0E05BB0004B3D0027B00903A00E0FCA3E0FD08
:0B05C900903A00EA2CF0EB3DA3F0227A
:0D05D400AA8290E6017480F0000000009003
:0E05E100E670E4F090E671F075B2FA74804AAC
:0E05EF00F58090000AC002120265D00253B4DB
:0A05FD00F774024AF5807A007B00D3
:0E0607002080208A048B057E007F00C3EC94C7
:0E061500FFED94FFEE9400EF64809480500798
:070623000ABA00E00B80DDC4
:07062A003080047AC8800251
:020631007A64E9
:0E063300903A0AEAF0903A06E4F0A3F0A3F041
:08064100A3F0903A05E4F02259
:060649007582200205D4B9
:06064F007582600205D473
:0306550002064951
:01065800227F
:070659003080047A148002D6
:020660007A0A14
:0A066200903A0AE0FBEA2BF07A0060
:03066C00BA400091
:09066F005007D283C2830A80F413
:0E067800D287D283C283D283C283D283C2834D
:0E068600D283C28353B2053080047A02800210
:020694007A01E9
:0E069600903A0AE0FBEA2BF0308105D2811287
:0206A4000658F6
:0606A600D28143B20222E2
:0C06AC0085B52975B5FF903A20E0FB9061
:0E06B8003A06E0FCA3E0FDA3E0FEA3E0FF781D
:0E06C6000079007A00903A06EB2CF0E83DA394
:0E06D400F0E93EA3F0EA3FA3F090E68BE06071
:0E06E20022FA759B40759AE775AF07903A05AE
:0506F000E0F990E67B3B
:0E06F500E0F5B0D28329F9C283DAF5903A0518
:02070300E9F01B
:0B0705008529B590E68BE0FABA4000B1
:05071000500302065930
:0107150022C1
:0E07160043B610E58253B1EF53B1DF1343B188
:090724002053B1EF500343B11062
:0E072D0053B1DF1343B12053B1EF500343B17A
:01073B0010AD
:0E073C0053B1DF1343B12053B1EF500343B16B
:01074A00109E
:0E074B0053B1DF1343B12053B1EF500343B15C
:01075900108F
:0E075A0053B1DF1343B12053B1EF500343B14D
:010768001080
:0E07690053B1DF1343B12053B1EF500343B13E
:010777001071
:0E07780053B1DF1343B12053B1EF500343B12F
:010786001062
:0E07870053B1DF1343B12053B1EF500343B120
:010795001053
:0E07960053B1DF1343B12053B1EF30D0034312
:0207A400B11092
:0E07A60053B1DF43B12043B11053B1DF43B173
:0807B4002053B1DF43B1202204
:0B07BC0053B6EF53B1DF43B120A9009A
:0E07C700E5B15410600853B1DF43B120D9F200
:0E07D50053B1DF43B120E5B154109401E91394
:0E07E300F953B1DF43B120E5B154109401E9A0
:0E07F10013F953B1DF43B120E5B15410940168
:0E07FF00E913F953B1DF43B120E5B154109472
:0E080D0001E913F953B1DF43B120E5B15410F6
:0E081B009401E913F953B1DF43B120E5B15464
:0E082900109401E913F953B1DF43B120E5B19A
:0E08370054109401E913F953B1DF43B120E5E9
:0E084500B154109401E91364FFF953B1DF437D
:0E085300B120E5B154109401E9500520D020E9
:02086100800312
:0308630030D01B77
:0E08660053B1DF43B120E5B15410601553B11A
:0D087400DF43B120E5B154106009898222F4
:0608810053B1DF43B1207A
:0608870053B1DF43B12074
:0A088D00903A0C7401F0758200220D
:0E08970053B1EF43B12043B63043B11000001F
:0608A500000000007A00D3
:0308AB00BA100080
:0B08AE00500953B1DF43B1200A80F273
:0C08B9007582C212071675820202071633
:0E08C50075820C1207167582CF120716758207
:0E08D3000112071675820012071675820112B7
:0508E10007160207BC30
:0408E6007A007B0019
:0E08EA008A048B057E007F00C3EC9440ED94E1
:0E08F8009CEE9400EF64809480501FC002C0FC
:0E090600031208C5E582D003D00230E7079047
:060914003A0CE0FC60015A
:01091A0022BA
:07091B000ABA00CB0B80C8F3
:07092200903A0C7405F0226D
:0D0929001208977582C112071675825912C7
:0C09360007167582E01207167582FF128A
:0C09420007167582881207167582D812FD
:0C094E0007167582CD120716758245123F
:0C095A0007167582AB1207167582891211
:0A09660007167582121207167A00B8
:0E097000758280C0021207161207BCE582D005
:0D097E00025402FB7007903A0CE0FB60048D
:04098B007B0080026B
:02098F007B01EA
:070991000AEA6003EB70D8D5
:09099800EB6006903A0C7402F0C9
:0109A1002233
:0E09A200AA8275824CC002120716D0028A8209
:0D09B00012071675820112071675820012DB
:0909BD0007167582011207168568
:0509C6002A8202071661
:0D09CB007582C1120716758200120716759D
:0C09D8002A007582CA1209A253B1EF4335
:0309E400B120221D
:0C09E700752A007582CA1209A253B1EFF4
:0409F30043B12022CA
:0C09F700AA82AB83E52FFC7003F582227E
:0C0A0300752A437582CAC002C003C004FB
:0A0A0F001209A275826B120716ADE2
:070A19002B8D8212071685E8
:060A20002C82120716856E
:060A26002D821207168567
:090A2C002E821207167582A01239
:0E0A35000716D004EC14F582C00412071675E3
:0D0A43008224120716D004D003D0028C05C7
:0E0A5000ED602A903A0CE0FE7023C002C00355
:0E0A5E00C004C0051207BCAE82D005D004D083
:0E0A6C0003D0028A828B83EEF0A3AA82AB83B2
:030A7A001D80D309
:060A7D00ECC39DF582228E
:080A8300AA82E536FB70012296
:0C0A8B008A2A7582CAC0031209A2758273
:090A97006B120716AA328A8212C2
:060AA000071685338212E7
:060AA600071685348212E0
:060AAC00071685358212D9
:0E0AB20007167582A0120716D003EB14F5820A
:0E0AC000C003120716758264120716D003AA2F
:030ACE0030AC3118
:0E0AD100EB601F8A828C83E0FDA3AA82AC83B7
:0E0ADF008D82C002C003C004120716D004D0DE
:060AED0003D0021B80DEB5
:010AF30022E0
:0C0AF40085822A7582CA1209A275824C04
:080B0000120716AA378A8212BF
:060B080007168538821279
:060B0E0007168539821272
:060B14000716853A82126B
:090B1A000716758200120716028D
:020B230008E6E2
:0B0B2500AA82752A4C7582CAC0021219
:0E0B300009A275824C120716D00274204AF5F5
:0E0B3E008212071675820012071675828F123A
:090B4C00071675820012071685D8
:060B55003B8212071602AC
:020B5B0008E6AA
:0D0B5D0043B62090001412028953B1DF90BE
:090B6A00000512028943B12022AA
:0C0B7300903A13E4F0903A0DF0A3F090DB
:0E0B7F003A0F7440F0E4A3F0903A127405F0BF
:0A0B8D00903A117409F01209299042
:070B97003A0CE0FA600122B4
:070B9E00752B90752C00750A
:060BA5002D00752E017504
:060BAB002F03903A1B121B
:0A0BB10009F7903A0CE0FA60012207
:0D0BBB001209CB903A1BE0FABA1E02800727
:070BC800903A0C7403F022C7
:0A0BCF00903A1CE0FAE4BA97010422
:0E0BD900FB6019903A1DE0FCBC4C11903A0DE7
:0E0BE7007410F0A37401F0903A1A7482F02298
:0E0BF500EB6019903A1DE0FBBB4E11903A0DDB
:0E0C03007490F0A37401F0903A1A7483F022FA
:0E0C1100BA9822903A1DE0FABA461A903A0DAF
:0E0C1F007410F0A37402F0903A0F7480F0E4A9
:090C2D00A3F0903A1A7484F0223D
:070C3600903A0C7403F02258
:0A0C3D00903A20E0FA7003F58222DD
:0E0C4700C002120929D002903A0CE0FBB40161
:010C5500009E
:0C0C5600E433FB6022903A16E0F52BA37B
:0A0C6200E0F52CA3E0F52DA3E0F56A
:090C6C002E8A2F90E740C002120D
:080C750009F7AB82D0028002F6
:020C7D007B00FA
:0A0C7F008B3CC0021209CBD002909A
:0E0C89003A16E0FCA3E0FDA3E0FEA3E0FF7836
:0E0C97000079007B00903A16EA2CF0E83DA3AD
:0C0CA500F0E93EA3F0EB3FA3F0853C8299
:010CB1002220
:0D0CB200903A20E0FAC002120929D0029009
:070CBF003A0CE0FB6001228A
:070CC6007530407531E79025
:080CCD003A16E0F532A3E0F550
:080CD50033A3E0F534A3E0F5C0
:090CDD00358A36758223C002122B
:0E0CE6000A83D002903A1EE0FBA3E0FC4B70A4
:0E0CF40036903A16E0FBA3E0FCA3E0FDA3E07F
:0E0D0200FE8D07903A1AE0F8C3EF9850047F78
:030D100025800239
:020D13007F2D32
:050D15008B378C388DC6
:080D1A00398E3A8F82C00212EB
:090D22000AF41209CBD00280078B
:070D2B00C0021209E7D0022B
:0E0D3200903A16E0FBA3E0FCA3E0FDA3E0FE78
:0E0D40007F0078007900903A16EA2BF0EF3C25
:0B0D4E00A3F0E83DA3F0E93EA3F02273
:01006C00286B
:01006D000191
:04006E005A54455843
:040072000A0C000074
:010076000089
:010077000187
:060078001300000000006F
:0C007E0000000000000000000000000076
:0A008A00303030303030303030308C
:010D59002277
:0E0D5A0090E683E4F07420F07410F07430F032
:0E0D680090E6837401F07421F07411F0743180
:020D7600F02269
:0A0D7800AA82E50924E05003750982
:010D82001F51
:0D0D830090E6BFE0701090E6BEE0FBC39567
:090D900009500690E6BEE0F509E9
:0C0D990075AF078A9B85089A759E41750E
:0A0DA5009DE790E67C7403F07A00ED
:0C0DAF00C3EA9509501190E67BE0FB9030
:0B0DBB00E67CF090E67CE4F00A80E9A2
:0B0DC600E5090425E0FA90E740F090FA
:0E0DD100E7417403F090E68AE4F090E68BEAC6
:020DDF00F02200
:0E0DE100903A1EE0FAA3E0FBC374409AE49B34
:080DEF0050067C407D008004E9
:040DF7008A048B05DA
:0E0DFB00903A20ECF07D00903A1EEAC39CF086
:050E0900EB9DA3F022A7
:0A0E0E00903A21E0FABA3102804662
:040E1800BA320122C7
:050E1C00BA3902801943
:050E2100BA4902803B0C
:050E2600BA4B02803907
:060E2B00BA4C03020ED1D7
:060E3100BA4D03020F8A16
:030E3700020FD0D7
:0E0E3A00903A04E4F0903A02F0A3F090E6BB88
:0E0E4800E0FB7A0090E6BAE0FC7D00903A00F4
:080E5600EC4AF0ED4BA3F02281
:030E5E0002065534
:030E6100020B5D24
:0E0E640090E6BAE0FAA3E0FBA3E0FCA3E0FDF9
:0E0E7200903A16EAF0A3EBF074802CA3F0E4A3
:0E0E80003DA3F090E6BAE0703390E6BBE0FAD6
:0E0E8E0020E02B90E6BFE0FABA022390E6BE09
:0E0E9C00E0701D90E6BBE0FAA3E0C313CA139A
:0E0EAA00CAFB903A0DE0FCA3E0FDC3EA9CEB0E
:040EB8009D50012226
:0E0EBC00903A0C7404F090E6A0E04401F0902F
:070ECA003A1EE4F0A3F02240
:0E0ED10090E6BAE0FAA3E0FBA3E0FCA3E0FD8C
:0E0EDF00903A16EAF0A3EBF0748C2CA3F0E42A
:0E0EED003DA3F090E6BAE0FA541F6002803395
:0E0EFB0090E6BFE0702D90E6BEE0FABA20252A
:0E0F090090E6BAE0FAA3E0C403CAC40354079A
:0E0F17006ACA5407CA6ACAFB903A0FE0FCA3EC
:090F2500E0FDC3EA9CEB9D4015C0
:0E0F2E00903A0C7404F090E6A0E04401F090BC
:070F3C003A1EE4F0A3F022CD
:0B0F4300120929903A0CE0FA6001222C
:070F4E007530407531E7909A
:080F55003A16E0F532A3E0F5C5
:080F5D0033A3E0F534A3E0F535
:080F6500357536207582331248
:070F6D000A83903A16E0F53B
:080F740037A3E0F538A3E0F516
:090F7C0039A3E0F53A7582351243
:050F85000AF40209CB93
:0D0F8A0090E6BEE0701590E6BFE0700F909D
:0E0F9700E6BDE0700990E6BCE0FA24F85015C3
:0E0FA500903A0C7404F090E6A0E04401F09045
:070FB3003A1EE4F0A3F02256
:0D0FBA0012092990E6BCE0FA90E6BAE0F5D5
:070FC7003B8A82120B250298
:020FCE0009CB4D
:080FD00090E6A0E04401F022CC
:0C0FD800C020C0E0C0F0C082C083C00296
:0E0FE400C003C004C005C006C007C000C001A5
:0E0FF200C0D075D00090E6B9E0FA903A21F038
:0E10000090E6B57401F090E6B9E0FA24F350E2
:04100E000302138E38
:07101200EA2A2A901019736D
:071019000210400210F40276
:06102000138E02117102A3
:06102600138E02138E027E
:06102C0012090213240268
:0610320013260213370231
:06103800133C02134D02FF
:02103E0013524B
:0A10400090E6B8E0FABA8002800DD5
:05104A00BA8102801EC6
:05104F00BA8202802FAF
:0310540002138EF6
:0E10570090E740E4F090E741F090E68AF090D8
:08106500E68B7402F002138E09
:0E106D0090E740E4F090E741F090E68AF090C2
:08107B00E68B7402F002138EF3
:0C10830090E6BCE0FA600FBA0102801990
:05108F00BA800280059B
:05109400BA812F801E4F
:0E10990090E6A0E0FA53020190E740EAF080F2
:0110A7003A0E
:0E10A80090E6A1E0FA53020190E740EAF080E2
:0110B6002B0E
:0E10B70090E6A2E0FA53020190E740EAF080D2
:0110C5001C0E
:0E10C60090E6BCE0C31314540324A3F582E4A7
:0E10D40034E6F583E0FA53020190E740EAF0BB
:0E10E20090E741E4F090E68AF090E68B74020D
:0410F000F002138E69
:0A10F40090E6B8E0FABA02028003A9
:0310FE0002138E4C
:0911010090E6BAE0600302138ECF
:0C110A0090E6BCE0FA600FBA010280150C
:05111600BA8002800513
:05111B00BA81238016DB
:0B11200090E6A0E0FA54FEF002138EEF
:0B112B0090E6A1E0FA54FEF002138EE3
:0B11360090E6A2E0FA54FEF002138ED7
:0E11410090E6BCE0C31314540324A3FAE43474
:0E114F00E6FB90E6BCE0C31314540324A3F5A2
:0E115D0082E434E6F583E0FC5304FE8A828BC4
:06116B0083ECF002138E7C
:0A11710090E6B8E0FABA020280032B
:03117B0002138ECE
:09117E0090E6BAE0600302138E52
:0C11870090E6BCE0FA600FBA0102801490
:05119300BA8002800596
:05119800BA8120801463
:0A119D0090E6A0E0FA4401F0804162
:0A11A70090E6A1E0FA4401F0803761
:0A11B10090E6A2E0FA4401F0802D60
:0E11BB0090E6BCE0C31314540324A3FAE434FA
:0E11C900E6FB90E6BCE0C31314540324A3F528
:0E11D70082E434E6F583E0FC4304FE8A828B5A
:0311E50083ECF0A8
:0E11E80090E6BCE05480C423541FFA90E6BC8D
:0E11F600E0FB740F5B420290E683EAF0742087
:051204004AF002138E08
:0A12090090E6BBE0FABA010280197A
:05121300BA0202802672
:05121800BA0302804D45
:06121D00BA06030212DD17
:06122300BA07030212EFFE
:0312290002131A93
:0A122C007A9E7B1A90E6B3EBF09077
:08123600E6B4749EF002138E71
:0B123E0090E680E0FA30E7127ABA7BFD
:0A1249001A90E6B3EBF090E6B474DF
:05125300BAF002138E49
:0A1258007ADC7B1A90E6B3EBF0900D
:08126200E6B474DCF002138E07
:0A126A0090E6BAE0FABA0102800F24
:05127400BA0202801C1B
:05127900BA0302802908
:05127E00BA044A8036AD
:0612830075827C7A7C7B81
:041289001A8B08753F
:06128D000905120D7802B4
:02129300138EB8
:061295007582817A817B65
:04129B001A8B08752D
:06129F000915120D780292
:0212A500138EA6
:0A12A70075828A7A8A7B008B087535
:0612B100090A120D78028B
:0212B700138E94
:0612B9007582967A967B17
:0412BF001A8B087509
:0612C3000908120D78027B
:0212C900138E82
:0A12CB007AFE7B1A90E6B3EBF09078
:0812D500E6B474FEF002138E72
:0A12DD007AB07B1A90E6B3EBF090B4
:0812E700E6B474B0F002138EAE
:0B12EF0090E680E0FA30E7127ADC7B2A
:0A12FA001A90E6B3EBF090E6B4742E
:05130400DCF002138E75
:0A1309007ABA7B1A90E6B3EBF0907D
:07131300E6B474BAF0807427
:0A131A0090E6A0E0FA4401F0806ABA
:021324008068DF
:0E13260090E740E4F090E68AF090E68B7401C8
:03133400F08057EF
:05133700120D5A805266
:0E133C0090E740E4F090E68AF090E68B7401B2
:03134A00F08041EF
:05134D00120D5A803C66
:0E13520090E6B8E0FABA823490E6BCE0C3132D
:0B13600014540325E02423F582E4343C
:0C136B003AF583E4F0A3F090E685E090F2
:0D137700E740F090E684E0FA90E741F09046
:0A138400E68AE4F090E68B7402F0B4
:0B138E0090E6B8E0FABA4003021574C4
:05139900BAC002800350
:03139E0002159E97
:0E13A10090E6BFE0FB7A0090E6BEE0FC7D0027
:0E13AF00903A1EEC4AF0ED4BA3F0120DE190C7
:0913BD00E6B9E0FABA220280311F
:0613C600BA300302147CA2
:0513CC00BA3802804365
:0513D100BA3A0280673A
:0613D600BA48030214C630
:0613DC00BA4A030214EC02
:0613E200BA4B030214ECFB
:0613E800BA4C030214ECF4
:0613EE00BA4D030214ECED
:0313F40002156A75
:0E13F70090E6B5E4F090E68AF090E68B74285C
:0D140500F090E6B3E4F090E6B4746CF002F1
:02141200159E25
:0E14140090E6BBE0FB7A0090E6BAE0FC7D00BB
:0E142200903A00EC4AF0ED4BA3F090E68AE41D
:0D143000F0120573E58290E68BF002159E28
:0E143D00903A02E0FAA3E0FB8A0490E740EC4C
:0D144B00F08B0290E741EAF0903A04E09047
:0A145800E742F075210075220175CE
:0D14620082A2120346AA8290E743EAF090AE
:0D146F00E68AE4F090E68B7404F002159E0E
:06147C00759B057A057B5B
:0C1482003A8B9A759E417A417BE78B9D66
:0E148E00C0027A071202ADD00253B2FD3081C7
:0D149C000C90E740E4F0D28143B2028009D9
:0914A90090E7407401F0120649BD
:0E14B20090E7487401F090E68AE4F090E68B33
:0614C0007409F002159E04
:0614C600759B0C7A0C7B03
:0C14CC003A8B9A759E40759DE7C0027A2D
:0E14D800071202ADD00290E68AE4F090E68B97
:0614E6007407F002159EE0
:0E14EC0090E6BAE0FAA3E0FBA3E0FCA3E0FD6B
:0E14FA00903A16EAF0A3EBF0A3ECF0A3EDF0AD
:0E15080090E6B9E0FEBE4B13903A16EAF0A34F
:0D151600EBF074802CA3F0E43DA3F08037CF
:0E15230090E6B9E0FEBE4C13903A16EAF0A333
:0D153100EBF0748C2CA3F0E43DA3F0801CC3
:0E153E0090E6B9E0FEBE4D14903A1674202AD5
:0E154C00F0E43BA3F0748F3CA3F0E43DA3F069
:0E155A0090E68AE4F0120C3DE58290E68BF0FC
:021568008034CD
:0A156A0090E6A0E0FA4401F0802AA8
:0C15740090E6BFE0700690E6BEE0601656
:0E158000903A227401F090E68BE4F05391EF64
:08158E0090E65D7401F0801984
:08159600120E0E90E68BE4F04A
:0E159E005391EF90E65D7401F090E6A0E0FA44
:0315AC004480F088
:0E15AF00D0D0D001D000D007D006D005D00497
:0D15BD00D003D002D083D082D0F0D0E0D097
:0215CA002032CD
:0E15CC00C0E0C082C0835391EF90E65D7402D0
:0815DA00F0D083D082D0E03292
:0E15E200C0E0C082C0835391EF90E65D7404B8
:0815F000F0D083D082D0E0327C
:0E15F800C0E0C082C0835391EF90E65D74089E
:08160600F0D083D082D0E03265
:0E160E00C0E0C082C0835391EF90E65D74107F
:08161C00F0D083D082D0E0324F
:0E162400C0E0C082C0835391EF90E65D742059
:08163200F0D083D082D0E03239
:0E163A00C0E0C082C0835391EF90E65D744023
:08164800F0D083D082D0E03223
:0C165000C020C0E0C0F0C082C083C00217
:0E165C00C003C004C005C006C007C000C00126
:0E166A00C0D075D000C2E8120DE1903A21E028
:07167800FABA30030216D795
:05167F00BA38028026CC
:06168400BA3A030216D77A
:05168A00BA4802802CAB
:06168F00BA4A030216BE78
:06169500BA4B030216BE71
:06169B00BA4C030216BE6A
:0616A100BA4D030216BE63
:0316A7000216CE5A
:0E16AA0090E68AE4F0120573E58290E68BF07C
:0316B8000216D740
:0316BB0000801993
:0E16BE0090E68AE4F0120C3DE58290E68BF097
:0216CC00800993
:0916CE0090E68AE4F090E68BF04E
:0E16D7005391EF90E65F7401F0D2E8D0D0D0CE
:0E16E50001D000D007D006D005D004D003D02D
:0C16F30002D083D082D0F0D0E0D02032B2
:0C16FF00C020C0E0C0F0C082C083C00268
:0E170B00C003C004C005C006C007C000C00176
:0E171900C0D075D000C2E8903A22E0FA6020FD
:0D172700903A22E4F090E6BFE0FB7A0090DB
:0E173400E6BEE0FC7D00903A1EEC4AF0ED4B64
:05174200A3F0120E0EE1
:0C174700120DE1903A21E0FABA310302E1
:0217530017BEBF
:05175500BA3202802BF6
:05175A00BA3902801AFB
:05175F00BA49028027D9
:06176400BA4B0302178FCF
:06176A00BA4C030217BE99
:06177000BA4D030217BD93
:031776000217BE99
:0C17790090E68BE0F5821205A70217BE77
:061785001206AC0217BEC3
:04178B00000217BE83
:0A178F00903A20E0FA70030217BE42
:09179900903A0CE4F0120CB2903D
:0917A2003A0CE0FA70030217BED4
:0E17AB0090E6A0E0FA4401F0903A1EE4F0A3AC
:0417B900F00217BE65
:0117BD00002B
:0E17BE0090E68BE4F05391EF90E65F7402F03A
:0E17CC00903A1EE0FAA3E0FB4A700890E6A0F7
:0517DA00E0FA4480F07C
:0E17DF00D2E8D0D0D001D000D007D006D0057F
:0E17ED00D004D003D002D083D082D0F0D0E060
:0317FB00D02032C9
:0E17FE00C0E0C082C0835391EF90E65F740498
:08180C00F0D083D082D0E0325D
:0E181400C0E0C082C0835391EF90E65F74087D
:08182200F0D083D082D0E03247
:0E182A00C0E0C082C0835391EF90E65F74105F
:08183800F0D083D082D0E03231
:0E184000C0E0C082C0835391EF90E65F742039
:08184E00F0D083D082D0E0321B
:0E185600C0E0C082C0835391EF90E65F744003
:08186400F0D083D082D0E03205
:0E186C00C0E0C082C0835391EF90E65F7480AD
:08187A00F0D083D082D0E032EF
:0E18820090E680E04408F090E6007412F090CA
:0E1890000002120265538EF8D28143B202C2EA
:0E189E00AFC2E89000437402F0900044740161
:0E18AC00F090004574B8F090E668E04408F053
:0A18BA009001007402F07AD87B0F51
:0D18C4008B04900101ECF0900102EAF0901D
:0A18D10001047402F07ACC7B158B41
:0E18DB0004900105ECF0900106EAF09001087F
:0A18E9007402F07AE27B158B049084
:0E18F3000109ECF090010AEAF090010C740279
:0A190100F07AF87B158B0490010DBD
:0E190B00ECF090010EEAF09001107402F07AF8
:0A1919000E7B168B04900111ECF018
:0C192300900112EAF09001147402F07AB6
:0A192F00247B168B04900115ECF0E8
:0C193900900116EAF09001187402F07A98
:0A1945003A7B168B04900119ECF0B8
:0C194F0090011AEAF09001207402F07A76
:0A195B00507B168B04900121ECF084
:0C196500900122EAF09001247402F07A54
:0A197100FF7B168B04900125ECF0BB
:0C197B00900126EAF09001287402F07A36
:0A198700FE7B178B04900129ECF0A1
:0C19910090012AEAF090012C7402F07A18
:0A199D00147B188B0490012DECF070
:0C19A70090012EEAF09001307402F07AFA
:0A19B3002A7B188B04900131ECF040
:0C19BD00900132EAF09001347402F07ADC
:0A19C900407B188B04900135ECF010
:0C19D300900136EAF09001387402F07ABE
:0A19DF00567B188B04900139ECF0E0
:0C19E90090013AEAF090013C7402F07AA0
:0A19F5006C7B188B0490013DECF0B0
:0E19FF0090013EEAF05391EF90E65D747FF0A8
:0E1A0D0090E65CE0FA447FF090E65F74FFF034
:0E1A1B0090E65E74FFF0D2E8D2AF90E6117450
:0E1A2900A0F00000000090E61074A0F0000095
:0E1A3700000090E612E4F00000000090E613BC
:0E1A4500E4F00000000090E614E4F000000061
:0E1A53000090E615E4F000000000120B739006
:0D1A6100E680E04482F090000A12026590D9
:071A6E00E680E054F7F022CE
:031A7500021882D2
:051A7C005A544558001A
:0E1A81006E766D7465737420666F7220455822
:071A8F00502D312E31300013
:081A960064656661756C740063
:0E1A9E0012010002FFFFFF401A2200010000AB
:041AAC00010203012F
:0A1AB0000A060002FFFFFF400100DC
:0E1ABA0009022000010104C0320904000002EC
:0E1AC800FFFFFF000705810200020007050175
:041AD6000200020008
:021ADA0000000A
:0E1ADC0009022000010104C0320904000002CA
:0E1AEA00FFFFFF000705810240000007050115
:041AF80002400000A8
:021AFC000000E8
:041AFE0004030000DD
:021B02000000E1
:011B040000E0
:011B0500FFE0
:011B060000DE
:081B07000000000000000000D6
:06023700E478FFF6D8FD9B
:08021500790DE94400601B7A39
:05021D0001901B0278B6
:030222001E7592B4
:0A0225003AE493F2A308B8000205C2
:08022F0092D9F4DAF27592FF96
:08023D007800E84400600A7932
:03024500007592AF
:060248003AE4F309D8FCC2
:08024E00781EE84400600C7901
:0B02560001903A00E4F0A3D8FCD9FAB4
:0302080075813CC1
:0A020B00121A78E582600302020374
:041A78007582002251
:00000001FF
