:03020000020208EF
:0302610002020393
:0502030012165E80FEF2
:03000000020200F9
:0100030032CA
:01000B0032C2
:0100130032BA
:01001B0032B2
:0100230032AA
:01002B0032A2
:01003300329A
:01003B003292
:01004300328A
:01004B003282
:01005300327A
:01005B003272
:01006300326A
:0101000032CC
:0101040032C8
:0101080032C4
:01010C0032C0
:0101100032BC
:0101140032B8
:0101180032B4
:0101200032AC
:0101240032A8
:0101280032A4
:01012C0032A0
:01013000329C
:010134003298
:010138003294
:01013C003290
:01014000328C
:010148003284
:01014C003280
:01015000327C
:010154003278
:010158003274
:01015C003270
:01016000326C
:01017000325C
:010174003258
:010178003254
:01017C003250
:01018000324C
:010184003248
:010188003244
:01018C003240
:01019000323C
:010194003238
:010198003234
:01019C003230
:0101A000322C
:0101A8003224
:0101AC003220
:0101B000321C
:0101B4003218
:0101B8003214
:010264002277
:08026500AA82AB837C007D003E
:0B026D00C3EC9AED9B50147EB07F04A0
:050278001EBEFF011F86
:0B027D00EE4F70F70CBC00E80D80E5B0
:010288002253
:08028900AA82AB837C007D001A
:0B029100C3EC9AED9B50147E0A7F0026
:05029C001EBEFF011F62
:0B02A100EE4F70F70CBC00E80D80E58C
:0102AC00222F
:0E02AD0075AF0790E67BE090E67CF0DAF32276
:0102BB002220
:0202BC007A00C6
:0302BE00BAFF0084
:0D02C100500B90E678E0FB20E0030A80F08F
:0C02CE0090E678E0FA20E204EA20E10B60
:0B02DA0090E678E04440F075820122BD
:0402E50075820022FC
:0202E9007A0099
:0302EB00BAFF0057
:0D02EE00500B90E678E0FB20E0030A80F062
:0E02FB0090E678E0FA30E20B90E678E04440BE
:05030900F075820122E5
:04030E0075820022D2
:020312007A006F
:03031400BAFF002D
:0E031700500F90E678E0FB20E2047582002291
:030325000A80EC5F
:0403280075820122B7
:02032C007A0055
:03032E00BAFF0013
:0E033100500F90E678E0FB20E6047582002273
:03033F000A80EC45
:04034200758201229D
:09034600AA82C3E49508E433FB2C
:0E034F0090E678E04480F0C002C00312031272
:0E035D00D003D00290E679EAF0C002C003128D
:0C036B0002BCE582D003D0027012E5094C
:0C037700600A90E678E04440F012032C8D
:04038300758200225D
:0E038700EB601090000AC002C003120289D081
:0503950003D00280B559
:0C039A00E509600890E678E0FA4440F0C5
:0403A6007582012239
:0C03AA00AA82AB837C00E50C7003F58296
:0103B6002224
:0A03B7007508647509007582A2C084
:0E03C10002C003C004120346E582D004D0033C
:0703CF00D00260030204B03C
:0C03D60090E679E50BF0C002C003C00403
:0E03E2001202BCE582D004D003D002600302F8
:0203F00004B057
:0C03F20090E679E50AF0C002C003C004E8
:0E03FE001202BCE582D004D003D002600302DC
:02040C0004B03A
:0E040E0090E678E04440F0C002C003C0041243
:0D041C00032C90E678E04480F0120312906B
:0E042900E67974A3F01202BCE582D004D00381
:0E043700D002707590E679E08A828B83F0C067
:0E04450002C003C0041202E9E582D004D00315
:05045300D0027059FD0C
:0C045800C3ED950C502A90E679E08A82F2
:0E0464008B83F0A3AA82AB83C002C003C00446
:0E047200C0051202E9E582D005D004D003D007
:0804800002702D0D8D0480D0E7
:0E04880090E678E04420F090E679E0C004129F
:0E04960002E9E582D004701290E678E044405E
:0C04A400F090E679E0C00412032CD004B4
:0304B0008C822219
:0C04B300AA82AB837C00E50F7003F58289
:0104BF00221A
:0A04C0007508647509007582A2C07A
:0E04CA0002C003C004120346E582D004D00332
:0704D800D002600302057071
:0C04DF0090E679E50EF0C002C003C004F6
:0E04EB001202BCE582D004D003D002600302EE
:0204F90005708C
:0C04FB0090E679E50DF0C002C003C004DB
:0E0507001202BCE582D004D003D002705CFD6D
:0C051500C3ED950F50478A828B83E0FEF7
:0E052100A3AA82AB8390E679EEF0903A05E053
:0D052F00FFEE2FF0903A03E0FEA3E0FF90F6
:0E053C003A0374012EF0E43FA3F0C002C003A6
:0E054A00C004C0051202BCE582D005D004D06A
:0A05580003D00270130D8D0480B370
:0E05620090E678E04440F0C00412032CD00470
:030570008C822258
:0A057300903A16E0FA903A01E0F524
:06057D000AA3E0F50B8A61
:0C0583000C90E740C0021203AAAB82D02B
:0E058F00027C00903A01E0FDA3E0FE903A01EC
:0A059D00EA2DF0EC3EA3F08B822261
:0B05A700AA82903A01E0F50DA3E0F5F8
:0905B2000E8A0F90E740C002120E
:0E05BB0004B3D0027B00903A01E0FCA3E0FD07
:0B05C900903A01EA2CF0EB3DA3F02279
:0C05D400AA82AB837C00E5117003F58265
:0105E00022F8
:0A05E1007508647509007582A6C054
:0E05EB0002C003C004120346E582D004D00310
:0705F900D00260030206BE00
:0C06000090E679E510F0C002C003C004D1
:0E060C001202BCE582D004D003D002600302CB
:02061A0006BE1A
:0E061C0090E678E04440F0C002C003C0041233
:0D062A00032C90E678E04480F0120312905B
:0E063700E67974A7F01202BCE582D004D0036D
:0E064500D002707590E679E08A828B83F0C057
:0E06530002C003C0041202E9E582D004D00305
:05066100D0027059FDFC
:0C066600C3ED9511502A90E679E08A82DD
:0E0672008B83F0A3AA82AB83C002C003C00436
:0E068000C0051202E9E582D005D004D003D0F7
:08068E0002702D0D8D0480D0D7
:0E06960090E678E04420F090E679E0C004128F
:0E06A40002E9E582D004701290E678E044404E
:0C06B200F090E679E0C00412032CD004A4
:0306BE008C822209
:0C06C100AA82AB837C00E5137003F58275
:0106CD00220A
:0A06CE007508647509007582A6C066
:0E06D80002C003C004120346E582D004D00322
:0706E600D00260030207B01F
:0C06ED0090E679E512F0C002C003C004E2
:0E06F9001202BCE582D004D003D002600302DE
:0207070007B039
:04070900AD127E00AF
:09070D00C3EE951340030207A29C
:0E0716008A828B83E0FFA3AA82AB8390E679F0
:0D072400EFF0C002C003C004C005C0061203
:0E07310002BCE582D006D005D004D003D00271
:0C073F00706F0D8D120E8E04ED20E3C2D1
:0C074B00C3EE951350BC90E678E04440EB
:0E075700F0C002C003C004C005C00612032C8F
:0A0765007508647509007582A6127C
:0E076F000346E582D006D005D004D003D002A8
:0E077D00703190E679EDF0C002C003C004C0F8
:0E078B0005C0061202BCE582D006D005D004DF
:09079900D003D002701102070D1B
:0E07A20090E678E04440F0C00412032CD0042E
:0907B000903A06E512F08C822259
:0A07B900903A16E0FA903A06E0F5D7
:0907C300108A1190E740C00212F7
:0E07CC0005D4AB82D002903A06E0FCEA2CF095
:0307DA008B8222ED
:0D07DD00AA8290E6017480F00000000090F8
:0E07EA00E670E4F090E671F053B4F975B2B623
:0E07F80074904AF58043B40853A0F790000AAD
:0E080600C002120265D00274024AF5807A0028
:020814007B0067
:0E08160020A2208A048B057E007F00C3EC9494
:0E082400FFED94FFEE9400EF64809480500787
:070832000ABA00E00B80DDB3
:0708390030A2047AC880021E
:020840007A64D8
:0E084200903A0DEAF0903A09E4F0A3F0A3F02A
:08085000A3F0903A08E4F02245
:060858007582040207DDB9
:06085E007582340207DD83
:08086400903A00E4F00208588C
:0E086C0090E6017480F00000000090E618E4B1
:0E087A00F00000000090E619E4F0000000001D
:0E08880090E60BE4F00000000090E6A3E0FA1A
:0E08960054FEF00000000090E6A4E0FA54FECC
:0E08A400F00000000090E6957480F000000067
:0E08B2000090E6957480F090E6047480F000EB
:0E08C00000000090E6047482F000000000903A
:0E08CE00E604E4F000000000903A007401F02F
:0108DC0022F9
:0708DD0030A2047A1680022C
:0208E4007A0B8D
:0A08E600903A0DE0FBEA2BF07A00D7
:0308F000BA40000B
:0908F3005007D284C2840A80F48B
:0E08FC00D287D284C284D284C284D284C284C1
:0E090A00D284C28475B20053B4F7308105D296
:040918008112086CD4
:06091C00D28143B2022269
:0C09220085B31475B3FF903A16E0FB900B
:0E092E003A09E0FCA3E0FDA3E0FEA3E0FF78A1
:0E093C000079007A00903A09EB2CF0E83DA318
:0E094A00F0E93EA3F0EA3FA3F090E68BE060F8
:0E09580022FA759B40759AE775AF07903A0832
:05096600E0F990E67BC2
:0E096B00E0F590D28429F9C284DAF5903A08BA
:02097900E9F0A3
:0B097B008514B390E68BE0FABA400050
:0509860050030208DD32
:01098B002249
:0E098C0090E60174C2F090E6F3E4F090E6C34A
:0E099A00F090E6C1F090E6C27404F090E6C062
:0C09A800744EF090E6F4E4F0759B177AB2
:0A09B400177B3A8B9A759E60759DC3
:0E09BE00E4C0027A201202ADD00290E6C6E438
:0D09CC00F090E6C77410F090E6C8E4F090DB
:0E09D900E6C9F090E6CAF090E6CBF090E6CCCE
:0E09E700E4F090E6CDF090E60B7401F0000015
:0D09F500000090E6047480F0000000009007
:0E0A0200E6047404F00000000090E604E4F046
:0E0A10000000000090E619E4F00000000090E5
:0E0A1E00E6197410F00000000090E6DA740192
:0E0A2C00F00000000090E6CE7401F000000023
:0E0A3A000090E6CFE4F00000000090E6D0E46B
:0E0A4800F00000000090E6D1E4F00000000095
:0E0A560090E6DC74FFF00000000053B2EF43A6
:050A6400B201C2802276
:01006C00286B
:01006D000191
:04006E005A54455843
:040072000A0D000073
:010076000089
:010077000187
:060078006300000000001F
:0C007E0000000000000000000000000076
:0A008A00303030303030303030308C
:010A6900226A
:0E0A6A0090E683E4F07420F07410F07430F025
:0E0A780090E6837401F07421F07411F0743173
:0E0A8600F090E6837412F07432F07404F07491
:030A940024F02229
:0A0A9700AA82E51624E0500375164C
:010AA1001F35
:0D0AA20090E6BFE0701090E6BEE0FBC3954B
:090AAF0016500690E6BEE0F516B3
:0C0AB80075AF078A9B85159A759E4175E5
:0A0AC4009DE790E67C7403F07A00D1
:0C0ACE00C3EA9516501190E67BE0FB9007
:0B0ADA00E67CF090E67CE4F00A80E986
:0B0AE500E5160425E0FA90E740F090D1
:0E0AF000E7417403F090E68AE4F090E68BEAAA
:020AFE00F022E4
:0E0B0000903A14E0FAA3E0FBC374409AE49B21
:080B0E0050067C407D008004CC
:040B16008A048B05BD
:0E0B1A00903A16ECF07D00903A14EAC39CF07D
:050B2800EB9DA3F0228B
:0A0B2D00903A57E0FABA310280480E
:040B3700BA320122AB
:050B3B00BA3402804203
:050B4000BA35028050EF
:050B4500BA390280082E
:050B4A00BA3C02802707
:030B4F00020BB5E1
:0E0B5200903A05E4F0903A03F0A3F090E6BB71
:0E0B6000E0FB7A0090E6BAE0FC7D00903A01DE
:080B6E00EC4AF0ED4BA3F0226C
:090B760090E6BAE0903A06F02284
:030B7F0002086405
:0E0B820012086490E6A4E054FEF090E6F574CC
:050B9000FFF002098CDA
:0E0B9500D280D28443B21090E6F574FFF000D7
:0E0BA30000000090E601E0FA54F0F0000000BF
:040BB100000208DD59
:080BB50090E6A0E04401F022EB
:0C0BBD00C020C0E0C0F0C082C083C002B5
:0E0BC900C003C004C005C006C007C000C001C4
:0E0BD700C0D075D00090E6B9E0FA903A57F021
:0E0BE50090E6B57401F090E6B9E0FA24F35002
:040BF30003020F7377
:070BF700EA2A2A900BFE73AD
:070BFE00020C25020CD902D4
:060C05000F73020D560200
:060C0B000F73020F7302DB
:060C11000DEE020F0902C6
:060C17000F0B020F1C028E
:060C1D000F21020F32025C
:020C23000F3789
:0A0C250090E6B8E0FABA8002800DF4
:050C2F00BA8102801EE5
:050C3400BA8202802FCE
:030C3900020F7334
:0E0C3C0090E740E4F090E741F090E68AF090F7
:080C4A00E68B7402F0020F7347
:0E0C520090E740E4F090E741F090E68AF090E1
:080C6000E68B7402F0020F7331
:0C0C680090E6BCE0FA600FBA01028019AF
:050C7400BA80028005BA
:050C7900BA812F801E6E
:0E0C7E0090E6A0E0FA53020190E740EAF08011
:010C8C003A2D
:0E0C8D0090E6A1E0FA53020190E740EAF08001
:010C9B002B2D
:0E0C9C0090E6A2E0FA53020190E740EAF080F1
:010CAA001C2D
:0E0CAB0090E6BCE0C31314540324A3F582E4C6
:0E0CB90034E6F583E0FA53020190E740EAF0DA
:0E0CC70090E741E4F090E68AF090E68B74022C
:040CD500F0020F73A7
:0A0CD90090E6B8E0FABA02028003C8
:030CE300020F738A
:090CE60090E6BAE06003020F730E
:0C0CEF0090E6BCE0FA600FBA010280152C
:050CFB00BA8002800533
:050D0000BA81238016FA
:0B0D050090E6A0E0FA54FEF0020F732D
:0B0D100090E6A1E0FA54FEF0020F7321
:0B0D1B0090E6A2E0FA54FEF0020F7315
:0E0D260090E6BCE0C31314540324A3FAE43493
:0E0D3400E6FB90E6BCE0C31314540324A3F5C1
:0E0D420082E434E6F583E0FC5304FE8A828BE3
:060D500083ECF0020F73BA
:0A0D560090E6B8E0FABA020280034A
:030D6000020F730C
:090D630090E6BAE06003020F7390
:0C0D6C0090E6BCE0FA600FBA01028014AF
:050D7800BA80028005B5
:050D7D00BA8120801482
:0A0D820090E6A0E0FA4401F0804181
:0A0D8C0090E6A1E0FA4401F0803780
:0A0D960090E6A2E0FA4401F0802D7F
:0E0DA00090E6BCE0C31314540324A3FAE43419
:0E0DAE00E6FB90E6BCE0C31314540324A3F547
:0E0DBC0082E434E6F583E0FC4304FE8A828B79
:030DCA0083ECF0C7
:0E0DCD0090E6BCE05480C423541FFA90E6BCAC
:0E0DDB00E0FB740F5B420290E683EAF07420A6
:050DE9004AF0020F7347
:0A0DEE0090E6BBE0FABA010280199A
:050DF800BA0202802692
:050DFD00BA0302804D65
:060E0200BA0603020EC255
:060E0800BA0703020ED43C
:030E0E00020EFFD2
:0A0E11007A327B1790E6B3EBF09005
:080E1B00E6B47432F0020F731B
:0B0E230090E680E0FA30E7127A4E7B88
:0A0E2E001790E6B3EBF090E6B47401
:050E38004EF0020F73F3
:0A0E3D007A7E7B1790E6B3EBF0908D
:080E4700E6B4747EF0020F73A3
:0A0E4F0090E6BAE0FABA0102800F43
:050E5900BA0202801C3A
:050E5E00BA0302802927
:050E6300BA044A8036CC
:060E68007582007A007B98
:040E6E00178B157554
:060E72001605120A9702AA
:020E78000F73F6
:060E7A007582057A057B7C
:040E8000178B157542
:060E84001625120A970278
:020E8A000F73E4
:0A0E8C0075828A7A8A7B008B157547
:060E9600160A120A970281
:020E9C000F73D2
:060E9E0075822A7A2A7B0E
:040EA400178B15751E
:060EA8001608120A970271
:020EAE000F73C0
:0A0EB0007AAE7B1790E6B3EBF090EA
:080EBA00E6B474AEF0020F7300
:0A0EC2007A447B1790E6B3EBF09042
:080ECC00E6B47444F0020F7358
:0B0ED40090E680E0FA30E7127A7E7BA7
:0A0EDF001790E6B3EBF090E6B47450
:050EE9007EF0020F7312
:0A0EEE007A4E7B1790E6B3EBF0900C
:070EF800E6B4744EF08074B3
:0A0EFF0090E6A0E0FA4401F0806ADA
:020F09008068FE
:0E0F0B0090E740E4F090E68AF090E68B7401E7
:030F1900F080570E
:050F1C00120A6A805278
:0E0F210090E740E4F090E68AF090E68B7401D1
:030F2F00F080410E
:050F3200120A6A803C78
:0E0F370090E6B8E0FABA823490E6BCE0C3134C
:0B0F450014540325E02459F582E43425
:0C0F50003AF583E4F0A3F090E685E09011
:0D0F5C00E740F090E684E0FA90E741F09065
:0A0F6900E68AE4F090E68B7402F0D3
:0B0F730090E6B8E0FABA40030210F963
:050F7E00BAC00280036F
:030F830002112335
:0E0F860090E6BFE0FB7A0090E6BEE0FC7D0046
:0E0F9400903A14EC4AF0ED4BA3F0120B0090D3
:090FA200E6B9E0FABA220280254A
:060FAB00BA300302108FB2
:060FB100BA33030210D860
:050FB700BA3802803190
:050FBC00BA3A02805565
:060FC100BA3B03021055CB
:060FC700BA3D0302106EAA
:030FCD000210EF20
:0E0FD00090E6B5E4F090E68AF090E68B742887
:0D0FDE00F090E6B3E4F090E6B4746CF0021D
:020FEB001123D0
:0E0FED0090E6BBE0FB7A0090E6BAE0FC7D00E7
:0E0FFB00903A01EC4AF0ED4BA3F090E68AE448
:0D100900F0120573E58290E68BF0021123D2
:0E101600903A03E0FAA3E0FB8A0490E740EC76
:0D102400F08B0290E741EAF0903A05E09071
:0A103100E742F0750800750901752B
:0D103B0082A2120346AA8290E743EAF090D9
:0D104800E68AE4F090E68B7404F0021123B8
:0E10550090E6BAE0903A06F090E68AE4F012D7
:0B10630007B9E58290E68BF002112334
:0A106E007508007509017582A612CD
:0E1078000346AA8290E740EAF090E68AE4F090
:0910860090E68B7401F0021123C5
:06108F00759B087A087B46
:0C1095003A8B9A759E417A417BE78B9D57
:0E10A100C0027A071202ADD00253B2FD3081B8
:0D10AF000C90E740E4F0D28143B2028009CA
:0910BC0090E7407401F01208589D
:0E10C50090E7487401F090E68AE4F090E68B24
:0510D3007409F0804BE0
:0E10D80090E7407404F090E741E4F090E68A5F
:0910E600F090E68B7402F08034F6
:0A10EF0090E6A0E0FA4401F0802A28
:0C10F90090E6BFE0700690E6BEE06016D6
:0E110500903A587401F090E68BE4F05391EFAD
:0811130090E65D7401F0801903
:08111B00120B2D90E68BE4F0AD
:0E1123005391EF90E65D7401F090E6A0E0FAC3
:031131004480F007
:0E113400D0D0D001D000D007D006D005D00416
:0D114200D003D002D083D082D0F0D0E0D016
:02114F0020324C
:0E115100C0E0C082C0835391EF90E65D74024F
:08115F00F0D083D082D0E03211
:0E116700C0E0C082C0835391EF90E65D740437
:08117500F0D083D082D0E032FB
:0E117D00C0E0C082C0835391EF90E65D74081D
:08118B00F0D083D082D0E032E5
:0E119300C0E0C082C0835391EF90E65D7410FF
:0811A100F0D083D082D0E032CF
:0E11A900C0E0C082C0835391EF90E65D7420D9
:0811B700F0D083D082D0E032B9
:0E11BF00C0E0C082C0835391EF90E65D7440A3
:0811CD00F0D083D082D0E032A3
:0C11D500C020C0E0C0F0C082C083C00297
:0E11E100C003C004C005C006C007C000C001A6
:0E11EF00C0D075D000C2E8120B00903A57E055
:0611FD00FABA3002804244
:05120300BA3302803D3A
:05120800BA3802800F5E
:05120D00BA3A02803333
:05121200BA3B0280154B
:05121700BA3D22802910
:0E121C0090E68AE4F0120573E58290E68BF00E
:02122A00801929
:0E122C0090E68AE4F01207B9E58290E68BF0B6
:02123A00800929
:09123C0090E68AE4F090E68BF0E4
:0E1245005391EF90E65F7401F0D2E8D0D0D064
:0E12530001D000D007D006D005D004D003D0C3
:0C12610002D083D082D0F0D0E0D0203248
:0C126D00C020C0E0C0F0C082C083C002FE
:0E127900C003C004C005C006C007C000C0010D
:0E128700C0D075D000C2E8903A58E0FA60205E
:0D129500903A58E4F090E6BFE0FB7A00903C
:0E12A200E6BEE0FC7D00903A14EC4AF0ED4B05
:0512B000A3F0120B2D5C
:0D12B500120B00903A57E0FABA3102803B6C
:0512C200BA3202803386
:0512C700BA3402803181
:0512CC00BA3502802C80
:0512D100BA390280059E
:0512D600BA3C24800B6E
:0B12DB0090E68BE0F5821205A780175B
:0B12E600903A06E0F51290E68BE0F570
:0912F1001390E7401206C18003CE
:0312FA00120922B4
:0E12FD0090E68BE4F05391EF90E65F7402F000
:0E130B00903A14E0FAA3E0FB4A700890E6A0C6
:05131900E0FA4480F041
:0E131E00D2E8D0D0D001D000D007D006D00544
:0E132C00D004D003D002D083D082D0F0D0E025
:03133A00D020328E
:0E133D00C0E0C082C0835391EF90E65F74045D
:08134B00F0D083D082D0E03223
:0E135300C0E0C082C0835391EF90E65F740843
:08136100F0D083D082D0E0320D
:0E136900C0E0C082C0835391EF90E65F741025
:08137700F0D083D082D0E032F7
:0E137F00C0E0C082C0835391EF90E65F7420FF
:08138D00F0D083D082D0E032E1
:0E139500C0E0C082C0835391EF90E65F7440C9
:0813A300F0D083D082D0E032CB
:0E13AB00C0E0C082C0835391EF90E65F748073
:0813B900F0D083D082D0E032B5
:0713C1007510007511039087
:0613C8003A0F1205D4905B
:0E13CE003A0FE0FABA4324903A10E0FABA441B
:0E13DC001C903A11E0FABA3014903A077401EE
:0A13EA00F075101075110A90008ACA
:0513F4001205D4800584
:0513F900903A07E4F04A
:0213FE007A0073
:03140000BA0A0025
:0E1403005012EA248AF582E43400F583E0FBFF
:06141100BB30540A80E923
:071417007510FB7511059033
:09141E003A0F1205D47A007B009C
:03142700BB050002
:0A142A00503CEB240FF582E4343A45
:0E143400F583E0FCEA248AFDE43400FEECC4FB
:0E144200540F9017B293FF8D828E83F00AEA4A
:0E145000248AFDE43400FE740F5C9017B29302
:0A145E00FC8D828E83F00A0B80BF24
:011468002261
:0E14690090E680E04408F090E6007412F090E7
:0E1477000002120265538EF8D28143B202C207
:0E148500AFC2E89000437402F090004474017E
:0E149300F090004574B8F090E668E04408F070
:0A14A1009001007402F07ABD7B0B8D
:0D14AB008B04900101ECF0900102EAF0903A
:0A14B80001047402F07A517B118BDD
:0E14C20004900105ECF0900106EAF09001089C
:0A14D0007402F07A677B118B049020
:0E14DA000109ECF090010AEAF090010C740296
:0A14E800F07A7D7B118B0490010D5A
:0E14F200ECF090010EEAF09001107402F07A16
:0A150000937B118B04900111ECF0B5
:0C150A00900112EAF09001147402F07AD3
:0A151600A97B118B04900115ECF085
:0C152000900116EAF09001187402F07AB5
:0A152C00BF7B118B04900119ECF055
:0C15360090011AEAF09001207402F07A93
:0A154200D57B118B04900121ECF021
:0C154C00900122EAF09001247402F07A71
:0A1558006D7B128B04900125ECF06E
:0C156200900126EAF09001287402F07A53
:0A156E003D7B138B04900129ECF083
:0C15780090012AEAF090012C7402F07A35
:0A158400537B138B0490012DECF053
:0C158E0090012EEAF09001307402F07A17
:0A159A00697B138B04900131ECF023
:0C15A400900132EAF09001347402F07AF9
:0A15B0007F7B138B04900135ECF0F3
:0C15BA00900136EAF09001387402F07ADB
:0A15C600957B138B04900139ECF0C3
:0C15D00090013AEAF090013C7402F07ABD
:0A15DC00AB7B138B0490013DECF093
:0E15E60090013EEAF05391EF90E65D747FF0C5
:0E15F40090E65CE0FA447FF090E65F74FFF052
:0E16020090E65E74FFF0D2E8D2AF90E611746D
:0E161000A0F00000000090E61074A0F00000B2
:0D161E00000090E61274E2F0000000009061
:0E162B00E61374A2F00000000090E614E4F054
:0E1639000000000090E615E4F0000000001232
:0D16470013C190E680E04482F090000A128A
:0A165400026590E680E054F7F022F2
:03165E00121469FA
:0A16610090E6A4E05404FAB401007E
:0D166B00E433FA903A00E0FBEA5B60EA909D
:0E167800E694E0FB7A0090E695E0FC7D0042EF
:0B16860002ED4203EA4B70030216EF76
:0B169100C3E49A74029B50030216EFA2
:0B169C0090E6A3E0FC30E3030216EF31
:0416A7007C007D0046
:0E16AB00C3EC9AED9B50238C8274F42DF583D2
:0E16B900E0905001F08C0674F02DFF9050026E
:0E16C700E0F88E828F83F00CBC00D90D80D627
:0E16D50090E690EBF0000000007B0090E691A4
:0C16E300EAF00000000090E6487402F0FD
:0D16EF000000000090E6957480F002166186
:051700005A5445580099
:0E1705006D656D656F7279206D617070696E33
:0E17130067206578616D706C6520666F7220CE
:0917210055464D20312E313500F2
:08172A0064656661756C7400D2
:0E17320012010002FFFFFF401A22000100001A
:04174000010203019E
:0A1744000A060002FFFFFF4001004B
:0E174E0009022E00010104C03209040000044B
:0E175C00FFFFFF0007058102000200070501E4
:0E176A000200020007058202000200070504CB
:041778000200020069
:02177C0000006B
:0E177E0009022E00010104C03209040000041B
:0E178C00FFFFFF000705810240000007050176
:0E179A0002400000070582024000000705041F
:0417A80002400000FB
:0217AC0000003B
:0417AE000403000030
:0E17B200303132333435363738394142434412
:0317C0004546009B
:0217C300000024
:0117C5000023
:0E17C60001880101010101070207020202026F
:0E17D4000200040000000000000400360000C7
:0417E2000000003FC4
:0E17E600020190010101010702020702020246
:0E17F4000200040000000000000400003600A7
:041802000000003FA3
:01180600FFE2
:0118070000E0
:081808000000000000000000D8
:06023700E478FFF6D8FD9B
:08021500794DE94400601B7AF9
:05021D00019017C378F9
:03022200147592BE
:0A0225003AE493F2A308B8000205C2
:08022F0092D9F4DAF27592FF96
:08023D007800E84400600A7932
:03024500007592AF
:060248003AE4F309D8FCC2
:08024E007814E84400600C790B
:0B02560001903A00E4F0A3D8FCD9FAB4
:03020800758120DD
:0A020B001216FCE5826003020203F4
:0416FC0075820022D1
:00000001FF
