:03020000020208EF
:0302610002020393
:0502030012166180FEEF
:03000000020200F9
:0100030032CA
:01000B0032C2
:0100130032BA
:01001B0032B2
:0100230032AA
:01002B0032A2
:01003300329A
:01003B003292
:01004300328A
:01004B003282
:01005300327A
:01005B003272
:01006300326A
:0101000032CC
:0101040032C8
:0101080032C4
:01010C0032C0
:0101100032BC
:0101140032B8
:0101180032B4
:0101200032AC
:0101240032A8
:0101280032A4
:01012C0032A0
:01013000329C
:010134003298
:010138003294
:01013C003290
:01014000328C
:010148003284
:01014C003280
:01015000327C
:010154003278
:010158003274
:01015C003270
:01016000326C
:01017000325C
:010174003258
:010178003254
:01017C003250
:01018000324C
:010184003248
:010188003244
:01018C003240
:01019000323C
:010194003238
:010198003234
:01019C003230
:0101A000322C
:0101A8003224
:0101AC003220
:0101B000321C
:0101B4003218
:0101B8003214
:010264002277
:08026500AA82AB837C007D003E
:0B026D00C3EC9AED9B50147EB07F04A0
:050278001EBEFF011F86
:0B027D00EE4F70F70CBC00E80D80E5B0
:010288002253
:08028900AA82AB837C007D001A
:0B029100C3EC9AED9B50147E0A7F0026
:05029C001EBEFF011F62
:0B02A100EE4F70F70CBC00E80D80E58C
:0102AC00222F
:0E02AD0075AF0790E67BE090E67CF0DAF32276
:0102BB002220
:0202BC007A00C6
:0302BE00BAFF0084
:0D02C100500B90E678E0FB20E0030A80F08F
:0C02CE0090E678E0FA20E204EA20E10B60
:0B02DA0090E678E04440F075820122BD
:0402E50075820022FC
:0202E9007A0099
:0302EB00BAFF0057
:0D02EE00500B90E678E0FB20E0030A80F062
:0E02FB0090E678E0FA30E20B90E678E04440BE
:05030900F075820122E5
:04030E0075820022D2
:020312007A006F
:03031400BAFF002D
:0E031700500F90E678E0FB20E2047582002291
:030325000A80EC5F
:0403280075820122B7
:02032C007A0055
:03032E00BAFF0013
:0E033100500F90E678E0FB20E6047582002273
:03033F000A80EC45
:04034200758201229D
:09034600AA82C3E49508E433FB2C
:0E034F0090E678E04480F0C002C00312031272
:0E035D00D003D00290E679EAF0C002C003128D
:0C036B0002BCE582D003D0027012E5094C
:0C037700600A90E678E04440F012032C8D
:04038300758200225D
:0E038700EB601090000AC002C003120289D081
:0503950003D00280B559
:0C039A00E509600890E678E0FA4440F0C5
:0403A6007582012239
:0C03AA00AA82AB837C00E50C7003F58296
:0103B6002224
:0A03B7007508647509007582A2C084
:0E03C10002C003C004120346E582D004D0033C
:0703CF00D00260030204B03C
:0C03D60090E679E50BF0C002C003C00403
:0E03E2001202BCE582D004D003D002600302F8
:0203F00004B057
:0C03F20090E679E50AF0C002C003C004E8
:0E03FE001202BCE582D004D003D002600302DC
:02040C0004B03A
:0E040E0090E678E04440F0C002C003C0041243
:0D041C00032C90E678E04480F0120312906B
:0E042900E67974A3F01202BCE582D004D00381
:0E043700D002707590E679E08A828B83F0C067
:0E04450002C003C0041202E9E582D004D00315
:05045300D0027059FD0C
:0C045800C3ED950C502A90E679E08A82F2
:0E0464008B83F0A3AA82AB83C002C003C00446
:0E047200C0051202E9E582D005D004D003D007
:0804800002702D0D8D0480D0E7
:0E04880090E678E04420F090E679E0C004129F
:0E04960002E9E582D004701290E678E044405E
:0C04A400F090E679E0C00412032CD004B4
:0304B0008C822219
:0C04B300AA82AB837C00E50F7003F58289
:0104BF00221A
:0A04C0007508647509007582A2C07A
:0E04CA0002C003C004120346E582D004D00332
:0704D800D002600302057071
:0C04DF0090E679E50EF0C002C003C004F6
:0E04EB001202BCE582D004D003D002600302EE
:0204F90005708C
:0C04FB0090E679E50DF0C002C003C004DB
:0E0507001202BCE582D004D003D002705CFD6D
:0C051500C3ED950F50478A828B83E0FEF7
:0E052100A3AA82AB8390E679EEF0903A05E053
:0D052F00FFEE2FF0903A03E0FEA3E0FF90F6
:0E053C003A0374012EF0E43FA3F0C002C003A6
:0E054A00C004C0051202BCE582D005D004D06A
:0A05580003D00270130D8D0480B370
:0E05620090E678E04440F0C00412032CD00470
:030570008C822258
:0A057300903A16E0FA903A01E0F524
:06057D000AA3E0F50B8A61
:0C0583000C90E740C0021203AAAB82D02B
:0E058F00027C00903A01E0FDA3E0FE903A01EC
:0A059D00EA2DF0EC3EA3F08B822261
:0B05A700AA82903A01E0F50DA3E0F5F8
:0905B2000E8A0F90E740C002120E
:0E05BB0004B3D0027B00903A01E0FCA3E0FD07
:0B05C900903A01EA2CF0EB3DA3F02279
:0C05D400AA82AB837C00E5117003F58265
:0105E00022F8
:0A05E1007508647509007582A6C054
:0E05EB0002C003C004120346E582D004D00310
:0705F900D00260030206BE00
:0C06000090E679E510F0C002C003C004D1
:0E060C001202BCE582D004D003D002600302CB
:02061A0006BE1A
:0E061C0090E678E04440F0C002C003C0041233
:0D062A00032C90E678E04480F0120312905B
:0E063700E67974A7F01202BCE582D004D0036D
:0E064500D002707590E679E08A828B83F0C057
:0E06530002C003C0041202E9E582D004D00305
:05066100D0027059FDFC
:0C066600C3ED9511502A90E679E08A82DD
:0E0672008B83F0A3AA82AB83C002C003C00436
:0E068000C0051202E9E582D005D004D003D0F7
:08068E0002702D0D8D0480D0D7
:0E06960090E678E04420F090E679E0C004128F
:0E06A40002E9E582D004701290E678E044404E
:0C06B200F090E679E0C00412032CD004A4
:0306BE008C822209
:0C06C100AA82AB837C00E5137003F58275
:0106CD00220A
:0A06CE007508647509007582A6C066
:0E06D80002C003C004120346E582D004D00322
:0706E600D00260030207B01F
:0C06ED0090E679E512F0C002C003C004E2
:0E06F9001202BCE582D004D003D002600302DE
:0207070007B039
:04070900AD127E00AF
:09070D00C3EE951340030207A29C
:0E0716008A828B83E0FFA3AA82AB8390E679F0
:0D072400EFF0C002C003C004C005C0061203
:0E07310002BCE582D006D005D004D003D00271
:0C073F00706F0D8D120E8E04ED20E3C2D1
:0C074B00C3EE951350BC90E678E04440EB
:0E075700F0C002C003C004C005C00612032C8F
:0A0765007508647509007582A6127C
:0E076F000346E582D006D005D004D003D002A8
:0E077D00703190E679EDF0C002C003C004C0F8
:0E078B0005C0061202BCE582D006D005D004DF
:09079900D003D002701102070D1B
:0E07A20090E678E04440F0C00412032CD0042E
:0907B000903A06E512F08C822259
:0A07B900903A16E0FA903A06E0F5D7
:0907C300108A1190E740C00212F7
:0E07CC0005D4AB82D002903A06E0FCEA2CF095
:0307DA008B8222ED
:0D07DD00AA8290E6017480F00000000090F8
:0E07EA00E670E4F090E671F053B4F975B2B623
:0E07F80074904AF58043B40853A0F790000AAD
:0E080600C002120265D00274024AF5807A0028
:020814007B0067
:0E08160020A2208A048B057E007F00C3EC9494
:0E082400FFED94FFEE9400EF64809480500787
:070832000ABA00E00B80DDB3
:0708390030A2047AC880021E
:020840007A64D8
:0E084200903A0DEAF0903A09E4F0A3F0A3F02A
:08085000A3F0903A08E4F02245
:060858007582040207DDB9
:06085E007582340207DD83
:08086400903A00E4F00208588C
:0E086C0090E6017480F00000000090E618E4B1
:0E087A00F00000000090E619E4F0000000001D
:0E08880090E60BE4F00000000090E6A3E0FA1A
:0E08960054FEF00000000090E6A4E0FA54FECC
:0E08A400F00000000090E6957480F000000067
:0E08B2000090E6957480F090E6047480F000EB
:0E08C00000000090E6047482F000000000903A
:0E08CE00E604E4F00000000075B4FF903A006C
:0408DC007401F02291
:0708E00030A2047A16800229
:0208E7007A0B8A
:0A08E900903A0DE0FBEA2BF07A00D4
:0308F300BA400008
:0908F6005007D284C2840A80F488
:0E08FF00D287D284C284D284C284D284C284BE
:0E090D00D284C28475B20053B4F7308105D293
:04091B008112086CD1
:06091F00D28143B2022266
:0C09250085B31475B3FF903A16E0FB9008
:0E0931003A09E0FCA3E0FDA3E0FEA3E0FF789E
:0E093F000079007A00903A09EB2CF0E83DA315
:0E094D00F0E93EA3F0EA3FA3F090E68BE060F5
:0E095B0022FA759B40759AE775AF07903A082F
:05096900E0F990E67BBF
:0E096E00E0F590D28429F9C284DAF5903A08B7
:02097C00E9F0A0
:0B097E008514B390E68BE0FABA40004D
:0509890050030208E02C
:01098E002246
:0E098F0090E60174C2F090E6F3E4F090E6C347
:0E099D00F090E6C1F090E6C27404F090E6C05F
:0C09AB00744EF090E6F4E4F0759B177AAF
:0A09B700177B3A8B9A759E60759DC0
:0E09C100E4C0027A201202ADD00290E6C6E435
:0D09CF00F090E6C77410F090E6C8E4F090D8
:0E09DC00E6C9F090E6CAF090E6CBF090E6CCCB
:0E09EA00E4F090E6CDF090E60B7401F0000012
:0D09F800000090E6047480F0000000009004
:0E0A0500E6047404F00000000090E604E4F043
:0E0A13000000000090E619E4F00000000090E2
:0E0A2100E6197410F00000000090E6DA74018F
:0E0A2F00F00000000090E6CE7401F000000020
:0E0A3D000090E6CFE4F00000000090E6D0E468
:0E0A4B00F00000000090E6D1E4F00000000092
:0E0A590090E6DC74FFF00000000053B2EF43A3
:050A6700B201C2802273
:01006C00286B
:01006D000191
:04006E005A54455843
:040072000A0D000073
:010076000089
:010077000187
:060078006300000000001F
:0C007E0000000000000000000000000076
:0A008A00303030303030303030308C
:010A6C002267
:0E0A6D0090E683E4F07420F07410F07430F022
:0E0A7B0090E6837401F07421F07411F0743170
:0E0A8900F090E6837412F07432F07404F0748E
:030A970024F02226
:0A0A9A00AA82E51624E05003751649
:010AA4001F32
:0D0AA50090E6BFE0701090E6BEE0FBC39548
:090AB20016500690E6BEE0F516B0
:0C0ABB0075AF078A9B85159A759E4175E2
:0A0AC7009DE790E67C7403F07A00CE
:0C0AD100C3EA9516501190E67BE0FB9004
:0B0ADD00E67CF090E67CE4F00A80E983
:0B0AE800E5160425E0FA90E740F090CE
:0E0AF300E7417403F090E68AE4F090E68BEAA7
:020B0100F022E0
:0E0B0300903A14E0FAA3E0FBC374409AE49B1E
:080B110050067C407D008004C9
:040B19008A048B05BA
:0E0B1D00903A16ECF07D00903A14EAC39CF07A
:050B2B00EB9DA3F02288
:0A0B3000903A57E0FABA310280480B
:040B3A00BA320122A8
:050B3E00BA3402804200
:050B4300BA35028050EC
:050B4800BA390280082B
:050B4D00BA3C02802704
:030B5200020BB8DB
:0E0B5500903A05E4F0903A03F0A3F090E6BB6E
:0E0B6300E0FB7A0090E6BAE0FC7D00903A01DB
:080B7100EC4AF0ED4BA3F02269
:090B790090E6BAE0903A06F02281
:030B820002086402
:0E0B850012086490E6A4E054FEF090E6F574C9
:050B9300FFF002098FD4
:0E0B9800D280D28443B21090E6F574FFF000D4
:0E0BA60000000090E601E0FA54F0F0000000BC
:040BB400000208E053
:080BB80090E6A0E04401F022E8
:0C0BC000C020C0E0C0F0C082C083C002B2
:0E0BCC00C003C004C005C006C007C000C001C1
:0E0BDA00C0D075D00090E6B9E0FA903A57F01E
:0E0BE80090E6B57401F090E6B9E0FA24F350FF
:040BF60003020F7671
:070BFA00EA2A2A900C0173A6
:070C0100020C28020CDC02CA
:060C08000F76020D5902F7
:060C0E000F76020F7602D2
:060C14000DF1020F0C02BD
:060C1A000F0E020F1F0285
:060C20000F24020F350253
:020C26000F3A83
:0A0C280090E6B8E0FABA8002800DF1
:050C3200BA8102801EE2
:050C3700BA8202802FCB
:030C3C00020F762E
:0E0C3F0090E740E4F090E741F090E68AF090F4
:080C4D00E68B7402F0020F7641
:0E0C550090E740E4F090E741F090E68AF090DE
:080C6300E68B7402F0020F762B
:0C0C6B0090E6BCE0FA600FBA01028019AC
:050C7700BA80028005B7
:050C7C00BA812F801E6B
:0E0C810090E6A0E0FA53020190E740EAF0800E
:010C8F003A2A
:0E0C900090E6A1E0FA53020190E740EAF080FE
:010C9E002B2A
:0E0C9F0090E6A2E0FA53020190E740EAF080EE
:010CAD001C2A
:0E0CAE0090E6BCE0C31314540324A3F582E4C3
:0E0CBC0034E6F583E0FA53020190E740EAF0D7
:0E0CCA0090E741E4F090E68AF090E68B740229
:040CD800F0020F76A1
:0A0CDC0090E6B8E0FABA02028003C5
:030CE600020F7684
:090CE90090E6BAE06003020F7608
:0C0CF20090E6BCE0FA600FBA0102801529
:050CFE00BA8002800530
:050D0300BA81238016F7
:0B0D080090E6A0E0FA54FEF0020F7627
:0B0D130090E6A1E0FA54FEF0020F761B
:0B0D1E0090E6A2E0FA54FEF0020F760F
:0E0D290090E6BCE0C31314540324A3FAE43490
:0E0D3700E6FB90E6BCE0C31314540324A3F5BE
:0E0D450082E434E6F583E0FC5304FE8A828BE0
:060D530083ECF0020F76B4
:0A0D590090E6B8E0FABA0202800347
:030D6300020F7606
:090D660090E6BAE06003020F768A
:0C0D6F0090E6BCE0FA600FBA01028014AC
:050D7B00BA80028005B2
:050D8000BA812080147F
:0A0D850090E6A0E0FA4401F080417E
:0A0D8F0090E6A1E0FA4401F080377D
:0A0D990090E6A2E0FA4401F0802D7C
:0E0DA30090E6BCE0C31314540324A3FAE43416
:0E0DB100E6FB90E6BCE0C31314540324A3F544
:0E0DBF0082E434E6F583E0FC4304FE8A828B76
:030DCD0083ECF0C4
:0E0DD00090E6BCE05480C423541FFA90E6BCA9
:0E0DDE00E0FB740F5B420290E683EAF07420A3
:050DEC004AF0020F7641
:0A0DF10090E6BBE0FABA0102801997
:050DFB00BA020280268F
:050E0000BA0302804D61
:060E0500BA0603020EC54F
:060E0B00BA0703020ED736
:030E1100020F02CB
:0A0E14007A147B1790E6B3EBF09020
:080E1E00E6B47414F0020F7633
:0B0E260090E680E0FA30E7127A307BA3
:0A0E31001790E6B3EBF090E6B474FE
:050E3B0030F0020F760B
:0A0E40007A607B1790E6B3EBF090A8
:080E4A00E6B47460F0020F76BB
:0A0E520090E6BAE0FABA0102800F40
:050E5C00BA0202801C37
:050E6100BA0302802924
:050E6600BA044A8036C9
:060E6B007582EA7AEA7BC1
:040E7100168B157552
:060E75001605120A9A02A4
:020E7B000F76F0
:060E7D007582EF7AEF7BA5
:040E8300168B157540
:060E8700161C120A9A027B
:020E8D000F76DE
:0A0E8F0075828A7A8A7B008B157544
:060E9900160A120A9A027B
:020E9F000F76CC
:060EA10075820B7A0B7B49
:040EA700178B15751B
:060EAB001608120A9A026B
:020EB1000F76BA
:0A0EB3007A907B1790E6B3EBF09005
:080EBD00E6B47490F0020F7618
:0A0EC5007A267B1790E6B3EBF0905D
:080ECF00E6B47426F0020F7670
:0B0ED70090E680E0FA30E7127A607BC2
:0A0EE2001790E6B3EBF090E6B4744D
:050EEC0060F0020F762A
:0A0EF1007A307B1790E6B3EBF09027
:070EFB00E6B47430F08074CE
:0A0F020090E6A0E0FA4401F0806AD6
:020F0C008068FB
:0E0F0E0090E740E4F090E68AF090E68B7401E4
:030F1C00F080570B
:050F1F00120A6D805272
:0E0F240090E740E4F090E68AF090E68B7401CE
:030F3200F080410B
:050F3500120A6D803C72
:0E0F3A0090E6B8E0FABA823490E6BCE0C31349
:0B0F480014540325E02459F582E43422
:0C0F53003AF583E4F0A3F090E685E0900E
:0D0F5F00E740F090E684E0FA90E741F09062
:0A0F6C00E68AE4F090E68B7402F0D0
:0B0F760090E6B8E0FABA40030210FC5D
:050F8100BAC00280036C
:030F86000211262F
:0E0F890090E6BFE0FB7A0090E6BEE0FC7D0043
:0E0F9700903A14EC4AF0ED4BA3F0120B0390CD
:090FA500E6B9E0FABA2202802547
:060FAE00BA3003021092AC
:060FB400BA33030210DB5A
:050FBA00BA380280318D
:050FBF00BA3A02805562
:060FC400BA3B03021058C5
:060FCA00BA3D03021071A4
:030FD0000210F21A
:0E0FD30090E6B5E4F090E68AF090E68B742884
:0D0FE100F090E6B3E4F090E6B4746CF0021A
:020FEE001126CA
:0E0FF00090E6BBE0FB7A0090E6BAE0FC7D00E4
:0E0FFE00903A01EC4AF0ED4BA3F090E68AE445
:0D100C00F0120573E58290E68BF0021126CC
:0E101900903A03E0FAA3E0FB8A0490E740EC73
:0D102700F08B0290E741EAF0903A05E0906E
:0A103400E742F07508007509017528
:0D103E0082A2120346AA8290E743EAF090D6
:0D104B00E68AE4F090E68B7404F0021126B2
:0E10580090E6BAE0903A06F090E68AE4F012D4
:0B10660007B9E58290E68BF00211262E
:0A1071007508007509017582A612CA
:0E107B000346AA8290E740EAF090E68AE4F08D
:0910890090E68B7401F0021126BF
:06109200759B087A087B43
:0C1098003A8B9A759E417A417BE78B9D54
:0E10A400C0027A071202ADD00253B2FD3081B5
:0D10B2000C90E740E4F0D28143B2028009C7
:0910BF0090E7407401F01208589A
:0E10C80090E7487401F090E68AE4F090E68B21
:0510D6007409F0804BDD
:0E10DB0090E7407404F090E741E4F090E68A5C
:0910E900F090E68B7402F08034F3
:0A10F20090E6A0E0FA4401F0802A25
:0C10FC0090E6BFE0700690E6BEE06016D3
:0E110800903A587401F090E68BE4F05391EFAA
:0811160090E65D7401F0801900
:08111E00120B3090E68BE4F0A7
:0E1126005391EF90E65D7401F090E6A0E0FAC0
:031134004480F004
:0E113700D0D0D001D000D007D006D005D00413
:0D114500D003D002D083D082D0F0D0E0D013
:02115200203249
:0E115400C0E0C082C0835391EF90E65D74024C
:08116200F0D083D082D0E0320E
:0E116A00C0E0C082C0835391EF90E65D740434
:08117800F0D083D082D0E032F8
:0E118000C0E0C082C0835391EF90E65D74081A
:08118E00F0D083D082D0E032E2
:0E119600C0E0C082C0835391EF90E65D7410FC
:0811A400F0D083D082D0E032CC
:0E11AC00C0E0C082C0835391EF90E65D7420D6
:0811BA00F0D083D082D0E032B6
:0E11C200C0E0C082C0835391EF90E65D7440A0
:0811D000F0D083D082D0E032A0
:0C11D800C020C0E0C0F0C082C083C00294
:0E11E400C003C004C005C006C007C000C001A3
:0E11F200C0D075D000C2E8120B03903A57E04F
:06120000FABA3002804240
:05120600BA3302803D37
:05120B00BA3802800F5B
:05121000BA3A02803330
:05121500BA3B02801548
:05121A00BA3D2280290D
:0E121F0090E68AE4F0120573E58290E68BF00B
:02122D00801926
:0E122F0090E68AE4F01207B9E58290E68BF0B3
:02123D00800926
:09123F0090E68AE4F090E68BF0E1
:0E1248005391EF90E65F7401F0D2E8D0D0D061
:0E12560001D000D007D006D005D004D003D0C0
:0C12640002D083D082D0F0D0E0D0203245
:0C127000C020C0E0C0F0C082C083C002FB
:0E127C00C003C004C005C006C007C000C0010A
:0E128A00C0D075D000C2E8903A58E0FA60205B
:0D129800903A58E4F090E6BFE0FB7A009039
:0E12A500E6BEE0FC7D00903A14EC4AF0ED4B02
:0512B300A3F0120B3056
:0D12B800120B03903A57E0FABA3102803B66
:0512C500BA3202803383
:0512CA00BA340280317E
:0512CF00BA3502802C7D
:0512D400BA390280059B
:0512D900BA3C24800B6B
:0B12DE0090E68BE0F5821205A7801758
:0B12E900903A06E0F51290E68BE0F56D
:0912F4001390E7401206C18003CB
:0312FD00120925AE
:0E13000090E68BE4F05391EF90E65F7402F0FC
:0E130E00903A14E0FAA3E0FB4A700890E6A0C3
:05131C00E0FA4480F03E
:0E132100D2E8D0D0D001D000D007D006D00541
:0E132F00D004D003D002D083D082D0F0D0E022
:03133D00D020328B
:0E134000C0E0C082C0835391EF90E65F74045A
:08134E00F0D083D082D0E03220
:0E135600C0E0C082C0835391EF90E65F740840
:08136400F0D083D082D0E0320A
:0E136C00C0E0C082C0835391EF90E65F741022
:08137A00F0D083D082D0E032F4
:0E138200C0E0C082C0835391EF90E65F7420FC
:08139000F0D083D082D0E032DE
:0E139800C0E0C082C0835391EF90E65F7440C6
:0813A600F0D083D082D0E032C8
:0E13AE00C0E0C082C0835391EF90E65F748070
:0813BC00F0D083D082D0E032B2
:0713C4007510007511039084
:0613CB003A0F1205D49058
:0E13D1003A0FE0FABA4324903A10E0FABA4418
:0E13DF001C903A11E0FABA3014903A077401EB
:0A13ED00F075101075110A90008AC7
:0513F7001205D4800581
:0513FC00903A07E4F047
:021401007A006F
:03140300BA0A0022
:0E1406005012EA248AF582E43400F583E0FBFC
:06141400BB30540A80E920
:07141A007510FB7511059030
:091421003A0F1205D47A007B0099
:03142A00BB0500FF
:0A142D00503CEB240FF582E4343A42
:0E143700F583E0FCEA248AFDE43400FEECC4F8
:0E144500540F90179493FF8D828E83F00AEA65
:0E145300248AFDE43400FE740F5C901794931D
:0A146100FC8D828E83F00A0B80BF21
:01146B00225E
:0E146C0090E680E04408F090E6007412F090E4
:0E147A000002120265538EF8D28143B202C204
:0E148800AFC2E89000437402F090004474017B
:0E149600F090004574B8F090E668E04408F06D
:0A14A4009001007402F07AC07B0B87
:0D14AE008B04900101ECF0900102EAF09037
:0A14BB0001047402F07A547B118BD7
:0E14C50004900105ECF0900106EAF090010899
:0A14D3007402F07A6A7B118B04901A
:0E14DD000109ECF090010AEAF090010C740293
:0A14EB00F07A807B118B0490010D54
:0E14F500ECF090010EEAF09001107402F07A13
:0A150300967B118B04900111ECF0AF
:0C150D00900112EAF09001147402F07AD0
:0A151900AC7B118B04900115ECF07F
:0C152300900116EAF09001187402F07AB2
:0A152F00C27B118B04900119ECF04F
:0C15390090011AEAF09001207402F07A90
:0A154500D87B118B04900121ECF01B
:0C154F00900122EAF09001247402F07A6E
:0A155B00707B128B04900125ECF068
:0C156500900126EAF09001287402F07A50
:0A157100407B138B04900129ECF07D
:0C157B0090012AEAF090012C7402F07A32
:0A158700567B138B0490012DECF04D
:0C15910090012EEAF09001307402F07A14
:0A159D006C7B138B04900131ECF01D
:0C15A700900132EAF09001347402F07AF6
:0A15B300827B138B04900135ECF0ED
:0C15BD00900136EAF09001387402F07AD8
:0A15C900987B138B04900139ECF0BD
:0C15D30090013AEAF090013C7402F07ABA
:0A15DF00AE7B138B0490013DECF08D
:0E15E90090013EEAF05391EF90E65D747FF0C2
:0E15F70090E65CE0FA447FF090E65F74FFF04F
:0E16050090E65E74FFF0D2E8D2AF90E611746A
:0E161300A0F00000000090E61074A0F00000AF
:0D162100000090E61274E2F000000000905E
:0E162E00E61374A2F00000000090E614E4F051
:0E163C000000000090E615E4F000000000122F
:0D164A0013C490E680E04482F090000A1284
:0A165700026590E680E054F7F022EF
:0316610012146CF4
:0E166400903A00E0FA60F990E6A4E0FA20E285
:0E167200F190E694E0FB7A0090E695E0FC7DB6
:0D168000004202ED4203EA4B70030216D94E
:0B168D00C3E49A74029B50030216D9BC
:0B16980090E6A3E0FC30E3030216D94B
:0416A3007C007D004A
:0E16A700C3EC9AED9B501B8C8274F42DF583DE
:0E16B500E0F5A08C8274F02DF583E590F00C2A
:0616C300BC00E10D80DE19
:0E16C90090E690EBF0000000007B0090E691B0
:0216D700EAF037
:0D16D9000000000090E6957480F002166499
:0516EA005A54455800B0
:0E16EF0075636563686F206578616D706C656A
:0E16FD0020666F722055464D20312E3135008B
:08170B0064656661756C7400F1
:0117130000D5
:0E17140012010002FFFFFF401A220001000038
:0417220001020301BC
:0A1726000A060002FFFFFF40010069
:0E17300009022E00010104C032090400000469
:0E173E00FFFFFF000705810200020007050102
:0E174C000200020007058202000200070504E9
:04175A000200020087
:02175E00000089
:0E17600009022E00010104C032090400000439
:0E176E00FFFFFF000705810240000007050194
:0E177C0002400000070582024000000705043D
:04178A000240000019
:02178E00000059
:04179000040300004E
:0E179400303132333435363738394142434430
:0317A200454600B9
:0217A500000042
:0117A7000041
:0E17A80001880101010101070207020202028D
:0E17B6000200040000000000000400360000E5
:0417C4000000003FE2
:0E17C800020190010101010702020702020264
:0E17D6000200040000000000000400003600C5
:0417E4000000003FC2
:0117E800FF01
:0117E90000FF
:0817EA000000000000000000F7
:06023700E478FFF6D8FD9B
:08021500794DE94400601B7AF9
:05021D00019017A57817
:03022200147592BE
:0A0225003AE493F2A308B8000205C2
:08022F0092D9F4DAF27592FF96
:08023D007800E84400600A7932
:03024500007592AF
:060248003AE4F309D8FCC2
:08024E007814E84400600C790B
:0B02560001903A00E4F0A3D8FCD9FAB4
:03020800758120DD
:0A020B001216E6E58260030202030A
:0416E60075820022E7
:00000001FF
