:03020000020208EF
:0302610002020393
:0502030012169580FEBB
:03000000020200F9
:0100030032CA
:01000B0032C2
:0100130032BA
:01001B0032B2
:0100230032AA
:01002B0032A2
:01003300329A
:01003B003292
:01004300328A
:01004B003282
:01005300327A
:01005B003272
:01006300326A
:0101000032CC
:0101040032C8
:0101080032C4
:01010C0032C0
:0101100032BC
:0101140032B8
:0101180032B4
:0101200032AC
:0101240032A8
:0101280032A4
:01012C0032A0
:01013000329C
:010134003298
:010138003294
:01013C003290
:01014000328C
:010148003284
:01014C003280
:01015000327C
:010154003278
:010158003274
:01015C003270
:01016000326C
:01017000325C
:010174003258
:010178003254
:01017C003250
:01018000324C
:010184003248
:010188003244
:01018C003240
:01019000323C
:010194003238
:010198003234
:01019C003230
:0101A000322C
:0101A8003224
:0101AC003220
:0101B000321C
:0101B4003218
:0101B8003214
:010264002277
:08026500AA82AB837C007D003E
:0B026D00C3EC9AED9B50147EB07F04A0
:050278001EBEFF011F86
:0B027D00EE4F70F70CBC00E80D80E5B0
:010288002253
:08028900AA82AB837C007D001A
:0B029100C3EC9AED9B50147E0A7F0026
:05029C001EBEFF011F62
:0B02A100EE4F70F70CBC00E80D80E58C
:0102AC00222F
:0E02AD0075AF0790E67BE090E67CF0DAF32276
:0102BB002220
:0202BC007A00C6
:0302BE00BAFF0084
:0D02C100500B90E678E0FB20E0030A80F08F
:0C02CE0090E678E0FA20E204EA20E10B60
:0B02DA0090E678E04440F075820122BD
:0402E50075820022FC
:0202E9007A0099
:0302EB00BAFF0057
:0D02EE00500B90E678E0FB20E0030A80F062
:0E02FB0090E678E0FA30E20B90E678E04440BE
:05030900F075820122E5
:04030E0075820022D2
:020312007A006F
:03031400BAFF002D
:0E031700500F90E678E0FB20E2047582002291
:030325000A80EC5F
:0403280075820122B7
:02032C007A0055
:03032E00BAFF0013
:0E033100500F90E678E0FB20E6047582002273
:03033F000A80EC45
:04034200758201229D
:09034600AA82C3E49508E433FB2C
:0E034F0090E678E04480F0C002C00312031272
:0E035D00D003D00290E679EAF0C002C003128D
:0C036B0002BCE582D003D0027012E5094C
:0C037700600A90E678E04440F012032C8D
:04038300758200225D
:0E038700EB601090000AC002C003120289D081
:0503950003D00280B559
:0C039A00E509600890E678E0FA4440F0C5
:0403A6007582012239
:0C03AA00AA82AB837C00E50C7003F58296
:0103B6002224
:0A03B7007508647509007582A2C084
:0E03C10002C003C004120346E582D004D0033C
:0703CF00D00260030204B03C
:0C03D60090E679E50BF0C002C003C00403
:0E03E2001202BCE582D004D003D002600302F8
:0203F00004B057
:0C03F20090E679E50AF0C002C003C004E8
:0E03FE001202BCE582D004D003D002600302DC
:02040C0004B03A
:0E040E0090E678E04440F0C002C003C0041243
:0D041C00032C90E678E04480F0120312906B
:0E042900E67974A3F01202BCE582D004D00381
:0E043700D002707590E679E08A828B83F0C067
:0E04450002C003C0041202E9E582D004D00315
:05045300D0027059FD0C
:0C045800C3ED950C502A90E679E08A82F2
:0E0464008B83F0A3AA82AB83C002C003C00446
:0E047200C0051202E9E582D005D004D003D007
:0804800002702D0D8D0480D0E7
:0E04880090E678E04420F090E679E0C004129F
:0E04960002E9E582D004701290E678E044405E
:0C04A400F090E679E0C00412032CD004B4
:0304B0008C822219
:0C04B300AA82AB837C00E50F7003F58289
:0104BF00221A
:0A04C0007508647509007582A2C07A
:0E04CA0002C003C004120346E582D004D00332
:0704D800D002600302057071
:0C04DF0090E679E50EF0C002C003C004F6
:0E04EB001202BCE582D004D003D002600302EE
:0204F90005708C
:0C04FB0090E679E50DF0C002C003C004DB
:0E0507001202BCE582D004D003D002705CFD6D
:0C051500C3ED950F50478A828B83E0FEF7
:0E052100A3AA82AB8390E679EEF0903A05E053
:0D052F00FFEE2FF0903A03E0FEA3E0FF90F6
:0E053C003A0374012EF0E43FA3F0C002C003A6
:0E054A00C004C0051202BCE582D005D004D06A
:0A05580003D00270130D8D0480B370
:0E05620090E678E04440F0C00412032CD00470
:030570008C822258
:0A057300903A18E0FA903A01E0F522
:06057D000AA3E0F50B8A61
:0C0583000C90E740C0021203AAAB82D02B
:0E058F00027C00903A01E0FDA3E0FE903A01EC
:0A059D00EA2DF0EC3EA3F08B822261
:0B05A700AA82903A01E0F50DA3E0F5F8
:0905B2000E8A0F90E740C002120E
:0E05BB0004B3D0027B00903A01E0FCA3E0FD07
:0B05C900903A01EA2CF0EB3DA3F02279
:0C05D400AA82AB837C00E5117003F58265
:0105E00022F8
:0A05E1007508647509007582A6C054
:0E05EB0002C003C004120346E582D004D00310
:0705F900D00260030206BE00
:0C06000090E679E510F0C002C003C004D1
:0E060C001202BCE582D004D003D002600302CB
:02061A0006BE1A
:0E061C0090E678E04440F0C002C003C0041233
:0D062A00032C90E678E04480F0120312905B
:0E063700E67974A7F01202BCE582D004D0036D
:0E064500D002707590E679E08A828B83F0C057
:0E06530002C003C0041202E9E582D004D00305
:05066100D0027059FDFC
:0C066600C3ED9511502A90E679E08A82DD
:0E0672008B83F0A3AA82AB83C002C003C00436
:0E068000C0051202E9E582D005D004D003D0F7
:08068E0002702D0D8D0480D0D7
:0E06960090E678E04420F090E679E0C004128F
:0E06A40002E9E582D004701290E678E044404E
:0C06B200F090E679E0C00412032CD004A4
:0306BE008C822209
:0C06C100AA82AB837C00E5137003F58275
:0106CD00220A
:0A06CE007508647509007582A6C066
:0E06D80002C003C004120346E582D004D00322
:0706E600D00260030207B01F
:0C06ED0090E679E512F0C002C003C004E2
:0E06F9001202BCE582D004D003D002600302DE
:0207070007B039
:04070900AD127E00AF
:09070D00C3EE951340030207A29C
:0E0716008A828B83E0FFA3AA82AB8390E679F0
:0D072400EFF0C002C003C004C005C0061203
:0E07310002BCE582D006D005D004D003D00271
:0C073F00706F0D8D120E8E04ED20E3C2D1
:0C074B00C3EE951350BC90E678E04440EB
:0E075700F0C002C003C004C005C00612032C8F
:0A0765007508647509007582A6127C
:0E076F000346E582D006D005D004D003D002A8
:0E077D00703190E679EDF0C002C003C004C0F8
:0E078B0005C0061202BCE582D006D005D004DF
:09079900D003D002701102070D1B
:0E07A20090E678E04440F0C00412032CD0042E
:0907B000903A06E512F08C822259
:0A07B900903A18E0FA903A06E0F5D5
:0907C300108A1190E740C00212F7
:0E07CC0005D4AB82D002903A06E0FCEA2CF095
:0307DA008B8222ED
:0E07DD0075B68075B10090000112026575B608
:0707EB0000903A0FE4F02238
:0E07F200E5B120E00C75B68075B100900001F5
:030800001202657C
:0908030075B600903A0FE4F022F2
:0E080C00903A00E4F090E6017480F0000000E5
:0E081A000090E671E4F090E672F0903A10E57E
:0E082800B4F0903A0F747BF053B46F43B440B9
:0E083600D2A675B6BC75B1089000021202651C
:0908440075B188C2A67A007B00A0
:0E084D00E5B120E1208A048B057E007F00C308
:0E085B00EC94FFED94FFEE9400EF6480948027
:0908690050070ABA00DE0B80DB27
:09087200E5B130E1047AC880020E
:02087B007A649D
:0E087D00903A0DEAF0903A09E4F0A3F0A3F0EF
:08088B00A3F0903A08E4F0220A
:0E08930090E60BE4F00000000090E601748097
:0E08A100F00000000090E6A3E0FA54FEF00024
:0E08AF0000000090E6A4E0FA54FEF000000005
:0E08BD000090E618E4F00000000090E619E458
:0E08CB00F00000000090E6047480F0000000D1
:0E08D9000090E6047402F00000000090E604B7
:0E08E7007404F00000000090E604E4F000004D
:0D08F500000090E6957480F0000000009077
:0C090200E6957480F0903A007401F02239
:09090E00E5B130E1047A16800223
:020917007A0B59
:0A091900903A0DE0FBEA2BF07A00A3
:03092300BA4000D7
:090926005007D2A6C2A60A80F413
:0E092F0043B104D2A6C2A6D2A6C2A6D2A6C2C8
:0E093D00A6D2A6C2A675B600903A10E0F5B498
:08094B00E5B130E0030208935E
:010953002281
:0C09540085B31475B3FF903A18E0FB90D7
:0E0960003A09E0FCA3E0FDA3E0FEA3E0FF786F
:0E096E000079007A00903A09EB2CF0E83DA3E6
:0E097C00F0E93EA3F0EA3FA3F090E68BE060C6
:0E098A0022FA759B40759AE775AF07903A0800
:05099800E0F990E67B90
:0E099D00E0F590D2A629F9C2A6DAF5903A0844
:0209AB00E9F071
:0B09AD008514B390E68BE0FABA40001E
:0509B800500302090ECE
:0109BD002217
:0E09BE0090E60174C2F090E6F3E4F090E6C318
:0E09CC00F090E6C1F090E6C27404F090E6C030
:0C09DA00744EF090E6F4E4F0759B197A7E
:0A09E600197B3A8B9A759E60759D8F
:0E09F000E4C0027A201202ADD00290E6C6E406
:0D09FE00F090E6C77410F090E6C8E4F090A9
:0E0A0B00E6C9F090E6CAF090E6CBF090E6CC9B
:0E0A1900E4F090E6CDF090E60B7401F00000E2
:0D0A2700000090E6047480F00000000090D4
:0E0A3400E6047404F00000000090E604E4F014
:0E0A42000000000090E619E4F00000000090B3
:0E0A5000E6197410F00000000090E6DA740160
:0E0A5E00F00000000090E6CE7401F0000000F1
:0E0A6C000090E6CFE4F00000000090E6D0E439
:0E0A7A00F00000000090E6D1E4F00000000063
:0E0A880090E6DC74FFF00000000053B4BF7570
:030A9600B19022FA
:01006C00286B
:01006D000191
:04006E005A54455843
:040072000A10000070
:010076000089
:010077000187
:060078006300000000001F
:0C007E0000000000000000000000000076
:0A008A00303030303030303030308C
:010A9900223A
:0E0A9A0090E683E4F07420F07410F07430F0F5
:0E0AA80090E6837401F07421F07411F0743143
:0E0AB600F090E6837412F07432F07404F07461
:030AC40024F022F9
:0A0AC700AA82E51624E0500375161C
:010AD1001F05
:0D0AD20090E6BFE0701090E6BEE0FBC3951B
:090ADF0016500690E6BEE0F51683
:0C0AE80075AF078A9B85159A759E4175B5
:0A0AF4009DE790E67C7403F07A00A1
:0C0AFE00C3EA9516501190E67BE0FB90D7
:0B0B0A00E67CF090E67CE4F00A80E955
:0B0B1500E5160425E0FA90E740F090A0
:0E0B2000E7417403F090E68AE4F090E68BEA79
:020B2E00F022B3
:0E0B3000903A16E0FAA3E0FBC374409AE49BEF
:080B3E0050067C407D0080049C
:040B46008A048B058D
:0E0B4A00903A18ECF07D00903A16EAC39CF049
:050B5800EB9DA3F0225B
:0A0B5D00903A59E0FABA31028049DB
:050B6700BA32028047D4
:050B6C00BA3402804EC6
:050B7100BA3502805CB2
:050B7600BA39028008FD
:050B7B00BA3C028027D6
:030B8000020BF174
:0E0B8300903A05E4F0903A03F0A3F090E6BB40
:0E0B9100E0FB7A0090E6BAE0FC7D00903A01AD
:080B9F00EC4AF0ED4BA3F0223B
:090BA70090E6BAE0903A06F02253
:030BB0000207DD5C
:090BB300903A0FE0FABA7B01222E
:030BBC0002080C20
:0E0BBF0012080C90E6A4E054FEF090E6F574E7
:050BCD00FFF00209BE6B
:0E0BD20075B18843B44090E6F574FFF0000062
:0E0BE000000090E601E0FA54F0F00000000082
:030BEE0002090EEB
:080BF10090E6A0E04401F022AF
:0C0BF900C020C0E0C0F0C082C083C00279
:0E0C0500C003C004C005C006C007C000C00187
:0E0C1300C0D075D00090E6B9E0FA903A59F0E2
:0E0C210090E6B57401F090E6B9E0FA24F350C5
:040C2F0003020FAFFE
:070C3300EA2A2A900C3A7333
:070C3A00020C61020D15021E
:060C41000FAF020D92024C
:060C47000FAF020FAF0227
:060C4D000E2A020F450211
:060C53000F47020F5802DA
:060C59000F5D020F6E02A8
:020C5F000F7311
:0A0C610090E6B8E0FABA8002800DB8
:050C6B00BA8102801EA9
:050C7000BA8202802F92
:030C7500020FAFBC
:0E0C780090E740E4F090E741F090E68AF090BB
:080C8600E68B7402F0020FAFCF
:0E0C8E0090E740E4F090E741F090E68AF090A5
:080C9C00E68B7402F0020FAFB9
:0C0CA40090E6BCE0FA600FBA0102801973
:050CB000BA800280057E
:050CB500BA812F801E32
:0E0CBA0090E6A0E0FA53020190E740EAF080D5
:010CC8003AF1
:0E0CC90090E6A1E0FA53020190E740EAF080C5
:010CD7002BF1
:0E0CD80090E6A2E0FA53020190E740EAF080B5
:010CE6001CF1
:0E0CE70090E6BCE0C31314540324A3F582E48A
:0E0CF50034E6F583E0FA53020190E740EAF09E
:0E0D030090E741E4F090E68AF090E68B7402EF
:040D1100F0020FAF2E
:0A0D150090E6B8E0FABA020280038B
:030D1F00020FAF11
:090D220090E6BAE06003020FAF95
:0C0D2B0090E6BCE0FA600FBA01028015EF
:050D3700BA80028005F6
:050D3C00BA81238016BE
:0B0D410090E6A0E0FA54FEF0020FAFB5
:0B0D4C0090E6A1E0FA54FEF0020FAFA9
:0B0D570090E6A2E0FA54FEF0020FAF9D
:0E0D620090E6BCE0C31314540324A3FAE43457
:0E0D7000E6FB90E6BCE0C31314540324A3F585
:0E0D7E0082E434E6F583E0FC5304FE8A828BA7
:060D8C0083ECF0020FAF42
:0A0D920090E6B8E0FABA020280030E
:030D9C00020FAF94
:090D9F0090E6BAE06003020FAF18
:0C0DA80090E6BCE0FA600FBA0102801473
:050DB400BA8002800579
:050DB900BA8120801446
:0A0DBE0090E6A0E0FA4401F0804145
:0A0DC80090E6A1E0FA4401F0803744
:0A0DD20090E6A2E0FA4401F0802D43
:0E0DDC0090E6BCE0C31314540324A3FAE434DD
:0E0DEA00E6FB90E6BCE0C31314540324A3F50B
:0E0DF80082E434E6F583E0FC4304FE8A828B3D
:030E060083ECF08A
:0E0E090090E6BCE05480C423541FFA90E6BC6F
:0E0E1700E0FB740F5B420290E683EAF0742069
:050E25004AF0020FAFCE
:0A0E2A0090E6BBE0FABA010280195D
:050E3400BA0202802655
:050E3900BA0302804D28
:060E3E00BA0603020EFEDD
:060E4400BA0703020F10C3
:030E4A00020F3B59
:0A0E4D007A707B1790E6B3EBF0908B
:080E5700E6B47470F0020FAF65
:0B0E5F0090E680E0FA30E7127A8C7B0E
:0A0E6A001790E6B3EBF090E6B474C5
:050E74008CF0020FAF3D
:0A0E79007ABC7B1790E6B3EBF09013
:080E8300E6B474BCF0020FAFED
:0A0E8B0090E6BAE0FABA0102800F07
:050E9500BA0202801CFE
:050E9A00BA03028029EB
:050E9F00BA044A803690
:060EA4007582377A377BEE
:040EAA00178B157518
:060EAE001605120AC7023E
:020EB4000FAF7E
:060EB60075823C7A3C7BD2
:040EBC00178B157506
:060EC000162B120AC70206
:020EC6000FAF6C
:0A0EC80075828A7A8A7B008B15750B
:060ED200160A120AC70215
:020ED8000FAF5A
:060EDA007582677A677B58
:040EE000178B1575E2
:060EE4001608120AC70205
:020EEA000FAF48
:0A0EEC007AEC7B1790E6B3EBF09070
:080EF600E6B474ECF0020FAF4A
:0A0EFE007A827B1790E6B3EBF090C8
:080F0800E6B47482F0020FAFA1
:0B0F100090E680E0FA30E7127ABC7B2C
:0A0F1B001790E6B3EBF090E6B47413
:050F2500BCF0020FAF5B
:0A0F2A007A8C7B1790E6B3EBF09091
:070F3400E6B4748CF0807438
:0A0F3B0090E6A0E0FA4401F0806A9D
:020F45008068C2
:0E0F470090E740E4F090E68AF090E68B7401AB
:030F5500F08057D2
:050F5800120A9A80520C
:0E0F5D0090E740E4F090E68AF090E68B740195
:030F6B00F08041D2
:050F6E00120A9A803C0C
:0E0F730090E6B8E0FABA823490E6BCE0C31310
:0B0F810014540325E0245BF582E434E7
:0C0F8C003AF583E4F0A3F090E685E090D5
:0D0F9800E740F090E684E0FA90E741F09029
:0A0FA500E68AE4F090E68B7402F097
:0B0FAF0090E6B8E0FABA4003021132ED
:050FBA00BAC002800333
:030FBF0002115CC0
:0E0FC20090E6BFE0FB7A0090E6BEE0FC7D000A
:0E0FD000903A16EC4AF0ED4BA3F0120B309065
:090FDE00E6B9E0FABA220280250E
:060FE700BA30030210CB3A
:060FED00BA3303021111EA
:050FF300BA3802803154
:050FF800BA3A02805529
:060FFD00BA3B0302109153
:06100300BA3D030210AA31
:03100900021128A9
:0E100C0090E6B5E4F090E68AF090E68B74284A
:0D101A00F090E6B3E4F090E6B4746CF002E0
:02102700115C5A
:0E10290090E6BBE0FB7A0090E6BAE0FC7D00AA
:0E103700903A01EC4AF0ED4BA3F090E68AE40B
:0D104500F0120573E58290E68BF002115C5D
:0E105200903A03E0FAA3E0FB8A0490E740EC3A
:0D106000F08B0290E741EAF0903A05E09035
:0A106D00E742F075080075090175EF
:0D10770082A2120346AA8290E743EAF0909D
:0D108400E68AE4F090E68B7404F002115C43
:0E10910090E6BAE0903A06F090E68AE4F0129B
:0B109F0007B9E58290E68BF002115CBF
:0A10AA007508007509017582A61291
:0E10B4000346AA8290E740EAF090E68AE4F054
:0910C20090E68B7401F002115C50
:0610CB00759B087A087B0A
:0C10D1003A8B9A759E417A417BE78B9D1B
:0E10DD00C0027A071202ADD002E5B130E00782
:0710EB0090E740E4F0800CE7
:0C10F20090E7407401F075B6001207DDB5
:0E10FE0090E7487401F090E68AE4F090E68BEB
:05110C007409F0804BA6
:0E11110090E7407404F090E741E4F090E68A25
:09111F00F090E68B7402F08034BC
:0A11280090E6A0E0FA4401F0802AEE
:0C11320090E6BFE0700690E6BEE060169C
:0E113E00903A5A7401F090E68BE4F05391EF72
:08114C0090E65D7401F08019CA
:08115400120B5D90E68BE4F044
:0E115C005391EF90E65D7401F090E6A0E0FA8A
:03116A004480F0CE
:0E116D00D0D0D001D000D007D006D005D004DD
:0D117B00D003D002D083D082D0F0D0E0D0DD
:02118800203213
:0E118A00C0E0C082C0835391EF90E65D740216
:08119800F0D083D082D0E032D8
:0E11A000C0E0C082C0835391EF90E65D7404FE
:0811AE00F0D083D082D0E032C2
:0E11B600C0E0C082C0835391EF90E65D7408E4
:0811C400F0D083D082D0E032AC
:0E11CC00C0E0C082C0835391EF90E65D7410C6
:0811DA00F0D083D082D0E03296
:0E11E200C0E0C082C0835391EF90E65D7420A0
:0811F000F0D083D082D0E03280
:0E11F800C0E0C082C0835391EF90E65D74406A
:08120600F0D083D082D0E03269
:0C120E00C020C0E0C0F0C082C083C0025D
:0E121A00C003C004C005C006C007C000C0016C
:0E122800C0D075D000C2E8120B30903A59E0E9
:06123600FABA300280420A
:05123C00BA3302803D01
:05124100BA3802800F25
:05124600BA3A028033FA
:05124B00BA3B02801512
:05125000BA3D228029D7
:0E12550090E68AE4F0120573E58290E68BF0D5
:021263008019F0
:0E12650090E68AE4F01207B9E58290E68BF07D
:021273008009F0
:0912750090E68AE4F090E68BF0AB
:0E127E005391EF90E65F7401F0D2E8D0D0D02B
:0E128C0001D000D007D006D005D004D003D08A
:0C129A0002D083D082D0F0D0E0D020320F
:0C12A600C020C0E0C0F0C082C083C002C5
:0E12B200C003C004C005C006C007C000C001D4
:0E12C000C0D075D000C2E8903A5AE0FA602023
:0D12CE00903A5AE4F090E6BFE0FB7A009001
:0E12DB00E6BEE0FC7D00903A16EC4AF0ED4BCA
:0512E900A3F0120B5DF3
:0D12EE00120B30903A59E0FABA3102803B01
:0512FB00BA320280334D
:05130000BA3402803147
:05130500BA3502802C46
:05130A00BA3902800564
:05130F00BA3C24800B34
:0B13140090E68BE0F5821205A7801721
:0B131F00903A06E0F51290E68BE0F536
:09132A001390E7401206C1800394
:0313330012095448
:0E13360090E68BE4F05391EF90E65F7402F0C6
:0E134400903A16E0FAA3E0FB4A700890E6A08B
:05135200E0FA4480F008
:0E135700D2E8D0D0D001D000D007D006D0050B
:0E136500D004D003D002D083D082D0F0D0E0EC
:03137300D0203255
:0E137600C0E0C082C0835391EF90E65F740424
:08138400F0D083D082D0E032EA
:0E138C00C0E0C082C0835391EF90E65F74080A
:08139A00F0D083D082D0E032D4
:0E13A200C0E0C082C0835391EF90E65F7410EC
:0813B000F0D083D082D0E032BE
:0E13B800C0E0C082C0835391EF90E65F7420C6
:0813C600F0D083D082D0E032A8
:0E13CE00C0E0C082C0835391EF90E65F744090
:0813DC00F0D083D082D0E03292
:0E13E400C0E0C082C0835391EF90E65F74803A
:0813F200F0D083D082D0E0327C
:0713FA00751000751103904E
:061401003A111205D4901F
:0E1407003A11E0FABA4324903A12E0FABA44DD
:0E1415001C903A13E0FABA3014903A077401B2
:0A142300F075101075110A90008A90
:05142D001205D480054A
:05143200903A07E4F010
:021437007A0039
:03143900BA0A00EC
:0E143C005012EA248AF582E43400F583E0FBC6
:06144A00BB30540A80E9EA
:071450007510FB75110590FA
:091457003A111205D47A007B0061
:03146000BB0500C9
:0A146300503CEB2411F582E4343A0A
:0E146D00F583E0FCEA248AFDE43400FEECC4C2
:0E147B00540F9017F093FF8D828E83F00AEAD3
:0E148900248AFDE43400FE740F5C9017F0938B
:0A149700FC8D828E83F00A0B80BFEB
:0114A1002228
:0E14A20090E680E04408F090E6007412F090AE
:0E14B0000002120265538EF81207F2C2AFC29C
:0E14BE00E89000437402F09000447401F09036
:0D14CC00004574B8F090E668E04408F09028
:0A14D90001007402F07AF97B0B8B1E
:0E14E30004900101ECF0900102EAF090010487
:0A14F1007402F07A8A7B118B0490DC
:0E14FB000105ECF0900106EAF0900108740281
:0A150900F07AA07B118B0490010919
:0E151300ECF090010AEAF090010C7402F07AFC
:0A152100B67B118B0490010DECF075
:0C152B0090010EEAF09001107402F07ABA
:0A153700CC7B118B04900111ECF045
:0C154100900112EAF09001147402F07A9C
:0A154D00E27B118B04900115ECF015
:0C155700900116EAF09001187402F07A7E
:0A156300F87B118B04900119ECF0E5
:0C156D0090011AEAF09001207402F07A5C
:0A1579000E7B128B04900121ECF0B0
:0C158300900122EAF09001247402F07A3A
:0A158F00A67B128B04900125ECF0FE
:0C159900900126EAF09001287402F07A1C
:0A15A500767B138B04900129ECF013
:0C15AF0090012AEAF090012C7402F07AFE
:0A15BB008C7B138B0490012DECF0E3
:0C15C50090012EEAF09001307402F07AE0
:0A15D100A27B138B04900131ECF0B3
:0C15DB00900132EAF09001347402F07AC2
:0A15E700B87B138B04900135ECF083
:0C15F100900136EAF09001387402F07AA4
:0A15FD00CE7B138B04900139ECF053
:0C16070090013AEAF090013C7402F07A85
:0A161300E47B138B0490013DECF022
:0E161D0090013EEAF05391EF90E65D747FF08D
:0E162B0090E65CE0FA447FF090E65F74FFF01A
:0E16390090E65E74FFF0D2E8D2AF90E6117436
:0E164700A0F00000000090E61074A0F000007B
:0D165500000090E61274E2F000000000902A
:0E166200E61374A2F00000000090E614E4F01D
:0E1670000000000090E615E4F00000000012FB
:0D167E0013FA90E680E04482F090000A121A
:0A168B00026590E680E054F7F022BB
:031695001214A28A
:0A16980090E6A4E05404FAB4010047
:0D16A200E433FA903A00E0FBEA5B60EA9066
:0E16AF00E694E0FB7A0090E695E0FC7D0042B8
:0B16BD0002ED4203EA4B700302172607
:0B16C800C3E49A74029B500302172633
:0B16D30090E6A3E0FC30E303021726C2
:0416DE007C007D000F
:0E16E200C3EC9AED9B50238C8274F42DF5839B
:0E16F000E0905001F08C0674F02DFF90500237
:0E16FE00E0F88E828F83F00CBC00D90D80D6F0
:0E170C0090E690EBF0000000007B0090E6916C
:0C171A00EAF00000000090E6487402F0C5
:0D1726000000000090E6957480F002169817
:051737005A5445580062
:0E173C006D6D696F206578616D706C6520665B
:0E174A006F72205A544558205553422D465078
:0E1758004741204D6F64756C6520322E31368E
:011766000082
:0817670064656661756C740095
:01176F000079
:0E17700012010002FFFFFF401A2200010000DC
:04177E000102030160
:0A1782000A060002FFFFFF4001000D
:0E178C0009022E00010104C03209040000040D
:0E179A00FFFFFF0007058102000200070501A6
:0E17A80002000200070582020002000705048D
:0417B600020002002B
:0217BA0000002D
:0E17BC0009022E00010104C0320904000004DD
:0E17CA00FFFFFF000705810240000007050138
:0E17D8000240000007058202400000070504E1
:0417E60002400000BD
:0217EA000000FD
:0417EC0004030000F2
:0E17F0003031323334353637383941424344D4
:0317FE004546005D
:021801000000E5
:0118030000E4
:0E180400018801010101010702070202020230
:0E181200020020000000000000200036000050
:041820000000003F85
:0E182400020190010101010702020702020207
:0E183200020020000000000000200000360030
:041840000000003F65
:01184400FFA4
:0118450000A2
:0818460000000000000000009A
:06023700E478FFF6D8FD9B
:08021500794DE94400601B7AF9
:05021D000190180178BA
:03022200167592BC
:0A0225003AE493F2A308B8000205C2
:08022F0092D9F4DAF27592FF96
:08023D007800E84400600A7932
:03024500007592AF
:060248003AE4F309D8FCC2
:08024E007816E84400600C7909
:0B02560001903A00E4F0A3D8FCD9FAB4
:03020800758120DD
:0A020B00121733E5826003020203BC
:041733007582002299
:00000001FF
