:03020000020208EF
:0302610002020393
:05020300121EC580FE83
:03000000020200F9
:0100030032CA
:01000B0032C2
:0100130032BA
:01001B0032B2
:0100230032AA
:01002B0032A2
:01003300329A
:01003B003292
:01004300328A
:01004B003282
:01005300327A
:01005B003272
:01006300326A
:0101000032CC
:0101040032C8
:0101080032C4
:01010C0032C0
:0101100032BC
:0101140032B8
:0101180032B4
:0101200032AC
:0101240032A8
:0101280032A4
:01012C0032A0
:01013000329C
:010134003298
:010138003294
:01013C003290
:01014000328C
:010148003284
:01014C003280
:01015000327C
:010154003278
:010158003274
:01015C003270
:01016000326C
:01017000325C
:010174003258
:010178003254
:01017C003250
:01018000324C
:010184003248
:010188003244
:01018C003240
:01019000323C
:010194003238
:010198003234
:01019C003230
:0101A000322C
:0101A8003224
:0101AC003220
:0101B000321C
:0101B4003218
:0101B8003214
:010264002277
:08026500AA82AB837C007D003E
:0B026D00C3EC9AED9B50147EB07F04A0
:050278001EBEFF011F86
:0B027D00EE4F70F70CBC00E80D80E5B0
:010288002253
:08028900AA82AB837C007D001A
:0B029100C3EC9AED9B50147E0A7F0026
:05029C001EBEFF011F62
:0B02A100EE4F70F70CBC00E80D80E58C
:0102AC00222F
:0E02AD0075AF0790E67BE090E67CF0DAF32276
:0102BB002220
:0E02BC0043B28074E645B454EFF5B485B6B68F
:0E02CA00D287C2A290E6A3E054FEF090E6A513
:0E02D800E0FA54FEF090E60174E3F00000003E
:0E02E6000090E60B7401F00000000090E604AA
:0E02F4007480F00000000090E6047402F00038
:0E03020000000090E6047404F000000000907B
:0E031000E604E4F00000000090E6187401F02E
:0E031E000000000090E6187409F000000000D6
:0E032C0090E6207402F00000000090E621E44C
:0E033A00F00000000090E61A7401F0000000D0
:0E0348000090E61A7411F00000000090E60923
:0E035600E4F00000000090E60274CAF000001F
:0B0364000000900002120265C2872218
:0E036F00E5821392A5D2A6001392A5C2A600A5
:0E037D001392A5D2A6001392A5C2A600139259
:0E038B00A5D2A6001392A5C2A6001392A5D279
:08039900A6001392A5C2A622E2
:0203A1007A00E0
:0E03A30090E68BE0FBC3EA9B5036EA2440F55F
:0E03B10082E434E7F583E0F582C00212036FA8
:0E03BF00D002903A00E0FBBB0411C2A5D2A709
:0D03CD00D2A6903A00E4F0C2A7C2A68006B6
:0603DA00903A00EB04F074
:0303E0000A80C0D0
:0103E30022F7
:0E03E400A2A4C2A60013A2A4D2A60013A2A433
:0E03F200C2A60013A2A4D2A60013A2A4C2A603
:0E0400000013A2A4D2A60013A2A4C2A6001349
:0D040E00A2A4D2A60013F58222758200225E
:07041B00903A33E0FA7B0088
:0E042200C3EB9A505A903A02E0FC7022C2A737
:0D043000C2A6903A01E0F582C002C003129E
:0D043D00036FD003D002D2A5D2A7D2A690A3
:06044A003A01E0FC04F0A1
:0E045000903A02E004903A025403F0EB24408C
:0E045E00FCE434E7FDC002C003C004C0051278
:0E046C0003E4AE82D005D004D003D0028C820F
:07047A008D83EEF00B80A161
:0B04810090E68AE4F090E68BEAF0229F
:02048C007A00F4
:03048E00BAFF00B2
:0D049100500B90E678E0FB20E0030A80F0BD
:0C049E0090E678E0FA20E204EA20E10B8E
:0B04AA0090E678E04440F075820122EB
:0404B500758200222A
:0204B9007A00C7
:0304BB00BAFF0085
:0D04BE00500B90E678E0FB20E0030A80F090
:0E04CB0090E678E0FA30E20B90E678E04440EC
:0504D900F07582012214
:0404DE007582002201
:0204E2007A009E
:0304E400BAFF005C
:0E04E700500F90E678E0FB20E20475820022C0
:0304F5000A80EC8E
:0404F80075820122E6
:0204FC007A0084
:0304FE00BAFF0042
:0E050100500F90E678E0FB20E60475820022A1
:03050F000A80EC73
:0405120075820122CB
:09051600AA82C3E49508E433FB5A
:0E051F0090E678E04480F0C002C0031204E2CF
:0E052D00D003D00290E679EAF0C002C00312BB
:0C053B00048CE582D003D0027012E509A8
:0C054700600A90E678E04440F01204FCEA
:04055300758200228B
:0E055700EB601090000AC002C003120289D0AF
:0505650003D00280B587
:0C056A00E509600890E678E0FA4440F0F3
:040576007582012267
:0C057A00AA82AB837C00E50C7003F582C4
:010586002252
:0A0587007508647509007582A2C0B2
:0E05910002C003C004120516E582D004D00398
:07059F00D002600302068098
:0C05A60090E679E50BF0C002C003C00431
:0E05B20012048CE582D004D003D00260030254
:0205C0000680B3
:0C05C20090E679E50AF0C002C003C00416
:0E05CE0012048CE582D004D003D00260030238
:0205DC00068097
:0E05DE0090E678E04440F0C002C003C0041272
:0D05EC0004FC90E678E04480F01204E290F8
:0E05F900E67974A3F012048CE582D004D003DE
:0E060700D002707590E679E08A828B83F0C095
:0E06150002C003C0041204B9E582D004D00371
:05062300D0027059FD3A
:0C062800C3ED950C502A90E679E08A8220
:0E0634008B83F0A3AA82AB83C002C003C00474
:0E064200C0051204B9E582D005D004D003D063
:0806500002702D0D8D0480D015
:0E06580090E678E04420F090E679E0C00412CD
:0E06660004B9E582D004701290E678E04440BA
:0C067400F090E679E0C0041204FCD00411
:030680008C822247
:0C068300AA82AB837C00E50F7003F582B7
:01068F002248
:0A0690007508647509007582A2C0A8
:0E069A0002C003C004120516E582D004D0038E
:0706A800D0026003020740CD
:0C06AF0090E679E50EF0C002C003C00424
:0E06BB0012048CE582D004D003D0026003024A
:0206C9000740E8
:0C06CB0090E679E50DF0C002C003C00409
:0E06D70012048CE582D004D003D002705CFDCA
:0C06E500C3ED950F50478A828B83E0FE26
:0E06F100A3AA82AB8390E679EEF0903A07E080
:0D06FF00FFEE2FF0903A05E0FEA3E0FF9023
:0E070C003A0574012EF0E43FA3F0C002C003D2
:0E071A00C004C00512048CE582D005D004D0C6
:0A07280003D00270130D8D0480B39E
:0E07320090E678E04440F0C0041204FCD004CD
:030740008C822286
:0A074300903A33E0FA903A03E0F533
:06074D000AA3E0F50B8A8F
:0C0753000C90E740C00212057AAB82D087
:0E075F00027C00903A03E0FDA3E0FE903A0316
:0A076D00EA2DF0EC3EA3F08B82228F
:0B077700AA82903A03E0F50DA3E0F524
:090782000E8A0F90E740C002123C
:0E078B000683D0027B00903A03E0FCA3E0FD61
:0B079900903A03EA2CF0EB3DA3F022A5
:0C07A400AA82AB837C00E5117003F58293
:0107B0002226
:0A07B1007508647509007582A6C082
:0E07BB0002C003C004120516E582D004D0036C
:0707C900D002600302088E5C
:0C07D00090E679E510F0C002C003C00400
:0E07DC0012048CE582D004D003D00260030228
:0207EA00088E77
:0E07EC0090E678E04440F0C002C003C0041262
:0D07FA0004FC90E678E04480F01204E290E8
:0E080700E67974A7F012048CE582D004D003C9
:0E081500D002707590E679E08A828B83F0C085
:0E08230002C003C0041204B9E582D004D00361
:05083100D0027059FD2A
:0C083600C3ED9511502A90E679E08A820B
:0E0842008B83F0A3AA82AB83C002C003C00464
:0E085000C0051204B9E582D005D004D003D053
:08085E0002702D0D8D0480D005
:0E08660090E678E04420F090E679E0C00412BD
:0E08740004B9E582D004701290E678E04440AA
:0C088200F090E679E0C0041204FCD00401
:03088E008C822237
:0C089100AA82AB837C00E5137003F582A3
:01089D002238
:0A089E007508647509007582A6C094
:0E08A80002C003C004120516E582D004D0037E
:0708B600D00260030209807B
:0C08BD0090E679E512F0C002C003C00410
:0E08C90012048CE582D004D003D0026003023A
:0208D700098096
:0408D900AD127E00DE
:0908DD00C3EE95134003020972F9
:0E08E6008A828B83E0FFA3AA82AB8390E6791F
:0D08F400EFF0C002C003C004C005C0061232
:0E090100048CE582D006D005D004D003D002CD
:0C090F00706F0D8D120E8E04ED20E3C2FF
:0C091B00C3EE951350BC90E678E0444019
:0E092700F0C002C003C004C005C0061204FCEC
:0A0935007508647509007582A612AA
:0E093F000516E582D006D005D004D003D00204
:0E094D00703190E679EDF0C002C003C004C026
:0E095B0005C00612048CE582D006D005D0043B
:09096900D003D00270110208DD78
:0E09720090E678E04440F0C0041204FCD0048B
:09098000903A08E512F08C822285
:0A098900903A33E0FA903A08E0F5E6
:09099300108A1190E740C0021225
:0E099C0007A4AB82D002903A08E0FCEA2CF0EF
:0309AA008B82221B
:0209AD00AA821C
:0A09AF00D280000000C280DAF722B7
:0E09B900A2A0D28033C280A2A0D28033C2801E
:0E09C700A2A0D28033C280A2A0D28033C28010
:0E09D500A2A0D28033C280A2A0D28033C28002
:0E09E300A2A0D28033C280A2A0D28033C280F4
:0709F100F58222758200224D
:0209F800AA163D
:0E09FA00A2A0D28033C280A2A0D28033C280DD
:0E0A0800A2A0D28033C280A2A0D28033C280CE
:0E0A1600A2A0D28033C280A2A0D28033C280C0
:0E0A2400A2A0D28033C280A2A0D28033C280B2
:050A3200F0A3DAC4226C
:0E0A3700E582339281D28033C2809281D280D8
:0E0A450033C2809281D28033C2809281D280EF
:0E0A530033C2809281D28033C2809281D280E1
:0E0A610033C2809281D28033C2809281D280D3
:040A6F0000C280221F
:020A7300AA16C1
:0E0A7500E0339281D28033C2809281D28033EE
:0E0A8300C2809281D28033C2809281D28033B1
:0E0A9100C2809281D28033C2809281D28033A3
:0E0A9F00C2809281D28033C2809281D280A325
:050AAD00C280DAC42242
:0B0AB200D2837582081209ADC28322B6
:080ABD00D2837582080209AD25
:0D0AC500903A167405F0120AB275820512FF
:060AD2000A377A007B00E8
:0E0AD800C002C0031209B9E582D003D002307B
:0E0AE600E02E8A048B057E007F00C3EC94FF97
:0E0AF400ED94FFEE9400EF6480948050157531
:0E0B02008200C002C0031209ADD003D0020A67
:060B1000BA00C50B80C213
:0C0B16001209B9E58230E0047A02800286
:020B22007A0057
:090B2400903A11EAF0120ABD90AA
:060B2D003A11E0F58222FE
:0E0B3300AA82AB8320830A903A117404F075F5
:030B410082042209
:0E0B440053B4FE43B20BC002C003120AC5E553
:0E0B520082D003D0026007903A11E0F58222B3
:0E0B6000903A0BE0FCA3E07D00EC24F8FCEDE5
:090B6E0034FFFD8CF005F0800657
:060B7700EA2AFAEB33FB51
:0E0B7D00D5F0F7903A16740BF0C002C00312C8
:0E0B8B000AB275820B120A37D0038B82C003A8
:0E0B9900120A37D003D0028A82120A37758200
:0E0BA70000120A377582081209AD758200220D
:040BB5007582002223
:030BB900020ABD70
:090BBC00120ABD903A1EE4F01289
:0D0BC5000AC5E5826007903A11E0F5822232
:0D0BD200903A167406F0120AB275820612EF
:060BDF000A37120ABD9066
:0C0BE5003A167402F0120AB27582021275
:0B0BF1000A37903A1BE0A3E0F58212E7
:0C0BFC000A37903A1BE0FAA3E08A82124C
:0C0C08000A37758200120A37758200223C
:0E0C1400AA82903A1EE0FB6012C002120BBCD6
:0D0C2200E582D0026007903A11E0F58222D1
:0A0C2F008A82120A37903A1DE09005
:0C0C39003A1D04F0903A1DE0FA701C9087
:0E0C45003A1BE0FAA3E0FB903A1B74012AF080
:0D0C5300E43BA3F0120ABD903A1E7401F0BC
:040C60007582002277
:0E0C6400AA82AB83903A1EE0FC6016C002C06C
:0D0C720003120BBCE582D003D00260079096
:060C7F003A11E0F58222AB
:090C8500903A1DE0FC700C85148E
:0A0C8E00168A828B83120A738067B6
:0B0C9800ECF4FC0CE5146006C3EC95C6
:030CA30014504F9B
:0C0CA6008C168A828B83C002C003C0043D
:0C0CB200120A73D004D003D002E514C372
:0C0CBE009CF514903A1BE0FDA3E0FE90B2
:0E0CCA003A1B74012DF0E43EA3F0903A1DE4B5
:0E0CD800F0EC2AFAE43BFBC002C003120BBC96
:0E0CE600E582D003D0026007903A11E0F5825B
:010CF40022DD
:080CF5008514168A828B83121C
:020CFD000A7378
:0A0CFF00903A1DE0FAE5142AF09087
:0E0D09003A1DE0FA701C903A1BE0FAA3E0FBE2
:0E0D1700903A1B74012AF0E43BA3F0120ABDCF
:060D2500903A1E7401F07B
:040D2B0075820022AB
:0E0D2F00AA82AB8320830A903A117404F075F7
:030D3D008204220B
:0E0D400053B4FE43B20BC002C003120AC5E555
:0E0D4E0082D003D0026007903A11E0F58222B5
:0E0D5C00903A1FEAF0A3EBF0903A0BE0FCA3F4
:0E0D6A00E07D00EC24F8FCED34FFFD8CF0057C
:030D7800F0800602
:060D7B00EA2AFAEB33FB4B
:0E0D8100D5F0F7903A1BEAF0A3EBF0903A1D84
:0D0D8F00E4F0903A167406F0C002C00312A2
:090D9C000AB2758206120A371230
:070DA5000ABD903A15E09031
:070DAC003A16F0120AB290A2
:0E0DB3003A15E0F582120A37D0038B82C00396
:0E0DC100120A37D003D0028A82120A377582D6
:080DCF0000120A37120ABD9060
:090DD7003A1E7401F0758200223D
:070DE000120ABD758200221A
:030DE700020ABD40
:0E0DEA00120ABD903A1FE0FAA3E0FB8A828B4A
:050DF80083A3020D2F92
:0E0DFD0090E671E4F0903A0A7401F0903A1119
:0D0E0B00E4F0903A0B7410F0A37480F090A6
:0E0E18003A1574D8F053B4FE43B20BD2837572
:0C0E260082001209AD903A167490F01290
:0C0E32000AB2758290120A3775821812FD
:080E3E0009AD1209B9E582902B
:070E46003A13F0120ABD90FF
:0C0E4D003A16749FF0120AB275829F12D0
:060E59000A377516039034
:060E5F003A171209F81217
:0A0E65000ABD903A19E0FABA100035
:0E0E6F00403DEA24E74038903A17E0903A12EE
:0E0E7D00F0903A18E0903A14F0EA24F0FA8A65
:090E8B00F005F07A017B008006FD
:060E9400EA2AFAEB33FB31
:0E0E9A00D5F0F7903A0DEAF0A3EBF0EB3395AC
:060EA800E0A3F0A3F0221C
:0E0EAE00903A0AE4F0903A117407F053B2F44F
:010EBC002213
:0A0EBD00903A33E0F51690E740127A
:0B0EC70009F8903A21E0FABA020E9000
:0D0ED2003A31E0FAA3E0FB4A7003020ABDCA
:010EDF0022F0
:0A0EE000903A33E0F51490E7401259
:0B0EEA000C64903A22E0FABA020E906D
:0D0EF5003A31E0FAA3E0FB4A7003020ABDA7
:010F020022CC
:0E0F0300AAB674BF5AF5F0748045F0F5B653E7
:0E0F1100B17F90000112026543B180903A2A30
:030F1F00E4F022D9
:0E0F220043B180AAB674BF5AF5F0748045F052
:0E0F3000F5B6E5B120E62453B17F740455B246
:0E0F3E00F5F0747045F0F5B274045580F5F0CE
:0E0F4C00742045F0F58090000112026543B15B
:010F5A008016
:060F5B00903A2AE4F022A6
:0E0F610090E6017480F00000000090E670E45D
:0E0F6F00F090E671F0903A2BE5B2F0903A2A3D
:0E0F7D00747BF053B204AAB674BF5AF5F07438
:0E0F8B008045F0F5B653B17F43B27274045541
:0D0F990080F5F0742245F0F58090000512FF
:0B0FA600026543B180C2817A007B002D
:0E0FB1002087208A048B057E007F00C3EC940D
:0E0FBF00FFED94FFEE9400EF648094805007E5
:070FCD000ABA00E00B80DD11
:0A0FD40043B2013087047AC880029E
:020FDE007A6433
:0E0FE000903A28EAF0903A24E4F0A3F0A3F04F
:080FEE00A3F0903A23E4F02285
:030FF6000202BC38
:070FF9003087047A16800224
:021000007A0B69
:0A100200903A28E0FBEA2BF07A0098
:03100C00BA4000E7
:09100F005007D280C2800A80F46F
:0E101800D281D280C280D280C280D280C280BB
:0E102600D280C280903A2BE0F5B2E5B130E600
:0410340003020FF6AE
:011038002295
:0C10390085B41575B4FF903A33E0FB90CD
:0E1045003A24E0FCA3E0FDA3E0FEA3E0FF7868
:0E1053000079007A00903A24EB2CF0E83DA3DF
:0E106100F0E93EA3F0EA3FA3F090E68BE060DA
:0E106F0022FA759B40759AE775AF07903A23F9
:05107D00E0F990E67BA4
:0E108200E0F5A0D28029F9C280DAF5903A2379
:02109000E9F085
:0B1092008515B490E68BE0FABA400030
:05109D005003020FF9F1
:0110A200222B
:01006C00286B
:01006D000191
:04006E005A54455843
:040072000A1300006D
:010076000089
:010077000187
:060078004710000000002B
:0C007E0000000000000000000000000076
:0A008A00303030303030303030308C
:0110A300222A
:0E10A40090E683E4F07420F07410F07430F0E5
:0E10B20090E6837401F07421F07411F0743133
:0E10C000F090E6837412F07432F07406F0744F
:0310CE0026F022E7
:0A10D100AA82E51724E0500375170A
:0110DB001FF5
:0D10DC0090E6BFE0701090E6BEE0FBC3950B
:0910E90017500690E6BEE0F51771
:0C10F20075AF078A9B85169A759E4175A4
:0A10FE009DE790E67C7403F07A0091
:0C110800C3EA9517501190E67BE0FB90C5
:0B111400E67CF090E67CE4F00A80E945
:0B111F00E5170425E0FA90E740F0908F
:0E112A00E7417403F090E68AE4F090E68BEA69
:02113800F022A3
:0E113A00903A31E0FAA3E0FBC374409AE49BC4
:0811480050067C407D0080048C
:041150008A048B057D
:0E115400903A33ECF07D00903A31EAC39CF003
:05116200EB9DA3F0224B
:0B116700903A34E0FABA310302121390
:06117200BA32030212165E
:05117800BA39028033CA
:05117D00BA3C028052A3
:05118200BA4202805694
:05118700BA60028008BF
:05118C00BA62028015AB
:0311910002122225
:09119400D28790E6BAE060012266
:09119D00900002120265C28722D3
:0A11A600903A00E4F0C2A7C2A622AE
:0E11B000903A07E4F0903A05F0A3F090E6BB09
:0E11BE00E0FB7A0090E6BAE0FC7D00903A0378
:0811CC00EC4AF0ED4BA3F02208
:0911D40090E6BAE0903A08F0221E
:0D11DD0090E6BDE0FA903A22F0EA704190F1
:0E11EA00E6BBE0FB7A0090E6BAE07D004AF535
:0D11F80082ED4BF583120D2FE582602690ED
:0E120500E6A0E04401F0903A31E4F0A3F022BC
:03121300020F03C4
:09121600903A2AE0FABA7B0122A9
:03121F00020F615A
:0812220090E6A0E0FA4401F09F
:01122A0022A1
:0C122B00C020C0E0C0F0C082C083C00240
:0E123700C003C004C005C006C007C000C0014F
:0E124500C0D075D00090E6B9E0FA903A34F0CF
:0E12530090E6B57401F090E6B9E0FA24F3508D
:04126100030215E18E
:07126500EA2A2A90126C73C3
:07126C000212930213470276
:0612730015E10213C402A4
:0612790015E10215E1027F
:06127F00145C0215770269
:06128500157902158A0232
:06128B00158F0215A00200
:0212910015A5A1
:0A12930090E6B8E0FABA8002800D80
:05129D00BA8102801E71
:0512A200BA8202802F5A
:0312A7000215E14C
:0E12AA0090E740E4F090E741F090E68AF09083
:0812B800E68B7402F00215E15F
:0E12C00090E740E4F090E741F090E68AF0906D
:0812CE00E68B7402F00215E149
:0C12D60090E6BCE0FA600FBA010280193B
:0512E200BA8002800546
:0512E700BA812F801EFA
:0E12EC0090E6A0E0FA53020190E740EAF0809D
:0112FA003AB9
:0E12FB0090E6A1E0FA53020190E740EAF0808D
:011309002BB8
:0E130A0090E6A2E0FA53020190E740EAF0807C
:011318001CB8
:0E13190090E6BCE0C31314540324A3F582E451
:0E13270034E6F583E0FA53020190E740EAF065
:0E13350090E741E4F090E68AF090E68B7402B7
:04134300F00215E1BE
:0A13470090E6B8E0FABA0202800353
:031351000215E1A1
:0913540090E6BAE060030215E125
:0C135D0090E6BCE0FA600FBA01028015B7
:05136900BA80028005BE
:05136E00BA8123801686
:0B13730090E6A0E0FA54FEF00215E145
:0B137E0090E6A1E0FA54FEF00215E139
:0B13890090E6A2E0FA54FEF00215E12D
:0E13940090E6BCE0C31314540324A3FAE4341F
:0E13A200E6FB90E6BCE0C31314540324A3F54D
:0E13B00082E434E6F583E0FC5304FE8A828B6F
:0613BE0083ECF00215E1D2
:0A13C40090E6B8E0FABA02028003D6
:0313CE000215E124
:0913D10090E6BAE060030215E1A8
:0C13DA0090E6BCE0FA600FBA010280143B
:0513E600BA8002800541
:0513EB00BA812080140E
:0A13F00090E6A0E0FA4401F080410D
:0A13FA0090E6A1E0FA4401F080370C
:0A14040090E6A2E0FA4401F0802D0A
:0E140E0090E6BCE0C31314540324A3FAE434A4
:0E141C00E6FB90E6BCE0C31314540324A3F5D2
:0E142A0082E434E6F583E0FC4304FE8A828B04
:0314380083ECF052
:0E143B0090E6BCE05480C423541FFA90E6BC37
:0E144900E0FB740F5B420290E683EAF0742031
:051457004AF00215E15E
:0A145C0090E6BBE0FABA0102801925
:05146600BA020280261D
:05146B00BA0302804DF0
:06147000BA06030215306C
:06147600BA070302154253
:03147C0002156DE9
:0A147F007AFC7B1E90E6B3EBF090C0
:08148900E6B474FCF00215E169
:0B14910090E680E0FA30E7127A187B4A
:0A149C001F90E6B3EBF090E6B47485
:0514A60018F00215E141
:0A14AB007A487B1F90E6B3EBF09047
:0814B500E6B47448F00215E1F1
:0A14BD0090E6BAE0FABA0102800FCF
:0514C700BA0202801CC6
:0514CC00BA03028029B3
:0514D100BA044A803658
:0614D6007582CE7ACE7B88
:0414DC001E8B1675D8
:0614E00017051210D102F5
:0214E60015E10E
:0614E8007582D37AD37B6C
:0414EE001E8B1675C6
:0614F20017201210D102C8
:0214F80015E1FC
:0A14FA0075828A7A8A7B008B1675D2
:06150400170A1210D102CB
:02150A0015E1E9
:06150C007582F37AF37B07
:041512001E8B1675A1
:0615160017081210D102BB
:02151C0015E1D7
:0A151E007A787B1F90E6B3EBF090A3
:08152800E6B47478F00215E14D
:0A1530007A0E7B1F90E6B3EBF090FB
:08153A00E6B4740EF00215E1A5
:0B15420090E680E0FA30E7127A487B68
:0A154D001F90E6B3EBF090E6B474D3
:0515570048F00215E15F
:0A155C007A187B1F90E6B3EBF090C5
:07156600E6B47418F0807474
:0A156D0090E6A0E0FA4401F0806A65
:0215770080688A
:0E15790090E740E4F090E68AF090E68B740173
:03158700F080579A
:05158A001210A48052C4
:0E158F0090E740E4F090E68AF090E68B74015D
:03159D00F080419A
:0515A0001210A4803CC4
:0E15A50090E6B8E0FABA823490E6BCE0C313D8
:0B15B30014540325E02436F582E434D4
:0C15BE003AF583E4F0A3F090E685E0909D
:0D15CA00E740F090E684E0FA90E741F090F1
:0A15D700E68AE4F090E68B7402F05F
:0B15E10090E6B8E0FABA40030218DC04
:0515EC00BAC0028003FB
:0315F100021906D6
:0E15F40090E6BFE0FB7A0090E6BEE0FC7D00D2
:0E160200903A31EC4AF0ED4BA3F012113A9001
:09161000E6B9E0FABA22028044B6
:06161900BA300302188242
:06161F00BA380302173780
:06162500BA3A030217604F
:06162B00BA3B0302179F09
:06163100BA3D030217B8E8
:06163700BA40030217D9BE
:06163D00BA410302180F80
:06164300BA430302185C2B
:05164900BA6102802CD3
:06164E00BA63030216DA84
:06165400BA64030216EF68
:03165A000218D2A1
:0E165D0090E6B5E4F090E68AF090E68B7428F3
:0D166B00F090E6B3E4F090E6B4746CF00289
:02167800190651
:0D167A00C2A1C2A243B40890E6BCE0FA9001
:0E168700E6BAE05A1392A3D2A1001392A3C2B6
:0E169500A1001392A3D2A1001392A3C2A153ED
:0E16A300B4F7D2A20000000000000000E50035
:0E16B100A2A3D2A13300A2A3C2A13300A2A320
:0E16BF00D2A13300A2A33390E740F0C2A29064
:0D16CD00E68AE4F090E68B7401F002190645
:0E16DA00903A02E4F090E6BCE0903A01F0C2D3
:0716E800A612041B02190603
:0D16EF0090E7407401F090E7417406F09020
:0E16FC00E7427402F090E7437401F090E74477
:0E170A00E4F090E745F090E746F090E747F0F6
:0E17180090E68AE4F0903A33E0FA24F75009A4
:0917260090E68B7408F00219062C
:08172F0090E68BEAF0021906B6
:0E17370090E6BBE0FB7A0090E6BAE0FC7D0095
:0E174500903A03EC4AF0ED4BA3F090E68AE4F4
:0D175300F0120743E58290E68BF0021906C4
:0E176000903A05E0FAA3E0FB8A0490E740EC23
:0D176E00F08B0290E741EAF0903A07E0901E
:0A177B00E742F075080075090175DA
:0D17850082A2120516AA8290E743EAF090B6
:0D179200E68AE4F090E68B7404F00219067C
:0E179F0090E6BAE0903A08F090E68AE4F01284
:0B17AD000989E58290E68BF002190626
:0A17B8007508007509017582A6127C
:0E17C2000516AA8290E740EAF090E68AE4F06D
:0917D00090E68B7401F002190689
:0E17D900903A11E0FA7009208306903A1174DC
:0217E70004F00C
:0617E900759B0A7A0A7BE1
:0C17EF003A8B9A759E40759DE7C0027A07
:0E17FB00081202ADD00290E68AE4F090E68B70
:061809007408F00219064C
:0D180F0090E6BDE0FA903A21F0EA702D90CD
:0E181C00E6BBE0FB7A0090E6BAE07D004AF5FC
:0D182A0082ED4BF583120B33E582601290C6
:0E183700E6A0E0FA4401F0903A31E4F0A3F0AC
:031845000219067F
:0E184800120EBD90E68AE4F0903A33E0FA907A
:06185600E68BF00219060A
:06185C00759B117A117B5F
:0C1862003A8B9A759E40759DE7C0027A93
:0E186E000A1202ADD00290E68AE4F090E68BFA
:06187C00740AF0021906D7
:06188200759B237A237B15
:0C1888003A8B9A759E417A417BE78B9D5C
:0E189400C0027A071202ADD002AAB674BF5A83
:0E18A200F5F0748045F0F5B6E5B130E607903C
:0618B000E740E4F08009AE
:0918B60090E7407401F0120F03E9
:0E18BF0090E7487401F090E68AE4F090E68B22
:0518CD007409F08034F5
:0A18D20090E6A0E0FA4401F0802A3D
:0C18DC0090E6BFE0700690E6BEE06016EB
:0E18E800903A357401F090E68BE4F05391EFE6
:0818F60090E65D7401F0801919
:0818FE0012116790E68BE4F083
:0E1906005391EF90E65D7401F090E6A0E0FAD8
:031914004480F01C
:0E191700D0D0D001D000D007D006D005D0042B
:0D192500D003D002D083D082D0F0D0E0D02B
:02193200203261
:0E193400C0E0C082C0835391EF90E65D740264
:08194200F0D083D082D0E03226
:0E194A00C0E0C082C0835391EF90E65D74044C
:08195800F0D083D082D0E03210
:0E196000C0E0C082C0835391EF90E65D740832
:08196E00F0D083D082D0E032FA
:0E197600C0E0C082C0835391EF90E65D741014
:08198400F0D083D082D0E032E4
:0E198C00C0E0C082C0835391EF90E65D7420EE
:08199A00F0D083D082D0E032CE
:0E19A200C0E0C082C0835391EF90E65D7440B8
:0819B000F0D083D082D0E032B8
:0C19B800C020C0E0C0F0C082C083C002AC
:0E19C400C003C004C005C006C007C000C001BB
:0E19D200C0D075D000C2E812113A903A34E04D
:0719E000FABA3003021A6895
:0519E700BA3802803453
:0619EC00BA3A03021A687A
:0519F200BA3B02803940
:0619F700BA3D03021A686C
:0519FD00BA4002806603
:051A0200BA4102803929
:051A0700BA4302805CFF
:051A0C00BA61028057E1
:051A1100BA630280052C
:051A1600BA6446804D9A
:051A1B0012041B8048CD
:0E1A200090E68AE4F0120743E58290E68BF030
:021A2E008038FE
:0E1A300090E68AE4F0120989E58290E68BF0D8
:021A3E008028FE
:0D1A4000903A33E0FA6008903A11E4F01299
:021A4D000EBDCC
:0E1A4F0090E68AE4F0903A33E0FA90E68BF0ED
:021A5D008009FE
:091A5F0090E68AE4F090E68BF0B9
:0E1A68005391EF90E65F7401F0D2E8D0D0D039
:0E1A760001D000D007D006D005D004D003D098
:0C1A840002D083D082D0F0D0E0D020321D
:0C1A9000C020C0E0C0F0C082C083C002D3
:0E1A9C00C003C004C005C006C007C000C001E2
:0E1AAA00C0D075D000C2E8903A35E0FA602056
:0D1AB800903A35E4F090E6BFE0FB7A009034
:0E1AC500E6BEE0FC7D00903A31EC4AF0ED4BBD
:051AD300A3F0121167F1
:0C1AD80012113A903A34E0FABA310302DD
:021AE4001B5392
:051AE600BA3202806528
:051AEB00BA390280176A
:051AF000BA3C02801D5C
:051AF500BA4202802C42
:051AFA00BA60028054F7
:081AFF00BA62511203A1804CF0
:0B1B070090E68BE0F58212077780412A
:0B1B1200903A08E0F51290E68BE0F539
:091B1D001390E740120891802D9D
:0D1B2600903A33E0FA6026903A11E4F01294
:0A1B33000EE0903A11E0FA6017127C
:0E1B3D000ABD90E6A0E0FA4401F0903A31E4CF
:051B4B00F0A3F080038F
:031B500012103937
:0E1B530090E68BE4F05391EF90E65F7402F0A1
:0E1B6100903A31E0FAA3E0FB4A700890E6A04B
:051B6F00E0FA4480F0E3
:0E1B7400D2E8D0D0D001D000D007D006D005E6
:0E1B8200D004D003D002D083D082D0F0D0E0C7
:031B9000D0203230
:0E1B9300C0E0C082C0835391EF90E65F7404FF
:081BA100F0D083D082D0E032C5
:0E1BA900C0E0C082C0835391EF90E65F7408E5
:081BB700F0D083D082D0E032AF
:0E1BBF00C0E0C082C0835391EF90E65F7410C7
:081BCD00F0D083D082D0E03299
:0E1BD500C0E0C082C0835391EF90E65F7420A1
:081BE300F0D083D082D0E03283
:0E1BEB00C0E0C082C0835391EF90E65F74406B
:081BF900F0D083D082D0E0326D
:0E1C0100C0E0C082C0835391EF90E65F748014
:081C0F00F0D083D082D0E03256
:071C17007510007511039028
:061C1E003A2C1207A4900D
:0E1C24003A2CE0FABA4324903A2DE0FABA4482
:0E1C32001C903A2EE0FABA3014903A09740170
:0A1C4000F075101075110A90008A6B
:051C4A001207A4800553
:051C4F00903A09E4F0E9
:021C54007A0014
:031C5600BA0A00C7
:0E1C59005012EA248AF582E43400F583E0FBA1
:061C6700BB30540A80E9C5
:071C6D007510FB75110590D5
:091C74003A2C1207A47A007B004F
:031C7D00BB0500A4
:0A1C8000503CEB242CF582E4343ACA
:0E1C8A00F583E0FCEA248AFDE43400FEECC49D
:0E1C9800540F901F7C93FF8D828E83F00AEA1A
:0E1CA600248AFDE43400FE740F5C901F7C93D2
:0A1CB400FC8D828E83F00A0B80BFC6
:011CBE002203
:0E1CBF0090E680E04408F090E6007412F09089
:0E1CCD000002120265538EF8120F22C2AFC23F
:0E1CDB00E89000437402F09000447401F09011
:0D1CE900004574B8F090E668E04408F09003
:0A1CF60001007402F07A2B7B128BC0
:0E1D000004900101ECF0900102EAF090010461
:0A1D0E007402F07A347B198B049004
:0E1D18000105ECF0900106EAF090010874025B
:0A1D2600F07A4A7B198B0490010942
:0E1D3000ECF090010AEAF090010C7402F07AD7
:0A1D3E00607B198B0490010DECF09E
:0C1D480090010EEAF09001107402F07A95
:0A1D5400767B198B04900111ECF06E
:0C1D5E00900112EAF09001147402F07A77
:0A1D6A008C7B198B04900115ECF03E
:0C1D7400900116EAF09001187402F07A59
:0A1D8000A27B198B04900119ECF00E
:0C1D8A0090011AEAF09001207402F07A37
:0A1D9600B87B198B04900121ECF0DA
:0C1DA000900122EAF09001247402F07A15
:0A1DAC00907B1A8B04900125ECF0E7
:0C1DB600900126EAF09001287402F07AF7
:0A1DC200937B1B8B04900129ECF0C9
:0C1DCC0090012AEAF090012C7402F07AD9
:0A1DD800A97B1B8B0490012DECF099
:0C1DE20090012EEAF09001307402F07ABB
:0A1DEE00BF7B1B8B04900131ECF069
:0C1DF800900132EAF09001347402F07A9D
:0A1E0400D57B1B8B04900135ECF038
:0C1E0E00900136EAF09001387402F07A7E
:0A1E1A00EB7B1B8B04900139ECF008
:0C1E240090013AEAF090013C7402F07A60
:0A1E3000017B1C8B0490013DECF0D7
:0E1E3A0090013EEAF05391EF90E65D747FF068
:0E1E480090E65CE0FA447FF090E65F74FFF0F5
:0E1E560090E65E74FFF0D2E8D2AF90E6117411
:0E1E6400A0F00000000090E61074A0F0000056
:0D1E7200000090E61274E0F0000000009007
:0E1E7F00E613E4F00000000090E61474A0F0FA
:0E1E8D000000000090E615E4F00000000012D6
:0D1E9B000DFD903A0AE0FA70099000FA126D
:051EA8000265120DFDB2
:0E1EAD00121C1790E680E04482F090000A12AA
:0A1EBB00026590E680E054F7F02283
:031EC500121CBF2D
:021EC80080FE9A
:051ECE005A54455800C4
:0E1ED3005553422D46504741204D6F64756CAB
:0E1EE1006520322E30342064656661756C74A5
:041EEF002046570032
:081EF30064656661756C740002
:011EFB0000E6
:0E1EFC0012010002FFFFFF401A220001000049
:041F0A0001020301CC
:0A1F0E000A060002FFFFFF40010079
:0E1F180009022E00010104C032090400000479
:0E1F2600FFFFFF000705810200020007050112
:0E1F34000200020007058202000200070506F7
:041F42000200020097
:021F4600000099
:0E1F480009022E00010104C032090400000449
:0E1F5600FFFFFF0007058102400000070501A4
:0E1F640002400000070582024000000705064B
:041F72000240000029
:021F7600000069
:041F7800040300005E
:0E1F7C00303132333435363738394142434440
:031F8A00454600C9
:021F8D00000052
:011F8F000051
:011F9000FF51
:011F9100004F
:081F9200000000000000000047
:06023700E478FFF6D8FD9B
:08021500790DE94400601B7A39
:05021D0001901F8D7827
:03022200317592A1
:0A0225003AE493F2A308B8000205C2
:08022F0092D9F4DAF27592FF96
:08023D007800E84400600A7932
:03024500007592AF
:060248003AE4F309D8FCC2
:08024E007831E84400600C79EE
:0B02560001903A00E4F0A3D8FCD9FAB4
:03020800758120DD
:0A020B00121ECAE58260030202031E
:041ECA0075820022FB
:00000001FF
